{
  "_format": "hh-sol-artifact-1",
  "contractName": "RentalVault",
  "sourceName": "contracts/RentalVault.sol",
  "abi": [
    {
      "inputs": [],
      "stateMutability": "nonpayable",
      "type": "constructor"
    },
    {
      "inputs": [],
      "name": "carRentalContract",
      "outputs": [
        {
          "internalType": "address",
          "name": "",
          "type": "address"
        }
      ],
      "stateMutability": "view",
      "type": "function"
    },
    {
      "inputs": [],
      "name": "deposit",
      "outputs": [],
      "stateMutability": "payable",
      "type": "function"
    },
    {
      "inputs": [
        {
          "internalType": "address",
          "name": "to",
          "type": "address"
        },
        {
          "internalType": "uint256",
          "name": "amount",
          "type": "uint256"
        }
      ],
      "name": "refund",
      "outputs": [],
      "stateMutability": "nonpayable",
      "type": "function"
    },
    {
      "inputs": [
        {
          "internalType": "address",
          "name": "_addr",
          "type": "address"
        }
      ],
      "name": "setRentalContract",
      "outputs": [],
      "stateMutability": "nonpayable",
      "type": "function"
    }
  ],
  "bytecode": "0x608060405234801561001057600080fd5b50336000806101000a81548173ffffffffffffffffffffffffffffffffffffffff021916908373ffffffffffffffffffffffffffffffffffffffff160217905550610596806100606000396000f3fe60806040526004361061003f5760003560e01c8063050cd9fb14610044578063410085df1461006f5780635a63427e14610098578063d0e30db0146100c1575b600080fd5b34801561005057600080fd5b506100596100cb565b6040516100669190610342565b60405180910390f35b34801561007b57600080fd5b50610096600480360381019061009191906103c4565b6100ef565b005b3480156100a457600080fd5b506100bf60048036038101906100ba9190610404565b61022e565b005b6100c9610271565b005b60008054906101000a900473ffffffffffffffffffffffffffffffffffffffff1681565b60008054906101000a900473ffffffffffffffffffffffffffffffffffffffff1673ffffffffffffffffffffffffffffffffffffffff163373ffffffffffffffffffffffffffffffffffffffff161461017d576040517f08c379a00000000000000000000000000000000000000000000000000000000081526004016101749061048e565b60405180910390fd5b60008273ffffffffffffffffffffffffffffffffffffffff16826040516101a3906104df565b60006040518083038185875af1925050503d80600081146101e0576040519150601f19603f3d011682016040523d82523d6000602084013e6101e5565b606091505b5050905080610229576040517f08c379a000000000000000000000000000000000000000000000000000000000815260040161022090610540565b60405180910390fd5b505050565b806000806101000a81548173ffffffffffffffffffffffffffffffffffffffff021916908373ffffffffffffffffffffffffffffffffffffffff16021790555050565b60008054906101000a900473ffffffffffffffffffffffffffffffffffffffff1673ffffffffffffffffffffffffffffffffffffffff163373ffffffffffffffffffffffffffffffffffffffff16146102ff576040517f08c379a00000000000000000000000000000000000000000000000000000000081526004016102f69061048e565b60405180910390fd5b565b600073ffffffffffffffffffffffffffffffffffffffff82169050919050565b600061032c82610301565b9050919050565b61033c81610321565b82525050565b60006020820190506103576000830184610333565b92915050565b600080fd5b61036b81610321565b811461037657600080fd5b50565b60008135905061038881610362565b92915050565b6000819050919050565b6103a18161038e565b81146103ac57600080fd5b50565b6000813590506103be81610398565b92915050565b600080604083850312156103db576103da61035d565b5b60006103e985828601610379565b92505060206103fa858286016103af565b9150509250929050565b60006020828403121561041a5761041961035d565b5b600061042884828501610379565b91505092915050565b600082825260208201905092915050565b7f556e617574686f72697a65640000000000000000000000000000000000000000600082015250565b6000610478600c83610431565b915061048382610442565b602082019050919050565b600060208201905081810360008301526104a78161046b565b9050919050565b600081905092915050565b50565b60006104c96000836104ae565b91506104d4826104b9565b600082019050919050565b60006104ea826104bc565b9150819050919050565b7f526566756e64206661696c656400000000000000000000000000000000000000600082015250565b600061052a600d83610431565b9150610535826104f4565b602082019050919050565b600060208201905081810360008301526105598161051d565b905091905056fea2646970667358221220b574c2063f87da8dde8fde217069486eeda07c44bd31efad492fb03d62e20bca64736f6c63430008140033",
  "linkReferences": {},
  "deployedLinkReferences": {}
}