{"contracts/CarRental.sol":{"CarRental":{"abi":[{"inputs":[{"internalType":"address","name":"_carRegistry","type":"address"},{"internalType":"address","name":"_kycManager","type":"address"},{"internalType":"address","name":"_vault","type":"address"}],"stateMutability":"nonpayable","type":"constructor"},{"anonymous":false,"inputs":[{"indexed":false,"internalType":"string","name":"plateNumber","type":"string"},{"indexed":false,"internalType":"address","name":"renter","type":"address"}],"name":"CarRented","type":"event"},{"anonymous":false,"inputs":[{"indexed":false,"internalType":"string","name":"plateNumber","type":"string"},{"indexed":false,"internalType":"address","name":"renter","type":"address"}],"name":"CarReturned","type":"event"},{"inputs":[],"name":"carRegistry","outputs":[{"internalType":"contract ICarRegistry","name":"","type":"address"}],"stateMutability":"view","type":"function"},{"inputs":[{"internalType":"string","name":"plateNumber","type":"string"}],"name":"completeRental","outputs":[],"stateMutability":"nonpayable","type":"function"},{"inputs":[{"internalType":"bytes32","name":"","type":"bytes32"}],"name":"deposits","outputs":[{"internalType":"uint256","name":"","type":"uint256"}],"stateMutability":"view","type":"function"},{"inputs":[{"internalType":"string","name":"plateNumber","type":"string"}],"name":"getDeposit","outputs":[{"internalType":"uint256","name":"","type":"uint256"}],"stateMutability":"view","type":"function"},{"inputs":[{"internalType":"address","name":"owner","type":"address"}],"name":"getOwnerRevenue","outputs":[{"internalType":"uint256","name":"","type":"uint256"}],"stateMutability":"view","type":"function"},{"inputs":[{"internalType":"string","name":"plateNumber","type":"string"}],"name":"getRentalInfo","outputs":[{"internalType":"address","name":"renter","type":"address"},{"internalType":"uint256","name":"amountPaid","type":"uint256"},{"internalType":"uint256","name":"timestamp","type":"uint256"},{"internalType":"bool","name":"returned","type":"bool"}],"stateMutability":"view","type":"function"},{"inputs":[],"name":"kycManager","outputs":[{"internalType":"contract IKYCManager","name":"","type":"address"}],"stateMutability":"view","type":"function"},{"inputs":[{"internalType":"address","name":"","type":"address"}],"name":"ownerRevenue","outputs":[{"internalType":"uint256","name":"","type":"uint256"}],"stateMutability":"view","type":"function"},{"inputs":[{"internalType":"string","name":"plateNumber","type":"string"}],"name":"rentCar","outputs":[],"stateMutability":"payable","type":"function"},{"inputs":[{"internalType":"string","name":"","type":"string"}],"name":"rentalRecords","outputs":[{"internalType":"address","name":"renter","type":"address"},{"internalType":"uint256","name":"amountPaid","type":"uint256"},{"internalType":"uint256","name":"timestamp","type":"uint256"},{"internalType":"bool","name":"returned","type":"bool"}],"stateMutability":"view","type":"function"},{"inputs":[],"name":"vault","outputs":[{"internalType":"contract IRentalVault","name":"","type":"address"}],"stateMutability":"view","type":"function"}],"evm":{"bytecode":{"linkReferences":{},"object":"60e06040523480156200001157600080fd5b5060405162001cbe38038062001cbe833981810160405281019062000037919062000146565b8273ffffffffffffffffffffffffffffffffffffffff1660808173ffffffffffffffffffffffffffffffffffffffff16815250508173ffffffffffffffffffffffffffffffffffffffff1660a08173ffffffffffffffffffffffffffffffffffffffff16815250508073ffffffffffffffffffffffffffffffffffffffff1660c08173ffffffffffffffffffffffffffffffffffffffff1681525050505050620001a2565b600080fd5b600073ffffffffffffffffffffffffffffffffffffffff82169050919050565b60006200010e82620000e1565b9050919050565b620001208162000101565b81146200012c57600080fd5b50565b600081519050620001408162000115565b92915050565b600080600060608486031215620001625762000161620000dc565b5b600062000172868287016200012f565b935050602062000185868287016200012f565b925050604062000198868287016200012f565b9150509250925092565b60805160a05160c051611abb620002036000396000818161061c01528181610ad60152610ed00152600081816107240152610d16015260008181610356015281816103ab015281816105620152818161082e0152610c440152611abb6000f3fe60806040526004361061009c5760003560e01c806372fd3d3e1161006457806372fd3d3e146101ac5780637afea44f146101c85780637fd84313146101f3578063d20747a814610233578063f04d237c14610270578063fbfa77cf146102b05761009c565b80630e0b54d5146100a15780632822d2bf146100de5780633d4dff7b1461011b57806358685ddb1461015857806368a4cb8814610183575b600080fd5b3480156100ad57600080fd5b506100c860048036038101906100c39190610f64565b6102db565b6040516100d59190610faa565b60405180910390f35b3480156100ea57600080fd5b5061010560048036038101906101009190610f64565b610324565b6040516101129190610faa565b60405180910390f35b34801561012757600080fd5b50610142600480360381019061013d9190610ffb565b61033c565b60405161014f9190610faa565b60405180910390f35b34801561016457600080fd5b5061016d610354565b60405161017a9190611087565b60405180910390f35b34801561018f57600080fd5b506101aa60048036038101906101a591906111e8565b610378565b005b6101c660048036038101906101c191906111e8565b610722565b005b3480156101d457600080fd5b506101dd610d14565b6040516101ea9190611252565b60405180910390f35b3480156101ff57600080fd5b5061021a600480360381019061021591906111e8565b610d38565b60405161022a9493929190611297565b60405180910390f35b34801561023f57600080fd5b5061025a600480360381019061025591906111e8565b610dab565b6040516102679190610faa565b60405180910390f35b34801561027c57600080fd5b50610297600480360381019061029291906111e8565b610df2565b6040516102a79493929190611297565b60405180910390f35b3480156102bc57600080fd5b506102c5610ece565b6040516102d291906112fd565b60405180910390f35b6000600260008373ffffffffffffffffffffffffffffffffffffffff1673ffffffffffffffffffffffffffffffffffffffff168152602001908152602001600020549050919050565b60026020528060005260406000206000915090505481565b60006020528060005260406000206000915090505481565b7f000000000000000000000000000000000000000000000000000000000000000081565b60008160405160200161038b9190611389565b6040516020818303038152906040528051906020012090506000806000807f000000000000000000000000000000000000000000000000000000000000000073ffffffffffffffffffffffffffffffffffffffff1663479487e3876040518263ffffffff1660e01b815260040161040291906113ea565b600060405180830381865afa15801561041f573d6000803e3d6000fd5b505050506040513d6000823e3d601f19601f8201168201806040525081019061044891906114f6565b96509650965050505093506000845103610497576040517f08c379a000000000000000000000000000000000000000000000000000000000815260040161048e90611638565b60405180910390fd5b600160028111156104ab576104aa611658565b5b60ff168360ff16146104f2576040517f08c379a00000000000000000000000000000000000000000000000000000000081526004016104e9906116d3565b60405180910390fd5b3373ffffffffffffffffffffffffffffffffffffffff168273ffffffffffffffffffffffffffffffffffffffff1614610560576040517f08c379a00000000000000000000000000000000000000000000000000000000081526004016105579061173f565b60405180910390fd5b7f000000000000000000000000000000000000000000000000000000000000000073ffffffffffffffffffffffffffffffffffffffff166336749547876040518263ffffffff1660e01b81526004016105b991906113ea565b600060405180830381600087803b1580156105d357600080fd5b505af11580156105e7573d6000803e3d6000fd5b5050505060008060008781526020019081526020016000205490506000806000888152602001908152602001600020819055507f000000000000000000000000000000000000000000000000000000000000000073ffffffffffffffffffffffffffffffffffffffff1663410085df84836040518363ffffffff1660e01b815260040161067592919061175f565b600060405180830381600087803b15801561068f57600080fd5b505af11580156106a3573d6000803e3d6000fd5b50505050600180886040516106b89190611389565b908152602001604051809103902060030160006101000a81548160ff0219169083151502179055507f464998be95d2dcfe9eb1b41fb03df16114842e7e953e097073c18289ba3051c68784604051610711929190611788565b60405180910390a150505050505050565b7f000000000000000000000000000000000000000000000000000000000000000073ffffffffffffffffffffffffffffffffffffffff16638846594b336040518263ffffffff1660e01b815260040161077b91906117b8565b602060405180830381865afa158015610798573d6000803e3d6000fd5b505050506040513d601f19601f820116820180604052508101906107bc91906117ff565b6107fb576040517f08c379a00000000000000000000000000000000000000000000000000000000081526004016107f290611878565b60405180910390fd5b60008160405160200161080e9190611389565b6040516020818303038152906040528051906020012090506000806000807f000000000000000000000000000000000000000000000000000000000000000073ffffffffffffffffffffffffffffffffffffffff1663479487e3876040518263ffffffff1660e01b815260040161088591906113ea565b600060405180830381865afa1580156108a2573d6000803e3d6000fd5b505050506040513d6000823e3d601f19601f820116820180604052508101906108cb91906114f6565b9650509550955050509350600084510361091a576040517f08c379a000000000000000000000000000000000000000000000000000000000815260040161091190611638565b60405180910390fd5b6000600281111561092e5761092d611658565b5b60ff168260ff1614610975576040517f08c379a000000000000000000000000000000000000000000000000000000000815260040161096c906118e4565b60405180910390fd5b600083905060008490506000818361098d9190611933565b9050803410156109d2576040517f08c379a00000000000000000000000000000000000000000000000000000000081526004016109c9906119b3565b60405180910390fd5b60008473ffffffffffffffffffffffffffffffffffffffff16846040516109f890611a04565b60006040518083038185875af1925050503d8060008114610a35576040519150601f19603f3d011682016040523d82523d6000602084013e610a3a565b606091505b5050905080610a7e576040517f08c379a0000000000000000000000000000000000000000000000000000000008152600401610a7590611a65565b60405180910390fd5b86600260008773ffffffffffffffffffffffffffffffffffffffff1673ffffffffffffffffffffffffffffffffffffffff1681526020019081526020016000206000828254610acd9190611933565b925050819055507f000000000000000000000000000000000000000000000000000000000000000073ffffffffffffffffffffffffffffffffffffffff1663d0e30db0846040518263ffffffff1660e01b81526004016000604051808303818588803b158015610b3c57600080fd5b505af1158015610b50573d6000803e3d6000fd5b5050505050826000808b81526020019081526020016000208190555060405180608001604052803373ffffffffffffffffffffffffffffffffffffffff1681526020013481526020014281526020016000151581525060018b604051610bb69190611389565b908152602001604051809103902060008201518160000160006101000a81548173ffffffffffffffffffffffffffffffffffffffff021916908373ffffffffffffffffffffffffffffffffffffffff160217905550602082015181600101556040820151816002015560608201518160030160006101000a81548160ff0219169083151502179055509050507f000000000000000000000000000000000000000000000000000000000000000073ffffffffffffffffffffffffffffffffffffffff1663c1208b9d8b336040518363ffffffff1660e01b8152600401610c9d929190611788565b600060405180830381600087803b158015610cb757600080fd5b505af1158015610ccb573d6000803e3d6000fd5b505050507fe0903df489d90288745389e699f476635bf4b26eaabf03f19d342cc921c54f6c8a33604051610d00929190611788565b60405180910390a150505050505050505050565b7f000000000000000000000000000000000000000000000000000000000000000081565b6001818051602081018201805184825260208301602085012081835280955050505050506000915090508060000160009054906101000a900473ffffffffffffffffffffffffffffffffffffffff16908060010154908060020154908060030160009054906101000a900460ff16905084565b60008082604051602001610dbf9190611389565b60405160208183030381529060405280519060200120905060008082815260200190815260200160002054915050919050565b6000806000806000600186604051610e0a9190611389565b90815260200160405180910390206040518060800160405290816000820160009054906101000a900473ffffffffffffffffffffffffffffffffffffffff1673ffffffffffffffffffffffffffffffffffffffff1673ffffffffffffffffffffffffffffffffffffffff16815260200160018201548152602001600282015481526020016003820160009054906101000a900460ff161515151581525050905080600001518160200151826040015183606001519450945094509450509193509193565b7f000000000000000000000000000000000000000000000000000000000000000081565b6000604051905090565b600080fd5b600080fd5b600073ffffffffffffffffffffffffffffffffffffffff82169050919050565b6000610f3182610f06565b9050919050565b610f4181610f26565b8114610f4c57600080fd5b50565b600081359050610f5e81610f38565b92915050565b600060208284031215610f7a57610f79610efc565b5b6000610f8884828501610f4f565b91505092915050565b6000819050919050565b610fa481610f91565b82525050565b6000602082019050610fbf6000830184610f9b565b92915050565b6000819050919050565b610fd881610fc5565b8114610fe357600080fd5b50565b600081359050610ff581610fcf565b92915050565b60006020828403121561101157611010610efc565b5b600061101f84828501610fe6565b91505092915050565b6000819050919050565b600061104d61104861104384610f06565b611028565b610f06565b9050919050565b600061105f82611032565b9050919050565b600061107182611054565b9050919050565b61108181611066565b82525050565b600060208201905061109c6000830184611078565b92915050565b600080fd5b600080fd5b6000601f19601f8301169050919050565b7f4e487b7100000000000000000000000000000000000000000000000000000000600052604160045260246000fd5b6110f5826110ac565b810181811067ffffffffffffffff82111715611114576111136110bd565b5b80604052505050565b6000611127610ef2565b905061113382826110ec565b919050565b600067ffffffffffffffff821115611153576111526110bd565b5b61115c826110ac565b9050602081019050919050565b82818337600083830152505050565b600061118b61118684611138565b61111d565b9050828152602081018484840111156111a7576111a66110a7565b5b6111b2848285611169565b509392505050565b600082601f8301126111cf576111ce6110a2565b5b81356111df848260208601611178565b91505092915050565b6000602082840312156111fe576111fd610efc565b5b600082013567ffffffffffffffff81111561121c5761121b610f01565b5b611228848285016111ba565b91505092915050565b600061123c82611054565b9050919050565b61124c81611231565b82525050565b60006020820190506112676000830184611243565b92915050565b61127681610f26565b82525050565b60008115159050919050565b6112918161127c565b82525050565b60006080820190506112ac600083018761126d565b6112b96020830186610f9b565b6112c66040830185610f9b565b6112d36060830184611288565b95945050505050565b60006112e782611054565b9050919050565b6112f7816112dc565b82525050565b600060208201905061131260008301846112ee565b92915050565b600081519050919050565b600081905092915050565b60005b8381101561134c578082015181840152602081019050611331565b60008484015250505050565b600061136382611318565b61136d8185611323565b935061137d81856020860161132e565b80840191505092915050565b60006113958284611358565b915081905092915050565b600082825260208201905092915050565b60006113bc82611318565b6113c681856113a0565b93506113d681856020860161132e565b6113df816110ac565b840191505092915050565b6000602082019050818103600083015261140481846113b1565b905092915050565b600061141f61141a84611138565b61111d565b90508281526020810184848401111561143b5761143a6110a7565b5b61144684828561132e565b509392505050565b600082601f830112611463576114626110a2565b5b815161147384826020860161140c565b91505092915050565b61148581610f91565b811461149057600080fd5b50565b6000815190506114a28161147c565b92915050565b600060ff82169050919050565b6114be816114a8565b81146114c957600080fd5b50565b6000815190506114db816114b5565b92915050565b6000815190506114f081610f38565b92915050565b600080600080600080600060e0888a03121561151557611514610efc565b5b600088015167ffffffffffffffff81111561153357611532610f01565b5b61153f8a828b0161144e565b975050602088015167ffffffffffffffff8111156115605761155f610f01565b5b61156c8a828b0161144e565b965050604088015167ffffffffffffffff81111561158d5761158c610f01565b5b6115998a828b0161144e565b95505060606115aa8a828b01611493565b94505060806115bb8a828b016114cc565b93505060a06115cc8a828b016114e1565b92505060c06115dd8a828b016114e1565b91505092959891949750929550565b7f436172206e6f7420666f756e6400000000000000000000000000000000000000600082015250565b6000611622600d836113a0565b915061162d826115ec565b602082019050919050565b6000602082019050818103600083015261165181611615565b9050919050565b7f4e487b7100000000000000000000000000000000000000000000000000000000600052602160045260246000fd5b7f436172206973206e6f742063757272656e746c792072656e7465640000000000600082015250565b60006116bd601b836113a0565b91506116c882611687565b602082019050919050565b600060208201905081810360008301526116ec816116b0565b9050919050565b7f596f7520617265206e6f74207468652072656e74657200000000000000000000600082015250565b60006117296016836113a0565b9150611734826116f3565b602082019050919050565b600060208201905081810360008301526117588161171c565b9050919050565b6000604082019050611774600083018561126d565b6117816020830184610f9b565b9392505050565b600060408201905081810360008301526117a281856113b1565b90506117b1602083018461126d565b9392505050565b60006020820190506117cd600083018461126d565b92915050565b6117dc8161127c565b81146117e757600080fd5b50565b6000815190506117f9816117d3565b92915050565b60006020828403121561181557611814610efc565b5b6000611823848285016117ea565b91505092915050565b7f4b5943206e6f7420617070726f76656400000000000000000000000000000000600082015250565b60006118626010836113a0565b915061186d8261182c565b602082019050919050565b6000602082019050818103600083015261189181611855565b9050919050565b7f436172206973206e6f7420617661696c61626c65000000000000000000000000600082015250565b60006118ce6014836113a0565b91506118d982611898565b602082019050919050565b600060208201905081810360008301526118fd816118c1565b9050919050565b7f4e487b7100000000000000000000000000000000000000000000000000000000600052601160045260246000fd5b600061193e82610f91565b915061194983610f91565b925082820190508082111561196157611960611904565b5b92915050565b7f496e73756666696369656e74207061796d656e74000000000000000000000000600082015250565b600061199d6014836113a0565b91506119a882611967565b602082019050919050565b600060208201905081810360008301526119cc81611990565b9050919050565b600081905092915050565b50565b60006119ee6000836119d3565b91506119f9826119de565b600082019050919050565b6000611a0f826119e1565b9150819050919050565b7f5061796d656e7420746f206f776e6572206661696c6564000000000000000000600082015250565b6000611a4f6017836113a0565b9150611a5a82611a19565b602082019050919050565b60006020820190508181036000830152611a7e81611a42565b905091905056fea26469706673582212204473c9a829431fa45a6f4ed813f9e518691c01f163fe5a49b1f9a0ed7d87deaa64736f6c63430008140033","opcodes":"PUSH1 0xE0 PUSH1 0x40 MSTORE CALLVALUE DUP1 ISZERO PUSH3 0x11 JUMPI PUSH1 0x0 DUP1 REVERT JUMPDEST POP PUSH1 0x40 MLOAD PUSH3 0x1CBE CODESIZE SUB DUP1 PUSH3 0x1CBE DUP4 CODECOPY DUP2 DUP2 ADD PUSH1 0x40 MSTORE DUP2 ADD SWAP1 PUSH3 0x37 SWAP2 SWAP1 PUSH3 0x146 JUMP JUMPDEST DUP3 PUSH20 0xFFFFFFFFFFFFFFFFFFFFFFFFFFFFFFFFFFFFFFFF AND PUSH1 0x80 DUP2 PUSH20 0xFFFFFFFFFFFFFFFFFFFFFFFFFFFFFFFFFFFFFFFF AND DUP2 MSTORE POP POP DUP2 PUSH20 0xFFFFFFFFFFFFFFFFFFFFFFFFFFFFFFFFFFFFFFFF AND PUSH1 0xA0 DUP2 PUSH20 0xFFFFFFFFFFFFFFFFFFFFFFFFFFFFFFFFFFFFFFFF AND DUP2 MSTORE POP POP DUP1 PUSH20 0xFFFFFFFFFFFFFFFFFFFFFFFFFFFFFFFFFFFFFFFF AND PUSH1 0xC0 DUP2 PUSH20 0xFFFFFFFFFFFFFFFFFFFFFFFFFFFFFFFFFFFFFFFF AND DUP2 MSTORE POP POP POP POP POP PUSH3 0x1A2 JUMP JUMPDEST PUSH1 0x0 DUP1 REVERT JUMPDEST PUSH1 0x0 PUSH20 0xFFFFFFFFFFFFFFFFFFFFFFFFFFFFFFFFFFFFFFFF DUP3 AND SWAP1 POP SWAP2 SWAP1 POP JUMP JUMPDEST PUSH1 0x0 PUSH3 0x10E DUP3 PUSH3 0xE1 JUMP JUMPDEST SWAP1 POP SWAP2 SWAP1 POP JUMP JUMPDEST PUSH3 0x120 DUP2 PUSH3 0x101 JUMP JUMPDEST DUP2 EQ PUSH3 0x12C JUMPI PUSH1 0x0 DUP1 REVERT JUMPDEST POP JUMP JUMPDEST PUSH1 0x0 DUP2 MLOAD SWAP1 POP PUSH3 0x140 DUP2 PUSH3 0x115 JUMP JUMPDEST SWAP3 SWAP2 POP POP JUMP JUMPDEST PUSH1 0x0 DUP1 PUSH1 0x0 PUSH1 0x60 DUP5 DUP7 SUB SLT ISZERO PUSH3 0x162 JUMPI PUSH3 0x161 PUSH3 0xDC JUMP JUMPDEST JUMPDEST PUSH1 0x0 PUSH3 0x172 DUP7 DUP3 DUP8 ADD PUSH3 0x12F JUMP JUMPDEST SWAP4 POP POP PUSH1 0x20 PUSH3 0x185 DUP7 DUP3 DUP8 ADD PUSH3 0x12F JUMP JUMPDEST SWAP3 POP POP PUSH1 0x40 PUSH3 0x198 DUP7 DUP3 DUP8 ADD PUSH3 0x12F JUMP JUMPDEST SWAP2 POP POP SWAP3 POP SWAP3 POP SWAP3 JUMP JUMPDEST PUSH1 0x80 MLOAD PUSH1 0xA0 MLOAD PUSH1 0xC0 MLOAD PUSH2 0x1ABB PUSH3 0x203 PUSH1 0x0 CODECOPY PUSH1 0x0 DUP2 DUP2 PUSH2 0x61C ADD MSTORE DUP2 DUP2 PUSH2 0xAD6 ADD MSTORE PUSH2 0xED0 ADD MSTORE PUSH1 0x0 DUP2 DUP2 PUSH2 0x724 ADD MSTORE PUSH2 0xD16 ADD MSTORE PUSH1 0x0 DUP2 DUP2 PUSH2 0x356 ADD MSTORE DUP2 DUP2 PUSH2 0x3AB ADD MSTORE DUP2 DUP2 PUSH2 0x562 ADD MSTORE DUP2 DUP2 PUSH2 0x82E ADD MSTORE PUSH2 0xC44 ADD MSTORE PUSH2 0x1ABB PUSH1 0x0 RETURN INVALID PUSH1 0x80 PUSH1 0x40 MSTORE PUSH1 0x4 CALLDATASIZE LT PUSH2 0x9C JUMPI PUSH1 0x0 CALLDATALOAD PUSH1 0xE0 SHR DUP1 PUSH4 0x72FD3D3E GT PUSH2 0x64 JUMPI DUP1 PUSH4 0x72FD3D3E EQ PUSH2 0x1AC JUMPI DUP1 PUSH4 0x7AFEA44F EQ PUSH2 0x1C8 JUMPI DUP1 PUSH4 0x7FD84313 EQ PUSH2 0x1F3 JUMPI DUP1 PUSH4 0xD20747A8 EQ PUSH2 0x233 JUMPI DUP1 PUSH4 0xF04D237C EQ PUSH2 0x270 JUMPI DUP1 PUSH4 0xFBFA77CF EQ PUSH2 0x2B0 JUMPI PUSH2 0x9C JUMP JUMPDEST DUP1 PUSH4 0xE0B54D5 EQ PUSH2 0xA1 JUMPI DUP1 PUSH4 0x2822D2BF EQ PUSH2 0xDE JUMPI DUP1 PUSH4 0x3D4DFF7B EQ PUSH2 0x11B JUMPI DUP1 PUSH4 0x58685DDB EQ PUSH2 0x158 JUMPI DUP1 PUSH4 0x68A4CB88 EQ PUSH2 0x183 JUMPI JUMPDEST PUSH1 0x0 DUP1 REVERT JUMPDEST CALLVALUE DUP1 ISZERO PUSH2 0xAD JUMPI PUSH1 0x0 DUP1 REVERT JUMPDEST POP PUSH2 0xC8 PUSH1 0x4 DUP1 CALLDATASIZE SUB DUP2 ADD SWAP1 PUSH2 0xC3 SWAP2 SWAP1 PUSH2 0xF64 JUMP JUMPDEST PUSH2 0x2DB JUMP JUMPDEST PUSH1 0x40 MLOAD PUSH2 0xD5 SWAP2 SWAP1 PUSH2 0xFAA JUMP JUMPDEST PUSH1 0x40 MLOAD DUP1 SWAP2 SUB SWAP1 RETURN JUMPDEST CALLVALUE DUP1 ISZERO PUSH2 0xEA JUMPI PUSH1 0x0 DUP1 REVERT JUMPDEST POP PUSH2 0x105 PUSH1 0x4 DUP1 CALLDATASIZE SUB DUP2 ADD SWAP1 PUSH2 0x100 SWAP2 SWAP1 PUSH2 0xF64 JUMP JUMPDEST PUSH2 0x324 JUMP JUMPDEST PUSH1 0x40 MLOAD PUSH2 0x112 SWAP2 SWAP1 PUSH2 0xFAA JUMP JUMPDEST PUSH1 0x40 MLOAD DUP1 SWAP2 SUB SWAP1 RETURN JUMPDEST CALLVALUE DUP1 ISZERO PUSH2 0x127 JUMPI PUSH1 0x0 DUP1 REVERT JUMPDEST POP PUSH2 0x142 PUSH1 0x4 DUP1 CALLDATASIZE SUB DUP2 ADD SWAP1 PUSH2 0x13D SWAP2 SWAP1 PUSH2 0xFFB JUMP JUMPDEST PUSH2 0x33C JUMP JUMPDEST PUSH1 0x40 MLOAD PUSH2 0x14F SWAP2 SWAP1 PUSH2 0xFAA JUMP JUMPDEST PUSH1 0x40 MLOAD DUP1 SWAP2 SUB SWAP1 RETURN JUMPDEST CALLVALUE DUP1 ISZERO PUSH2 0x164 JUMPI PUSH1 0x0 DUP1 REVERT JUMPDEST POP PUSH2 0x16D PUSH2 0x354 JUMP JUMPDEST PUSH1 0x40 MLOAD PUSH2 0x17A SWAP2 SWAP1 PUSH2 0x1087 JUMP JUMPDEST PUSH1 0x40 MLOAD DUP1 SWAP2 SUB SWAP1 RETURN JUMPDEST CALLVALUE DUP1 ISZERO PUSH2 0x18F JUMPI PUSH1 0x0 DUP1 REVERT JUMPDEST POP PUSH2 0x1AA PUSH1 0x4 DUP1 CALLDATASIZE SUB DUP2 ADD SWAP1 PUSH2 0x1A5 SWAP2 SWAP1 PUSH2 0x11E8 JUMP JUMPDEST PUSH2 0x378 JUMP JUMPDEST STOP JUMPDEST PUSH2 0x1C6 PUSH1 0x4 DUP1 CALLDATASIZE SUB DUP2 ADD SWAP1 PUSH2 0x1C1 SWAP2 SWAP1 PUSH2 0x11E8 JUMP JUMPDEST PUSH2 0x722 JUMP JUMPDEST STOP JUMPDEST CALLVALUE DUP1 ISZERO PUSH2 0x1D4 JUMPI PUSH1 0x0 DUP1 REVERT JUMPDEST POP PUSH2 0x1DD PUSH2 0xD14 JUMP JUMPDEST PUSH1 0x40 MLOAD PUSH2 0x1EA SWAP2 SWAP1 PUSH2 0x1252 JUMP JUMPDEST PUSH1 0x40 MLOAD DUP1 SWAP2 SUB SWAP1 RETURN JUMPDEST CALLVALUE DUP1 ISZERO PUSH2 0x1FF JUMPI PUSH1 0x0 DUP1 REVERT JUMPDEST POP PUSH2 0x21A PUSH1 0x4 DUP1 CALLDATASIZE SUB DUP2 ADD SWAP1 PUSH2 0x215 SWAP2 SWAP1 PUSH2 0x11E8 JUMP JUMPDEST PUSH2 0xD38 JUMP JUMPDEST PUSH1 0x40 MLOAD PUSH2 0x22A SWAP5 SWAP4 SWAP3 SWAP2 SWAP1 PUSH2 0x1297 JUMP JUMPDEST PUSH1 0x40 MLOAD DUP1 SWAP2 SUB SWAP1 RETURN JUMPDEST CALLVALUE DUP1 ISZERO PUSH2 0x23F JUMPI PUSH1 0x0 DUP1 REVERT JUMPDEST POP PUSH2 0x25A PUSH1 0x4 DUP1 CALLDATASIZE SUB DUP2 ADD SWAP1 PUSH2 0x255 SWAP2 SWAP1 PUSH2 0x11E8 JUMP JUMPDEST PUSH2 0xDAB JUMP JUMPDEST PUSH1 0x40 MLOAD PUSH2 0x267 SWAP2 SWAP1 PUSH2 0xFAA JUMP JUMPDEST PUSH1 0x40 MLOAD DUP1 SWAP2 SUB SWAP1 RETURN JUMPDEST CALLVALUE DUP1 ISZERO PUSH2 0x27C JUMPI PUSH1 0x0 DUP1 REVERT JUMPDEST POP PUSH2 0x297 PUSH1 0x4 DUP1 CALLDATASIZE SUB DUP2 ADD SWAP1 PUSH2 0x292 SWAP2 SWAP1 PUSH2 0x11E8 JUMP JUMPDEST PUSH2 0xDF2 JUMP JUMPDEST PUSH1 0x40 MLOAD PUSH2 0x2A7 SWAP5 SWAP4 SWAP3 SWAP2 SWAP1 PUSH2 0x1297 JUMP JUMPDEST PUSH1 0x40 MLOAD DUP1 SWAP2 SUB SWAP1 RETURN JUMPDEST CALLVALUE DUP1 ISZERO PUSH2 0x2BC JUMPI PUSH1 0x0 DUP1 REVERT JUMPDEST POP PUSH2 0x2C5 PUSH2 0xECE JUMP JUMPDEST PUSH1 0x40 MLOAD PUSH2 0x2D2 SWAP2 SWAP1 PUSH2 0x12FD JUMP JUMPDEST PUSH1 0x40 MLOAD DUP1 SWAP2 SUB SWAP1 RETURN JUMPDEST PUSH1 0x0 PUSH1 0x2 PUSH1 0x0 DUP4 PUSH20 0xFFFFFFFFFFFFFFFFFFFFFFFFFFFFFFFFFFFFFFFF AND PUSH20 0xFFFFFFFFFFFFFFFFFFFFFFFFFFFFFFFFFFFFFFFF AND DUP2 MSTORE PUSH1 0x20 ADD SWAP1 DUP2 MSTORE PUSH1 0x20 ADD PUSH1 0x0 KECCAK256 SLOAD SWAP1 POP SWAP2 SWAP1 POP JUMP JUMPDEST PUSH1 0x2 PUSH1 0x20 MSTORE DUP1 PUSH1 0x0 MSTORE PUSH1 0x40 PUSH1 0x0 KECCAK256 PUSH1 0x0 SWAP2 POP SWAP1 POP SLOAD DUP2 JUMP JUMPDEST PUSH1 0x0 PUSH1 0x20 MSTORE DUP1 PUSH1 0x0 MSTORE PUSH1 0x40 PUSH1 0x0 KECCAK256 PUSH1 0x0 SWAP2 POP SWAP1 POP SLOAD DUP2 JUMP JUMPDEST PUSH32 0x0 DUP2 JUMP JUMPDEST PUSH1 0x0 DUP2 PUSH1 0x40 MLOAD PUSH1 0x20 ADD PUSH2 0x38B SWAP2 SWAP1 PUSH2 0x1389 JUMP JUMPDEST PUSH1 0x40 MLOAD PUSH1 0x20 DUP2 DUP4 SUB SUB DUP2 MSTORE SWAP1 PUSH1 0x40 MSTORE DUP1 MLOAD SWAP1 PUSH1 0x20 ADD KECCAK256 SWAP1 POP PUSH1 0x0 DUP1 PUSH1 0x0 DUP1 PUSH32 0x0 PUSH20 0xFFFFFFFFFFFFFFFFFFFFFFFFFFFFFFFFFFFFFFFF AND PUSH4 0x479487E3 DUP8 PUSH1 0x40 MLOAD DUP3 PUSH4 0xFFFFFFFF AND PUSH1 0xE0 SHL DUP2 MSTORE PUSH1 0x4 ADD PUSH2 0x402 SWAP2 SWAP1 PUSH2 0x13EA JUMP JUMPDEST PUSH1 0x0 PUSH1 0x40 MLOAD DUP1 DUP4 SUB DUP2 DUP7 GAS STATICCALL ISZERO DUP1 ISZERO PUSH2 0x41F JUMPI RETURNDATASIZE PUSH1 0x0 DUP1 RETURNDATACOPY RETURNDATASIZE PUSH1 0x0 REVERT JUMPDEST POP POP POP POP PUSH1 0x40 MLOAD RETURNDATASIZE PUSH1 0x0 DUP3 RETURNDATACOPY RETURNDATASIZE PUSH1 0x1F NOT PUSH1 0x1F DUP3 ADD AND DUP3 ADD DUP1 PUSH1 0x40 MSTORE POP DUP2 ADD SWAP1 PUSH2 0x448 SWAP2 SWAP1 PUSH2 0x14F6 JUMP JUMPDEST SWAP7 POP SWAP7 POP SWAP7 POP POP POP POP SWAP4 POP PUSH1 0x0 DUP5 MLOAD SUB PUSH2 0x497 JUMPI PUSH1 0x40 MLOAD PUSH32 0x8C379A000000000000000000000000000000000000000000000000000000000 DUP2 MSTORE PUSH1 0x4 ADD PUSH2 0x48E SWAP1 PUSH2 0x1638 JUMP JUMPDEST PUSH1 0x40 MLOAD DUP1 SWAP2 SUB SWAP1 REVERT JUMPDEST PUSH1 0x1 PUSH1 0x2 DUP2 GT ISZERO PUSH2 0x4AB JUMPI PUSH2 0x4AA PUSH2 0x1658 JUMP JUMPDEST JUMPDEST PUSH1 0xFF AND DUP4 PUSH1 0xFF AND EQ PUSH2 0x4F2 JUMPI PUSH1 0x40 MLOAD PUSH32 0x8C379A000000000000000000000000000000000000000000000000000000000 DUP2 MSTORE PUSH1 0x4 ADD PUSH2 0x4E9 SWAP1 PUSH2 0x16D3 JUMP JUMPDEST PUSH1 0x40 MLOAD DUP1 SWAP2 SUB SWAP1 REVERT JUMPDEST CALLER PUSH20 0xFFFFFFFFFFFFFFFFFFFFFFFFFFFFFFFFFFFFFFFF AND DUP3 PUSH20 0xFFFFFFFFFFFFFFFFFFFFFFFFFFFFFFFFFFFFFFFF AND EQ PUSH2 0x560 JUMPI PUSH1 0x40 MLOAD PUSH32 0x8C379A000000000000000000000000000000000000000000000000000000000 DUP2 MSTORE PUSH1 0x4 ADD PUSH2 0x557 SWAP1 PUSH2 0x173F JUMP JUMPDEST PUSH1 0x40 MLOAD DUP1 SWAP2 SUB SWAP1 REVERT JUMPDEST PUSH32 0x0 PUSH20 0xFFFFFFFFFFFFFFFFFFFFFFFFFFFFFFFFFFFFFFFF AND PUSH4 0x36749547 DUP8 PUSH1 0x40 MLOAD DUP3 PUSH4 0xFFFFFFFF AND PUSH1 0xE0 SHL DUP2 MSTORE PUSH1 0x4 ADD PUSH2 0x5B9 SWAP2 SWAP1 PUSH2 0x13EA JUMP JUMPDEST PUSH1 0x0 PUSH1 0x40 MLOAD DUP1 DUP4 SUB DUP2 PUSH1 0x0 DUP8 DUP1 EXTCODESIZE ISZERO DUP1 ISZERO PUSH2 0x5D3 JUMPI PUSH1 0x0 DUP1 REVERT JUMPDEST POP GAS CALL ISZERO DUP1 ISZERO PUSH2 0x5E7 JUMPI RETURNDATASIZE PUSH1 0x0 DUP1 RETURNDATACOPY RETURNDATASIZE PUSH1 0x0 REVERT JUMPDEST POP POP POP POP PUSH1 0x0 DUP1 PUSH1 0x0 DUP8 DUP2 MSTORE PUSH1 0x20 ADD SWAP1 DUP2 MSTORE PUSH1 0x20 ADD PUSH1 0x0 KECCAK256 SLOAD SWAP1 POP PUSH1 0x0 DUP1 PUSH1 0x0 DUP9 DUP2 MSTORE PUSH1 0x20 ADD SWAP1 DUP2 MSTORE PUSH1 0x20 ADD PUSH1 0x0 KECCAK256 DUP2 SWAP1 SSTORE POP PUSH32 0x0 PUSH20 0xFFFFFFFFFFFFFFFFFFFFFFFFFFFFFFFFFFFFFFFF AND PUSH4 0x410085DF DUP5 DUP4 PUSH1 0x40 MLOAD DUP4 PUSH4 0xFFFFFFFF AND PUSH1 0xE0 SHL DUP2 MSTORE PUSH1 0x4 ADD PUSH2 0x675 SWAP3 SWAP2 SWAP1 PUSH2 0x175F JUMP JUMPDEST PUSH1 0x0 PUSH1 0x40 MLOAD DUP1 DUP4 SUB DUP2 PUSH1 0x0 DUP8 DUP1 EXTCODESIZE ISZERO DUP1 ISZERO PUSH2 0x68F JUMPI PUSH1 0x0 DUP1 REVERT JUMPDEST POP GAS CALL ISZERO DUP1 ISZERO PUSH2 0x6A3 JUMPI RETURNDATASIZE PUSH1 0x0 DUP1 RETURNDATACOPY RETURNDATASIZE PUSH1 0x0 REVERT JUMPDEST POP POP POP POP PUSH1 0x1 DUP1 DUP9 PUSH1 0x40 MLOAD PUSH2 0x6B8 SWAP2 SWAP1 PUSH2 0x1389 JUMP JUMPDEST SWAP1 DUP2 MSTORE PUSH1 0x20 ADD PUSH1 0x40 MLOAD DUP1 SWAP2 SUB SWAP1 KECCAK256 PUSH1 0x3 ADD PUSH1 0x0 PUSH2 0x100 EXP DUP2 SLOAD DUP2 PUSH1 0xFF MUL NOT AND SWAP1 DUP4 ISZERO ISZERO MUL OR SWAP1 SSTORE POP PUSH32 0x464998BE95D2DCFE9EB1B41FB03DF16114842E7E953E097073C18289BA3051C6 DUP8 DUP5 PUSH1 0x40 MLOAD PUSH2 0x711 SWAP3 SWAP2 SWAP1 PUSH2 0x1788 JUMP JUMPDEST PUSH1 0x40 MLOAD DUP1 SWAP2 SUB SWAP1 LOG1 POP POP POP POP POP POP POP JUMP JUMPDEST PUSH32 0x0 PUSH20 0xFFFFFFFFFFFFFFFFFFFFFFFFFFFFFFFFFFFFFFFF AND PUSH4 0x8846594B CALLER PUSH1 0x40 MLOAD DUP3 PUSH4 0xFFFFFFFF AND PUSH1 0xE0 SHL DUP2 MSTORE PUSH1 0x4 ADD PUSH2 0x77B SWAP2 SWAP1 PUSH2 0x17B8 JUMP JUMPDEST PUSH1 0x20 PUSH1 0x40 MLOAD DUP1 DUP4 SUB DUP2 DUP7 GAS STATICCALL ISZERO DUP1 ISZERO PUSH2 0x798 JUMPI RETURNDATASIZE PUSH1 0x0 DUP1 RETURNDATACOPY RETURNDATASIZE PUSH1 0x0 REVERT JUMPDEST POP POP POP POP PUSH1 0x40 MLOAD RETURNDATASIZE PUSH1 0x1F NOT PUSH1 0x1F DUP3 ADD AND DUP3 ADD DUP1 PUSH1 0x40 MSTORE POP DUP2 ADD SWAP1 PUSH2 0x7BC SWAP2 SWAP1 PUSH2 0x17FF JUMP JUMPDEST PUSH2 0x7FB JUMPI PUSH1 0x40 MLOAD PUSH32 0x8C379A000000000000000000000000000000000000000000000000000000000 DUP2 MSTORE PUSH1 0x4 ADD PUSH2 0x7F2 SWAP1 PUSH2 0x1878 JUMP JUMPDEST PUSH1 0x40 MLOAD DUP1 SWAP2 SUB SWAP1 REVERT JUMPDEST PUSH1 0x0 DUP2 PUSH1 0x40 MLOAD PUSH1 0x20 ADD PUSH2 0x80E SWAP2 SWAP1 PUSH2 0x1389 JUMP JUMPDEST PUSH1 0x40 MLOAD PUSH1 0x20 DUP2 DUP4 SUB SUB DUP2 MSTORE SWAP1 PUSH1 0x40 MSTORE DUP1 MLOAD SWAP1 PUSH1 0x20 ADD KECCAK256 SWAP1 POP PUSH1 0x0 DUP1 PUSH1 0x0 DUP1 PUSH32 0x0 PUSH20 0xFFFFFFFFFFFFFFFFFFFFFFFFFFFFFFFFFFFFFFFF AND PUSH4 0x479487E3 DUP8 PUSH1 0x40 MLOAD DUP3 PUSH4 0xFFFFFFFF AND PUSH1 0xE0 SHL DUP2 MSTORE PUSH1 0x4 ADD PUSH2 0x885 SWAP2 SWAP1 PUSH2 0x13EA JUMP JUMPDEST PUSH1 0x0 PUSH1 0x40 MLOAD DUP1 DUP4 SUB DUP2 DUP7 GAS STATICCALL ISZERO DUP1 ISZERO PUSH2 0x8A2 JUMPI RETURNDATASIZE PUSH1 0x0 DUP1 RETURNDATACOPY RETURNDATASIZE PUSH1 0x0 REVERT JUMPDEST POP POP POP POP PUSH1 0x40 MLOAD RETURNDATASIZE PUSH1 0x0 DUP3 RETURNDATACOPY RETURNDATASIZE PUSH1 0x1F NOT PUSH1 0x1F DUP3 ADD AND DUP3 ADD DUP1 PUSH1 0x40 MSTORE POP DUP2 ADD SWAP1 PUSH2 0x8CB SWAP2 SWAP1 PUSH2 0x14F6 JUMP JUMPDEST SWAP7 POP POP SWAP6 POP SWAP6 POP POP POP SWAP4 POP PUSH1 0x0 DUP5 MLOAD SUB PUSH2 0x91A JUMPI PUSH1 0x40 MLOAD PUSH32 0x8C379A000000000000000000000000000000000000000000000000000000000 DUP2 MSTORE PUSH1 0x4 ADD PUSH2 0x911 SWAP1 PUSH2 0x1638 JUMP JUMPDEST PUSH1 0x40 MLOAD DUP1 SWAP2 SUB SWAP1 REVERT JUMPDEST PUSH1 0x0 PUSH1 0x2 DUP2 GT ISZERO PUSH2 0x92E JUMPI PUSH2 0x92D PUSH2 0x1658 JUMP JUMPDEST JUMPDEST PUSH1 0xFF AND DUP3 PUSH1 0xFF AND EQ PUSH2 0x975 JUMPI PUSH1 0x40 MLOAD PUSH32 0x8C379A000000000000000000000000000000000000000000000000000000000 DUP2 MSTORE PUSH1 0x4 ADD PUSH2 0x96C SWAP1 PUSH2 0x18E4 JUMP JUMPDEST PUSH1 0x40 MLOAD DUP1 SWAP2 SUB SWAP1 REVERT JUMPDEST PUSH1 0x0 DUP4 SWAP1 POP PUSH1 0x0 DUP5 SWAP1 POP PUSH1 0x0 DUP2 DUP4 PUSH2 0x98D SWAP2 SWAP1 PUSH2 0x1933 JUMP JUMPDEST SWAP1 POP DUP1 CALLVALUE LT ISZERO PUSH2 0x9D2 JUMPI PUSH1 0x40 MLOAD PUSH32 0x8C379A000000000000000000000000000000000000000000000000000000000 DUP2 MSTORE PUSH1 0x4 ADD PUSH2 0x9C9 SWAP1 PUSH2 0x19B3 JUMP JUMPDEST PUSH1 0x40 MLOAD DUP1 SWAP2 SUB SWAP1 REVERT JUMPDEST PUSH1 0x0 DUP5 PUSH20 0xFFFFFFFFFFFFFFFFFFFFFFFFFFFFFFFFFFFFFFFF AND DUP5 PUSH1 0x40 MLOAD PUSH2 0x9F8 SWAP1 PUSH2 0x1A04 JUMP JUMPDEST PUSH1 0x0 PUSH1 0x40 MLOAD DUP1 DUP4 SUB DUP2 DUP6 DUP8 GAS CALL SWAP3 POP POP POP RETURNDATASIZE DUP1 PUSH1 0x0 DUP2 EQ PUSH2 0xA35 JUMPI PUSH1 0x40 MLOAD SWAP2 POP PUSH1 0x1F NOT PUSH1 0x3F RETURNDATASIZE ADD AND DUP3 ADD PUSH1 0x40 MSTORE RETURNDATASIZE DUP3 MSTORE RETURNDATASIZE PUSH1 0x0 PUSH1 0x20 DUP5 ADD RETURNDATACOPY PUSH2 0xA3A JUMP JUMPDEST PUSH1 0x60 SWAP2 POP JUMPDEST POP POP SWAP1 POP DUP1 PUSH2 0xA7E JUMPI PUSH1 0x40 MLOAD PUSH32 0x8C379A000000000000000000000000000000000000000000000000000000000 DUP2 MSTORE PUSH1 0x4 ADD PUSH2 0xA75 SWAP1 PUSH2 0x1A65 JUMP JUMPDEST PUSH1 0x40 MLOAD DUP1 SWAP2 SUB SWAP1 REVERT JUMPDEST DUP7 PUSH1 0x2 PUSH1 0x0 DUP8 PUSH20 0xFFFFFFFFFFFFFFFFFFFFFFFFFFFFFFFFFFFFFFFF AND PUSH20 0xFFFFFFFFFFFFFFFFFFFFFFFFFFFFFFFFFFFFFFFF AND DUP2 MSTORE PUSH1 0x20 ADD SWAP1 DUP2 MSTORE PUSH1 0x20 ADD PUSH1 0x0 KECCAK256 PUSH1 0x0 DUP3 DUP3 SLOAD PUSH2 0xACD SWAP2 SWAP1 PUSH2 0x1933 JUMP JUMPDEST SWAP3 POP POP DUP2 SWAP1 SSTORE POP PUSH32 0x0 PUSH20 0xFFFFFFFFFFFFFFFFFFFFFFFFFFFFFFFFFFFFFFFF AND PUSH4 0xD0E30DB0 DUP5 PUSH1 0x40 MLOAD DUP3 PUSH4 0xFFFFFFFF AND PUSH1 0xE0 SHL DUP2 MSTORE PUSH1 0x4 ADD PUSH1 0x0 PUSH1 0x40 MLOAD DUP1 DUP4 SUB DUP2 DUP6 DUP9 DUP1 EXTCODESIZE ISZERO DUP1 ISZERO PUSH2 0xB3C JUMPI PUSH1 0x0 DUP1 REVERT JUMPDEST POP GAS CALL ISZERO DUP1 ISZERO PUSH2 0xB50 JUMPI RETURNDATASIZE PUSH1 0x0 DUP1 RETURNDATACOPY RETURNDATASIZE PUSH1 0x0 REVERT JUMPDEST POP POP POP POP POP DUP3 PUSH1 0x0 DUP1 DUP12 DUP2 MSTORE PUSH1 0x20 ADD SWAP1 DUP2 MSTORE PUSH1 0x20 ADD PUSH1 0x0 KECCAK256 DUP2 SWAP1 SSTORE POP PUSH1 0x40 MLOAD DUP1 PUSH1 0x80 ADD PUSH1 0x40 MSTORE DUP1 CALLER PUSH20 0xFFFFFFFFFFFFFFFFFFFFFFFFFFFFFFFFFFFFFFFF AND DUP2 MSTORE PUSH1 0x20 ADD CALLVALUE DUP2 MSTORE PUSH1 0x20 ADD TIMESTAMP DUP2 MSTORE PUSH1 0x20 ADD PUSH1 0x0 ISZERO ISZERO DUP2 MSTORE POP PUSH1 0x1 DUP12 PUSH1 0x40 MLOAD PUSH2 0xBB6 SWAP2 SWAP1 PUSH2 0x1389 JUMP JUMPDEST SWAP1 DUP2 MSTORE PUSH1 0x20 ADD PUSH1 0x40 MLOAD DUP1 SWAP2 SUB SWAP1 KECCAK256 PUSH1 0x0 DUP3 ADD MLOAD DUP2 PUSH1 0x0 ADD PUSH1 0x0 PUSH2 0x100 EXP DUP2 SLOAD DUP2 PUSH20 0xFFFFFFFFFFFFFFFFFFFFFFFFFFFFFFFFFFFFFFFF MUL NOT AND SWAP1 DUP4 PUSH20 0xFFFFFFFFFFFFFFFFFFFFFFFFFFFFFFFFFFFFFFFF AND MUL OR SWAP1 SSTORE POP PUSH1 0x20 DUP3 ADD MLOAD DUP2 PUSH1 0x1 ADD SSTORE PUSH1 0x40 DUP3 ADD MLOAD DUP2 PUSH1 0x2 ADD SSTORE PUSH1 0x60 DUP3 ADD MLOAD DUP2 PUSH1 0x3 ADD PUSH1 0x0 PUSH2 0x100 EXP DUP2 SLOAD DUP2 PUSH1 0xFF MUL NOT AND SWAP1 DUP4 ISZERO ISZERO MUL OR SWAP1 SSTORE POP SWAP1 POP POP PUSH32 0x0 PUSH20 0xFFFFFFFFFFFFFFFFFFFFFFFFFFFFFFFFFFFFFFFF AND PUSH4 0xC1208B9D DUP12 CALLER PUSH1 0x40 MLOAD DUP4 PUSH4 0xFFFFFFFF AND PUSH1 0xE0 SHL DUP2 MSTORE PUSH1 0x4 ADD PUSH2 0xC9D SWAP3 SWAP2 SWAP1 PUSH2 0x1788 JUMP JUMPDEST PUSH1 0x0 PUSH1 0x40 MLOAD DUP1 DUP4 SUB DUP2 PUSH1 0x0 DUP8 DUP1 EXTCODESIZE ISZERO DUP1 ISZERO PUSH2 0xCB7 JUMPI PUSH1 0x0 DUP1 REVERT JUMPDEST POP GAS CALL ISZERO DUP1 ISZERO PUSH2 0xCCB JUMPI RETURNDATASIZE PUSH1 0x0 DUP1 RETURNDATACOPY RETURNDATASIZE PUSH1 0x0 REVERT JUMPDEST POP POP POP POP PUSH32 0xE0903DF489D90288745389E699F476635BF4B26EAABF03F19D342CC921C54F6C DUP11 CALLER PUSH1 0x40 MLOAD PUSH2 0xD00 SWAP3 SWAP2 SWAP1 PUSH2 0x1788 JUMP JUMPDEST PUSH1 0x40 MLOAD DUP1 SWAP2 SUB SWAP1 LOG1 POP POP POP POP POP POP POP POP POP POP JUMP JUMPDEST PUSH32 0x0 DUP2 JUMP JUMPDEST PUSH1 0x1 DUP2 DUP1 MLOAD PUSH1 0x20 DUP2 ADD DUP3 ADD DUP1 MLOAD DUP5 DUP3 MSTORE PUSH1 0x20 DUP4 ADD PUSH1 0x20 DUP6 ADD KECCAK256 DUP2 DUP4 MSTORE DUP1 SWAP6 POP POP POP POP POP POP PUSH1 0x0 SWAP2 POP SWAP1 POP DUP1 PUSH1 0x0 ADD PUSH1 0x0 SWAP1 SLOAD SWAP1 PUSH2 0x100 EXP SWAP1 DIV PUSH20 0xFFFFFFFFFFFFFFFFFFFFFFFFFFFFFFFFFFFFFFFF AND SWAP1 DUP1 PUSH1 0x1 ADD SLOAD SWAP1 DUP1 PUSH1 0x2 ADD SLOAD SWAP1 DUP1 PUSH1 0x3 ADD PUSH1 0x0 SWAP1 SLOAD SWAP1 PUSH2 0x100 EXP SWAP1 DIV PUSH1 0xFF AND SWAP1 POP DUP5 JUMP JUMPDEST PUSH1 0x0 DUP1 DUP3 PUSH1 0x40 MLOAD PUSH1 0x20 ADD PUSH2 0xDBF SWAP2 SWAP1 PUSH2 0x1389 JUMP JUMPDEST PUSH1 0x40 MLOAD PUSH1 0x20 DUP2 DUP4 SUB SUB DUP2 MSTORE SWAP1 PUSH1 0x40 MSTORE DUP1 MLOAD SWAP1 PUSH1 0x20 ADD KECCAK256 SWAP1 POP PUSH1 0x0 DUP1 DUP3 DUP2 MSTORE PUSH1 0x20 ADD SWAP1 DUP2 MSTORE PUSH1 0x20 ADD PUSH1 0x0 KECCAK256 SLOAD SWAP2 POP POP SWAP2 SWAP1 POP JUMP JUMPDEST PUSH1 0x0 DUP1 PUSH1 0x0 DUP1 PUSH1 0x0 PUSH1 0x1 DUP7 PUSH1 0x40 MLOAD PUSH2 0xE0A SWAP2 SWAP1 PUSH2 0x1389 JUMP JUMPDEST SWAP1 DUP2 MSTORE PUSH1 0x20 ADD PUSH1 0x40 MLOAD DUP1 SWAP2 SUB SWAP1 KECCAK256 PUSH1 0x40 MLOAD DUP1 PUSH1 0x80 ADD PUSH1 0x40 MSTORE SWAP1 DUP2 PUSH1 0x0 DUP3 ADD PUSH1 0x0 SWAP1 SLOAD SWAP1 PUSH2 0x100 EXP SWAP1 DIV PUSH20 0xFFFFFFFFFFFFFFFFFFFFFFFFFFFFFFFFFFFFFFFF AND PUSH20 0xFFFFFFFFFFFFFFFFFFFFFFFFFFFFFFFFFFFFFFFF AND PUSH20 0xFFFFFFFFFFFFFFFFFFFFFFFFFFFFFFFFFFFFFFFF AND DUP2 MSTORE PUSH1 0x20 ADD PUSH1 0x1 DUP3 ADD SLOAD DUP2 MSTORE PUSH1 0x20 ADD PUSH1 0x2 DUP3 ADD SLOAD DUP2 MSTORE PUSH1 0x20 ADD PUSH1 0x3 DUP3 ADD PUSH1 0x0 SWAP1 SLOAD SWAP1 PUSH2 0x100 EXP SWAP1 DIV PUSH1 0xFF AND ISZERO ISZERO ISZERO ISZERO DUP2 MSTORE POP POP SWAP1 POP DUP1 PUSH1 0x0 ADD MLOAD DUP2 PUSH1 0x20 ADD MLOAD DUP3 PUSH1 0x40 ADD MLOAD DUP4 PUSH1 0x60 ADD MLOAD SWAP5 POP SWAP5 POP SWAP5 POP SWAP5 POP POP SWAP2 SWAP4 POP SWAP2 SWAP4 JUMP JUMPDEST PUSH32 0x0 DUP2 JUMP JUMPDEST PUSH1 0x0 PUSH1 0x40 MLOAD SWAP1 POP SWAP1 JUMP JUMPDEST PUSH1 0x0 DUP1 REVERT JUMPDEST PUSH1 0x0 DUP1 REVERT JUMPDEST PUSH1 0x0 PUSH20 0xFFFFFFFFFFFFFFFFFFFFFFFFFFFFFFFFFFFFFFFF DUP3 AND SWAP1 POP SWAP2 SWAP1 POP JUMP JUMPDEST PUSH1 0x0 PUSH2 0xF31 DUP3 PUSH2 0xF06 JUMP JUMPDEST SWAP1 POP SWAP2 SWAP1 POP JUMP JUMPDEST PUSH2 0xF41 DUP2 PUSH2 0xF26 JUMP JUMPDEST DUP2 EQ PUSH2 0xF4C JUMPI PUSH1 0x0 DUP1 REVERT JUMPDEST POP JUMP JUMPDEST PUSH1 0x0 DUP2 CALLDATALOAD SWAP1 POP PUSH2 0xF5E DUP2 PUSH2 0xF38 JUMP JUMPDEST SWAP3 SWAP2 POP POP JUMP JUMPDEST PUSH1 0x0 PUSH1 0x20 DUP3 DUP5 SUB SLT ISZERO PUSH2 0xF7A JUMPI PUSH2 0xF79 PUSH2 0xEFC JUMP JUMPDEST JUMPDEST PUSH1 0x0 PUSH2 0xF88 DUP5 DUP3 DUP6 ADD PUSH2 0xF4F JUMP JUMPDEST SWAP2 POP POP SWAP3 SWAP2 POP POP JUMP JUMPDEST PUSH1 0x0 DUP2 SWAP1 POP SWAP2 SWAP1 POP JUMP JUMPDEST PUSH2 0xFA4 DUP2 PUSH2 0xF91 JUMP JUMPDEST DUP3 MSTORE POP POP JUMP JUMPDEST PUSH1 0x0 PUSH1 0x20 DUP3 ADD SWAP1 POP PUSH2 0xFBF PUSH1 0x0 DUP4 ADD DUP5 PUSH2 0xF9B JUMP JUMPDEST SWAP3 SWAP2 POP POP JUMP JUMPDEST PUSH1 0x0 DUP2 SWAP1 POP SWAP2 SWAP1 POP JUMP JUMPDEST PUSH2 0xFD8 DUP2 PUSH2 0xFC5 JUMP JUMPDEST DUP2 EQ PUSH2 0xFE3 JUMPI PUSH1 0x0 DUP1 REVERT JUMPDEST POP JUMP JUMPDEST PUSH1 0x0 DUP2 CALLDATALOAD SWAP1 POP PUSH2 0xFF5 DUP2 PUSH2 0xFCF JUMP JUMPDEST SWAP3 SWAP2 POP POP JUMP JUMPDEST PUSH1 0x0 PUSH1 0x20 DUP3 DUP5 SUB SLT ISZERO PUSH2 0x1011 JUMPI PUSH2 0x1010 PUSH2 0xEFC JUMP JUMPDEST JUMPDEST PUSH1 0x0 PUSH2 0x101F DUP5 DUP3 DUP6 ADD PUSH2 0xFE6 JUMP JUMPDEST SWAP2 POP POP SWAP3 SWAP2 POP POP JUMP JUMPDEST PUSH1 0x0 DUP2 SWAP1 POP SWAP2 SWAP1 POP JUMP JUMPDEST PUSH1 0x0 PUSH2 0x104D PUSH2 0x1048 PUSH2 0x1043 DUP5 PUSH2 0xF06 JUMP JUMPDEST PUSH2 0x1028 JUMP JUMPDEST PUSH2 0xF06 JUMP JUMPDEST SWAP1 POP SWAP2 SWAP1 POP JUMP JUMPDEST PUSH1 0x0 PUSH2 0x105F DUP3 PUSH2 0x1032 JUMP JUMPDEST SWAP1 POP SWAP2 SWAP1 POP JUMP JUMPDEST PUSH1 0x0 PUSH2 0x1071 DUP3 PUSH2 0x1054 JUMP JUMPDEST SWAP1 POP SWAP2 SWAP1 POP JUMP JUMPDEST PUSH2 0x1081 DUP2 PUSH2 0x1066 JUMP JUMPDEST DUP3 MSTORE POP POP JUMP JUMPDEST PUSH1 0x0 PUSH1 0x20 DUP3 ADD SWAP1 POP PUSH2 0x109C PUSH1 0x0 DUP4 ADD DUP5 PUSH2 0x1078 JUMP JUMPDEST SWAP3 SWAP2 POP POP JUMP JUMPDEST PUSH1 0x0 DUP1 REVERT JUMPDEST PUSH1 0x0 DUP1 REVERT JUMPDEST PUSH1 0x0 PUSH1 0x1F NOT PUSH1 0x1F DUP4 ADD AND SWAP1 POP SWAP2 SWAP1 POP JUMP JUMPDEST PUSH32 0x4E487B7100000000000000000000000000000000000000000000000000000000 PUSH1 0x0 MSTORE PUSH1 0x41 PUSH1 0x4 MSTORE PUSH1 0x24 PUSH1 0x0 REVERT JUMPDEST PUSH2 0x10F5 DUP3 PUSH2 0x10AC JUMP JUMPDEST DUP2 ADD DUP2 DUP2 LT PUSH8 0xFFFFFFFFFFFFFFFF DUP3 GT OR ISZERO PUSH2 0x1114 JUMPI PUSH2 0x1113 PUSH2 0x10BD JUMP JUMPDEST JUMPDEST DUP1 PUSH1 0x40 MSTORE POP POP POP JUMP JUMPDEST PUSH1 0x0 PUSH2 0x1127 PUSH2 0xEF2 JUMP JUMPDEST SWAP1 POP PUSH2 0x1133 DUP3 DUP3 PUSH2 0x10EC JUMP JUMPDEST SWAP2 SWAP1 POP JUMP JUMPDEST PUSH1 0x0 PUSH8 0xFFFFFFFFFFFFFFFF DUP3 GT ISZERO PUSH2 0x1153 JUMPI PUSH2 0x1152 PUSH2 0x10BD JUMP JUMPDEST JUMPDEST PUSH2 0x115C DUP3 PUSH2 0x10AC JUMP JUMPDEST SWAP1 POP PUSH1 0x20 DUP2 ADD SWAP1 POP SWAP2 SWAP1 POP JUMP JUMPDEST DUP3 DUP2 DUP4 CALLDATACOPY PUSH1 0x0 DUP4 DUP4 ADD MSTORE POP POP POP JUMP JUMPDEST PUSH1 0x0 PUSH2 0x118B PUSH2 0x1186 DUP5 PUSH2 0x1138 JUMP JUMPDEST PUSH2 0x111D JUMP JUMPDEST SWAP1 POP DUP3 DUP2 MSTORE PUSH1 0x20 DUP2 ADD DUP5 DUP5 DUP5 ADD GT ISZERO PUSH2 0x11A7 JUMPI PUSH2 0x11A6 PUSH2 0x10A7 JUMP JUMPDEST JUMPDEST PUSH2 0x11B2 DUP5 DUP3 DUP6 PUSH2 0x1169 JUMP JUMPDEST POP SWAP4 SWAP3 POP POP POP JUMP JUMPDEST PUSH1 0x0 DUP3 PUSH1 0x1F DUP4 ADD SLT PUSH2 0x11CF JUMPI PUSH2 0x11CE PUSH2 0x10A2 JUMP JUMPDEST JUMPDEST DUP2 CALLDATALOAD PUSH2 0x11DF DUP5 DUP3 PUSH1 0x20 DUP7 ADD PUSH2 0x1178 JUMP JUMPDEST SWAP2 POP POP SWAP3 SWAP2 POP POP JUMP JUMPDEST PUSH1 0x0 PUSH1 0x20 DUP3 DUP5 SUB SLT ISZERO PUSH2 0x11FE JUMPI PUSH2 0x11FD PUSH2 0xEFC JUMP JUMPDEST JUMPDEST PUSH1 0x0 DUP3 ADD CALLDATALOAD PUSH8 0xFFFFFFFFFFFFFFFF DUP2 GT ISZERO PUSH2 0x121C JUMPI PUSH2 0x121B PUSH2 0xF01 JUMP JUMPDEST JUMPDEST PUSH2 0x1228 DUP5 DUP3 DUP6 ADD PUSH2 0x11BA JUMP JUMPDEST SWAP2 POP POP SWAP3 SWAP2 POP POP JUMP JUMPDEST PUSH1 0x0 PUSH2 0x123C DUP3 PUSH2 0x1054 JUMP JUMPDEST SWAP1 POP SWAP2 SWAP1 POP JUMP JUMPDEST PUSH2 0x124C DUP2 PUSH2 0x1231 JUMP JUMPDEST DUP3 MSTORE POP POP JUMP JUMPDEST PUSH1 0x0 PUSH1 0x20 DUP3 ADD SWAP1 POP PUSH2 0x1267 PUSH1 0x0 DUP4 ADD DUP5 PUSH2 0x1243 JUMP JUMPDEST SWAP3 SWAP2 POP POP JUMP JUMPDEST PUSH2 0x1276 DUP2 PUSH2 0xF26 JUMP JUMPDEST DUP3 MSTORE POP POP JUMP JUMPDEST PUSH1 0x0 DUP2 ISZERO ISZERO SWAP1 POP SWAP2 SWAP1 POP JUMP JUMPDEST PUSH2 0x1291 DUP2 PUSH2 0x127C JUMP JUMPDEST DUP3 MSTORE POP POP JUMP JUMPDEST PUSH1 0x0 PUSH1 0x80 DUP3 ADD SWAP1 POP PUSH2 0x12AC PUSH1 0x0 DUP4 ADD DUP8 PUSH2 0x126D JUMP JUMPDEST PUSH2 0x12B9 PUSH1 0x20 DUP4 ADD DUP7 PUSH2 0xF9B JUMP JUMPDEST PUSH2 0x12C6 PUSH1 0x40 DUP4 ADD DUP6 PUSH2 0xF9B JUMP JUMPDEST PUSH2 0x12D3 PUSH1 0x60 DUP4 ADD DUP5 PUSH2 0x1288 JUMP JUMPDEST SWAP6 SWAP5 POP POP POP POP POP JUMP JUMPDEST PUSH1 0x0 PUSH2 0x12E7 DUP3 PUSH2 0x1054 JUMP JUMPDEST SWAP1 POP SWAP2 SWAP1 POP JUMP JUMPDEST PUSH2 0x12F7 DUP2 PUSH2 0x12DC JUMP JUMPDEST DUP3 MSTORE POP POP JUMP JUMPDEST PUSH1 0x0 PUSH1 0x20 DUP3 ADD SWAP1 POP PUSH2 0x1312 PUSH1 0x0 DUP4 ADD DUP5 PUSH2 0x12EE JUMP JUMPDEST SWAP3 SWAP2 POP POP JUMP JUMPDEST PUSH1 0x0 DUP2 MLOAD SWAP1 POP SWAP2 SWAP1 POP JUMP JUMPDEST PUSH1 0x0 DUP2 SWAP1 POP SWAP3 SWAP2 POP POP JUMP JUMPDEST PUSH1 0x0 JUMPDEST DUP4 DUP2 LT ISZERO PUSH2 0x134C JUMPI DUP1 DUP3 ADD MLOAD DUP2 DUP5 ADD MSTORE PUSH1 0x20 DUP2 ADD SWAP1 POP PUSH2 0x1331 JUMP JUMPDEST PUSH1 0x0 DUP5 DUP5 ADD MSTORE POP POP POP POP JUMP JUMPDEST PUSH1 0x0 PUSH2 0x1363 DUP3 PUSH2 0x1318 JUMP JUMPDEST PUSH2 0x136D DUP2 DUP6 PUSH2 0x1323 JUMP JUMPDEST SWAP4 POP PUSH2 0x137D DUP2 DUP6 PUSH1 0x20 DUP7 ADD PUSH2 0x132E JUMP JUMPDEST DUP1 DUP5 ADD SWAP2 POP POP SWAP3 SWAP2 POP POP JUMP JUMPDEST PUSH1 0x0 PUSH2 0x1395 DUP3 DUP5 PUSH2 0x1358 JUMP JUMPDEST SWAP2 POP DUP2 SWAP1 POP SWAP3 SWAP2 POP POP JUMP JUMPDEST PUSH1 0x0 DUP3 DUP3 MSTORE PUSH1 0x20 DUP3 ADD SWAP1 POP SWAP3 SWAP2 POP POP JUMP JUMPDEST PUSH1 0x0 PUSH2 0x13BC DUP3 PUSH2 0x1318 JUMP JUMPDEST PUSH2 0x13C6 DUP2 DUP6 PUSH2 0x13A0 JUMP JUMPDEST SWAP4 POP PUSH2 0x13D6 DUP2 DUP6 PUSH1 0x20 DUP7 ADD PUSH2 0x132E JUMP JUMPDEST PUSH2 0x13DF DUP2 PUSH2 0x10AC JUMP JUMPDEST DUP5 ADD SWAP2 POP POP SWAP3 SWAP2 POP POP JUMP JUMPDEST PUSH1 0x0 PUSH1 0x20 DUP3 ADD SWAP1 POP DUP2 DUP2 SUB PUSH1 0x0 DUP4 ADD MSTORE PUSH2 0x1404 DUP2 DUP5 PUSH2 0x13B1 JUMP JUMPDEST SWAP1 POP SWAP3 SWAP2 POP POP JUMP JUMPDEST PUSH1 0x0 PUSH2 0x141F PUSH2 0x141A DUP5 PUSH2 0x1138 JUMP JUMPDEST PUSH2 0x111D JUMP JUMPDEST SWAP1 POP DUP3 DUP2 MSTORE PUSH1 0x20 DUP2 ADD DUP5 DUP5 DUP5 ADD GT ISZERO PUSH2 0x143B JUMPI PUSH2 0x143A PUSH2 0x10A7 JUMP JUMPDEST JUMPDEST PUSH2 0x1446 DUP5 DUP3 DUP6 PUSH2 0x132E JUMP JUMPDEST POP SWAP4 SWAP3 POP POP POP JUMP JUMPDEST PUSH1 0x0 DUP3 PUSH1 0x1F DUP4 ADD SLT PUSH2 0x1463 JUMPI PUSH2 0x1462 PUSH2 0x10A2 JUMP JUMPDEST JUMPDEST DUP2 MLOAD PUSH2 0x1473 DUP5 DUP3 PUSH1 0x20 DUP7 ADD PUSH2 0x140C JUMP JUMPDEST SWAP2 POP POP SWAP3 SWAP2 POP POP JUMP JUMPDEST PUSH2 0x1485 DUP2 PUSH2 0xF91 JUMP JUMPDEST DUP2 EQ PUSH2 0x1490 JUMPI PUSH1 0x0 DUP1 REVERT JUMPDEST POP JUMP JUMPDEST PUSH1 0x0 DUP2 MLOAD SWAP1 POP PUSH2 0x14A2 DUP2 PUSH2 0x147C JUMP JUMPDEST SWAP3 SWAP2 POP POP JUMP JUMPDEST PUSH1 0x0 PUSH1 0xFF DUP3 AND SWAP1 POP SWAP2 SWAP1 POP JUMP JUMPDEST PUSH2 0x14BE DUP2 PUSH2 0x14A8 JUMP JUMPDEST DUP2 EQ PUSH2 0x14C9 JUMPI PUSH1 0x0 DUP1 REVERT JUMPDEST POP JUMP JUMPDEST PUSH1 0x0 DUP2 MLOAD SWAP1 POP PUSH2 0x14DB DUP2 PUSH2 0x14B5 JUMP JUMPDEST SWAP3 SWAP2 POP POP JUMP JUMPDEST PUSH1 0x0 DUP2 MLOAD SWAP1 POP PUSH2 0x14F0 DUP2 PUSH2 0xF38 JUMP JUMPDEST SWAP3 SWAP2 POP POP JUMP JUMPDEST PUSH1 0x0 DUP1 PUSH1 0x0 DUP1 PUSH1 0x0 DUP1 PUSH1 0x0 PUSH1 0xE0 DUP9 DUP11 SUB SLT ISZERO PUSH2 0x1515 JUMPI PUSH2 0x1514 PUSH2 0xEFC JUMP JUMPDEST JUMPDEST PUSH1 0x0 DUP9 ADD MLOAD PUSH8 0xFFFFFFFFFFFFFFFF DUP2 GT ISZERO PUSH2 0x1533 JUMPI PUSH2 0x1532 PUSH2 0xF01 JUMP JUMPDEST JUMPDEST PUSH2 0x153F DUP11 DUP3 DUP12 ADD PUSH2 0x144E JUMP JUMPDEST SWAP8 POP POP PUSH1 0x20 DUP9 ADD MLOAD PUSH8 0xFFFFFFFFFFFFFFFF DUP2 GT ISZERO PUSH2 0x1560 JUMPI PUSH2 0x155F PUSH2 0xF01 JUMP JUMPDEST JUMPDEST PUSH2 0x156C DUP11 DUP3 DUP12 ADD PUSH2 0x144E JUMP JUMPDEST SWAP7 POP POP PUSH1 0x40 DUP9 ADD MLOAD PUSH8 0xFFFFFFFFFFFFFFFF DUP2 GT ISZERO PUSH2 0x158D JUMPI PUSH2 0x158C PUSH2 0xF01 JUMP JUMPDEST JUMPDEST PUSH2 0x1599 DUP11 DUP3 DUP12 ADD PUSH2 0x144E JUMP JUMPDEST SWAP6 POP POP PUSH1 0x60 PUSH2 0x15AA DUP11 DUP3 DUP12 ADD PUSH2 0x1493 JUMP JUMPDEST SWAP5 POP POP PUSH1 0x80 PUSH2 0x15BB DUP11 DUP3 DUP12 ADD PUSH2 0x14CC JUMP JUMPDEST SWAP4 POP POP PUSH1 0xA0 PUSH2 0x15CC DUP11 DUP3 DUP12 ADD PUSH2 0x14E1 JUMP JUMPDEST SWAP3 POP POP PUSH1 0xC0 PUSH2 0x15DD DUP11 DUP3 DUP12 ADD PUSH2 0x14E1 JUMP JUMPDEST SWAP2 POP POP SWAP3 SWAP6 SWAP9 SWAP2 SWAP5 SWAP8 POP SWAP3 SWAP6 POP JUMP JUMPDEST PUSH32 0x436172206E6F7420666F756E6400000000000000000000000000000000000000 PUSH1 0x0 DUP3 ADD MSTORE POP JUMP JUMPDEST PUSH1 0x0 PUSH2 0x1622 PUSH1 0xD DUP4 PUSH2 0x13A0 JUMP JUMPDEST SWAP2 POP PUSH2 0x162D DUP3 PUSH2 0x15EC JUMP JUMPDEST PUSH1 0x20 DUP3 ADD SWAP1 POP SWAP2 SWAP1 POP JUMP JUMPDEST PUSH1 0x0 PUSH1 0x20 DUP3 ADD SWAP1 POP DUP2 DUP2 SUB PUSH1 0x0 DUP4 ADD MSTORE PUSH2 0x1651 DUP2 PUSH2 0x1615 JUMP JUMPDEST SWAP1 POP SWAP2 SWAP1 POP JUMP JUMPDEST PUSH32 0x4E487B7100000000000000000000000000000000000000000000000000000000 PUSH1 0x0 MSTORE PUSH1 0x21 PUSH1 0x4 MSTORE PUSH1 0x24 PUSH1 0x0 REVERT JUMPDEST PUSH32 0x436172206973206E6F742063757272656E746C792072656E7465640000000000 PUSH1 0x0 DUP3 ADD MSTORE POP JUMP JUMPDEST PUSH1 0x0 PUSH2 0x16BD PUSH1 0x1B DUP4 PUSH2 0x13A0 JUMP JUMPDEST SWAP2 POP PUSH2 0x16C8 DUP3 PUSH2 0x1687 JUMP JUMPDEST PUSH1 0x20 DUP3 ADD SWAP1 POP SWAP2 SWAP1 POP JUMP JUMPDEST PUSH1 0x0 PUSH1 0x20 DUP3 ADD SWAP1 POP DUP2 DUP2 SUB PUSH1 0x0 DUP4 ADD MSTORE PUSH2 0x16EC DUP2 PUSH2 0x16B0 JUMP JUMPDEST SWAP1 POP SWAP2 SWAP1 POP JUMP JUMPDEST PUSH32 0x596F7520617265206E6F74207468652072656E74657200000000000000000000 PUSH1 0x0 DUP3 ADD MSTORE POP JUMP JUMPDEST PUSH1 0x0 PUSH2 0x1729 PUSH1 0x16 DUP4 PUSH2 0x13A0 JUMP JUMPDEST SWAP2 POP PUSH2 0x1734 DUP3 PUSH2 0x16F3 JUMP JUMPDEST PUSH1 0x20 DUP3 ADD SWAP1 POP SWAP2 SWAP1 POP JUMP JUMPDEST PUSH1 0x0 PUSH1 0x20 DUP3 ADD SWAP1 POP DUP2 DUP2 SUB PUSH1 0x0 DUP4 ADD MSTORE PUSH2 0x1758 DUP2 PUSH2 0x171C JUMP JUMPDEST SWAP1 POP SWAP2 SWAP1 POP JUMP JUMPDEST PUSH1 0x0 PUSH1 0x40 DUP3 ADD SWAP1 POP PUSH2 0x1774 PUSH1 0x0 DUP4 ADD DUP6 PUSH2 0x126D JUMP JUMPDEST PUSH2 0x1781 PUSH1 0x20 DUP4 ADD DUP5 PUSH2 0xF9B JUMP JUMPDEST SWAP4 SWAP3 POP POP POP JUMP JUMPDEST PUSH1 0x0 PUSH1 0x40 DUP3 ADD SWAP1 POP DUP2 DUP2 SUB PUSH1 0x0 DUP4 ADD MSTORE PUSH2 0x17A2 DUP2 DUP6 PUSH2 0x13B1 JUMP JUMPDEST SWAP1 POP PUSH2 0x17B1 PUSH1 0x20 DUP4 ADD DUP5 PUSH2 0x126D JUMP JUMPDEST SWAP4 SWAP3 POP POP POP JUMP JUMPDEST PUSH1 0x0 PUSH1 0x20 DUP3 ADD SWAP1 POP PUSH2 0x17CD PUSH1 0x0 DUP4 ADD DUP5 PUSH2 0x126D JUMP JUMPDEST SWAP3 SWAP2 POP POP JUMP JUMPDEST PUSH2 0x17DC DUP2 PUSH2 0x127C JUMP JUMPDEST DUP2 EQ PUSH2 0x17E7 JUMPI PUSH1 0x0 DUP1 REVERT JUMPDEST POP JUMP JUMPDEST PUSH1 0x0 DUP2 MLOAD SWAP1 POP PUSH2 0x17F9 DUP2 PUSH2 0x17D3 JUMP JUMPDEST SWAP3 SWAP2 POP POP JUMP JUMPDEST PUSH1 0x0 PUSH1 0x20 DUP3 DUP5 SUB SLT ISZERO PUSH2 0x1815 JUMPI PUSH2 0x1814 PUSH2 0xEFC JUMP JUMPDEST JUMPDEST PUSH1 0x0 PUSH2 0x1823 DUP5 DUP3 DUP6 ADD PUSH2 0x17EA JUMP JUMPDEST SWAP2 POP POP SWAP3 SWAP2 POP POP JUMP JUMPDEST PUSH32 0x4B5943206E6F7420617070726F76656400000000000000000000000000000000 PUSH1 0x0 DUP3 ADD MSTORE POP JUMP JUMPDEST PUSH1 0x0 PUSH2 0x1862 PUSH1 0x10 DUP4 PUSH2 0x13A0 JUMP JUMPDEST SWAP2 POP PUSH2 0x186D DUP3 PUSH2 0x182C JUMP JUMPDEST PUSH1 0x20 DUP3 ADD SWAP1 POP SWAP2 SWAP1 POP JUMP JUMPDEST PUSH1 0x0 PUSH1 0x20 DUP3 ADD SWAP1 POP DUP2 DUP2 SUB PUSH1 0x0 DUP4 ADD MSTORE PUSH2 0x1891 DUP2 PUSH2 0x1855 JUMP JUMPDEST SWAP1 POP SWAP2 SWAP1 POP JUMP JUMPDEST PUSH32 0x436172206973206E6F7420617661696C61626C65000000000000000000000000 PUSH1 0x0 DUP3 ADD MSTORE POP JUMP JUMPDEST PUSH1 0x0 PUSH2 0x18CE PUSH1 0x14 DUP4 PUSH2 0x13A0 JUMP JUMPDEST SWAP2 POP PUSH2 0x18D9 DUP3 PUSH2 0x1898 JUMP JUMPDEST PUSH1 0x20 DUP3 ADD SWAP1 POP SWAP2 SWAP1 POP JUMP JUMPDEST PUSH1 0x0 PUSH1 0x20 DUP3 ADD SWAP1 POP DUP2 DUP2 SUB PUSH1 0x0 DUP4 ADD MSTORE PUSH2 0x18FD DUP2 PUSH2 0x18C1 JUMP JUMPDEST SWAP1 POP SWAP2 SWAP1 POP JUMP JUMPDEST PUSH32 0x4E487B7100000000000000000000000000000000000000000000000000000000 PUSH1 0x0 MSTORE PUSH1 0x11 PUSH1 0x4 MSTORE PUSH1 0x24 PUSH1 0x0 REVERT JUMPDEST PUSH1 0x0 PUSH2 0x193E DUP3 PUSH2 0xF91 JUMP JUMPDEST SWAP2 POP PUSH2 0x1949 DUP4 PUSH2 0xF91 JUMP JUMPDEST SWAP3 POP DUP3 DUP3 ADD SWAP1 POP DUP1 DUP3 GT ISZERO PUSH2 0x1961 JUMPI PUSH2 0x1960 PUSH2 0x1904 JUMP JUMPDEST JUMPDEST SWAP3 SWAP2 POP POP JUMP JUMPDEST PUSH32 0x496E73756666696369656E74207061796D656E74000000000000000000000000 PUSH1 0x0 DUP3 ADD MSTORE POP JUMP JUMPDEST PUSH1 0x0 PUSH2 0x199D PUSH1 0x14 DUP4 PUSH2 0x13A0 JUMP JUMPDEST SWAP2 POP PUSH2 0x19A8 DUP3 PUSH2 0x1967 JUMP JUMPDEST PUSH1 0x20 DUP3 ADD SWAP1 POP SWAP2 SWAP1 POP JUMP JUMPDEST PUSH1 0x0 PUSH1 0x20 DUP3 ADD SWAP1 POP DUP2 DUP2 SUB PUSH1 0x0 DUP4 ADD MSTORE PUSH2 0x19CC DUP2 PUSH2 0x1990 JUMP JUMPDEST SWAP1 POP SWAP2 SWAP1 POP JUMP JUMPDEST PUSH1 0x0 DUP2 SWAP1 POP SWAP3 SWAP2 POP POP JUMP JUMPDEST POP JUMP JUMPDEST PUSH1 0x0 PUSH2 0x19EE PUSH1 0x0 DUP4 PUSH2 0x19D3 JUMP JUMPDEST SWAP2 POP PUSH2 0x19F9 DUP3 PUSH2 0x19DE JUMP JUMPDEST PUSH1 0x0 DUP3 ADD SWAP1 POP SWAP2 SWAP1 POP JUMP JUMPDEST PUSH1 0x0 PUSH2 0x1A0F DUP3 PUSH2 0x19E1 JUMP JUMPDEST SWAP2 POP DUP2 SWAP1 POP SWAP2 SWAP1 POP JUMP JUMPDEST PUSH32 0x5061796D656E7420746F206F776E6572206661696C6564000000000000000000 PUSH1 0x0 DUP3 ADD MSTORE POP JUMP JUMPDEST PUSH1 0x0 PUSH2 0x1A4F PUSH1 0x17 DUP4 PUSH2 0x13A0 JUMP JUMPDEST SWAP2 POP PUSH2 0x1A5A DUP3 PUSH2 0x1A19 JUMP JUMPDEST PUSH1 0x20 DUP3 ADD SWAP1 POP SWAP2 SWAP1 POP JUMP JUMPDEST PUSH1 0x0 PUSH1 0x20 DUP3 ADD SWAP1 POP DUP2 DUP2 SUB PUSH1 0x0 DUP4 ADD MSTORE PUSH2 0x1A7E DUP2 PUSH2 0x1A42 JUMP JUMPDEST SWAP1 POP SWAP2 SWAP1 POP JUMP INVALID LOG2 PUSH5 0x6970667358 0x22 SLT KECCAK256 PREVRANDAO PUSH20 0xC9A829431FA45A6F4ED813F9E518691C01F163FE GAS 0x49 0xB1 0xF9 LOG0 0xED PUSH30 0x87DEAA64736F6C6343000814003300000000000000000000000000000000 "},"methodIdentifiers":{"carRegistry()":"58685ddb","completeRental(string)":"68a4cb88","deposits(bytes32)":"3d4dff7b","getDeposit(string)":"d20747a8","getOwnerRevenue(address)":"0e0b54d5","getRentalInfo(string)":"f04d237c","kycManager()":"7afea44f","ownerRevenue(address)":"2822d2bf","rentCar(string)":"72fd3d3e","rentalRecords(string)":"7fd84313","vault()":"fbfa77cf"}}}}}