{"contracts/CarRental.sol":{"CarRental":{"abi":[{"inputs":[{"internalType":"address","name":"_carRegistry","type":"address"},{"internalType":"address","name":"_kycManager","type":"address"},{"internalType":"address","name":"_vault","type":"address"}],"stateMutability":"nonpayable","type":"constructor"},{"anonymous":false,"inputs":[{"indexed":false,"internalType":"string","name":"plateNumber","type":"string"},{"indexed":false,"internalType":"address","name":"renter","type":"address"}],"name":"CarRented","type":"event"},{"anonymous":false,"inputs":[{"indexed":false,"internalType":"string","name":"plateNumber","type":"string"},{"indexed":false,"internalType":"address","name":"renter","type":"address"}],"name":"CarReturned","type":"event"},{"inputs":[],"name":"carRegistry","outputs":[{"internalType":"contract ICarRegistry","name":"","type":"address"}],"stateMutability":"view","type":"function"},{"inputs":[{"internalType":"string","name":"plateNumber","type":"string"}],"name":"completeRental","outputs":[],"stateMutability":"nonpayable","type":"function"},{"inputs":[{"internalType":"bytes32","name":"","type":"bytes32"}],"name":"deposits","outputs":[{"internalType":"uint256","name":"","type":"uint256"}],"stateMutability":"view","type":"function"},{"inputs":[{"internalType":"string","name":"plateNumber","type":"string"}],"name":"getDeposit","outputs":[{"internalType":"uint256","name":"","type":"uint256"}],"stateMutability":"view","type":"function"},{"inputs":[{"internalType":"string","name":"plateNumber","type":"string"}],"name":"getRentalInfo","outputs":[{"internalType":"address","name":"renter","type":"address"},{"internalType":"uint256","name":"amountPaid","type":"uint256"},{"internalType":"uint256","name":"timestamp","type":"uint256"},{"internalType":"bool","name":"returned","type":"bool"}],"stateMutability":"view","type":"function"},{"inputs":[],"name":"kycManager","outputs":[{"internalType":"contract IKYCManager","name":"","type":"address"}],"stateMutability":"view","type":"function"},{"inputs":[{"internalType":"string","name":"plateNumber","type":"string"}],"name":"rentCar","outputs":[],"stateMutability":"payable","type":"function"},{"inputs":[{"internalType":"string","name":"","type":"string"}],"name":"rentalRecords","outputs":[{"internalType":"address","name":"renter","type":"address"},{"internalType":"uint256","name":"amountPaid","type":"uint256"},{"internalType":"uint256","name":"timestamp","type":"uint256"},{"internalType":"bool","name":"returned","type":"bool"}],"stateMutability":"view","type":"function"},{"inputs":[],"name":"vault","outputs":[{"internalType":"contract IRentalVault","name":"","type":"address"}],"stateMutability":"view","type":"function"}],"evm":{"bytecode":{"linkReferences":{},"object":"60e06040523480156200001157600080fd5b5060405162001b3538038062001b35833981810160405281019062000037919062000146565b8273ffffffffffffffffffffffffffffffffffffffff1660808173ffffffffffffffffffffffffffffffffffffffff16815250508173ffffffffffffffffffffffffffffffffffffffff1660a08173ffffffffffffffffffffffffffffffffffffffff16815250508073ffffffffffffffffffffffffffffffffffffffff1660c08173ffffffffffffffffffffffffffffffffffffffff1681525050505050620001a2565b600080fd5b600073ffffffffffffffffffffffffffffffffffffffff82169050919050565b60006200010e82620000e1565b9050919050565b620001208162000101565b81146200012c57600080fd5b50565b600081519050620001408162000115565b92915050565b600080600060608486031215620001625762000161620000dc565b5b600062000172868287016200012f565b935050602062000185868287016200012f565b925050604062000198868287016200012f565b9150509250925092565b60805160a05160c051611932620002036000396000818161052b0152818161098f0152610d890152600081816106330152610bcf015260008181610265015281816102ba015281816104710152818161073d0152610afd01526119326000f3fe6080604052600436106100865760003560e01c80637afea44f116100595780637afea44f146101385780637fd8431314610163578063d20747a8146101a3578063f04d237c146101e0578063fbfa77cf1461022057610086565b80633d4dff7b1461008b57806358685ddb146100c857806368a4cb88146100f357806372fd3d3e1461011c575b600080fd5b34801561009757600080fd5b506100b260048036038101906100ad9190610df5565b61024b565b6040516100bf9190610e3b565b60405180910390f35b3480156100d457600080fd5b506100dd610263565b6040516100ea9190610ed5565b60405180910390f35b3480156100ff57600080fd5b5061011a60048036038101906101159190611036565b610287565b005b61013660048036038101906101319190611036565b610631565b005b34801561014457600080fd5b5061014d610bcd565b60405161015a91906110a0565b60405180910390f35b34801561016f57600080fd5b5061018a60048036038101906101859190611036565b610bf1565b60405161019a94939291906110f7565b60405180910390f35b3480156101af57600080fd5b506101ca60048036038101906101c59190611036565b610c64565b6040516101d79190610e3b565b60405180910390f35b3480156101ec57600080fd5b5061020760048036038101906102029190611036565b610cab565b60405161021794939291906110f7565b60405180910390f35b34801561022c57600080fd5b50610235610d87565b604051610242919061115d565b60405180910390f35b60006020528060005260406000206000915090505481565b7f000000000000000000000000000000000000000000000000000000000000000081565b60008160405160200161029a91906111e9565b6040516020818303038152906040528051906020012090506000806000807f000000000000000000000000000000000000000000000000000000000000000073ffffffffffffffffffffffffffffffffffffffff1663479487e3876040518263ffffffff1660e01b8152600401610311919061124a565b600060405180830381865afa15801561032e573d6000803e3d6000fd5b505050506040513d6000823e3d601f19601f82011682018060405250810190610357919061136d565b965096509650505050935060008451036103a6576040517f08c379a000000000000000000000000000000000000000000000000000000000815260040161039d906114af565b60405180910390fd5b600160028111156103ba576103b96114cf565b5b60ff168360ff1614610401576040517f08c379a00000000000000000000000000000000000000000000000000000000081526004016103f89061154a565b60405180910390fd5b3373ffffffffffffffffffffffffffffffffffffffff168273ffffffffffffffffffffffffffffffffffffffff161461046f576040517f08c379a0000000000000000000000000000000000000000000000000000000008152600401610466906115b6565b60405180910390fd5b7f000000000000000000000000000000000000000000000000000000000000000073ffffffffffffffffffffffffffffffffffffffff166336749547876040518263ffffffff1660e01b81526004016104c8919061124a565b600060405180830381600087803b1580156104e257600080fd5b505af11580156104f6573d6000803e3d6000fd5b5050505060008060008781526020019081526020016000205490506000806000888152602001908152602001600020819055507f000000000000000000000000000000000000000000000000000000000000000073ffffffffffffffffffffffffffffffffffffffff1663410085df84836040518363ffffffff1660e01b81526004016105849291906115d6565b600060405180830381600087803b15801561059e57600080fd5b505af11580156105b2573d6000803e3d6000fd5b50505050600180886040516105c791906111e9565b908152602001604051809103902060030160006101000a81548160ff0219169083151502179055507f464998be95d2dcfe9eb1b41fb03df16114842e7e953e097073c18289ba3051c687846040516106209291906115ff565b60405180910390a150505050505050565b7f000000000000000000000000000000000000000000000000000000000000000073ffffffffffffffffffffffffffffffffffffffff16638846594b336040518263ffffffff1660e01b815260040161068a919061162f565b602060405180830381865afa1580156106a7573d6000803e3d6000fd5b505050506040513d601f19601f820116820180604052508101906106cb9190611676565b61070a576040517f08c379a0000000000000000000000000000000000000000000000000000000008152600401610701906116ef565b60405180910390fd5b60008160405160200161071d91906111e9565b6040516020818303038152906040528051906020012090506000806000807f000000000000000000000000000000000000000000000000000000000000000073ffffffffffffffffffffffffffffffffffffffff1663479487e3876040518263ffffffff1660e01b8152600401610794919061124a565b600060405180830381865afa1580156107b1573d6000803e3d6000fd5b505050506040513d6000823e3d601f19601f820116820180604052508101906107da919061136d565b96505095509550505093506000845103610829576040517f08c379a0000000000000000000000000000000000000000000000000000000008152600401610820906114af565b60405180910390fd5b6000600281111561083d5761083c6114cf565b5b60ff168260ff1614610884576040517f08c379a000000000000000000000000000000000000000000000000000000000815260040161087b9061175b565b60405180910390fd5b600083905060008490506000818361089c91906117aa565b9050803410156108e1576040517f08c379a00000000000000000000000000000000000000000000000000000000081526004016108d89061182a565b60405180910390fd5b60008473ffffffffffffffffffffffffffffffffffffffff16846040516109079061187b565b60006040518083038185875af1925050503d8060008114610944576040519150601f19603f3d011682016040523d82523d6000602084013e610949565b606091505b505090508061098d576040517f08c379a0000000000000000000000000000000000000000000000000000000008152600401610984906118dc565b60405180910390fd5b7f000000000000000000000000000000000000000000000000000000000000000073ffffffffffffffffffffffffffffffffffffffff1663d0e30db0846040518263ffffffff1660e01b81526004016000604051808303818588803b1580156109f557600080fd5b505af1158015610a09573d6000803e3d6000fd5b5050505050826000808b81526020019081526020016000208190555060405180608001604052803373ffffffffffffffffffffffffffffffffffffffff1681526020013481526020014281526020016000151581525060018b604051610a6f91906111e9565b908152602001604051809103902060008201518160000160006101000a81548173ffffffffffffffffffffffffffffffffffffffff021916908373ffffffffffffffffffffffffffffffffffffffff160217905550602082015181600101556040820151816002015560608201518160030160006101000a81548160ff0219169083151502179055509050507f000000000000000000000000000000000000000000000000000000000000000073ffffffffffffffffffffffffffffffffffffffff1663c1208b9d8b336040518363ffffffff1660e01b8152600401610b569291906115ff565b600060405180830381600087803b158015610b7057600080fd5b505af1158015610b84573d6000803e3d6000fd5b505050507fe0903df489d90288745389e699f476635bf4b26eaabf03f19d342cc921c54f6c8a33604051610bb99291906115ff565b60405180910390a150505050505050505050565b7f000000000000000000000000000000000000000000000000000000000000000081565b6001818051602081018201805184825260208301602085012081835280955050505050506000915090508060000160009054906101000a900473ffffffffffffffffffffffffffffffffffffffff16908060010154908060020154908060030160009054906101000a900460ff16905084565b60008082604051602001610c7891906111e9565b60405160208183030381529060405280519060200120905060008082815260200190815260200160002054915050919050565b6000806000806000600186604051610cc391906111e9565b90815260200160405180910390206040518060800160405290816000820160009054906101000a900473ffffffffffffffffffffffffffffffffffffffff1673ffffffffffffffffffffffffffffffffffffffff1673ffffffffffffffffffffffffffffffffffffffff16815260200160018201548152602001600282015481526020016003820160009054906101000a900460ff161515151581525050905080600001518160200151826040015183606001519450945094509450509193509193565b7f000000000000000000000000000000000000000000000000000000000000000081565b6000604051905090565b600080fd5b600080fd5b6000819050919050565b610dd281610dbf565b8114610ddd57600080fd5b50565b600081359050610def81610dc9565b92915050565b600060208284031215610e0b57610e0a610db5565b5b6000610e1984828501610de0565b91505092915050565b6000819050919050565b610e3581610e22565b82525050565b6000602082019050610e506000830184610e2c565b92915050565b600073ffffffffffffffffffffffffffffffffffffffff82169050919050565b6000819050919050565b6000610e9b610e96610e9184610e56565b610e76565b610e56565b9050919050565b6000610ead82610e80565b9050919050565b6000610ebf82610ea2565b9050919050565b610ecf81610eb4565b82525050565b6000602082019050610eea6000830184610ec6565b92915050565b600080fd5b600080fd5b6000601f19601f8301169050919050565b7f4e487b7100000000000000000000000000000000000000000000000000000000600052604160045260246000fd5b610f4382610efa565b810181811067ffffffffffffffff82111715610f6257610f61610f0b565b5b80604052505050565b6000610f75610dab565b9050610f818282610f3a565b919050565b600067ffffffffffffffff821115610fa157610fa0610f0b565b5b610faa82610efa565b9050602081019050919050565b82818337600083830152505050565b6000610fd9610fd484610f86565b610f6b565b905082815260208101848484011115610ff557610ff4610ef5565b5b611000848285610fb7565b509392505050565b600082601f83011261101d5761101c610ef0565b5b813561102d848260208601610fc6565b91505092915050565b60006020828403121561104c5761104b610db5565b5b600082013567ffffffffffffffff81111561106a57611069610dba565b5b61107684828501611008565b91505092915050565b600061108a82610ea2565b9050919050565b61109a8161107f565b82525050565b60006020820190506110b56000830184611091565b92915050565b60006110c682610e56565b9050919050565b6110d6816110bb565b82525050565b60008115159050919050565b6110f1816110dc565b82525050565b600060808201905061110c60008301876110cd565b6111196020830186610e2c565b6111266040830185610e2c565b61113360608301846110e8565b95945050505050565b600061114782610ea2565b9050919050565b6111578161113c565b82525050565b6000602082019050611172600083018461114e565b92915050565b600081519050919050565b600081905092915050565b60005b838110156111ac578082015181840152602081019050611191565b60008484015250505050565b60006111c382611178565b6111cd8185611183565b93506111dd81856020860161118e565b80840191505092915050565b60006111f582846111b8565b915081905092915050565b600082825260208201905092915050565b600061121c82611178565b6112268185611200565b935061123681856020860161118e565b61123f81610efa565b840191505092915050565b600060208201905081810360008301526112648184611211565b905092915050565b600061127f61127a84610f86565b610f6b565b90508281526020810184848401111561129b5761129a610ef5565b5b6112a684828561118e565b509392505050565b600082601f8301126112c3576112c2610ef0565b5b81516112d384826020860161126c565b91505092915050565b6112e581610e22565b81146112f057600080fd5b50565b600081519050611302816112dc565b92915050565b600060ff82169050919050565b61131e81611308565b811461132957600080fd5b50565b60008151905061133b81611315565b92915050565b61134a816110bb565b811461135557600080fd5b50565b60008151905061136781611341565b92915050565b600080600080600080600060e0888a03121561138c5761138b610db5565b5b600088015167ffffffffffffffff8111156113aa576113a9610dba565b5b6113b68a828b016112ae565b975050602088015167ffffffffffffffff8111156113d7576113d6610dba565b5b6113e38a828b016112ae565b965050604088015167ffffffffffffffff81111561140457611403610dba565b5b6114108a828b016112ae565b95505060606114218a828b016112f3565b94505060806114328a828b0161132c565b93505060a06114438a828b01611358565b92505060c06114548a828b01611358565b91505092959891949750929550565b7f436172206e6f7420666f756e6400000000000000000000000000000000000000600082015250565b6000611499600d83611200565b91506114a482611463565b602082019050919050565b600060208201905081810360008301526114c88161148c565b9050919050565b7f4e487b7100000000000000000000000000000000000000000000000000000000600052602160045260246000fd5b7f436172206973206e6f742063757272656e746c792072656e7465640000000000600082015250565b6000611534601b83611200565b915061153f826114fe565b602082019050919050565b6000602082019050818103600083015261156381611527565b9050919050565b7f596f7520617265206e6f74207468652072656e74657200000000000000000000600082015250565b60006115a0601683611200565b91506115ab8261156a565b602082019050919050565b600060208201905081810360008301526115cf81611593565b9050919050565b60006040820190506115eb60008301856110cd565b6115f86020830184610e2c565b9392505050565b600060408201905081810360008301526116198185611211565b905061162860208301846110cd565b9392505050565b600060208201905061164460008301846110cd565b92915050565b611653816110dc565b811461165e57600080fd5b50565b6000815190506116708161164a565b92915050565b60006020828403121561168c5761168b610db5565b5b600061169a84828501611661565b91505092915050565b7f4b5943206e6f7420617070726f76656400000000000000000000000000000000600082015250565b60006116d9601083611200565b91506116e4826116a3565b602082019050919050565b60006020820190508181036000830152611708816116cc565b9050919050565b7f436172206973206e6f7420617661696c61626c65000000000000000000000000600082015250565b6000611745601483611200565b91506117508261170f565b602082019050919050565b6000602082019050818103600083015261177481611738565b9050919050565b7f4e487b7100000000000000000000000000000000000000000000000000000000600052601160045260246000fd5b60006117b582610e22565b91506117c083610e22565b92508282019050808211156117d8576117d761177b565b5b92915050565b7f496e73756666696369656e74207061796d656e74000000000000000000000000600082015250565b6000611814601483611200565b915061181f826117de565b602082019050919050565b6000602082019050818103600083015261184381611807565b9050919050565b600081905092915050565b50565b600061186560008361184a565b915061187082611855565b600082019050919050565b600061188682611858565b9150819050919050565b7f5061796d656e7420746f206f776e6572206661696c6564000000000000000000600082015250565b60006118c6601783611200565b91506118d182611890565b602082019050919050565b600060208201905081810360008301526118f5816118b9565b905091905056fea2646970667358221220843afa1d72da5dd1db7fe64bd3744abfea6123d5a9ecb9113a616a3f3c6ffaac64736f6c63430008140033","opcodes":"PUSH1 0xE0 PUSH1 0x40 MSTORE CALLVALUE DUP1 ISZERO PUSH3 0x11 JUMPI PUSH1 0x0 DUP1 REVERT JUMPDEST POP PUSH1 0x40 MLOAD PUSH3 0x1B35 CODESIZE SUB DUP1 PUSH3 0x1B35 DUP4 CODECOPY DUP2 DUP2 ADD PUSH1 0x40 MSTORE DUP2 ADD SWAP1 PUSH3 0x37 SWAP2 SWAP1 PUSH3 0x146 JUMP JUMPDEST DUP3 PUSH20 0xFFFFFFFFFFFFFFFFFFFFFFFFFFFFFFFFFFFFFFFF AND PUSH1 0x80 DUP2 PUSH20 0xFFFFFFFFFFFFFFFFFFFFFFFFFFFFFFFFFFFFFFFF AND DUP2 MSTORE POP POP DUP2 PUSH20 0xFFFFFFFFFFFFFFFFFFFFFFFFFFFFFFFFFFFFFFFF AND PUSH1 0xA0 DUP2 PUSH20 0xFFFFFFFFFFFFFFFFFFFFFFFFFFFFFFFFFFFFFFFF AND DUP2 MSTORE POP POP DUP1 PUSH20 0xFFFFFFFFFFFFFFFFFFFFFFFFFFFFFFFFFFFFFFFF AND PUSH1 0xC0 DUP2 PUSH20 0xFFFFFFFFFFFFFFFFFFFFFFFFFFFFFFFFFFFFFFFF AND DUP2 MSTORE POP POP POP POP POP PUSH3 0x1A2 JUMP JUMPDEST PUSH1 0x0 DUP1 REVERT JUMPDEST PUSH1 0x0 PUSH20 0xFFFFFFFFFFFFFFFFFFFFFFFFFFFFFFFFFFFFFFFF DUP3 AND SWAP1 POP SWAP2 SWAP1 POP JUMP JUMPDEST PUSH1 0x0 PUSH3 0x10E DUP3 PUSH3 0xE1 JUMP JUMPDEST SWAP1 POP SWAP2 SWAP1 POP JUMP JUMPDEST PUSH3 0x120 DUP2 PUSH3 0x101 JUMP JUMPDEST DUP2 EQ PUSH3 0x12C JUMPI PUSH1 0x0 DUP1 REVERT JUMPDEST POP JUMP JUMPDEST PUSH1 0x0 DUP2 MLOAD SWAP1 POP PUSH3 0x140 DUP2 PUSH3 0x115 JUMP JUMPDEST SWAP3 SWAP2 POP POP JUMP JUMPDEST PUSH1 0x0 DUP1 PUSH1 0x0 PUSH1 0x60 DUP5 DUP7 SUB SLT ISZERO PUSH3 0x162 JUMPI PUSH3 0x161 PUSH3 0xDC JUMP JUMPDEST JUMPDEST PUSH1 0x0 PUSH3 0x172 DUP7 DUP3 DUP8 ADD PUSH3 0x12F JUMP JUMPDEST SWAP4 POP POP PUSH1 0x20 PUSH3 0x185 DUP7 DUP3 DUP8 ADD PUSH3 0x12F JUMP JUMPDEST SWAP3 POP POP PUSH1 0x40 PUSH3 0x198 DUP7 DUP3 DUP8 ADD PUSH3 0x12F JUMP JUMPDEST SWAP2 POP POP SWAP3 POP SWAP3 POP SWAP3 JUMP JUMPDEST PUSH1 0x80 MLOAD PUSH1 0xA0 MLOAD PUSH1 0xC0 MLOAD PUSH2 0x1932 PUSH3 0x203 PUSH1 0x0 CODECOPY PUSH1 0x0 DUP2 DUP2 PUSH2 0x52B ADD MSTORE DUP2 DUP2 PUSH2 0x98F ADD MSTORE PUSH2 0xD89 ADD MSTORE PUSH1 0x0 DUP2 DUP2 PUSH2 0x633 ADD MSTORE PUSH2 0xBCF ADD MSTORE PUSH1 0x0 DUP2 DUP2 PUSH2 0x265 ADD MSTORE DUP2 DUP2 PUSH2 0x2BA ADD MSTORE DUP2 DUP2 PUSH2 0x471 ADD MSTORE DUP2 DUP2 PUSH2 0x73D ADD MSTORE PUSH2 0xAFD ADD MSTORE PUSH2 0x1932 PUSH1 0x0 RETURN INVALID PUSH1 0x80 PUSH1 0x40 MSTORE PUSH1 0x4 CALLDATASIZE LT PUSH2 0x86 JUMPI PUSH1 0x0 CALLDATALOAD PUSH1 0xE0 SHR DUP1 PUSH4 0x7AFEA44F GT PUSH2 0x59 JUMPI DUP1 PUSH4 0x7AFEA44F EQ PUSH2 0x138 JUMPI DUP1 PUSH4 0x7FD84313 EQ PUSH2 0x163 JUMPI DUP1 PUSH4 0xD20747A8 EQ PUSH2 0x1A3 JUMPI DUP1 PUSH4 0xF04D237C EQ PUSH2 0x1E0 JUMPI DUP1 PUSH4 0xFBFA77CF EQ PUSH2 0x220 JUMPI PUSH2 0x86 JUMP JUMPDEST DUP1 PUSH4 0x3D4DFF7B EQ PUSH2 0x8B JUMPI DUP1 PUSH4 0x58685DDB EQ PUSH2 0xC8 JUMPI DUP1 PUSH4 0x68A4CB88 EQ PUSH2 0xF3 JUMPI DUP1 PUSH4 0x72FD3D3E EQ PUSH2 0x11C JUMPI JUMPDEST PUSH1 0x0 DUP1 REVERT JUMPDEST CALLVALUE DUP1 ISZERO PUSH2 0x97 JUMPI PUSH1 0x0 DUP1 REVERT JUMPDEST POP PUSH2 0xB2 PUSH1 0x4 DUP1 CALLDATASIZE SUB DUP2 ADD SWAP1 PUSH2 0xAD SWAP2 SWAP1 PUSH2 0xDF5 JUMP JUMPDEST PUSH2 0x24B JUMP JUMPDEST PUSH1 0x40 MLOAD PUSH2 0xBF SWAP2 SWAP1 PUSH2 0xE3B JUMP JUMPDEST PUSH1 0x40 MLOAD DUP1 SWAP2 SUB SWAP1 RETURN JUMPDEST CALLVALUE DUP1 ISZERO PUSH2 0xD4 JUMPI PUSH1 0x0 DUP1 REVERT JUMPDEST POP PUSH2 0xDD PUSH2 0x263 JUMP JUMPDEST PUSH1 0x40 MLOAD PUSH2 0xEA SWAP2 SWAP1 PUSH2 0xED5 JUMP JUMPDEST PUSH1 0x40 MLOAD DUP1 SWAP2 SUB SWAP1 RETURN JUMPDEST CALLVALUE DUP1 ISZERO PUSH2 0xFF JUMPI PUSH1 0x0 DUP1 REVERT JUMPDEST POP PUSH2 0x11A PUSH1 0x4 DUP1 CALLDATASIZE SUB DUP2 ADD SWAP1 PUSH2 0x115 SWAP2 SWAP1 PUSH2 0x1036 JUMP JUMPDEST PUSH2 0x287 JUMP JUMPDEST STOP JUMPDEST PUSH2 0x136 PUSH1 0x4 DUP1 CALLDATASIZE SUB DUP2 ADD SWAP1 PUSH2 0x131 SWAP2 SWAP1 PUSH2 0x1036 JUMP JUMPDEST PUSH2 0x631 JUMP JUMPDEST STOP JUMPDEST CALLVALUE DUP1 ISZERO PUSH2 0x144 JUMPI PUSH1 0x0 DUP1 REVERT JUMPDEST POP PUSH2 0x14D PUSH2 0xBCD JUMP JUMPDEST PUSH1 0x40 MLOAD PUSH2 0x15A SWAP2 SWAP1 PUSH2 0x10A0 JUMP JUMPDEST PUSH1 0x40 MLOAD DUP1 SWAP2 SUB SWAP1 RETURN JUMPDEST CALLVALUE DUP1 ISZERO PUSH2 0x16F JUMPI PUSH1 0x0 DUP1 REVERT JUMPDEST POP PUSH2 0x18A PUSH1 0x4 DUP1 CALLDATASIZE SUB DUP2 ADD SWAP1 PUSH2 0x185 SWAP2 SWAP1 PUSH2 0x1036 JUMP JUMPDEST PUSH2 0xBF1 JUMP JUMPDEST PUSH1 0x40 MLOAD PUSH2 0x19A SWAP5 SWAP4 SWAP3 SWAP2 SWAP1 PUSH2 0x10F7 JUMP JUMPDEST PUSH1 0x40 MLOAD DUP1 SWAP2 SUB SWAP1 RETURN JUMPDEST CALLVALUE DUP1 ISZERO PUSH2 0x1AF JUMPI PUSH1 0x0 DUP1 REVERT JUMPDEST POP PUSH2 0x1CA PUSH1 0x4 DUP1 CALLDATASIZE SUB DUP2 ADD SWAP1 PUSH2 0x1C5 SWAP2 SWAP1 PUSH2 0x1036 JUMP JUMPDEST PUSH2 0xC64 JUMP JUMPDEST PUSH1 0x40 MLOAD PUSH2 0x1D7 SWAP2 SWAP1 PUSH2 0xE3B JUMP JUMPDEST PUSH1 0x40 MLOAD DUP1 SWAP2 SUB SWAP1 RETURN JUMPDEST CALLVALUE DUP1 ISZERO PUSH2 0x1EC JUMPI PUSH1 0x0 DUP1 REVERT JUMPDEST POP PUSH2 0x207 PUSH1 0x4 DUP1 CALLDATASIZE SUB DUP2 ADD SWAP1 PUSH2 0x202 SWAP2 SWAP1 PUSH2 0x1036 JUMP JUMPDEST PUSH2 0xCAB JUMP JUMPDEST PUSH1 0x40 MLOAD PUSH2 0x217 SWAP5 SWAP4 SWAP3 SWAP2 SWAP1 PUSH2 0x10F7 JUMP JUMPDEST PUSH1 0x40 MLOAD DUP1 SWAP2 SUB SWAP1 RETURN JUMPDEST CALLVALUE DUP1 ISZERO PUSH2 0x22C JUMPI PUSH1 0x0 DUP1 REVERT JUMPDEST POP PUSH2 0x235 PUSH2 0xD87 JUMP JUMPDEST PUSH1 0x40 MLOAD PUSH2 0x242 SWAP2 SWAP1 PUSH2 0x115D JUMP JUMPDEST PUSH1 0x40 MLOAD DUP1 SWAP2 SUB SWAP1 RETURN JUMPDEST PUSH1 0x0 PUSH1 0x20 MSTORE DUP1 PUSH1 0x0 MSTORE PUSH1 0x40 PUSH1 0x0 KECCAK256 PUSH1 0x0 SWAP2 POP SWAP1 POP SLOAD DUP2 JUMP JUMPDEST PUSH32 0x0 DUP2 JUMP JUMPDEST PUSH1 0x0 DUP2 PUSH1 0x40 MLOAD PUSH1 0x20 ADD PUSH2 0x29A SWAP2 SWAP1 PUSH2 0x11E9 JUMP JUMPDEST PUSH1 0x40 MLOAD PUSH1 0x20 DUP2 DUP4 SUB SUB DUP2 MSTORE SWAP1 PUSH1 0x40 MSTORE DUP1 MLOAD SWAP1 PUSH1 0x20 ADD KECCAK256 SWAP1 POP PUSH1 0x0 DUP1 PUSH1 0x0 DUP1 PUSH32 0x0 PUSH20 0xFFFFFFFFFFFFFFFFFFFFFFFFFFFFFFFFFFFFFFFF AND PUSH4 0x479487E3 DUP8 PUSH1 0x40 MLOAD DUP3 PUSH4 0xFFFFFFFF AND PUSH1 0xE0 SHL DUP2 MSTORE PUSH1 0x4 ADD PUSH2 0x311 SWAP2 SWAP1 PUSH2 0x124A JUMP JUMPDEST PUSH1 0x0 PUSH1 0x40 MLOAD DUP1 DUP4 SUB DUP2 DUP7 GAS STATICCALL ISZERO DUP1 ISZERO PUSH2 0x32E JUMPI RETURNDATASIZE PUSH1 0x0 DUP1 RETURNDATACOPY RETURNDATASIZE PUSH1 0x0 REVERT JUMPDEST POP POP POP POP PUSH1 0x40 MLOAD RETURNDATASIZE PUSH1 0x0 DUP3 RETURNDATACOPY RETURNDATASIZE PUSH1 0x1F NOT PUSH1 0x1F DUP3 ADD AND DUP3 ADD DUP1 PUSH1 0x40 MSTORE POP DUP2 ADD SWAP1 PUSH2 0x357 SWAP2 SWAP1 PUSH2 0x136D JUMP JUMPDEST SWAP7 POP SWAP7 POP SWAP7 POP POP POP POP SWAP4 POP PUSH1 0x0 DUP5 MLOAD SUB PUSH2 0x3A6 JUMPI PUSH1 0x40 MLOAD PUSH32 0x8C379A000000000000000000000000000000000000000000000000000000000 DUP2 MSTORE PUSH1 0x4 ADD PUSH2 0x39D SWAP1 PUSH2 0x14AF JUMP JUMPDEST PUSH1 0x40 MLOAD DUP1 SWAP2 SUB SWAP1 REVERT JUMPDEST PUSH1 0x1 PUSH1 0x2 DUP2 GT ISZERO PUSH2 0x3BA JUMPI PUSH2 0x3B9 PUSH2 0x14CF JUMP JUMPDEST JUMPDEST PUSH1 0xFF AND DUP4 PUSH1 0xFF AND EQ PUSH2 0x401 JUMPI PUSH1 0x40 MLOAD PUSH32 0x8C379A000000000000000000000000000000000000000000000000000000000 DUP2 MSTORE PUSH1 0x4 ADD PUSH2 0x3F8 SWAP1 PUSH2 0x154A JUMP JUMPDEST PUSH1 0x40 MLOAD DUP1 SWAP2 SUB SWAP1 REVERT JUMPDEST CALLER PUSH20 0xFFFFFFFFFFFFFFFFFFFFFFFFFFFFFFFFFFFFFFFF AND DUP3 PUSH20 0xFFFFFFFFFFFFFFFFFFFFFFFFFFFFFFFFFFFFFFFF AND EQ PUSH2 0x46F JUMPI PUSH1 0x40 MLOAD PUSH32 0x8C379A000000000000000000000000000000000000000000000000000000000 DUP2 MSTORE PUSH1 0x4 ADD PUSH2 0x466 SWAP1 PUSH2 0x15B6 JUMP JUMPDEST PUSH1 0x40 MLOAD DUP1 SWAP2 SUB SWAP1 REVERT JUMPDEST PUSH32 0x0 PUSH20 0xFFFFFFFFFFFFFFFFFFFFFFFFFFFFFFFFFFFFFFFF AND PUSH4 0x36749547 DUP8 PUSH1 0x40 MLOAD DUP3 PUSH4 0xFFFFFFFF AND PUSH1 0xE0 SHL DUP2 MSTORE PUSH1 0x4 ADD PUSH2 0x4C8 SWAP2 SWAP1 PUSH2 0x124A JUMP JUMPDEST PUSH1 0x0 PUSH1 0x40 MLOAD DUP1 DUP4 SUB DUP2 PUSH1 0x0 DUP8 DUP1 EXTCODESIZE ISZERO DUP1 ISZERO PUSH2 0x4E2 JUMPI PUSH1 0x0 DUP1 REVERT JUMPDEST POP GAS CALL ISZERO DUP1 ISZERO PUSH2 0x4F6 JUMPI RETURNDATASIZE PUSH1 0x0 DUP1 RETURNDATACOPY RETURNDATASIZE PUSH1 0x0 REVERT JUMPDEST POP POP POP POP PUSH1 0x0 DUP1 PUSH1 0x0 DUP8 DUP2 MSTORE PUSH1 0x20 ADD SWAP1 DUP2 MSTORE PUSH1 0x20 ADD PUSH1 0x0 KECCAK256 SLOAD SWAP1 POP PUSH1 0x0 DUP1 PUSH1 0x0 DUP9 DUP2 MSTORE PUSH1 0x20 ADD SWAP1 DUP2 MSTORE PUSH1 0x20 ADD PUSH1 0x0 KECCAK256 DUP2 SWAP1 SSTORE POP PUSH32 0x0 PUSH20 0xFFFFFFFFFFFFFFFFFFFFFFFFFFFFFFFFFFFFFFFF AND PUSH4 0x410085DF DUP5 DUP4 PUSH1 0x40 MLOAD DUP4 PUSH4 0xFFFFFFFF AND PUSH1 0xE0 SHL DUP2 MSTORE PUSH1 0x4 ADD PUSH2 0x584 SWAP3 SWAP2 SWAP1 PUSH2 0x15D6 JUMP JUMPDEST PUSH1 0x0 PUSH1 0x40 MLOAD DUP1 DUP4 SUB DUP2 PUSH1 0x0 DUP8 DUP1 EXTCODESIZE ISZERO DUP1 ISZERO PUSH2 0x59E JUMPI PUSH1 0x0 DUP1 REVERT JUMPDEST POP GAS CALL ISZERO DUP1 ISZERO PUSH2 0x5B2 JUMPI RETURNDATASIZE PUSH1 0x0 DUP1 RETURNDATACOPY RETURNDATASIZE PUSH1 0x0 REVERT JUMPDEST POP POP POP POP PUSH1 0x1 DUP1 DUP9 PUSH1 0x40 MLOAD PUSH2 0x5C7 SWAP2 SWAP1 PUSH2 0x11E9 JUMP JUMPDEST SWAP1 DUP2 MSTORE PUSH1 0x20 ADD PUSH1 0x40 MLOAD DUP1 SWAP2 SUB SWAP1 KECCAK256 PUSH1 0x3 ADD PUSH1 0x0 PUSH2 0x100 EXP DUP2 SLOAD DUP2 PUSH1 0xFF MUL NOT AND SWAP1 DUP4 ISZERO ISZERO MUL OR SWAP1 SSTORE POP PUSH32 0x464998BE95D2DCFE9EB1B41FB03DF16114842E7E953E097073C18289BA3051C6 DUP8 DUP5 PUSH1 0x40 MLOAD PUSH2 0x620 SWAP3 SWAP2 SWAP1 PUSH2 0x15FF JUMP JUMPDEST PUSH1 0x40 MLOAD DUP1 SWAP2 SUB SWAP1 LOG1 POP POP POP POP POP POP POP JUMP JUMPDEST PUSH32 0x0 PUSH20 0xFFFFFFFFFFFFFFFFFFFFFFFFFFFFFFFFFFFFFFFF AND PUSH4 0x8846594B CALLER PUSH1 0x40 MLOAD DUP3 PUSH4 0xFFFFFFFF AND PUSH1 0xE0 SHL DUP2 MSTORE PUSH1 0x4 ADD PUSH2 0x68A SWAP2 SWAP1 PUSH2 0x162F JUMP JUMPDEST PUSH1 0x20 PUSH1 0x40 MLOAD DUP1 DUP4 SUB DUP2 DUP7 GAS STATICCALL ISZERO DUP1 ISZERO PUSH2 0x6A7 JUMPI RETURNDATASIZE PUSH1 0x0 DUP1 RETURNDATACOPY RETURNDATASIZE PUSH1 0x0 REVERT JUMPDEST POP POP POP POP PUSH1 0x40 MLOAD RETURNDATASIZE PUSH1 0x1F NOT PUSH1 0x1F DUP3 ADD AND DUP3 ADD DUP1 PUSH1 0x40 MSTORE POP DUP2 ADD SWAP1 PUSH2 0x6CB SWAP2 SWAP1 PUSH2 0x1676 JUMP JUMPDEST PUSH2 0x70A JUMPI PUSH1 0x40 MLOAD PUSH32 0x8C379A000000000000000000000000000000000000000000000000000000000 DUP2 MSTORE PUSH1 0x4 ADD PUSH2 0x701 SWAP1 PUSH2 0x16EF JUMP JUMPDEST PUSH1 0x40 MLOAD DUP1 SWAP2 SUB SWAP1 REVERT JUMPDEST PUSH1 0x0 DUP2 PUSH1 0x40 MLOAD PUSH1 0x20 ADD PUSH2 0x71D SWAP2 SWAP1 PUSH2 0x11E9 JUMP JUMPDEST PUSH1 0x40 MLOAD PUSH1 0x20 DUP2 DUP4 SUB SUB DUP2 MSTORE SWAP1 PUSH1 0x40 MSTORE DUP1 MLOAD SWAP1 PUSH1 0x20 ADD KECCAK256 SWAP1 POP PUSH1 0x0 DUP1 PUSH1 0x0 DUP1 PUSH32 0x0 PUSH20 0xFFFFFFFFFFFFFFFFFFFFFFFFFFFFFFFFFFFFFFFF AND PUSH4 0x479487E3 DUP8 PUSH1 0x40 MLOAD DUP3 PUSH4 0xFFFFFFFF AND PUSH1 0xE0 SHL DUP2 MSTORE PUSH1 0x4 ADD PUSH2 0x794 SWAP2 SWAP1 PUSH2 0x124A JUMP JUMPDEST PUSH1 0x0 PUSH1 0x40 MLOAD DUP1 DUP4 SUB DUP2 DUP7 GAS STATICCALL ISZERO DUP1 ISZERO PUSH2 0x7B1 JUMPI RETURNDATASIZE PUSH1 0x0 DUP1 RETURNDATACOPY RETURNDATASIZE PUSH1 0x0 REVERT JUMPDEST POP POP POP POP PUSH1 0x40 MLOAD RETURNDATASIZE PUSH1 0x0 DUP3 RETURNDATACOPY RETURNDATASIZE PUSH1 0x1F NOT PUSH1 0x1F DUP3 ADD AND DUP3 ADD DUP1 PUSH1 0x40 MSTORE POP DUP2 ADD SWAP1 PUSH2 0x7DA SWAP2 SWAP1 PUSH2 0x136D JUMP JUMPDEST SWAP7 POP POP SWAP6 POP SWAP6 POP POP POP SWAP4 POP PUSH1 0x0 DUP5 MLOAD SUB PUSH2 0x829 JUMPI PUSH1 0x40 MLOAD PUSH32 0x8C379A000000000000000000000000000000000000000000000000000000000 DUP2 MSTORE PUSH1 0x4 ADD PUSH2 0x820 SWAP1 PUSH2 0x14AF JUMP JUMPDEST PUSH1 0x40 MLOAD DUP1 SWAP2 SUB SWAP1 REVERT JUMPDEST PUSH1 0x0 PUSH1 0x2 DUP2 GT ISZERO PUSH2 0x83D JUMPI PUSH2 0x83C PUSH2 0x14CF JUMP JUMPDEST JUMPDEST PUSH1 0xFF AND DUP3 PUSH1 0xFF AND EQ PUSH2 0x884 JUMPI PUSH1 0x40 MLOAD PUSH32 0x8C379A000000000000000000000000000000000000000000000000000000000 DUP2 MSTORE PUSH1 0x4 ADD PUSH2 0x87B SWAP1 PUSH2 0x175B JUMP JUMPDEST PUSH1 0x40 MLOAD DUP1 SWAP2 SUB SWAP1 REVERT JUMPDEST PUSH1 0x0 DUP4 SWAP1 POP PUSH1 0x0 DUP5 SWAP1 POP PUSH1 0x0 DUP2 DUP4 PUSH2 0x89C SWAP2 SWAP1 PUSH2 0x17AA JUMP JUMPDEST SWAP1 POP DUP1 CALLVALUE LT ISZERO PUSH2 0x8E1 JUMPI PUSH1 0x40 MLOAD PUSH32 0x8C379A000000000000000000000000000000000000000000000000000000000 DUP2 MSTORE PUSH1 0x4 ADD PUSH2 0x8D8 SWAP1 PUSH2 0x182A JUMP JUMPDEST PUSH1 0x40 MLOAD DUP1 SWAP2 SUB SWAP1 REVERT JUMPDEST PUSH1 0x0 DUP5 PUSH20 0xFFFFFFFFFFFFFFFFFFFFFFFFFFFFFFFFFFFFFFFF AND DUP5 PUSH1 0x40 MLOAD PUSH2 0x907 SWAP1 PUSH2 0x187B JUMP JUMPDEST PUSH1 0x0 PUSH1 0x40 MLOAD DUP1 DUP4 SUB DUP2 DUP6 DUP8 GAS CALL SWAP3 POP POP POP RETURNDATASIZE DUP1 PUSH1 0x0 DUP2 EQ PUSH2 0x944 JUMPI PUSH1 0x40 MLOAD SWAP2 POP PUSH1 0x1F NOT PUSH1 0x3F RETURNDATASIZE ADD AND DUP3 ADD PUSH1 0x40 MSTORE RETURNDATASIZE DUP3 MSTORE RETURNDATASIZE PUSH1 0x0 PUSH1 0x20 DUP5 ADD RETURNDATACOPY PUSH2 0x949 JUMP JUMPDEST PUSH1 0x60 SWAP2 POP JUMPDEST POP POP SWAP1 POP DUP1 PUSH2 0x98D JUMPI PUSH1 0x40 MLOAD PUSH32 0x8C379A000000000000000000000000000000000000000000000000000000000 DUP2 MSTORE PUSH1 0x4 ADD PUSH2 0x984 SWAP1 PUSH2 0x18DC JUMP JUMPDEST PUSH1 0x40 MLOAD DUP1 SWAP2 SUB SWAP1 REVERT JUMPDEST PUSH32 0x0 PUSH20 0xFFFFFFFFFFFFFFFFFFFFFFFFFFFFFFFFFFFFFFFF AND PUSH4 0xD0E30DB0 DUP5 PUSH1 0x40 MLOAD DUP3 PUSH4 0xFFFFFFFF AND PUSH1 0xE0 SHL DUP2 MSTORE PUSH1 0x4 ADD PUSH1 0x0 PUSH1 0x40 MLOAD DUP1 DUP4 SUB DUP2 DUP6 DUP9 DUP1 EXTCODESIZE ISZERO DUP1 ISZERO PUSH2 0x9F5 JUMPI PUSH1 0x0 DUP1 REVERT JUMPDEST POP GAS CALL ISZERO DUP1 ISZERO PUSH2 0xA09 JUMPI RETURNDATASIZE PUSH1 0x0 DUP1 RETURNDATACOPY RETURNDATASIZE PUSH1 0x0 REVERT JUMPDEST POP POP POP POP POP DUP3 PUSH1 0x0 DUP1 DUP12 DUP2 MSTORE PUSH1 0x20 ADD SWAP1 DUP2 MSTORE PUSH1 0x20 ADD PUSH1 0x0 KECCAK256 DUP2 SWAP1 SSTORE POP PUSH1 0x40 MLOAD DUP1 PUSH1 0x80 ADD PUSH1 0x40 MSTORE DUP1 CALLER PUSH20 0xFFFFFFFFFFFFFFFFFFFFFFFFFFFFFFFFFFFFFFFF AND DUP2 MSTORE PUSH1 0x20 ADD CALLVALUE DUP2 MSTORE PUSH1 0x20 ADD TIMESTAMP DUP2 MSTORE PUSH1 0x20 ADD PUSH1 0x0 ISZERO ISZERO DUP2 MSTORE POP PUSH1 0x1 DUP12 PUSH1 0x40 MLOAD PUSH2 0xA6F SWAP2 SWAP1 PUSH2 0x11E9 JUMP JUMPDEST SWAP1 DUP2 MSTORE PUSH1 0x20 ADD PUSH1 0x40 MLOAD DUP1 SWAP2 SUB SWAP1 KECCAK256 PUSH1 0x0 DUP3 ADD MLOAD DUP2 PUSH1 0x0 ADD PUSH1 0x0 PUSH2 0x100 EXP DUP2 SLOAD DUP2 PUSH20 0xFFFFFFFFFFFFFFFFFFFFFFFFFFFFFFFFFFFFFFFF MUL NOT AND SWAP1 DUP4 PUSH20 0xFFFFFFFFFFFFFFFFFFFFFFFFFFFFFFFFFFFFFFFF AND MUL OR SWAP1 SSTORE POP PUSH1 0x20 DUP3 ADD MLOAD DUP2 PUSH1 0x1 ADD SSTORE PUSH1 0x40 DUP3 ADD MLOAD DUP2 PUSH1 0x2 ADD SSTORE PUSH1 0x60 DUP3 ADD MLOAD DUP2 PUSH1 0x3 ADD PUSH1 0x0 PUSH2 0x100 EXP DUP2 SLOAD DUP2 PUSH1 0xFF MUL NOT AND SWAP1 DUP4 ISZERO ISZERO MUL OR SWAP1 SSTORE POP SWAP1 POP POP PUSH32 0x0 PUSH20 0xFFFFFFFFFFFFFFFFFFFFFFFFFFFFFFFFFFFFFFFF AND PUSH4 0xC1208B9D DUP12 CALLER PUSH1 0x40 MLOAD DUP4 PUSH4 0xFFFFFFFF AND PUSH1 0xE0 SHL DUP2 MSTORE PUSH1 0x4 ADD PUSH2 0xB56 SWAP3 SWAP2 SWAP1 PUSH2 0x15FF JUMP JUMPDEST PUSH1 0x0 PUSH1 0x40 MLOAD DUP1 DUP4 SUB DUP2 PUSH1 0x0 DUP8 DUP1 EXTCODESIZE ISZERO DUP1 ISZERO PUSH2 0xB70 JUMPI PUSH1 0x0 DUP1 REVERT JUMPDEST POP GAS CALL ISZERO DUP1 ISZERO PUSH2 0xB84 JUMPI RETURNDATASIZE PUSH1 0x0 DUP1 RETURNDATACOPY RETURNDATASIZE PUSH1 0x0 REVERT JUMPDEST POP POP POP POP PUSH32 0xE0903DF489D90288745389E699F476635BF4B26EAABF03F19D342CC921C54F6C DUP11 CALLER PUSH1 0x40 MLOAD PUSH2 0xBB9 SWAP3 SWAP2 SWAP1 PUSH2 0x15FF JUMP JUMPDEST PUSH1 0x40 MLOAD DUP1 SWAP2 SUB SWAP1 LOG1 POP POP POP POP POP POP POP POP POP POP JUMP JUMPDEST PUSH32 0x0 DUP2 JUMP JUMPDEST PUSH1 0x1 DUP2 DUP1 MLOAD PUSH1 0x20 DUP2 ADD DUP3 ADD DUP1 MLOAD DUP5 DUP3 MSTORE PUSH1 0x20 DUP4 ADD PUSH1 0x20 DUP6 ADD KECCAK256 DUP2 DUP4 MSTORE DUP1 SWAP6 POP POP POP POP POP POP PUSH1 0x0 SWAP2 POP SWAP1 POP DUP1 PUSH1 0x0 ADD PUSH1 0x0 SWAP1 SLOAD SWAP1 PUSH2 0x100 EXP SWAP1 DIV PUSH20 0xFFFFFFFFFFFFFFFFFFFFFFFFFFFFFFFFFFFFFFFF AND SWAP1 DUP1 PUSH1 0x1 ADD SLOAD SWAP1 DUP1 PUSH1 0x2 ADD SLOAD SWAP1 DUP1 PUSH1 0x3 ADD PUSH1 0x0 SWAP1 SLOAD SWAP1 PUSH2 0x100 EXP SWAP1 DIV PUSH1 0xFF AND SWAP1 POP DUP5 JUMP JUMPDEST PUSH1 0x0 DUP1 DUP3 PUSH1 0x40 MLOAD PUSH1 0x20 ADD PUSH2 0xC78 SWAP2 SWAP1 PUSH2 0x11E9 JUMP JUMPDEST PUSH1 0x40 MLOAD PUSH1 0x20 DUP2 DUP4 SUB SUB DUP2 MSTORE SWAP1 PUSH1 0x40 MSTORE DUP1 MLOAD SWAP1 PUSH1 0x20 ADD KECCAK256 SWAP1 POP PUSH1 0x0 DUP1 DUP3 DUP2 MSTORE PUSH1 0x20 ADD SWAP1 DUP2 MSTORE PUSH1 0x20 ADD PUSH1 0x0 KECCAK256 SLOAD SWAP2 POP POP SWAP2 SWAP1 POP JUMP JUMPDEST PUSH1 0x0 DUP1 PUSH1 0x0 DUP1 PUSH1 0x0 PUSH1 0x1 DUP7 PUSH1 0x40 MLOAD PUSH2 0xCC3 SWAP2 SWAP1 PUSH2 0x11E9 JUMP JUMPDEST SWAP1 DUP2 MSTORE PUSH1 0x20 ADD PUSH1 0x40 MLOAD DUP1 SWAP2 SUB SWAP1 KECCAK256 PUSH1 0x40 MLOAD DUP1 PUSH1 0x80 ADD PUSH1 0x40 MSTORE SWAP1 DUP2 PUSH1 0x0 DUP3 ADD PUSH1 0x0 SWAP1 SLOAD SWAP1 PUSH2 0x100 EXP SWAP1 DIV PUSH20 0xFFFFFFFFFFFFFFFFFFFFFFFFFFFFFFFFFFFFFFFF AND PUSH20 0xFFFFFFFFFFFFFFFFFFFFFFFFFFFFFFFFFFFFFFFF AND PUSH20 0xFFFFFFFFFFFFFFFFFFFFFFFFFFFFFFFFFFFFFFFF AND DUP2 MSTORE PUSH1 0x20 ADD PUSH1 0x1 DUP3 ADD SLOAD DUP2 MSTORE PUSH1 0x20 ADD PUSH1 0x2 DUP3 ADD SLOAD DUP2 MSTORE PUSH1 0x20 ADD PUSH1 0x3 DUP3 ADD PUSH1 0x0 SWAP1 SLOAD SWAP1 PUSH2 0x100 EXP SWAP1 DIV PUSH1 0xFF AND ISZERO ISZERO ISZERO ISZERO DUP2 MSTORE POP POP SWAP1 POP DUP1 PUSH1 0x0 ADD MLOAD DUP2 PUSH1 0x20 ADD MLOAD DUP3 PUSH1 0x40 ADD MLOAD DUP4 PUSH1 0x60 ADD MLOAD SWAP5 POP SWAP5 POP SWAP5 POP SWAP5 POP POP SWAP2 SWAP4 POP SWAP2 SWAP4 JUMP JUMPDEST PUSH32 0x0 DUP2 JUMP JUMPDEST PUSH1 0x0 PUSH1 0x40 MLOAD SWAP1 POP SWAP1 JUMP JUMPDEST PUSH1 0x0 DUP1 REVERT JUMPDEST PUSH1 0x0 DUP1 REVERT JUMPDEST PUSH1 0x0 DUP2 SWAP1 POP SWAP2 SWAP1 POP JUMP JUMPDEST PUSH2 0xDD2 DUP2 PUSH2 0xDBF JUMP JUMPDEST DUP2 EQ PUSH2 0xDDD JUMPI PUSH1 0x0 DUP1 REVERT JUMPDEST POP JUMP JUMPDEST PUSH1 0x0 DUP2 CALLDATALOAD SWAP1 POP PUSH2 0xDEF DUP2 PUSH2 0xDC9 JUMP JUMPDEST SWAP3 SWAP2 POP POP JUMP JUMPDEST PUSH1 0x0 PUSH1 0x20 DUP3 DUP5 SUB SLT ISZERO PUSH2 0xE0B JUMPI PUSH2 0xE0A PUSH2 0xDB5 JUMP JUMPDEST JUMPDEST PUSH1 0x0 PUSH2 0xE19 DUP5 DUP3 DUP6 ADD PUSH2 0xDE0 JUMP JUMPDEST SWAP2 POP POP SWAP3 SWAP2 POP POP JUMP JUMPDEST PUSH1 0x0 DUP2 SWAP1 POP SWAP2 SWAP1 POP JUMP JUMPDEST PUSH2 0xE35 DUP2 PUSH2 0xE22 JUMP JUMPDEST DUP3 MSTORE POP POP JUMP JUMPDEST PUSH1 0x0 PUSH1 0x20 DUP3 ADD SWAP1 POP PUSH2 0xE50 PUSH1 0x0 DUP4 ADD DUP5 PUSH2 0xE2C JUMP JUMPDEST SWAP3 SWAP2 POP POP JUMP JUMPDEST PUSH1 0x0 PUSH20 0xFFFFFFFFFFFFFFFFFFFFFFFFFFFFFFFFFFFFFFFF DUP3 AND SWAP1 POP SWAP2 SWAP1 POP JUMP JUMPDEST PUSH1 0x0 DUP2 SWAP1 POP SWAP2 SWAP1 POP JUMP JUMPDEST PUSH1 0x0 PUSH2 0xE9B PUSH2 0xE96 PUSH2 0xE91 DUP5 PUSH2 0xE56 JUMP JUMPDEST PUSH2 0xE76 JUMP JUMPDEST PUSH2 0xE56 JUMP JUMPDEST SWAP1 POP SWAP2 SWAP1 POP JUMP JUMPDEST PUSH1 0x0 PUSH2 0xEAD DUP3 PUSH2 0xE80 JUMP JUMPDEST SWAP1 POP SWAP2 SWAP1 POP JUMP JUMPDEST PUSH1 0x0 PUSH2 0xEBF DUP3 PUSH2 0xEA2 JUMP JUMPDEST SWAP1 POP SWAP2 SWAP1 POP JUMP JUMPDEST PUSH2 0xECF DUP2 PUSH2 0xEB4 JUMP JUMPDEST DUP3 MSTORE POP POP JUMP JUMPDEST PUSH1 0x0 PUSH1 0x20 DUP3 ADD SWAP1 POP PUSH2 0xEEA PUSH1 0x0 DUP4 ADD DUP5 PUSH2 0xEC6 JUMP JUMPDEST SWAP3 SWAP2 POP POP JUMP JUMPDEST PUSH1 0x0 DUP1 REVERT JUMPDEST PUSH1 0x0 DUP1 REVERT JUMPDEST PUSH1 0x0 PUSH1 0x1F NOT PUSH1 0x1F DUP4 ADD AND SWAP1 POP SWAP2 SWAP1 POP JUMP JUMPDEST PUSH32 0x4E487B7100000000000000000000000000000000000000000000000000000000 PUSH1 0x0 MSTORE PUSH1 0x41 PUSH1 0x4 MSTORE PUSH1 0x24 PUSH1 0x0 REVERT JUMPDEST PUSH2 0xF43 DUP3 PUSH2 0xEFA JUMP JUMPDEST DUP2 ADD DUP2 DUP2 LT PUSH8 0xFFFFFFFFFFFFFFFF DUP3 GT OR ISZERO PUSH2 0xF62 JUMPI PUSH2 0xF61 PUSH2 0xF0B JUMP JUMPDEST JUMPDEST DUP1 PUSH1 0x40 MSTORE POP POP POP JUMP JUMPDEST PUSH1 0x0 PUSH2 0xF75 PUSH2 0xDAB JUMP JUMPDEST SWAP1 POP PUSH2 0xF81 DUP3 DUP3 PUSH2 0xF3A JUMP JUMPDEST SWAP2 SWAP1 POP JUMP JUMPDEST PUSH1 0x0 PUSH8 0xFFFFFFFFFFFFFFFF DUP3 GT ISZERO PUSH2 0xFA1 JUMPI PUSH2 0xFA0 PUSH2 0xF0B JUMP JUMPDEST JUMPDEST PUSH2 0xFAA DUP3 PUSH2 0xEFA JUMP JUMPDEST SWAP1 POP PUSH1 0x20 DUP2 ADD SWAP1 POP SWAP2 SWAP1 POP JUMP JUMPDEST DUP3 DUP2 DUP4 CALLDATACOPY PUSH1 0x0 DUP4 DUP4 ADD MSTORE POP POP POP JUMP JUMPDEST PUSH1 0x0 PUSH2 0xFD9 PUSH2 0xFD4 DUP5 PUSH2 0xF86 JUMP JUMPDEST PUSH2 0xF6B JUMP JUMPDEST SWAP1 POP DUP3 DUP2 MSTORE PUSH1 0x20 DUP2 ADD DUP5 DUP5 DUP5 ADD GT ISZERO PUSH2 0xFF5 JUMPI PUSH2 0xFF4 PUSH2 0xEF5 JUMP JUMPDEST JUMPDEST PUSH2 0x1000 DUP5 DUP3 DUP6 PUSH2 0xFB7 JUMP JUMPDEST POP SWAP4 SWAP3 POP POP POP JUMP JUMPDEST PUSH1 0x0 DUP3 PUSH1 0x1F DUP4 ADD SLT PUSH2 0x101D JUMPI PUSH2 0x101C PUSH2 0xEF0 JUMP JUMPDEST JUMPDEST DUP2 CALLDATALOAD PUSH2 0x102D DUP5 DUP3 PUSH1 0x20 DUP7 ADD PUSH2 0xFC6 JUMP JUMPDEST SWAP2 POP POP SWAP3 SWAP2 POP POP JUMP JUMPDEST PUSH1 0x0 PUSH1 0x20 DUP3 DUP5 SUB SLT ISZERO PUSH2 0x104C JUMPI PUSH2 0x104B PUSH2 0xDB5 JUMP JUMPDEST JUMPDEST PUSH1 0x0 DUP3 ADD CALLDATALOAD PUSH8 0xFFFFFFFFFFFFFFFF DUP2 GT ISZERO PUSH2 0x106A JUMPI PUSH2 0x1069 PUSH2 0xDBA JUMP JUMPDEST JUMPDEST PUSH2 0x1076 DUP5 DUP3 DUP6 ADD PUSH2 0x1008 JUMP JUMPDEST SWAP2 POP POP SWAP3 SWAP2 POP POP JUMP JUMPDEST PUSH1 0x0 PUSH2 0x108A DUP3 PUSH2 0xEA2 JUMP JUMPDEST SWAP1 POP SWAP2 SWAP1 POP JUMP JUMPDEST PUSH2 0x109A DUP2 PUSH2 0x107F JUMP JUMPDEST DUP3 MSTORE POP POP JUMP JUMPDEST PUSH1 0x0 PUSH1 0x20 DUP3 ADD SWAP1 POP PUSH2 0x10B5 PUSH1 0x0 DUP4 ADD DUP5 PUSH2 0x1091 JUMP JUMPDEST SWAP3 SWAP2 POP POP JUMP JUMPDEST PUSH1 0x0 PUSH2 0x10C6 DUP3 PUSH2 0xE56 JUMP JUMPDEST SWAP1 POP SWAP2 SWAP1 POP JUMP JUMPDEST PUSH2 0x10D6 DUP2 PUSH2 0x10BB JUMP JUMPDEST DUP3 MSTORE POP POP JUMP JUMPDEST PUSH1 0x0 DUP2 ISZERO ISZERO SWAP1 POP SWAP2 SWAP1 POP JUMP JUMPDEST PUSH2 0x10F1 DUP2 PUSH2 0x10DC JUMP JUMPDEST DUP3 MSTORE POP POP JUMP JUMPDEST PUSH1 0x0 PUSH1 0x80 DUP3 ADD SWAP1 POP PUSH2 0x110C PUSH1 0x0 DUP4 ADD DUP8 PUSH2 0x10CD JUMP JUMPDEST PUSH2 0x1119 PUSH1 0x20 DUP4 ADD DUP7 PUSH2 0xE2C JUMP JUMPDEST PUSH2 0x1126 PUSH1 0x40 DUP4 ADD DUP6 PUSH2 0xE2C JUMP JUMPDEST PUSH2 0x1133 PUSH1 0x60 DUP4 ADD DUP5 PUSH2 0x10E8 JUMP JUMPDEST SWAP6 SWAP5 POP POP POP POP POP JUMP JUMPDEST PUSH1 0x0 PUSH2 0x1147 DUP3 PUSH2 0xEA2 JUMP JUMPDEST SWAP1 POP SWAP2 SWAP1 POP JUMP JUMPDEST PUSH2 0x1157 DUP2 PUSH2 0x113C JUMP JUMPDEST DUP3 MSTORE POP POP JUMP JUMPDEST PUSH1 0x0 PUSH1 0x20 DUP3 ADD SWAP1 POP PUSH2 0x1172 PUSH1 0x0 DUP4 ADD DUP5 PUSH2 0x114E JUMP JUMPDEST SWAP3 SWAP2 POP POP JUMP JUMPDEST PUSH1 0x0 DUP2 MLOAD SWAP1 POP SWAP2 SWAP1 POP JUMP JUMPDEST PUSH1 0x0 DUP2 SWAP1 POP SWAP3 SWAP2 POP POP JUMP JUMPDEST PUSH1 0x0 JUMPDEST DUP4 DUP2 LT ISZERO PUSH2 0x11AC JUMPI DUP1 DUP3 ADD MLOAD DUP2 DUP5 ADD MSTORE PUSH1 0x20 DUP2 ADD SWAP1 POP PUSH2 0x1191 JUMP JUMPDEST PUSH1 0x0 DUP5 DUP5 ADD MSTORE POP POP POP POP JUMP JUMPDEST PUSH1 0x0 PUSH2 0x11C3 DUP3 PUSH2 0x1178 JUMP JUMPDEST PUSH2 0x11CD DUP2 DUP6 PUSH2 0x1183 JUMP JUMPDEST SWAP4 POP PUSH2 0x11DD DUP2 DUP6 PUSH1 0x20 DUP7 ADD PUSH2 0x118E JUMP JUMPDEST DUP1 DUP5 ADD SWAP2 POP POP SWAP3 SWAP2 POP POP JUMP JUMPDEST PUSH1 0x0 PUSH2 0x11F5 DUP3 DUP5 PUSH2 0x11B8 JUMP JUMPDEST SWAP2 POP DUP2 SWAP1 POP SWAP3 SWAP2 POP POP JUMP JUMPDEST PUSH1 0x0 DUP3 DUP3 MSTORE PUSH1 0x20 DUP3 ADD SWAP1 POP SWAP3 SWAP2 POP POP JUMP JUMPDEST PUSH1 0x0 PUSH2 0x121C DUP3 PUSH2 0x1178 JUMP JUMPDEST PUSH2 0x1226 DUP2 DUP6 PUSH2 0x1200 JUMP JUMPDEST SWAP4 POP PUSH2 0x1236 DUP2 DUP6 PUSH1 0x20 DUP7 ADD PUSH2 0x118E JUMP JUMPDEST PUSH2 0x123F DUP2 PUSH2 0xEFA JUMP JUMPDEST DUP5 ADD SWAP2 POP POP SWAP3 SWAP2 POP POP JUMP JUMPDEST PUSH1 0x0 PUSH1 0x20 DUP3 ADD SWAP1 POP DUP2 DUP2 SUB PUSH1 0x0 DUP4 ADD MSTORE PUSH2 0x1264 DUP2 DUP5 PUSH2 0x1211 JUMP JUMPDEST SWAP1 POP SWAP3 SWAP2 POP POP JUMP JUMPDEST PUSH1 0x0 PUSH2 0x127F PUSH2 0x127A DUP5 PUSH2 0xF86 JUMP JUMPDEST PUSH2 0xF6B JUMP JUMPDEST SWAP1 POP DUP3 DUP2 MSTORE PUSH1 0x20 DUP2 ADD DUP5 DUP5 DUP5 ADD GT ISZERO PUSH2 0x129B JUMPI PUSH2 0x129A PUSH2 0xEF5 JUMP JUMPDEST JUMPDEST PUSH2 0x12A6 DUP5 DUP3 DUP6 PUSH2 0x118E JUMP JUMPDEST POP SWAP4 SWAP3 POP POP POP JUMP JUMPDEST PUSH1 0x0 DUP3 PUSH1 0x1F DUP4 ADD SLT PUSH2 0x12C3 JUMPI PUSH2 0x12C2 PUSH2 0xEF0 JUMP JUMPDEST JUMPDEST DUP2 MLOAD PUSH2 0x12D3 DUP5 DUP3 PUSH1 0x20 DUP7 ADD PUSH2 0x126C JUMP JUMPDEST SWAP2 POP POP SWAP3 SWAP2 POP POP JUMP JUMPDEST PUSH2 0x12E5 DUP2 PUSH2 0xE22 JUMP JUMPDEST DUP2 EQ PUSH2 0x12F0 JUMPI PUSH1 0x0 DUP1 REVERT JUMPDEST POP JUMP JUMPDEST PUSH1 0x0 DUP2 MLOAD SWAP1 POP PUSH2 0x1302 DUP2 PUSH2 0x12DC JUMP JUMPDEST SWAP3 SWAP2 POP POP JUMP JUMPDEST PUSH1 0x0 PUSH1 0xFF DUP3 AND SWAP1 POP SWAP2 SWAP1 POP JUMP JUMPDEST PUSH2 0x131E DUP2 PUSH2 0x1308 JUMP JUMPDEST DUP2 EQ PUSH2 0x1329 JUMPI PUSH1 0x0 DUP1 REVERT JUMPDEST POP JUMP JUMPDEST PUSH1 0x0 DUP2 MLOAD SWAP1 POP PUSH2 0x133B DUP2 PUSH2 0x1315 JUMP JUMPDEST SWAP3 SWAP2 POP POP JUMP JUMPDEST PUSH2 0x134A DUP2 PUSH2 0x10BB JUMP JUMPDEST DUP2 EQ PUSH2 0x1355 JUMPI PUSH1 0x0 DUP1 REVERT JUMPDEST POP JUMP JUMPDEST PUSH1 0x0 DUP2 MLOAD SWAP1 POP PUSH2 0x1367 DUP2 PUSH2 0x1341 JUMP JUMPDEST SWAP3 SWAP2 POP POP JUMP JUMPDEST PUSH1 0x0 DUP1 PUSH1 0x0 DUP1 PUSH1 0x0 DUP1 PUSH1 0x0 PUSH1 0xE0 DUP9 DUP11 SUB SLT ISZERO PUSH2 0x138C JUMPI PUSH2 0x138B PUSH2 0xDB5 JUMP JUMPDEST JUMPDEST PUSH1 0x0 DUP9 ADD MLOAD PUSH8 0xFFFFFFFFFFFFFFFF DUP2 GT ISZERO PUSH2 0x13AA JUMPI PUSH2 0x13A9 PUSH2 0xDBA JUMP JUMPDEST JUMPDEST PUSH2 0x13B6 DUP11 DUP3 DUP12 ADD PUSH2 0x12AE JUMP JUMPDEST SWAP8 POP POP PUSH1 0x20 DUP9 ADD MLOAD PUSH8 0xFFFFFFFFFFFFFFFF DUP2 GT ISZERO PUSH2 0x13D7 JUMPI PUSH2 0x13D6 PUSH2 0xDBA JUMP JUMPDEST JUMPDEST PUSH2 0x13E3 DUP11 DUP3 DUP12 ADD PUSH2 0x12AE JUMP JUMPDEST SWAP7 POP POP PUSH1 0x40 DUP9 ADD MLOAD PUSH8 0xFFFFFFFFFFFFFFFF DUP2 GT ISZERO PUSH2 0x1404 JUMPI PUSH2 0x1403 PUSH2 0xDBA JUMP JUMPDEST JUMPDEST PUSH2 0x1410 DUP11 DUP3 DUP12 ADD PUSH2 0x12AE JUMP JUMPDEST SWAP6 POP POP PUSH1 0x60 PUSH2 0x1421 DUP11 DUP3 DUP12 ADD PUSH2 0x12F3 JUMP JUMPDEST SWAP5 POP POP PUSH1 0x80 PUSH2 0x1432 DUP11 DUP3 DUP12 ADD PUSH2 0x132C JUMP JUMPDEST SWAP4 POP POP PUSH1 0xA0 PUSH2 0x1443 DUP11 DUP3 DUP12 ADD PUSH2 0x1358 JUMP JUMPDEST SWAP3 POP POP PUSH1 0xC0 PUSH2 0x1454 DUP11 DUP3 DUP12 ADD PUSH2 0x1358 JUMP JUMPDEST SWAP2 POP POP SWAP3 SWAP6 SWAP9 SWAP2 SWAP5 SWAP8 POP SWAP3 SWAP6 POP JUMP JUMPDEST PUSH32 0x436172206E6F7420666F756E6400000000000000000000000000000000000000 PUSH1 0x0 DUP3 ADD MSTORE POP JUMP JUMPDEST PUSH1 0x0 PUSH2 0x1499 PUSH1 0xD DUP4 PUSH2 0x1200 JUMP JUMPDEST SWAP2 POP PUSH2 0x14A4 DUP3 PUSH2 0x1463 JUMP JUMPDEST PUSH1 0x20 DUP3 ADD SWAP1 POP SWAP2 SWAP1 POP JUMP JUMPDEST PUSH1 0x0 PUSH1 0x20 DUP3 ADD SWAP1 POP DUP2 DUP2 SUB PUSH1 0x0 DUP4 ADD MSTORE PUSH2 0x14C8 DUP2 PUSH2 0x148C JUMP JUMPDEST SWAP1 POP SWAP2 SWAP1 POP JUMP JUMPDEST PUSH32 0x4E487B7100000000000000000000000000000000000000000000000000000000 PUSH1 0x0 MSTORE PUSH1 0x21 PUSH1 0x4 MSTORE PUSH1 0x24 PUSH1 0x0 REVERT JUMPDEST PUSH32 0x436172206973206E6F742063757272656E746C792072656E7465640000000000 PUSH1 0x0 DUP3 ADD MSTORE POP JUMP JUMPDEST PUSH1 0x0 PUSH2 0x1534 PUSH1 0x1B DUP4 PUSH2 0x1200 JUMP JUMPDEST SWAP2 POP PUSH2 0x153F DUP3 PUSH2 0x14FE JUMP JUMPDEST PUSH1 0x20 DUP3 ADD SWAP1 POP SWAP2 SWAP1 POP JUMP JUMPDEST PUSH1 0x0 PUSH1 0x20 DUP3 ADD SWAP1 POP DUP2 DUP2 SUB PUSH1 0x0 DUP4 ADD MSTORE PUSH2 0x1563 DUP2 PUSH2 0x1527 JUMP JUMPDEST SWAP1 POP SWAP2 SWAP1 POP JUMP JUMPDEST PUSH32 0x596F7520617265206E6F74207468652072656E74657200000000000000000000 PUSH1 0x0 DUP3 ADD MSTORE POP JUMP JUMPDEST PUSH1 0x0 PUSH2 0x15A0 PUSH1 0x16 DUP4 PUSH2 0x1200 JUMP JUMPDEST SWAP2 POP PUSH2 0x15AB DUP3 PUSH2 0x156A JUMP JUMPDEST PUSH1 0x20 DUP3 ADD SWAP1 POP SWAP2 SWAP1 POP JUMP JUMPDEST PUSH1 0x0 PUSH1 0x20 DUP3 ADD SWAP1 POP DUP2 DUP2 SUB PUSH1 0x0 DUP4 ADD MSTORE PUSH2 0x15CF DUP2 PUSH2 0x1593 JUMP JUMPDEST SWAP1 POP SWAP2 SWAP1 POP JUMP JUMPDEST PUSH1 0x0 PUSH1 0x40 DUP3 ADD SWAP1 POP PUSH2 0x15EB PUSH1 0x0 DUP4 ADD DUP6 PUSH2 0x10CD JUMP JUMPDEST PUSH2 0x15F8 PUSH1 0x20 DUP4 ADD DUP5 PUSH2 0xE2C JUMP JUMPDEST SWAP4 SWAP3 POP POP POP JUMP JUMPDEST PUSH1 0x0 PUSH1 0x40 DUP3 ADD SWAP1 POP DUP2 DUP2 SUB PUSH1 0x0 DUP4 ADD MSTORE PUSH2 0x1619 DUP2 DUP6 PUSH2 0x1211 JUMP JUMPDEST SWAP1 POP PUSH2 0x1628 PUSH1 0x20 DUP4 ADD DUP5 PUSH2 0x10CD JUMP JUMPDEST SWAP4 SWAP3 POP POP POP JUMP JUMPDEST PUSH1 0x0 PUSH1 0x20 DUP3 ADD SWAP1 POP PUSH2 0x1644 PUSH1 0x0 DUP4 ADD DUP5 PUSH2 0x10CD JUMP JUMPDEST SWAP3 SWAP2 POP POP JUMP JUMPDEST PUSH2 0x1653 DUP2 PUSH2 0x10DC JUMP JUMPDEST DUP2 EQ PUSH2 0x165E JUMPI PUSH1 0x0 DUP1 REVERT JUMPDEST POP JUMP JUMPDEST PUSH1 0x0 DUP2 MLOAD SWAP1 POP PUSH2 0x1670 DUP2 PUSH2 0x164A JUMP JUMPDEST SWAP3 SWAP2 POP POP JUMP JUMPDEST PUSH1 0x0 PUSH1 0x20 DUP3 DUP5 SUB SLT ISZERO PUSH2 0x168C JUMPI PUSH2 0x168B PUSH2 0xDB5 JUMP JUMPDEST JUMPDEST PUSH1 0x0 PUSH2 0x169A DUP5 DUP3 DUP6 ADD PUSH2 0x1661 JUMP JUMPDEST SWAP2 POP POP SWAP3 SWAP2 POP POP JUMP JUMPDEST PUSH32 0x4B5943206E6F7420617070726F76656400000000000000000000000000000000 PUSH1 0x0 DUP3 ADD MSTORE POP JUMP JUMPDEST PUSH1 0x0 PUSH2 0x16D9 PUSH1 0x10 DUP4 PUSH2 0x1200 JUMP JUMPDEST SWAP2 POP PUSH2 0x16E4 DUP3 PUSH2 0x16A3 JUMP JUMPDEST PUSH1 0x20 DUP3 ADD SWAP1 POP SWAP2 SWAP1 POP JUMP JUMPDEST PUSH1 0x0 PUSH1 0x20 DUP3 ADD SWAP1 POP DUP2 DUP2 SUB PUSH1 0x0 DUP4 ADD MSTORE PUSH2 0x1708 DUP2 PUSH2 0x16CC JUMP JUMPDEST SWAP1 POP SWAP2 SWAP1 POP JUMP JUMPDEST PUSH32 0x436172206973206E6F7420617661696C61626C65000000000000000000000000 PUSH1 0x0 DUP3 ADD MSTORE POP JUMP JUMPDEST PUSH1 0x0 PUSH2 0x1745 PUSH1 0x14 DUP4 PUSH2 0x1200 JUMP JUMPDEST SWAP2 POP PUSH2 0x1750 DUP3 PUSH2 0x170F JUMP JUMPDEST PUSH1 0x20 DUP3 ADD SWAP1 POP SWAP2 SWAP1 POP JUMP JUMPDEST PUSH1 0x0 PUSH1 0x20 DUP3 ADD SWAP1 POP DUP2 DUP2 SUB PUSH1 0x0 DUP4 ADD MSTORE PUSH2 0x1774 DUP2 PUSH2 0x1738 JUMP JUMPDEST SWAP1 POP SWAP2 SWAP1 POP JUMP JUMPDEST PUSH32 0x4E487B7100000000000000000000000000000000000000000000000000000000 PUSH1 0x0 MSTORE PUSH1 0x11 PUSH1 0x4 MSTORE PUSH1 0x24 PUSH1 0x0 REVERT JUMPDEST PUSH1 0x0 PUSH2 0x17B5 DUP3 PUSH2 0xE22 JUMP JUMPDEST SWAP2 POP PUSH2 0x17C0 DUP4 PUSH2 0xE22 JUMP JUMPDEST SWAP3 POP DUP3 DUP3 ADD SWAP1 POP DUP1 DUP3 GT ISZERO PUSH2 0x17D8 JUMPI PUSH2 0x17D7 PUSH2 0x177B JUMP JUMPDEST JUMPDEST SWAP3 SWAP2 POP POP JUMP JUMPDEST PUSH32 0x496E73756666696369656E74207061796D656E74000000000000000000000000 PUSH1 0x0 DUP3 ADD MSTORE POP JUMP JUMPDEST PUSH1 0x0 PUSH2 0x1814 PUSH1 0x14 DUP4 PUSH2 0x1200 JUMP JUMPDEST SWAP2 POP PUSH2 0x181F DUP3 PUSH2 0x17DE JUMP JUMPDEST PUSH1 0x20 DUP3 ADD SWAP1 POP SWAP2 SWAP1 POP JUMP JUMPDEST PUSH1 0x0 PUSH1 0x20 DUP3 ADD SWAP1 POP DUP2 DUP2 SUB PUSH1 0x0 DUP4 ADD MSTORE PUSH2 0x1843 DUP2 PUSH2 0x1807 JUMP JUMPDEST SWAP1 POP SWAP2 SWAP1 POP JUMP JUMPDEST PUSH1 0x0 DUP2 SWAP1 POP SWAP3 SWAP2 POP POP JUMP JUMPDEST POP JUMP JUMPDEST PUSH1 0x0 PUSH2 0x1865 PUSH1 0x0 DUP4 PUSH2 0x184A JUMP JUMPDEST SWAP2 POP PUSH2 0x1870 DUP3 PUSH2 0x1855 JUMP JUMPDEST PUSH1 0x0 DUP3 ADD SWAP1 POP SWAP2 SWAP1 POP JUMP JUMPDEST PUSH1 0x0 PUSH2 0x1886 DUP3 PUSH2 0x1858 JUMP JUMPDEST SWAP2 POP DUP2 SWAP1 POP SWAP2 SWAP1 POP JUMP JUMPDEST PUSH32 0x5061796D656E7420746F206F776E6572206661696C6564000000000000000000 PUSH1 0x0 DUP3 ADD MSTORE POP JUMP JUMPDEST PUSH1 0x0 PUSH2 0x18C6 PUSH1 0x17 DUP4 PUSH2 0x1200 JUMP JUMPDEST SWAP2 POP PUSH2 0x18D1 DUP3 PUSH2 0x1890 JUMP JUMPDEST PUSH1 0x20 DUP3 ADD SWAP1 POP SWAP2 SWAP1 POP JUMP JUMPDEST PUSH1 0x0 PUSH1 0x20 DUP3 ADD SWAP1 POP DUP2 DUP2 SUB PUSH1 0x0 DUP4 ADD MSTORE PUSH2 0x18F5 DUP2 PUSH2 0x18B9 JUMP JUMPDEST SWAP1 POP SWAP2 SWAP1 POP JUMP INVALID LOG2 PUSH5 0x6970667358 0x22 SLT KECCAK256 DUP5 GASPRICE STATICCALL SAR PUSH19 0xDA5DD1DB7FE64BD3744ABFEA6123D5A9ECB911 GASPRICE PUSH2 0x6A3F EXTCODECOPY PUSH16 0xFAAC64736F6C63430008140033000000 "},"methodIdentifiers":{"carRegistry()":"58685ddb","completeRental(string)":"68a4cb88","deposits(bytes32)":"3d4dff7b","getDeposit(string)":"d20747a8","getRentalInfo(string)":"f04d237c","kycManager()":"7afea44f","rentCar(string)":"72fd3d3e","rentalRecords(string)":"7fd84313","vault()":"fbfa77cf"}}}}}