{"contracts/CarRegistry.sol":{"CarRegistry":{"abi":[{"inputs":[{"internalType":"string","name":"plateNumber","type":"string"},{"internalType":"string","name":"model","type":"string"},{"internalType":"string","name":"location","type":"string"},{"internalType":"uint256","name":"pricePerDay","type":"uint256"}],"name":"addCar","outputs":[],"stateMutability":"nonpayable","type":"function"},{"inputs":[{"internalType":"uint256","name":"","type":"uint256"}],"name":"carPlates","outputs":[{"internalType":"string","name":"","type":"string"}],"stateMutability":"view","type":"function"},{"inputs":[{"internalType":"string","name":"","type":"string"}],"name":"cars","outputs":[{"internalType":"string","name":"plateNumber","type":"string"},{"internalType":"string","name":"model","type":"string"},{"internalType":"string","name":"location","type":"string"},{"internalType":"uint256","name":"pricePerDay","type":"uint256"},{"internalType":"uint8","name":"status","type":"uint8"},{"internalType":"address","name":"renter","type":"address"},{"internalType":"address","name":"owner","type":"address"}],"stateMutability":"view","type":"function"},{"inputs":[{"internalType":"string","name":"plateNumber","type":"string"}],"name":"deleteCar","outputs":[],"stateMutability":"nonpayable","type":"function"},{"inputs":[{"internalType":"string","name":"plateNumber","type":"string"}],"name":"getCar","outputs":[{"internalType":"string","name":"","type":"string"},{"internalType":"string","name":"","type":"string"},{"internalType":"string","name":"","type":"string"},{"internalType":"uint256","name":"","type":"uint256"},{"internalType":"uint8","name":"","type":"uint8"},{"internalType":"address","name":"","type":"address"},{"internalType":"address","name":"","type":"address"}],"stateMutability":"view","type":"function"},{"inputs":[],"name":"getCarPlates","outputs":[{"internalType":"string[]","name":"","type":"string[]"}],"stateMutability":"view","type":"function"},{"inputs":[{"internalType":"string","name":"plateNumber","type":"string"}],"name":"setCarAvailable","outputs":[],"stateMutability":"nonpayable","type":"function"},{"inputs":[{"internalType":"string","name":"plateNumber","type":"string"},{"internalType":"address","name":"renter","type":"address"}],"name":"setCarRented","outputs":[],"stateMutability":"nonpayable","type":"function"},{"inputs":[{"internalType":"string","name":"plateNumber","type":"string"},{"internalType":"string","name":"model","type":"string"},{"internalType":"string","name":"location","type":"string"},{"internalType":"uint256","name":"pricePerDay","type":"uint256"}],"name":"updateCar","outputs":[],"stateMutability":"nonpayable","type":"function"}],"evm":{"bytecode":{"linkReferences":{},"object":"608060405234801561001057600080fd5b50611fa4806100206000396000f3fe608060405234801561001057600080fd5b50600436106100935760003560e01c8063c1208b9d11610066578063c1208b9d1461013e578063d2d50bd81461015a578063dd4f5b9714610176578063e2a9e6c4146101a6578063fd76ce04146101c257610093565b8063367495471461009857806341a2d180146100b4578063479487e3146100ea5780639ffd058a14610120575b600080fd5b6100b260048036038101906100ad9190611375565b6101de565b005b6100ce60048036038101906100c99190611375565b6102ec565b6040516100e197969594939291906114b3565b60405180910390f35b61010460048036038101906100ff9190611375565b610529565b60405161011797969594939291906114b3565b60405180910390f35b610128610897565b6040516101359190611643565b60405180910390f35b61015860048036038101906101539190611691565b610970565b005b610174600480360381019061016f9190611719565b610a80565b005b610190600480360381019061018b91906117d4565b610caa565b60405161019d9190611801565b60405180910390f35b6101c060048036038101906101bb9190611719565b610d56565b005b6101dc60048036038101906101d79190611375565b610eed565b005b80600080826040516101f0919061185f565b9081526020016040518091039020600001805461020c906118a5565b90500361024e576040517f08c379a000000000000000000000000000000000000000000000000000000000815260040161024590611922565b60405180910390fd5b6000808360405161025f919061185f565b908152602001604051809103902060040160006101000a81548160ff021916908360ff16021790555060008083604051610299919061185f565b908152602001604051809103902060040160016101000a81548173ffffffffffffffffffffffffffffffffffffffff021916908373ffffffffffffffffffffffffffffffffffffffff1602179055505050565b600081805160208101820180518482526020830160208501208183528095505050505050600091509050806000018054610325906118a5565b80601f0160208091040260200160405190810160405280929190818152602001828054610351906118a5565b801561039e5780601f106103735761010080835404028352916020019161039e565b820191906000526020600020905b81548152906001019060200180831161038157829003601f168201915b5050505050908060010180546103b3906118a5565b80601f01602080910402602001604051908101604052809291908181526020018280546103df906118a5565b801561042c5780601f106104015761010080835404028352916020019161042c565b820191906000526020600020905b81548152906001019060200180831161040f57829003601f168201915b505050505090806002018054610441906118a5565b80601f016020809104026020016040519081016040528092919081815260200182805461046d906118a5565b80156104ba5780601f1061048f576101008083540402835291602001916104ba565b820191906000526020600020905b81548152906001019060200180831161049d57829003601f168201915b5050505050908060030154908060040160009054906101000a900460ff16908060040160019054906101000a900473ffffffffffffffffffffffffffffffffffffffff16908060050160009054906101000a900473ffffffffffffffffffffffffffffffffffffffff16905087565b60608060606000806000808760008082604051610546919061185f565b90815260200160405180910390206000018054610562906118a5565b9050036105a4576040517f08c379a000000000000000000000000000000000000000000000000000000000815260040161059b90611922565b60405180910390fd5b6000808a6040516105b5919061185f565b90815260200160405180910390206040518060e00160405290816000820180546105de906118a5565b80601f016020809104026020016040519081016040528092919081815260200182805461060a906118a5565b80156106575780601f1061062c57610100808354040283529160200191610657565b820191906000526020600020905b81548152906001019060200180831161063a57829003601f168201915b50505050508152602001600182018054610670906118a5565b80601f016020809104026020016040519081016040528092919081815260200182805461069c906118a5565b80156106e95780601f106106be576101008083540402835291602001916106e9565b820191906000526020600020905b8154815290600101906020018083116106cc57829003601f168201915b50505050508152602001600282018054610702906118a5565b80601f016020809104026020016040519081016040528092919081815260200182805461072e906118a5565b801561077b5780601f106107505761010080835404028352916020019161077b565b820191906000526020600020905b81548152906001019060200180831161075e57829003601f168201915b50505050508152602001600382015481526020016004820160009054906101000a900460ff1660ff1660ff1681526020016004820160019054906101000a900473ffffffffffffffffffffffffffffffffffffffff1673ffffffffffffffffffffffffffffffffffffffff1673ffffffffffffffffffffffffffffffffffffffff1681526020016005820160009054906101000a900473ffffffffffffffffffffffffffffffffffffffff1673ffffffffffffffffffffffffffffffffffffffff1673ffffffffffffffffffffffffffffffffffffffff16815250509050806000015181602001518260400151836060015184608001518560a001518660c0015198509850985098509850985098505050919395979092949650565b60606001805480602002602001604051908101604052809291908181526020016000905b828210156109675783829060005260206000200180546108da906118a5565b80601f0160208091040260200160405190810160405280929190818152602001828054610906906118a5565b80156109535780601f1061092857610100808354040283529160200191610953565b820191906000526020600020905b81548152906001019060200180831161093657829003601f168201915b5050505050815260200190600101906108bb565b50505050905090565b8160008082604051610982919061185f565b9081526020016040518091039020600001805461099e906118a5565b9050036109e0576040517f08c379a00000000000000000000000000000000000000000000000000000000081526004016109d790611922565b60405180910390fd5b60016000846040516109f2919061185f565b908152602001604051809103902060040160006101000a81548160ff021916908360ff16021790555081600084604051610a2c919061185f565b908152602001604051809103902060040160016101000a81548173ffffffffffffffffffffffffffffffffffffffff021916908373ffffffffffffffffffffffffffffffffffffffff160217905550505050565b60008085604051610a91919061185f565b90815260200160405180910390206000018054610aad906118a5565b905014610aef576040517f08c379a0000000000000000000000000000000000000000000000000000000008152600401610ae69061198e565b60405180910390fd5b6040518060e00160405280858152602001848152602001838152602001828152602001600060ff168152602001600073ffffffffffffffffffffffffffffffffffffffff1681526020013373ffffffffffffffffffffffffffffffffffffffff16815250600085604051610b63919061185f565b90815260200160405180910390206000820151816000019081610b869190611b5a565b506020820151816001019081610b9c9190611b5a565b506040820151816002019081610bb29190611b5a565b506060820151816003015560808201518160040160006101000a81548160ff021916908360ff16021790555060a08201518160040160016101000a81548173ffffffffffffffffffffffffffffffffffffffff021916908373ffffffffffffffffffffffffffffffffffffffff16021790555060c08201518160050160006101000a81548173ffffffffffffffffffffffffffffffffffffffff021916908373ffffffffffffffffffffffffffffffffffffffff160217905550905050600184908060018154018082558091505060019003906000526020600020016000909190919091509081610ca39190611b5a565b5050505050565b60018181548110610cba57600080fd5b906000526020600020016000915090508054610cd5906118a5565b80601f0160208091040260200160405190810160405280929190818152602001828054610d01906118a5565b8015610d4e5780601f10610d2357610100808354040283529160200191610d4e565b820191906000526020600020905b815481529060010190602001808311610d3157829003601f168201915b505050505081565b8360008082604051610d68919061185f565b90815260200160405180910390206000018054610d84906118a5565b905003610dc6576040517f08c379a0000000000000000000000000000000000000000000000000000000008152600401610dbd90611922565b60405180910390fd5b843373ffffffffffffffffffffffffffffffffffffffff16600082604051610dee919061185f565b908152602001604051809103902060050160009054906101000a900473ffffffffffffffffffffffffffffffffffffffff1673ffffffffffffffffffffffffffffffffffffffff1614610e76576040517f08c379a0000000000000000000000000000000000000000000000000000000008152600401610e6d90611c78565b60405180910390fd5b60008087604051610e87919061185f565b90815260200160405180910390209050600086511115610eb45785816001019081610eb29190611b5a565b505b600085511115610ed15784816002019081610ecf9190611b5a565b505b6000841115610ee4578381600301819055505b50505050505050565b8060008082604051610eff919061185f565b90815260200160405180910390206000018054610f1b906118a5565b905003610f5d576040517f08c379a0000000000000000000000000000000000000000000000000000000008152600401610f5490611922565b60405180910390fd5b813373ffffffffffffffffffffffffffffffffffffffff16600082604051610f85919061185f565b908152602001604051809103902060050160009054906101000a900473ffffffffffffffffffffffffffffffffffffffff1673ffffffffffffffffffffffffffffffffffffffff161461100d576040517f08c379a000000000000000000000000000000000000000000000000000000000815260040161100490611c78565b60405180910390fd5b60008360405161101d919061185f565b90815260200160405180910390206000808201600061103c91906111be565b60018201600061104c91906111be565b60028201600061105c91906111be565b60038201600090556004820160006101000a81549060ff02191690556004820160016101000a81549073ffffffffffffffffffffffffffffffffffffffff02191690556005820160006101000a81549073ffffffffffffffffffffffffffffffffffffffff0219169055505060005b6001805490508110156111b8578380519060200120600182815481106110f4576110f3611c98565b5b9060005260206000200160405161110b9190611d6a565b6040518091039020036111a557600180808054905061112a9190611db0565b8154811061113b5761113a611c98565b5b906000526020600020016001828154811061115957611158611c98565b5b90600052602060002001908161116f9190611e0f565b50600180548061118257611181611ef7565b5b60019003818190600052602060002001600061119e91906111be565b90556111b8565b80806111b090611f26565b9150506110cb565b50505050565b5080546111ca906118a5565b6000825580601f106111dc57506111fb565b601f0160209004906000526020600020908101906111fa91906111fe565b5b50565b5b808211156112175760008160009055506001016111ff565b5090565b6000604051905090565b600080fd5b600080fd5b600080fd5b600080fd5b6000601f19601f8301169050919050565b7f4e487b7100000000000000000000000000000000000000000000000000000000600052604160045260246000fd5b61128282611239565b810181811067ffffffffffffffff821117156112a1576112a061124a565b5b80604052505050565b60006112b461121b565b90506112c08282611279565b919050565b600067ffffffffffffffff8211156112e0576112df61124a565b5b6112e982611239565b9050602081019050919050565b82818337600083830152505050565b6000611318611313846112c5565b6112aa565b90508281526020810184848401111561133457611333611234565b5b61133f8482856112f6565b509392505050565b600082601f83011261135c5761135b61122f565b5b813561136c848260208601611305565b91505092915050565b60006020828403121561138b5761138a611225565b5b600082013567ffffffffffffffff8111156113a9576113a861122a565b5b6113b584828501611347565b91505092915050565b600081519050919050565b600082825260208201905092915050565b60005b838110156113f85780820151818401526020810190506113dd565b60008484015250505050565b600061140f826113be565b61141981856113c9565b93506114298185602086016113da565b61143281611239565b840191505092915050565b6000819050919050565b6114508161143d565b82525050565b600060ff82169050919050565b61146c81611456565b82525050565b600073ffffffffffffffffffffffffffffffffffffffff82169050919050565b600061149d82611472565b9050919050565b6114ad81611492565b82525050565b600060e08201905081810360008301526114cd818a611404565b905081810360208301526114e18189611404565b905081810360408301526114f58188611404565b90506115046060830187611447565b6115116080830186611463565b61151e60a08301856114a4565b61152b60c08301846114a4565b98975050505050505050565b600081519050919050565b600082825260208201905092915050565b6000819050602082019050919050565b600082825260208201905092915050565b600061157f826113be565b6115898185611563565b93506115998185602086016113da565b6115a281611239565b840191505092915050565b60006115b98383611574565b905092915050565b6000602082019050919050565b60006115d982611537565b6115e38185611542565b9350836020820285016115f585611553565b8060005b85811015611631578484038952815161161285826115ad565b945061161d836115c1565b925060208a019950506001810190506115f9565b50829750879550505050505092915050565b6000602082019050818103600083015261165d81846115ce565b905092915050565b61166e81611492565b811461167957600080fd5b50565b60008135905061168b81611665565b92915050565b600080604083850312156116a8576116a7611225565b5b600083013567ffffffffffffffff8111156116c6576116c561122a565b5b6116d285828601611347565b92505060206116e38582860161167c565b9150509250929050565b6116f68161143d565b811461170157600080fd5b50565b600081359050611713816116ed565b92915050565b6000806000806080858703121561173357611732611225565b5b600085013567ffffffffffffffff8111156117515761175061122a565b5b61175d87828801611347565b945050602085013567ffffffffffffffff81111561177e5761177d61122a565b5b61178a87828801611347565b935050604085013567ffffffffffffffff8111156117ab576117aa61122a565b5b6117b787828801611347565b92505060606117c887828801611704565b91505092959194509250565b6000602082840312156117ea576117e9611225565b5b60006117f884828501611704565b91505092915050565b6000602082019050818103600083015261181b8184611404565b905092915050565b600081905092915050565b6000611839826113be565b6118438185611823565b93506118538185602086016113da565b80840191505092915050565b600061186b828461182e565b915081905092915050565b7f4e487b7100000000000000000000000000000000000000000000000000000000600052602260045260246000fd5b600060028204905060018216806118bd57607f821691505b6020821081036118d0576118cf611876565b5b50919050565b7f43617220646f6573206e6f742065786973740000000000000000000000000000600082015250565b600061190c6012836113c9565b9150611917826118d6565b602082019050919050565b6000602082019050818103600083015261193b816118ff565b9050919050565b7f43617220616c7265616479206578697374730000000000000000000000000000600082015250565b60006119786012836113c9565b915061198382611942565b602082019050919050565b600060208201905081810360008301526119a78161196b565b9050919050565b60008190508160005260206000209050919050565b60006020601f8301049050919050565b600082821b905092915050565b600060088302611a107fffffffffffffffffffffffffffffffffffffffffffffffffffffffffffffffff826119d3565b611a1a86836119d3565b95508019841693508086168417925050509392505050565b6000819050919050565b6000611a57611a52611a4d8461143d565b611a32565b61143d565b9050919050565b6000819050919050565b611a7183611a3c565b611a85611a7d82611a5e565b8484546119e0565b825550505050565b600090565b611a9a611a8d565b611aa5818484611a68565b505050565b5b81811015611ac957611abe600082611a92565b600181019050611aab565b5050565b601f821115611b0e57611adf816119ae565b611ae8846119c3565b81016020851015611af7578190505b611b0b611b03856119c3565b830182611aaa565b50505b505050565b600082821c905092915050565b6000611b3160001984600802611b13565b1980831691505092915050565b6000611b4a8383611b20565b9150826002028217905092915050565b611b63826113be565b67ffffffffffffffff811115611b7c57611b7b61124a565b5b611b8682546118a5565b611b91828285611acd565b600060209050601f831160018114611bc45760008415611bb2578287015190505b611bbc8582611b3e565b865550611c24565b601f198416611bd2866119ae565b60005b82811015611bfa57848901518255600182019150602085019450602081019050611bd5565b86831015611c175784890151611c13601f891682611b20565b8355505b6001600288020188555050505b505050505050565b7f4f6e6c7920636172206f776e65722063616e206d6f6469667900000000000000600082015250565b6000611c626019836113c9565b9150611c6d82611c2c565b602082019050919050565b60006020820190508181036000830152611c9181611c55565b9050919050565b7f4e487b7100000000000000000000000000000000000000000000000000000000600052603260045260246000fd5b600081905092915050565b60008190508160005260206000209050919050565b60008154611cf4816118a5565b611cfe8186611cc7565b94506001821660008114611d195760018114611d2e57611d61565b60ff1983168652811515820286019350611d61565b611d3785611cd2565b60005b83811015611d5957815481890152600182019150602081019050611d3a565b838801955050505b50505092915050565b6000611d768284611ce7565b915081905092915050565b7f4e487b7100000000000000000000000000000000000000000000000000000000600052601160045260246000fd5b6000611dbb8261143d565b9150611dc68361143d565b9250828203905081811115611dde57611ddd611d81565b5b92915050565b600081549050611df3816118a5565b9050919050565b60008190508160005260206000209050919050565b818103611e1d575050611ef5565b611e2682611de4565b67ffffffffffffffff811115611e3f57611e3e61124a565b5b611e4982546118a5565b611e54828285611acd565b6000601f831160018114611e835760008415611e71578287015490505b611e7b8582611b3e565b865550611eee565b601f198416611e9187611dfa565b9650611e9c866119ae565b60005b82811015611ec457848901548255600182019150600185019450602081019050611e9f565b86831015611ee15784890154611edd601f891682611b20565b8355505b6001600288020188555050505b5050505050505b565b7f4e487b7100000000000000000000000000000000000000000000000000000000600052603160045260246000fd5b6000611f318261143d565b91507fffffffffffffffffffffffffffffffffffffffffffffffffffffffffffffffff8203611f6357611f62611d81565b5b60018201905091905056fea2646970667358221220a32e538d8cedde0e230d7cff80444abb2b9be1921969df1cd4a85a94aa9f5c3a64736f6c63430008140033","opcodes":"PUSH1 0x80 PUSH1 0x40 MSTORE CALLVALUE DUP1 ISZERO PUSH2 0x10 JUMPI PUSH1 0x0 DUP1 REVERT JUMPDEST POP PUSH2 0x1FA4 DUP1 PUSH2 0x20 PUSH1 0x0 CODECOPY PUSH1 0x0 RETURN INVALID PUSH1 0x80 PUSH1 0x40 MSTORE CALLVALUE DUP1 ISZERO PUSH2 0x10 JUMPI PUSH1 0x0 DUP1 REVERT JUMPDEST POP PUSH1 0x4 CALLDATASIZE LT PUSH2 0x93 JUMPI PUSH1 0x0 CALLDATALOAD PUSH1 0xE0 SHR DUP1 PUSH4 0xC1208B9D GT PUSH2 0x66 JUMPI DUP1 PUSH4 0xC1208B9D EQ PUSH2 0x13E JUMPI DUP1 PUSH4 0xD2D50BD8 EQ PUSH2 0x15A JUMPI DUP1 PUSH4 0xDD4F5B97 EQ PUSH2 0x176 JUMPI DUP1 PUSH4 0xE2A9E6C4 EQ PUSH2 0x1A6 JUMPI DUP1 PUSH4 0xFD76CE04 EQ PUSH2 0x1C2 JUMPI PUSH2 0x93 JUMP JUMPDEST DUP1 PUSH4 0x36749547 EQ PUSH2 0x98 JUMPI DUP1 PUSH4 0x41A2D180 EQ PUSH2 0xB4 JUMPI DUP1 PUSH4 0x479487E3 EQ PUSH2 0xEA JUMPI DUP1 PUSH4 0x9FFD058A EQ PUSH2 0x120 JUMPI JUMPDEST PUSH1 0x0 DUP1 REVERT JUMPDEST PUSH2 0xB2 PUSH1 0x4 DUP1 CALLDATASIZE SUB DUP2 ADD SWAP1 PUSH2 0xAD SWAP2 SWAP1 PUSH2 0x1375 JUMP JUMPDEST PUSH2 0x1DE JUMP JUMPDEST STOP JUMPDEST PUSH2 0xCE PUSH1 0x4 DUP1 CALLDATASIZE SUB DUP2 ADD SWAP1 PUSH2 0xC9 SWAP2 SWAP1 PUSH2 0x1375 JUMP JUMPDEST PUSH2 0x2EC JUMP JUMPDEST PUSH1 0x40 MLOAD PUSH2 0xE1 SWAP8 SWAP7 SWAP6 SWAP5 SWAP4 SWAP3 SWAP2 SWAP1 PUSH2 0x14B3 JUMP JUMPDEST PUSH1 0x40 MLOAD DUP1 SWAP2 SUB SWAP1 RETURN JUMPDEST PUSH2 0x104 PUSH1 0x4 DUP1 CALLDATASIZE SUB DUP2 ADD SWAP1 PUSH2 0xFF SWAP2 SWAP1 PUSH2 0x1375 JUMP JUMPDEST PUSH2 0x529 JUMP JUMPDEST PUSH1 0x40 MLOAD PUSH2 0x117 SWAP8 SWAP7 SWAP6 SWAP5 SWAP4 SWAP3 SWAP2 SWAP1 PUSH2 0x14B3 JUMP JUMPDEST PUSH1 0x40 MLOAD DUP1 SWAP2 SUB SWAP1 RETURN JUMPDEST PUSH2 0x128 PUSH2 0x897 JUMP JUMPDEST PUSH1 0x40 MLOAD PUSH2 0x135 SWAP2 SWAP1 PUSH2 0x1643 JUMP JUMPDEST PUSH1 0x40 MLOAD DUP1 SWAP2 SUB SWAP1 RETURN JUMPDEST PUSH2 0x158 PUSH1 0x4 DUP1 CALLDATASIZE SUB DUP2 ADD SWAP1 PUSH2 0x153 SWAP2 SWAP1 PUSH2 0x1691 JUMP JUMPDEST PUSH2 0x970 JUMP JUMPDEST STOP JUMPDEST PUSH2 0x174 PUSH1 0x4 DUP1 CALLDATASIZE SUB DUP2 ADD SWAP1 PUSH2 0x16F SWAP2 SWAP1 PUSH2 0x1719 JUMP JUMPDEST PUSH2 0xA80 JUMP JUMPDEST STOP JUMPDEST PUSH2 0x190 PUSH1 0x4 DUP1 CALLDATASIZE SUB DUP2 ADD SWAP1 PUSH2 0x18B SWAP2 SWAP1 PUSH2 0x17D4 JUMP JUMPDEST PUSH2 0xCAA JUMP JUMPDEST PUSH1 0x40 MLOAD PUSH2 0x19D SWAP2 SWAP1 PUSH2 0x1801 JUMP JUMPDEST PUSH1 0x40 MLOAD DUP1 SWAP2 SUB SWAP1 RETURN JUMPDEST PUSH2 0x1C0 PUSH1 0x4 DUP1 CALLDATASIZE SUB DUP2 ADD SWAP1 PUSH2 0x1BB SWAP2 SWAP1 PUSH2 0x1719 JUMP JUMPDEST PUSH2 0xD56 JUMP JUMPDEST STOP JUMPDEST PUSH2 0x1DC PUSH1 0x4 DUP1 CALLDATASIZE SUB DUP2 ADD SWAP1 PUSH2 0x1D7 SWAP2 SWAP1 PUSH2 0x1375 JUMP JUMPDEST PUSH2 0xEED JUMP JUMPDEST STOP JUMPDEST DUP1 PUSH1 0x0 DUP1 DUP3 PUSH1 0x40 MLOAD PUSH2 0x1F0 SWAP2 SWAP1 PUSH2 0x185F JUMP JUMPDEST SWAP1 DUP2 MSTORE PUSH1 0x20 ADD PUSH1 0x40 MLOAD DUP1 SWAP2 SUB SWAP1 KECCAK256 PUSH1 0x0 ADD DUP1 SLOAD PUSH2 0x20C SWAP1 PUSH2 0x18A5 JUMP JUMPDEST SWAP1 POP SUB PUSH2 0x24E JUMPI PUSH1 0x40 MLOAD PUSH32 0x8C379A000000000000000000000000000000000000000000000000000000000 DUP2 MSTORE PUSH1 0x4 ADD PUSH2 0x245 SWAP1 PUSH2 0x1922 JUMP JUMPDEST PUSH1 0x40 MLOAD DUP1 SWAP2 SUB SWAP1 REVERT JUMPDEST PUSH1 0x0 DUP1 DUP4 PUSH1 0x40 MLOAD PUSH2 0x25F SWAP2 SWAP1 PUSH2 0x185F JUMP JUMPDEST SWAP1 DUP2 MSTORE PUSH1 0x20 ADD PUSH1 0x40 MLOAD DUP1 SWAP2 SUB SWAP1 KECCAK256 PUSH1 0x4 ADD PUSH1 0x0 PUSH2 0x100 EXP DUP2 SLOAD DUP2 PUSH1 0xFF MUL NOT AND SWAP1 DUP4 PUSH1 0xFF AND MUL OR SWAP1 SSTORE POP PUSH1 0x0 DUP1 DUP4 PUSH1 0x40 MLOAD PUSH2 0x299 SWAP2 SWAP1 PUSH2 0x185F JUMP JUMPDEST SWAP1 DUP2 MSTORE PUSH1 0x20 ADD PUSH1 0x40 MLOAD DUP1 SWAP2 SUB SWAP1 KECCAK256 PUSH1 0x4 ADD PUSH1 0x1 PUSH2 0x100 EXP DUP2 SLOAD DUP2 PUSH20 0xFFFFFFFFFFFFFFFFFFFFFFFFFFFFFFFFFFFFFFFF MUL NOT AND SWAP1 DUP4 PUSH20 0xFFFFFFFFFFFFFFFFFFFFFFFFFFFFFFFFFFFFFFFF AND MUL OR SWAP1 SSTORE POP POP POP JUMP JUMPDEST PUSH1 0x0 DUP2 DUP1 MLOAD PUSH1 0x20 DUP2 ADD DUP3 ADD DUP1 MLOAD DUP5 DUP3 MSTORE PUSH1 0x20 DUP4 ADD PUSH1 0x20 DUP6 ADD KECCAK256 DUP2 DUP4 MSTORE DUP1 SWAP6 POP POP POP POP POP POP PUSH1 0x0 SWAP2 POP SWAP1 POP DUP1 PUSH1 0x0 ADD DUP1 SLOAD PUSH2 0x325 SWAP1 PUSH2 0x18A5 JUMP JUMPDEST DUP1 PUSH1 0x1F ADD PUSH1 0x20 DUP1 SWAP2 DIV MUL PUSH1 0x20 ADD PUSH1 0x40 MLOAD SWAP1 DUP2 ADD PUSH1 0x40 MSTORE DUP1 SWAP3 SWAP2 SWAP1 DUP2 DUP2 MSTORE PUSH1 0x20 ADD DUP3 DUP1 SLOAD PUSH2 0x351 SWAP1 PUSH2 0x18A5 JUMP JUMPDEST DUP1 ISZERO PUSH2 0x39E JUMPI DUP1 PUSH1 0x1F LT PUSH2 0x373 JUMPI PUSH2 0x100 DUP1 DUP4 SLOAD DIV MUL DUP4 MSTORE SWAP2 PUSH1 0x20 ADD SWAP2 PUSH2 0x39E JUMP JUMPDEST DUP3 ADD SWAP2 SWAP1 PUSH1 0x0 MSTORE PUSH1 0x20 PUSH1 0x0 KECCAK256 SWAP1 JUMPDEST DUP2 SLOAD DUP2 MSTORE SWAP1 PUSH1 0x1 ADD SWAP1 PUSH1 0x20 ADD DUP1 DUP4 GT PUSH2 0x381 JUMPI DUP3 SWAP1 SUB PUSH1 0x1F AND DUP3 ADD SWAP2 JUMPDEST POP POP POP POP POP SWAP1 DUP1 PUSH1 0x1 ADD DUP1 SLOAD PUSH2 0x3B3 SWAP1 PUSH2 0x18A5 JUMP JUMPDEST DUP1 PUSH1 0x1F ADD PUSH1 0x20 DUP1 SWAP2 DIV MUL PUSH1 0x20 ADD PUSH1 0x40 MLOAD SWAP1 DUP2 ADD PUSH1 0x40 MSTORE DUP1 SWAP3 SWAP2 SWAP1 DUP2 DUP2 MSTORE PUSH1 0x20 ADD DUP3 DUP1 SLOAD PUSH2 0x3DF SWAP1 PUSH2 0x18A5 JUMP JUMPDEST DUP1 ISZERO PUSH2 0x42C JUMPI DUP1 PUSH1 0x1F LT PUSH2 0x401 JUMPI PUSH2 0x100 DUP1 DUP4 SLOAD DIV MUL DUP4 MSTORE SWAP2 PUSH1 0x20 ADD SWAP2 PUSH2 0x42C JUMP JUMPDEST DUP3 ADD SWAP2 SWAP1 PUSH1 0x0 MSTORE PUSH1 0x20 PUSH1 0x0 KECCAK256 SWAP1 JUMPDEST DUP2 SLOAD DUP2 MSTORE SWAP1 PUSH1 0x1 ADD SWAP1 PUSH1 0x20 ADD DUP1 DUP4 GT PUSH2 0x40F JUMPI DUP3 SWAP1 SUB PUSH1 0x1F AND DUP3 ADD SWAP2 JUMPDEST POP POP POP POP POP SWAP1 DUP1 PUSH1 0x2 ADD DUP1 SLOAD PUSH2 0x441 SWAP1 PUSH2 0x18A5 JUMP JUMPDEST DUP1 PUSH1 0x1F ADD PUSH1 0x20 DUP1 SWAP2 DIV MUL PUSH1 0x20 ADD PUSH1 0x40 MLOAD SWAP1 DUP2 ADD PUSH1 0x40 MSTORE DUP1 SWAP3 SWAP2 SWAP1 DUP2 DUP2 MSTORE PUSH1 0x20 ADD DUP3 DUP1 SLOAD PUSH2 0x46D SWAP1 PUSH2 0x18A5 JUMP JUMPDEST DUP1 ISZERO PUSH2 0x4BA JUMPI DUP1 PUSH1 0x1F LT PUSH2 0x48F JUMPI PUSH2 0x100 DUP1 DUP4 SLOAD DIV MUL DUP4 MSTORE SWAP2 PUSH1 0x20 ADD SWAP2 PUSH2 0x4BA JUMP JUMPDEST DUP3 ADD SWAP2 SWAP1 PUSH1 0x0 MSTORE PUSH1 0x20 PUSH1 0x0 KECCAK256 SWAP1 JUMPDEST DUP2 SLOAD DUP2 MSTORE SWAP1 PUSH1 0x1 ADD SWAP1 PUSH1 0x20 ADD DUP1 DUP4 GT PUSH2 0x49D JUMPI DUP3 SWAP1 SUB PUSH1 0x1F AND DUP3 ADD SWAP2 JUMPDEST POP POP POP POP POP SWAP1 DUP1 PUSH1 0x3 ADD SLOAD SWAP1 DUP1 PUSH1 0x4 ADD PUSH1 0x0 SWAP1 SLOAD SWAP1 PUSH2 0x100 EXP SWAP1 DIV PUSH1 0xFF AND SWAP1 DUP1 PUSH1 0x4 ADD PUSH1 0x1 SWAP1 SLOAD SWAP1 PUSH2 0x100 EXP SWAP1 DIV PUSH20 0xFFFFFFFFFFFFFFFFFFFFFFFFFFFFFFFFFFFFFFFF AND SWAP1 DUP1 PUSH1 0x5 ADD PUSH1 0x0 SWAP1 SLOAD SWAP1 PUSH2 0x100 EXP SWAP1 DIV PUSH20 0xFFFFFFFFFFFFFFFFFFFFFFFFFFFFFFFFFFFFFFFF AND SWAP1 POP DUP8 JUMP JUMPDEST PUSH1 0x60 DUP1 PUSH1 0x60 PUSH1 0x0 DUP1 PUSH1 0x0 DUP1 DUP8 PUSH1 0x0 DUP1 DUP3 PUSH1 0x40 MLOAD PUSH2 0x546 SWAP2 SWAP1 PUSH2 0x185F JUMP JUMPDEST SWAP1 DUP2 MSTORE PUSH1 0x20 ADD PUSH1 0x40 MLOAD DUP1 SWAP2 SUB SWAP1 KECCAK256 PUSH1 0x0 ADD DUP1 SLOAD PUSH2 0x562 SWAP1 PUSH2 0x18A5 JUMP JUMPDEST SWAP1 POP SUB PUSH2 0x5A4 JUMPI PUSH1 0x40 MLOAD PUSH32 0x8C379A000000000000000000000000000000000000000000000000000000000 DUP2 MSTORE PUSH1 0x4 ADD PUSH2 0x59B SWAP1 PUSH2 0x1922 JUMP JUMPDEST PUSH1 0x40 MLOAD DUP1 SWAP2 SUB SWAP1 REVERT JUMPDEST PUSH1 0x0 DUP1 DUP11 PUSH1 0x40 MLOAD PUSH2 0x5B5 SWAP2 SWAP1 PUSH2 0x185F JUMP JUMPDEST SWAP1 DUP2 MSTORE PUSH1 0x20 ADD PUSH1 0x40 MLOAD DUP1 SWAP2 SUB SWAP1 KECCAK256 PUSH1 0x40 MLOAD DUP1 PUSH1 0xE0 ADD PUSH1 0x40 MSTORE SWAP1 DUP2 PUSH1 0x0 DUP3 ADD DUP1 SLOAD PUSH2 0x5DE SWAP1 PUSH2 0x18A5 JUMP JUMPDEST DUP1 PUSH1 0x1F ADD PUSH1 0x20 DUP1 SWAP2 DIV MUL PUSH1 0x20 ADD PUSH1 0x40 MLOAD SWAP1 DUP2 ADD PUSH1 0x40 MSTORE DUP1 SWAP3 SWAP2 SWAP1 DUP2 DUP2 MSTORE PUSH1 0x20 ADD DUP3 DUP1 SLOAD PUSH2 0x60A SWAP1 PUSH2 0x18A5 JUMP JUMPDEST DUP1 ISZERO PUSH2 0x657 JUMPI DUP1 PUSH1 0x1F LT PUSH2 0x62C JUMPI PUSH2 0x100 DUP1 DUP4 SLOAD DIV MUL DUP4 MSTORE SWAP2 PUSH1 0x20 ADD SWAP2 PUSH2 0x657 JUMP JUMPDEST DUP3 ADD SWAP2 SWAP1 PUSH1 0x0 MSTORE PUSH1 0x20 PUSH1 0x0 KECCAK256 SWAP1 JUMPDEST DUP2 SLOAD DUP2 MSTORE SWAP1 PUSH1 0x1 ADD SWAP1 PUSH1 0x20 ADD DUP1 DUP4 GT PUSH2 0x63A JUMPI DUP3 SWAP1 SUB PUSH1 0x1F AND DUP3 ADD SWAP2 JUMPDEST POP POP POP POP POP DUP2 MSTORE PUSH1 0x20 ADD PUSH1 0x1 DUP3 ADD DUP1 SLOAD PUSH2 0x670 SWAP1 PUSH2 0x18A5 JUMP JUMPDEST DUP1 PUSH1 0x1F ADD PUSH1 0x20 DUP1 SWAP2 DIV MUL PUSH1 0x20 ADD PUSH1 0x40 MLOAD SWAP1 DUP2 ADD PUSH1 0x40 MSTORE DUP1 SWAP3 SWAP2 SWAP1 DUP2 DUP2 MSTORE PUSH1 0x20 ADD DUP3 DUP1 SLOAD PUSH2 0x69C SWAP1 PUSH2 0x18A5 JUMP JUMPDEST DUP1 ISZERO PUSH2 0x6E9 JUMPI DUP1 PUSH1 0x1F LT PUSH2 0x6BE JUMPI PUSH2 0x100 DUP1 DUP4 SLOAD DIV MUL DUP4 MSTORE SWAP2 PUSH1 0x20 ADD SWAP2 PUSH2 0x6E9 JUMP JUMPDEST DUP3 ADD SWAP2 SWAP1 PUSH1 0x0 MSTORE PUSH1 0x20 PUSH1 0x0 KECCAK256 SWAP1 JUMPDEST DUP2 SLOAD DUP2 MSTORE SWAP1 PUSH1 0x1 ADD SWAP1 PUSH1 0x20 ADD DUP1 DUP4 GT PUSH2 0x6CC JUMPI DUP3 SWAP1 SUB PUSH1 0x1F AND DUP3 ADD SWAP2 JUMPDEST POP POP POP POP POP DUP2 MSTORE PUSH1 0x20 ADD PUSH1 0x2 DUP3 ADD DUP1 SLOAD PUSH2 0x702 SWAP1 PUSH2 0x18A5 JUMP JUMPDEST DUP1 PUSH1 0x1F ADD PUSH1 0x20 DUP1 SWAP2 DIV MUL PUSH1 0x20 ADD PUSH1 0x40 MLOAD SWAP1 DUP2 ADD PUSH1 0x40 MSTORE DUP1 SWAP3 SWAP2 SWAP1 DUP2 DUP2 MSTORE PUSH1 0x20 ADD DUP3 DUP1 SLOAD PUSH2 0x72E SWAP1 PUSH2 0x18A5 JUMP JUMPDEST DUP1 ISZERO PUSH2 0x77B JUMPI DUP1 PUSH1 0x1F LT PUSH2 0x750 JUMPI PUSH2 0x100 DUP1 DUP4 SLOAD DIV MUL DUP4 MSTORE SWAP2 PUSH1 0x20 ADD SWAP2 PUSH2 0x77B JUMP JUMPDEST DUP3 ADD SWAP2 SWAP1 PUSH1 0x0 MSTORE PUSH1 0x20 PUSH1 0x0 KECCAK256 SWAP1 JUMPDEST DUP2 SLOAD DUP2 MSTORE SWAP1 PUSH1 0x1 ADD SWAP1 PUSH1 0x20 ADD DUP1 DUP4 GT PUSH2 0x75E JUMPI DUP3 SWAP1 SUB PUSH1 0x1F AND DUP3 ADD SWAP2 JUMPDEST POP POP POP POP POP DUP2 MSTORE PUSH1 0x20 ADD PUSH1 0x3 DUP3 ADD SLOAD DUP2 MSTORE PUSH1 0x20 ADD PUSH1 0x4 DUP3 ADD PUSH1 0x0 SWAP1 SLOAD SWAP1 PUSH2 0x100 EXP SWAP1 DIV PUSH1 0xFF AND PUSH1 0xFF AND PUSH1 0xFF AND DUP2 MSTORE PUSH1 0x20 ADD PUSH1 0x4 DUP3 ADD PUSH1 0x1 SWAP1 SLOAD SWAP1 PUSH2 0x100 EXP SWAP1 DIV PUSH20 0xFFFFFFFFFFFFFFFFFFFFFFFFFFFFFFFFFFFFFFFF AND PUSH20 0xFFFFFFFFFFFFFFFFFFFFFFFFFFFFFFFFFFFFFFFF AND PUSH20 0xFFFFFFFFFFFFFFFFFFFFFFFFFFFFFFFFFFFFFFFF AND DUP2 MSTORE PUSH1 0x20 ADD PUSH1 0x5 DUP3 ADD PUSH1 0x0 SWAP1 SLOAD SWAP1 PUSH2 0x100 EXP SWAP1 DIV PUSH20 0xFFFFFFFFFFFFFFFFFFFFFFFFFFFFFFFFFFFFFFFF AND PUSH20 0xFFFFFFFFFFFFFFFFFFFFFFFFFFFFFFFFFFFFFFFF AND PUSH20 0xFFFFFFFFFFFFFFFFFFFFFFFFFFFFFFFFFFFFFFFF AND DUP2 MSTORE POP POP SWAP1 POP DUP1 PUSH1 0x0 ADD MLOAD DUP2 PUSH1 0x20 ADD MLOAD DUP3 PUSH1 0x40 ADD MLOAD DUP4 PUSH1 0x60 ADD MLOAD DUP5 PUSH1 0x80 ADD MLOAD DUP6 PUSH1 0xA0 ADD MLOAD DUP7 PUSH1 0xC0 ADD MLOAD SWAP9 POP SWAP9 POP SWAP9 POP SWAP9 POP SWAP9 POP SWAP9 POP SWAP9 POP POP POP SWAP2 SWAP4 SWAP6 SWAP8 SWAP1 SWAP3 SWAP5 SWAP7 POP JUMP JUMPDEST PUSH1 0x60 PUSH1 0x1 DUP1 SLOAD DUP1 PUSH1 0x20 MUL PUSH1 0x20 ADD PUSH1 0x40 MLOAD SWAP1 DUP2 ADD PUSH1 0x40 MSTORE DUP1 SWAP3 SWAP2 SWAP1 DUP2 DUP2 MSTORE PUSH1 0x20 ADD PUSH1 0x0 SWAP1 JUMPDEST DUP3 DUP3 LT ISZERO PUSH2 0x967 JUMPI DUP4 DUP3 SWAP1 PUSH1 0x0 MSTORE PUSH1 0x20 PUSH1 0x0 KECCAK256 ADD DUP1 SLOAD PUSH2 0x8DA SWAP1 PUSH2 0x18A5 JUMP JUMPDEST DUP1 PUSH1 0x1F ADD PUSH1 0x20 DUP1 SWAP2 DIV MUL PUSH1 0x20 ADD PUSH1 0x40 MLOAD SWAP1 DUP2 ADD PUSH1 0x40 MSTORE DUP1 SWAP3 SWAP2 SWAP1 DUP2 DUP2 MSTORE PUSH1 0x20 ADD DUP3 DUP1 SLOAD PUSH2 0x906 SWAP1 PUSH2 0x18A5 JUMP JUMPDEST DUP1 ISZERO PUSH2 0x953 JUMPI DUP1 PUSH1 0x1F LT PUSH2 0x928 JUMPI PUSH2 0x100 DUP1 DUP4 SLOAD DIV MUL DUP4 MSTORE SWAP2 PUSH1 0x20 ADD SWAP2 PUSH2 0x953 JUMP JUMPDEST DUP3 ADD SWAP2 SWAP1 PUSH1 0x0 MSTORE PUSH1 0x20 PUSH1 0x0 KECCAK256 SWAP1 JUMPDEST DUP2 SLOAD DUP2 MSTORE SWAP1 PUSH1 0x1 ADD SWAP1 PUSH1 0x20 ADD DUP1 DUP4 GT PUSH2 0x936 JUMPI DUP3 SWAP1 SUB PUSH1 0x1F AND DUP3 ADD SWAP2 JUMPDEST POP POP POP POP POP DUP2 MSTORE PUSH1 0x20 ADD SWAP1 PUSH1 0x1 ADD SWAP1 PUSH2 0x8BB JUMP JUMPDEST POP POP POP POP SWAP1 POP SWAP1 JUMP JUMPDEST DUP2 PUSH1 0x0 DUP1 DUP3 PUSH1 0x40 MLOAD PUSH2 0x982 SWAP2 SWAP1 PUSH2 0x185F JUMP JUMPDEST SWAP1 DUP2 MSTORE PUSH1 0x20 ADD PUSH1 0x40 MLOAD DUP1 SWAP2 SUB SWAP1 KECCAK256 PUSH1 0x0 ADD DUP1 SLOAD PUSH2 0x99E SWAP1 PUSH2 0x18A5 JUMP JUMPDEST SWAP1 POP SUB PUSH2 0x9E0 JUMPI PUSH1 0x40 MLOAD PUSH32 0x8C379A000000000000000000000000000000000000000000000000000000000 DUP2 MSTORE PUSH1 0x4 ADD PUSH2 0x9D7 SWAP1 PUSH2 0x1922 JUMP JUMPDEST PUSH1 0x40 MLOAD DUP1 SWAP2 SUB SWAP1 REVERT JUMPDEST PUSH1 0x1 PUSH1 0x0 DUP5 PUSH1 0x40 MLOAD PUSH2 0x9F2 SWAP2 SWAP1 PUSH2 0x185F JUMP JUMPDEST SWAP1 DUP2 MSTORE PUSH1 0x20 ADD PUSH1 0x40 MLOAD DUP1 SWAP2 SUB SWAP1 KECCAK256 PUSH1 0x4 ADD PUSH1 0x0 PUSH2 0x100 EXP DUP2 SLOAD DUP2 PUSH1 0xFF MUL NOT AND SWAP1 DUP4 PUSH1 0xFF AND MUL OR SWAP1 SSTORE POP DUP2 PUSH1 0x0 DUP5 PUSH1 0x40 MLOAD PUSH2 0xA2C SWAP2 SWAP1 PUSH2 0x185F JUMP JUMPDEST SWAP1 DUP2 MSTORE PUSH1 0x20 ADD PUSH1 0x40 MLOAD DUP1 SWAP2 SUB SWAP1 KECCAK256 PUSH1 0x4 ADD PUSH1 0x1 PUSH2 0x100 EXP DUP2 SLOAD DUP2 PUSH20 0xFFFFFFFFFFFFFFFFFFFFFFFFFFFFFFFFFFFFFFFF MUL NOT AND SWAP1 DUP4 PUSH20 0xFFFFFFFFFFFFFFFFFFFFFFFFFFFFFFFFFFFFFFFF AND MUL OR SWAP1 SSTORE POP POP POP POP JUMP JUMPDEST PUSH1 0x0 DUP1 DUP6 PUSH1 0x40 MLOAD PUSH2 0xA91 SWAP2 SWAP1 PUSH2 0x185F JUMP JUMPDEST SWAP1 DUP2 MSTORE PUSH1 0x20 ADD PUSH1 0x40 MLOAD DUP1 SWAP2 SUB SWAP1 KECCAK256 PUSH1 0x0 ADD DUP1 SLOAD PUSH2 0xAAD SWAP1 PUSH2 0x18A5 JUMP JUMPDEST SWAP1 POP EQ PUSH2 0xAEF JUMPI PUSH1 0x40 MLOAD PUSH32 0x8C379A000000000000000000000000000000000000000000000000000000000 DUP2 MSTORE PUSH1 0x4 ADD PUSH2 0xAE6 SWAP1 PUSH2 0x198E JUMP JUMPDEST PUSH1 0x40 MLOAD DUP1 SWAP2 SUB SWAP1 REVERT JUMPDEST PUSH1 0x40 MLOAD DUP1 PUSH1 0xE0 ADD PUSH1 0x40 MSTORE DUP1 DUP6 DUP2 MSTORE PUSH1 0x20 ADD DUP5 DUP2 MSTORE PUSH1 0x20 ADD DUP4 DUP2 MSTORE PUSH1 0x20 ADD DUP3 DUP2 MSTORE PUSH1 0x20 ADD PUSH1 0x0 PUSH1 0xFF AND DUP2 MSTORE PUSH1 0x20 ADD PUSH1 0x0 PUSH20 0xFFFFFFFFFFFFFFFFFFFFFFFFFFFFFFFFFFFFFFFF AND DUP2 MSTORE PUSH1 0x20 ADD CALLER PUSH20 0xFFFFFFFFFFFFFFFFFFFFFFFFFFFFFFFFFFFFFFFF AND DUP2 MSTORE POP PUSH1 0x0 DUP6 PUSH1 0x40 MLOAD PUSH2 0xB63 SWAP2 SWAP1 PUSH2 0x185F JUMP JUMPDEST SWAP1 DUP2 MSTORE PUSH1 0x20 ADD PUSH1 0x40 MLOAD DUP1 SWAP2 SUB SWAP1 KECCAK256 PUSH1 0x0 DUP3 ADD MLOAD DUP2 PUSH1 0x0 ADD SWAP1 DUP2 PUSH2 0xB86 SWAP2 SWAP1 PUSH2 0x1B5A JUMP JUMPDEST POP PUSH1 0x20 DUP3 ADD MLOAD DUP2 PUSH1 0x1 ADD SWAP1 DUP2 PUSH2 0xB9C SWAP2 SWAP1 PUSH2 0x1B5A JUMP JUMPDEST POP PUSH1 0x40 DUP3 ADD MLOAD DUP2 PUSH1 0x2 ADD SWAP1 DUP2 PUSH2 0xBB2 SWAP2 SWAP1 PUSH2 0x1B5A JUMP JUMPDEST POP PUSH1 0x60 DUP3 ADD MLOAD DUP2 PUSH1 0x3 ADD SSTORE PUSH1 0x80 DUP3 ADD MLOAD DUP2 PUSH1 0x4 ADD PUSH1 0x0 PUSH2 0x100 EXP DUP2 SLOAD DUP2 PUSH1 0xFF MUL NOT AND SWAP1 DUP4 PUSH1 0xFF AND MUL OR SWAP1 SSTORE POP PUSH1 0xA0 DUP3 ADD MLOAD DUP2 PUSH1 0x4 ADD PUSH1 0x1 PUSH2 0x100 EXP DUP2 SLOAD DUP2 PUSH20 0xFFFFFFFFFFFFFFFFFFFFFFFFFFFFFFFFFFFFFFFF MUL NOT AND SWAP1 DUP4 PUSH20 0xFFFFFFFFFFFFFFFFFFFFFFFFFFFFFFFFFFFFFFFF AND MUL OR SWAP1 SSTORE POP PUSH1 0xC0 DUP3 ADD MLOAD DUP2 PUSH1 0x5 ADD PUSH1 0x0 PUSH2 0x100 EXP DUP2 SLOAD DUP2 PUSH20 0xFFFFFFFFFFFFFFFFFFFFFFFFFFFFFFFFFFFFFFFF MUL NOT AND SWAP1 DUP4 PUSH20 0xFFFFFFFFFFFFFFFFFFFFFFFFFFFFFFFFFFFFFFFF AND MUL OR SWAP1 SSTORE POP SWAP1 POP POP PUSH1 0x1 DUP5 SWAP1 DUP1 PUSH1 0x1 DUP2 SLOAD ADD DUP1 DUP3 SSTORE DUP1 SWAP2 POP POP PUSH1 0x1 SWAP1 SUB SWAP1 PUSH1 0x0 MSTORE PUSH1 0x20 PUSH1 0x0 KECCAK256 ADD PUSH1 0x0 SWAP1 SWAP2 SWAP1 SWAP2 SWAP1 SWAP2 POP SWAP1 DUP2 PUSH2 0xCA3 SWAP2 SWAP1 PUSH2 0x1B5A JUMP JUMPDEST POP POP POP POP POP JUMP JUMPDEST PUSH1 0x1 DUP2 DUP2 SLOAD DUP2 LT PUSH2 0xCBA JUMPI PUSH1 0x0 DUP1 REVERT JUMPDEST SWAP1 PUSH1 0x0 MSTORE PUSH1 0x20 PUSH1 0x0 KECCAK256 ADD PUSH1 0x0 SWAP2 POP SWAP1 POP DUP1 SLOAD PUSH2 0xCD5 SWAP1 PUSH2 0x18A5 JUMP JUMPDEST DUP1 PUSH1 0x1F ADD PUSH1 0x20 DUP1 SWAP2 DIV MUL PUSH1 0x20 ADD PUSH1 0x40 MLOAD SWAP1 DUP2 ADD PUSH1 0x40 MSTORE DUP1 SWAP3 SWAP2 SWAP1 DUP2 DUP2 MSTORE PUSH1 0x20 ADD DUP3 DUP1 SLOAD PUSH2 0xD01 SWAP1 PUSH2 0x18A5 JUMP JUMPDEST DUP1 ISZERO PUSH2 0xD4E JUMPI DUP1 PUSH1 0x1F LT PUSH2 0xD23 JUMPI PUSH2 0x100 DUP1 DUP4 SLOAD DIV MUL DUP4 MSTORE SWAP2 PUSH1 0x20 ADD SWAP2 PUSH2 0xD4E JUMP JUMPDEST DUP3 ADD SWAP2 SWAP1 PUSH1 0x0 MSTORE PUSH1 0x20 PUSH1 0x0 KECCAK256 SWAP1 JUMPDEST DUP2 SLOAD DUP2 MSTORE SWAP1 PUSH1 0x1 ADD SWAP1 PUSH1 0x20 ADD DUP1 DUP4 GT PUSH2 0xD31 JUMPI DUP3 SWAP1 SUB PUSH1 0x1F AND DUP3 ADD SWAP2 JUMPDEST POP POP POP POP POP DUP2 JUMP JUMPDEST DUP4 PUSH1 0x0 DUP1 DUP3 PUSH1 0x40 MLOAD PUSH2 0xD68 SWAP2 SWAP1 PUSH2 0x185F JUMP JUMPDEST SWAP1 DUP2 MSTORE PUSH1 0x20 ADD PUSH1 0x40 MLOAD DUP1 SWAP2 SUB SWAP1 KECCAK256 PUSH1 0x0 ADD DUP1 SLOAD PUSH2 0xD84 SWAP1 PUSH2 0x18A5 JUMP JUMPDEST SWAP1 POP SUB PUSH2 0xDC6 JUMPI PUSH1 0x40 MLOAD PUSH32 0x8C379A000000000000000000000000000000000000000000000000000000000 DUP2 MSTORE PUSH1 0x4 ADD PUSH2 0xDBD SWAP1 PUSH2 0x1922 JUMP JUMPDEST PUSH1 0x40 MLOAD DUP1 SWAP2 SUB SWAP1 REVERT JUMPDEST DUP5 CALLER PUSH20 0xFFFFFFFFFFFFFFFFFFFFFFFFFFFFFFFFFFFFFFFF AND PUSH1 0x0 DUP3 PUSH1 0x40 MLOAD PUSH2 0xDEE SWAP2 SWAP1 PUSH2 0x185F JUMP JUMPDEST SWAP1 DUP2 MSTORE PUSH1 0x20 ADD PUSH1 0x40 MLOAD DUP1 SWAP2 SUB SWAP1 KECCAK256 PUSH1 0x5 ADD PUSH1 0x0 SWAP1 SLOAD SWAP1 PUSH2 0x100 EXP SWAP1 DIV PUSH20 0xFFFFFFFFFFFFFFFFFFFFFFFFFFFFFFFFFFFFFFFF AND PUSH20 0xFFFFFFFFFFFFFFFFFFFFFFFFFFFFFFFFFFFFFFFF AND EQ PUSH2 0xE76 JUMPI PUSH1 0x40 MLOAD PUSH32 0x8C379A000000000000000000000000000000000000000000000000000000000 DUP2 MSTORE PUSH1 0x4 ADD PUSH2 0xE6D SWAP1 PUSH2 0x1C78 JUMP JUMPDEST PUSH1 0x40 MLOAD DUP1 SWAP2 SUB SWAP1 REVERT JUMPDEST PUSH1 0x0 DUP1 DUP8 PUSH1 0x40 MLOAD PUSH2 0xE87 SWAP2 SWAP1 PUSH2 0x185F JUMP JUMPDEST SWAP1 DUP2 MSTORE PUSH1 0x20 ADD PUSH1 0x40 MLOAD DUP1 SWAP2 SUB SWAP1 KECCAK256 SWAP1 POP PUSH1 0x0 DUP7 MLOAD GT ISZERO PUSH2 0xEB4 JUMPI DUP6 DUP2 PUSH1 0x1 ADD SWAP1 DUP2 PUSH2 0xEB2 SWAP2 SWAP1 PUSH2 0x1B5A JUMP JUMPDEST POP JUMPDEST PUSH1 0x0 DUP6 MLOAD GT ISZERO PUSH2 0xED1 JUMPI DUP5 DUP2 PUSH1 0x2 ADD SWAP1 DUP2 PUSH2 0xECF SWAP2 SWAP1 PUSH2 0x1B5A JUMP JUMPDEST POP JUMPDEST PUSH1 0x0 DUP5 GT ISZERO PUSH2 0xEE4 JUMPI DUP4 DUP2 PUSH1 0x3 ADD DUP2 SWAP1 SSTORE POP JUMPDEST POP POP POP POP POP POP POP JUMP JUMPDEST DUP1 PUSH1 0x0 DUP1 DUP3 PUSH1 0x40 MLOAD PUSH2 0xEFF SWAP2 SWAP1 PUSH2 0x185F JUMP JUMPDEST SWAP1 DUP2 MSTORE PUSH1 0x20 ADD PUSH1 0x40 MLOAD DUP1 SWAP2 SUB SWAP1 KECCAK256 PUSH1 0x0 ADD DUP1 SLOAD PUSH2 0xF1B SWAP1 PUSH2 0x18A5 JUMP JUMPDEST SWAP1 POP SUB PUSH2 0xF5D JUMPI PUSH1 0x40 MLOAD PUSH32 0x8C379A000000000000000000000000000000000000000000000000000000000 DUP2 MSTORE PUSH1 0x4 ADD PUSH2 0xF54 SWAP1 PUSH2 0x1922 JUMP JUMPDEST PUSH1 0x40 MLOAD DUP1 SWAP2 SUB SWAP1 REVERT JUMPDEST DUP2 CALLER PUSH20 0xFFFFFFFFFFFFFFFFFFFFFFFFFFFFFFFFFFFFFFFF AND PUSH1 0x0 DUP3 PUSH1 0x40 MLOAD PUSH2 0xF85 SWAP2 SWAP1 PUSH2 0x185F JUMP JUMPDEST SWAP1 DUP2 MSTORE PUSH1 0x20 ADD PUSH1 0x40 MLOAD DUP1 SWAP2 SUB SWAP1 KECCAK256 PUSH1 0x5 ADD PUSH1 0x0 SWAP1 SLOAD SWAP1 PUSH2 0x100 EXP SWAP1 DIV PUSH20 0xFFFFFFFFFFFFFFFFFFFFFFFFFFFFFFFFFFFFFFFF AND PUSH20 0xFFFFFFFFFFFFFFFFFFFFFFFFFFFFFFFFFFFFFFFF AND EQ PUSH2 0x100D JUMPI PUSH1 0x40 MLOAD PUSH32 0x8C379A000000000000000000000000000000000000000000000000000000000 DUP2 MSTORE PUSH1 0x4 ADD PUSH2 0x1004 SWAP1 PUSH2 0x1C78 JUMP JUMPDEST PUSH1 0x40 MLOAD DUP1 SWAP2 SUB SWAP1 REVERT JUMPDEST PUSH1 0x0 DUP4 PUSH1 0x40 MLOAD PUSH2 0x101D SWAP2 SWAP1 PUSH2 0x185F JUMP JUMPDEST SWAP1 DUP2 MSTORE PUSH1 0x20 ADD PUSH1 0x40 MLOAD DUP1 SWAP2 SUB SWAP1 KECCAK256 PUSH1 0x0 DUP1 DUP3 ADD PUSH1 0x0 PUSH2 0x103C SWAP2 SWAP1 PUSH2 0x11BE JUMP JUMPDEST PUSH1 0x1 DUP3 ADD PUSH1 0x0 PUSH2 0x104C SWAP2 SWAP1 PUSH2 0x11BE JUMP JUMPDEST PUSH1 0x2 DUP3 ADD PUSH1 0x0 PUSH2 0x105C SWAP2 SWAP1 PUSH2 0x11BE JUMP JUMPDEST PUSH1 0x3 DUP3 ADD PUSH1 0x0 SWAP1 SSTORE PUSH1 0x4 DUP3 ADD PUSH1 0x0 PUSH2 0x100 EXP DUP2 SLOAD SWAP1 PUSH1 0xFF MUL NOT AND SWAP1 SSTORE PUSH1 0x4 DUP3 ADD PUSH1 0x1 PUSH2 0x100 EXP DUP2 SLOAD SWAP1 PUSH20 0xFFFFFFFFFFFFFFFFFFFFFFFFFFFFFFFFFFFFFFFF MUL NOT AND SWAP1 SSTORE PUSH1 0x5 DUP3 ADD PUSH1 0x0 PUSH2 0x100 EXP DUP2 SLOAD SWAP1 PUSH20 0xFFFFFFFFFFFFFFFFFFFFFFFFFFFFFFFFFFFFFFFF MUL NOT AND SWAP1 SSTORE POP POP PUSH1 0x0 JUMPDEST PUSH1 0x1 DUP1 SLOAD SWAP1 POP DUP2 LT ISZERO PUSH2 0x11B8 JUMPI DUP4 DUP1 MLOAD SWAP1 PUSH1 0x20 ADD KECCAK256 PUSH1 0x1 DUP3 DUP2 SLOAD DUP2 LT PUSH2 0x10F4 JUMPI PUSH2 0x10F3 PUSH2 0x1C98 JUMP JUMPDEST JUMPDEST SWAP1 PUSH1 0x0 MSTORE PUSH1 0x20 PUSH1 0x0 KECCAK256 ADD PUSH1 0x40 MLOAD PUSH2 0x110B SWAP2 SWAP1 PUSH2 0x1D6A JUMP JUMPDEST PUSH1 0x40 MLOAD DUP1 SWAP2 SUB SWAP1 KECCAK256 SUB PUSH2 0x11A5 JUMPI PUSH1 0x1 DUP1 DUP1 DUP1 SLOAD SWAP1 POP PUSH2 0x112A SWAP2 SWAP1 PUSH2 0x1DB0 JUMP JUMPDEST DUP2 SLOAD DUP2 LT PUSH2 0x113B JUMPI PUSH2 0x113A PUSH2 0x1C98 JUMP JUMPDEST JUMPDEST SWAP1 PUSH1 0x0 MSTORE PUSH1 0x20 PUSH1 0x0 KECCAK256 ADD PUSH1 0x1 DUP3 DUP2 SLOAD DUP2 LT PUSH2 0x1159 JUMPI PUSH2 0x1158 PUSH2 0x1C98 JUMP JUMPDEST JUMPDEST SWAP1 PUSH1 0x0 MSTORE PUSH1 0x20 PUSH1 0x0 KECCAK256 ADD SWAP1 DUP2 PUSH2 0x116F SWAP2 SWAP1 PUSH2 0x1E0F JUMP JUMPDEST POP PUSH1 0x1 DUP1 SLOAD DUP1 PUSH2 0x1182 JUMPI PUSH2 0x1181 PUSH2 0x1EF7 JUMP JUMPDEST JUMPDEST PUSH1 0x1 SWAP1 SUB DUP2 DUP2 SWAP1 PUSH1 0x0 MSTORE PUSH1 0x20 PUSH1 0x0 KECCAK256 ADD PUSH1 0x0 PUSH2 0x119E SWAP2 SWAP1 PUSH2 0x11BE JUMP JUMPDEST SWAP1 SSTORE PUSH2 0x11B8 JUMP JUMPDEST DUP1 DUP1 PUSH2 0x11B0 SWAP1 PUSH2 0x1F26 JUMP JUMPDEST SWAP2 POP POP PUSH2 0x10CB JUMP JUMPDEST POP POP POP POP JUMP JUMPDEST POP DUP1 SLOAD PUSH2 0x11CA SWAP1 PUSH2 0x18A5 JUMP JUMPDEST PUSH1 0x0 DUP3 SSTORE DUP1 PUSH1 0x1F LT PUSH2 0x11DC JUMPI POP PUSH2 0x11FB JUMP JUMPDEST PUSH1 0x1F ADD PUSH1 0x20 SWAP1 DIV SWAP1 PUSH1 0x0 MSTORE PUSH1 0x20 PUSH1 0x0 KECCAK256 SWAP1 DUP2 ADD SWAP1 PUSH2 0x11FA SWAP2 SWAP1 PUSH2 0x11FE JUMP JUMPDEST JUMPDEST POP JUMP JUMPDEST JUMPDEST DUP1 DUP3 GT ISZERO PUSH2 0x1217 JUMPI PUSH1 0x0 DUP2 PUSH1 0x0 SWAP1 SSTORE POP PUSH1 0x1 ADD PUSH2 0x11FF JUMP JUMPDEST POP SWAP1 JUMP JUMPDEST PUSH1 0x0 PUSH1 0x40 MLOAD SWAP1 POP SWAP1 JUMP JUMPDEST PUSH1 0x0 DUP1 REVERT JUMPDEST PUSH1 0x0 DUP1 REVERT JUMPDEST PUSH1 0x0 DUP1 REVERT JUMPDEST PUSH1 0x0 DUP1 REVERT JUMPDEST PUSH1 0x0 PUSH1 0x1F NOT PUSH1 0x1F DUP4 ADD AND SWAP1 POP SWAP2 SWAP1 POP JUMP JUMPDEST PUSH32 0x4E487B7100000000000000000000000000000000000000000000000000000000 PUSH1 0x0 MSTORE PUSH1 0x41 PUSH1 0x4 MSTORE PUSH1 0x24 PUSH1 0x0 REVERT JUMPDEST PUSH2 0x1282 DUP3 PUSH2 0x1239 JUMP JUMPDEST DUP2 ADD DUP2 DUP2 LT PUSH8 0xFFFFFFFFFFFFFFFF DUP3 GT OR ISZERO PUSH2 0x12A1 JUMPI PUSH2 0x12A0 PUSH2 0x124A JUMP JUMPDEST JUMPDEST DUP1 PUSH1 0x40 MSTORE POP POP POP JUMP JUMPDEST PUSH1 0x0 PUSH2 0x12B4 PUSH2 0x121B JUMP JUMPDEST SWAP1 POP PUSH2 0x12C0 DUP3 DUP3 PUSH2 0x1279 JUMP JUMPDEST SWAP2 SWAP1 POP JUMP JUMPDEST PUSH1 0x0 PUSH8 0xFFFFFFFFFFFFFFFF DUP3 GT ISZERO PUSH2 0x12E0 JUMPI PUSH2 0x12DF PUSH2 0x124A JUMP JUMPDEST JUMPDEST PUSH2 0x12E9 DUP3 PUSH2 0x1239 JUMP JUMPDEST SWAP1 POP PUSH1 0x20 DUP2 ADD SWAP1 POP SWAP2 SWAP1 POP JUMP JUMPDEST DUP3 DUP2 DUP4 CALLDATACOPY PUSH1 0x0 DUP4 DUP4 ADD MSTORE POP POP POP JUMP JUMPDEST PUSH1 0x0 PUSH2 0x1318 PUSH2 0x1313 DUP5 PUSH2 0x12C5 JUMP JUMPDEST PUSH2 0x12AA JUMP JUMPDEST SWAP1 POP DUP3 DUP2 MSTORE PUSH1 0x20 DUP2 ADD DUP5 DUP5 DUP5 ADD GT ISZERO PUSH2 0x1334 JUMPI PUSH2 0x1333 PUSH2 0x1234 JUMP JUMPDEST JUMPDEST PUSH2 0x133F DUP5 DUP3 DUP6 PUSH2 0x12F6 JUMP JUMPDEST POP SWAP4 SWAP3 POP POP POP JUMP JUMPDEST PUSH1 0x0 DUP3 PUSH1 0x1F DUP4 ADD SLT PUSH2 0x135C JUMPI PUSH2 0x135B PUSH2 0x122F JUMP JUMPDEST JUMPDEST DUP2 CALLDATALOAD PUSH2 0x136C DUP5 DUP3 PUSH1 0x20 DUP7 ADD PUSH2 0x1305 JUMP JUMPDEST SWAP2 POP POP SWAP3 SWAP2 POP POP JUMP JUMPDEST PUSH1 0x0 PUSH1 0x20 DUP3 DUP5 SUB SLT ISZERO PUSH2 0x138B JUMPI PUSH2 0x138A PUSH2 0x1225 JUMP JUMPDEST JUMPDEST PUSH1 0x0 DUP3 ADD CALLDATALOAD PUSH8 0xFFFFFFFFFFFFFFFF DUP2 GT ISZERO PUSH2 0x13A9 JUMPI PUSH2 0x13A8 PUSH2 0x122A JUMP JUMPDEST JUMPDEST PUSH2 0x13B5 DUP5 DUP3 DUP6 ADD PUSH2 0x1347 JUMP JUMPDEST SWAP2 POP POP SWAP3 SWAP2 POP POP JUMP JUMPDEST PUSH1 0x0 DUP2 MLOAD SWAP1 POP SWAP2 SWAP1 POP JUMP JUMPDEST PUSH1 0x0 DUP3 DUP3 MSTORE PUSH1 0x20 DUP3 ADD SWAP1 POP SWAP3 SWAP2 POP POP JUMP JUMPDEST PUSH1 0x0 JUMPDEST DUP4 DUP2 LT ISZERO PUSH2 0x13F8 JUMPI DUP1 DUP3 ADD MLOAD DUP2 DUP5 ADD MSTORE PUSH1 0x20 DUP2 ADD SWAP1 POP PUSH2 0x13DD JUMP JUMPDEST PUSH1 0x0 DUP5 DUP5 ADD MSTORE POP POP POP POP JUMP JUMPDEST PUSH1 0x0 PUSH2 0x140F DUP3 PUSH2 0x13BE JUMP JUMPDEST PUSH2 0x1419 DUP2 DUP6 PUSH2 0x13C9 JUMP JUMPDEST SWAP4 POP PUSH2 0x1429 DUP2 DUP6 PUSH1 0x20 DUP7 ADD PUSH2 0x13DA JUMP JUMPDEST PUSH2 0x1432 DUP2 PUSH2 0x1239 JUMP JUMPDEST DUP5 ADD SWAP2 POP POP SWAP3 SWAP2 POP POP JUMP JUMPDEST PUSH1 0x0 DUP2 SWAP1 POP SWAP2 SWAP1 POP JUMP JUMPDEST PUSH2 0x1450 DUP2 PUSH2 0x143D JUMP JUMPDEST DUP3 MSTORE POP POP JUMP JUMPDEST PUSH1 0x0 PUSH1 0xFF DUP3 AND SWAP1 POP SWAP2 SWAP1 POP JUMP JUMPDEST PUSH2 0x146C DUP2 PUSH2 0x1456 JUMP JUMPDEST DUP3 MSTORE POP POP JUMP JUMPDEST PUSH1 0x0 PUSH20 0xFFFFFFFFFFFFFFFFFFFFFFFFFFFFFFFFFFFFFFFF DUP3 AND SWAP1 POP SWAP2 SWAP1 POP JUMP JUMPDEST PUSH1 0x0 PUSH2 0x149D DUP3 PUSH2 0x1472 JUMP JUMPDEST SWAP1 POP SWAP2 SWAP1 POP JUMP JUMPDEST PUSH2 0x14AD DUP2 PUSH2 0x1492 JUMP JUMPDEST DUP3 MSTORE POP POP JUMP JUMPDEST PUSH1 0x0 PUSH1 0xE0 DUP3 ADD SWAP1 POP DUP2 DUP2 SUB PUSH1 0x0 DUP4 ADD MSTORE PUSH2 0x14CD DUP2 DUP11 PUSH2 0x1404 JUMP JUMPDEST SWAP1 POP DUP2 DUP2 SUB PUSH1 0x20 DUP4 ADD MSTORE PUSH2 0x14E1 DUP2 DUP10 PUSH2 0x1404 JUMP JUMPDEST SWAP1 POP DUP2 DUP2 SUB PUSH1 0x40 DUP4 ADD MSTORE PUSH2 0x14F5 DUP2 DUP9 PUSH2 0x1404 JUMP JUMPDEST SWAP1 POP PUSH2 0x1504 PUSH1 0x60 DUP4 ADD DUP8 PUSH2 0x1447 JUMP JUMPDEST PUSH2 0x1511 PUSH1 0x80 DUP4 ADD DUP7 PUSH2 0x1463 JUMP JUMPDEST PUSH2 0x151E PUSH1 0xA0 DUP4 ADD DUP6 PUSH2 0x14A4 JUMP JUMPDEST PUSH2 0x152B PUSH1 0xC0 DUP4 ADD DUP5 PUSH2 0x14A4 JUMP JUMPDEST SWAP9 SWAP8 POP POP POP POP POP POP POP POP JUMP JUMPDEST PUSH1 0x0 DUP2 MLOAD SWAP1 POP SWAP2 SWAP1 POP JUMP JUMPDEST PUSH1 0x0 DUP3 DUP3 MSTORE PUSH1 0x20 DUP3 ADD SWAP1 POP SWAP3 SWAP2 POP POP JUMP JUMPDEST PUSH1 0x0 DUP2 SWAP1 POP PUSH1 0x20 DUP3 ADD SWAP1 POP SWAP2 SWAP1 POP JUMP JUMPDEST PUSH1 0x0 DUP3 DUP3 MSTORE PUSH1 0x20 DUP3 ADD SWAP1 POP SWAP3 SWAP2 POP POP JUMP JUMPDEST PUSH1 0x0 PUSH2 0x157F DUP3 PUSH2 0x13BE JUMP JUMPDEST PUSH2 0x1589 DUP2 DUP6 PUSH2 0x1563 JUMP JUMPDEST SWAP4 POP PUSH2 0x1599 DUP2 DUP6 PUSH1 0x20 DUP7 ADD PUSH2 0x13DA JUMP JUMPDEST PUSH2 0x15A2 DUP2 PUSH2 0x1239 JUMP JUMPDEST DUP5 ADD SWAP2 POP POP SWAP3 SWAP2 POP POP JUMP JUMPDEST PUSH1 0x0 PUSH2 0x15B9 DUP4 DUP4 PUSH2 0x1574 JUMP JUMPDEST SWAP1 POP SWAP3 SWAP2 POP POP JUMP JUMPDEST PUSH1 0x0 PUSH1 0x20 DUP3 ADD SWAP1 POP SWAP2 SWAP1 POP JUMP JUMPDEST PUSH1 0x0 PUSH2 0x15D9 DUP3 PUSH2 0x1537 JUMP JUMPDEST PUSH2 0x15E3 DUP2 DUP6 PUSH2 0x1542 JUMP JUMPDEST SWAP4 POP DUP4 PUSH1 0x20 DUP3 MUL DUP6 ADD PUSH2 0x15F5 DUP6 PUSH2 0x1553 JUMP JUMPDEST DUP1 PUSH1 0x0 JUMPDEST DUP6 DUP2 LT ISZERO PUSH2 0x1631 JUMPI DUP5 DUP5 SUB DUP10 MSTORE DUP2 MLOAD PUSH2 0x1612 DUP6 DUP3 PUSH2 0x15AD JUMP JUMPDEST SWAP5 POP PUSH2 0x161D DUP4 PUSH2 0x15C1 JUMP JUMPDEST SWAP3 POP PUSH1 0x20 DUP11 ADD SWAP10 POP POP PUSH1 0x1 DUP2 ADD SWAP1 POP PUSH2 0x15F9 JUMP JUMPDEST POP DUP3 SWAP8 POP DUP8 SWAP6 POP POP POP POP POP POP SWAP3 SWAP2 POP POP JUMP JUMPDEST PUSH1 0x0 PUSH1 0x20 DUP3 ADD SWAP1 POP DUP2 DUP2 SUB PUSH1 0x0 DUP4 ADD MSTORE PUSH2 0x165D DUP2 DUP5 PUSH2 0x15CE JUMP JUMPDEST SWAP1 POP SWAP3 SWAP2 POP POP JUMP JUMPDEST PUSH2 0x166E DUP2 PUSH2 0x1492 JUMP JUMPDEST DUP2 EQ PUSH2 0x1679 JUMPI PUSH1 0x0 DUP1 REVERT JUMPDEST POP JUMP JUMPDEST PUSH1 0x0 DUP2 CALLDATALOAD SWAP1 POP PUSH2 0x168B DUP2 PUSH2 0x1665 JUMP JUMPDEST SWAP3 SWAP2 POP POP JUMP JUMPDEST PUSH1 0x0 DUP1 PUSH1 0x40 DUP4 DUP6 SUB SLT ISZERO PUSH2 0x16A8 JUMPI PUSH2 0x16A7 PUSH2 0x1225 JUMP JUMPDEST JUMPDEST PUSH1 0x0 DUP4 ADD CALLDATALOAD PUSH8 0xFFFFFFFFFFFFFFFF DUP2 GT ISZERO PUSH2 0x16C6 JUMPI PUSH2 0x16C5 PUSH2 0x122A JUMP JUMPDEST JUMPDEST PUSH2 0x16D2 DUP6 DUP3 DUP7 ADD PUSH2 0x1347 JUMP JUMPDEST SWAP3 POP POP PUSH1 0x20 PUSH2 0x16E3 DUP6 DUP3 DUP7 ADD PUSH2 0x167C JUMP JUMPDEST SWAP2 POP POP SWAP3 POP SWAP3 SWAP1 POP JUMP JUMPDEST PUSH2 0x16F6 DUP2 PUSH2 0x143D JUMP JUMPDEST DUP2 EQ PUSH2 0x1701 JUMPI PUSH1 0x0 DUP1 REVERT JUMPDEST POP JUMP JUMPDEST PUSH1 0x0 DUP2 CALLDATALOAD SWAP1 POP PUSH2 0x1713 DUP2 PUSH2 0x16ED JUMP JUMPDEST SWAP3 SWAP2 POP POP JUMP JUMPDEST PUSH1 0x0 DUP1 PUSH1 0x0 DUP1 PUSH1 0x80 DUP6 DUP8 SUB SLT ISZERO PUSH2 0x1733 JUMPI PUSH2 0x1732 PUSH2 0x1225 JUMP JUMPDEST JUMPDEST PUSH1 0x0 DUP6 ADD CALLDATALOAD PUSH8 0xFFFFFFFFFFFFFFFF DUP2 GT ISZERO PUSH2 0x1751 JUMPI PUSH2 0x1750 PUSH2 0x122A JUMP JUMPDEST JUMPDEST PUSH2 0x175D DUP8 DUP3 DUP9 ADD PUSH2 0x1347 JUMP JUMPDEST SWAP5 POP POP PUSH1 0x20 DUP6 ADD CALLDATALOAD PUSH8 0xFFFFFFFFFFFFFFFF DUP2 GT ISZERO PUSH2 0x177E JUMPI PUSH2 0x177D PUSH2 0x122A JUMP JUMPDEST JUMPDEST PUSH2 0x178A DUP8 DUP3 DUP9 ADD PUSH2 0x1347 JUMP JUMPDEST SWAP4 POP POP PUSH1 0x40 DUP6 ADD CALLDATALOAD PUSH8 0xFFFFFFFFFFFFFFFF DUP2 GT ISZERO PUSH2 0x17AB JUMPI PUSH2 0x17AA PUSH2 0x122A JUMP JUMPDEST JUMPDEST PUSH2 0x17B7 DUP8 DUP3 DUP9 ADD PUSH2 0x1347 JUMP JUMPDEST SWAP3 POP POP PUSH1 0x60 PUSH2 0x17C8 DUP8 DUP3 DUP9 ADD PUSH2 0x1704 JUMP JUMPDEST SWAP2 POP POP SWAP3 SWAP6 SWAP2 SWAP5 POP SWAP3 POP JUMP JUMPDEST PUSH1 0x0 PUSH1 0x20 DUP3 DUP5 SUB SLT ISZERO PUSH2 0x17EA JUMPI PUSH2 0x17E9 PUSH2 0x1225 JUMP JUMPDEST JUMPDEST PUSH1 0x0 PUSH2 0x17F8 DUP5 DUP3 DUP6 ADD PUSH2 0x1704 JUMP JUMPDEST SWAP2 POP POP SWAP3 SWAP2 POP POP JUMP JUMPDEST PUSH1 0x0 PUSH1 0x20 DUP3 ADD SWAP1 POP DUP2 DUP2 SUB PUSH1 0x0 DUP4 ADD MSTORE PUSH2 0x181B DUP2 DUP5 PUSH2 0x1404 JUMP JUMPDEST SWAP1 POP SWAP3 SWAP2 POP POP JUMP JUMPDEST PUSH1 0x0 DUP2 SWAP1 POP SWAP3 SWAP2 POP POP JUMP JUMPDEST PUSH1 0x0 PUSH2 0x1839 DUP3 PUSH2 0x13BE JUMP JUMPDEST PUSH2 0x1843 DUP2 DUP6 PUSH2 0x1823 JUMP JUMPDEST SWAP4 POP PUSH2 0x1853 DUP2 DUP6 PUSH1 0x20 DUP7 ADD PUSH2 0x13DA JUMP JUMPDEST DUP1 DUP5 ADD SWAP2 POP POP SWAP3 SWAP2 POP POP JUMP JUMPDEST PUSH1 0x0 PUSH2 0x186B DUP3 DUP5 PUSH2 0x182E JUMP JUMPDEST SWAP2 POP DUP2 SWAP1 POP SWAP3 SWAP2 POP POP JUMP JUMPDEST PUSH32 0x4E487B7100000000000000000000000000000000000000000000000000000000 PUSH1 0x0 MSTORE PUSH1 0x22 PUSH1 0x4 MSTORE PUSH1 0x24 PUSH1 0x0 REVERT JUMPDEST PUSH1 0x0 PUSH1 0x2 DUP3 DIV SWAP1 POP PUSH1 0x1 DUP3 AND DUP1 PUSH2 0x18BD JUMPI PUSH1 0x7F DUP3 AND SWAP2 POP JUMPDEST PUSH1 0x20 DUP3 LT DUP2 SUB PUSH2 0x18D0 JUMPI PUSH2 0x18CF PUSH2 0x1876 JUMP JUMPDEST JUMPDEST POP SWAP2 SWAP1 POP JUMP JUMPDEST PUSH32 0x43617220646F6573206E6F742065786973740000000000000000000000000000 PUSH1 0x0 DUP3 ADD MSTORE POP JUMP JUMPDEST PUSH1 0x0 PUSH2 0x190C PUSH1 0x12 DUP4 PUSH2 0x13C9 JUMP JUMPDEST SWAP2 POP PUSH2 0x1917 DUP3 PUSH2 0x18D6 JUMP JUMPDEST PUSH1 0x20 DUP3 ADD SWAP1 POP SWAP2 SWAP1 POP JUMP JUMPDEST PUSH1 0x0 PUSH1 0x20 DUP3 ADD SWAP1 POP DUP2 DUP2 SUB PUSH1 0x0 DUP4 ADD MSTORE PUSH2 0x193B DUP2 PUSH2 0x18FF JUMP JUMPDEST SWAP1 POP SWAP2 SWAP1 POP JUMP JUMPDEST PUSH32 0x43617220616C7265616479206578697374730000000000000000000000000000 PUSH1 0x0 DUP3 ADD MSTORE POP JUMP JUMPDEST PUSH1 0x0 PUSH2 0x1978 PUSH1 0x12 DUP4 PUSH2 0x13C9 JUMP JUMPDEST SWAP2 POP PUSH2 0x1983 DUP3 PUSH2 0x1942 JUMP JUMPDEST PUSH1 0x20 DUP3 ADD SWAP1 POP SWAP2 SWAP1 POP JUMP JUMPDEST PUSH1 0x0 PUSH1 0x20 DUP3 ADD SWAP1 POP DUP2 DUP2 SUB PUSH1 0x0 DUP4 ADD MSTORE PUSH2 0x19A7 DUP2 PUSH2 0x196B JUMP JUMPDEST SWAP1 POP SWAP2 SWAP1 POP JUMP JUMPDEST PUSH1 0x0 DUP2 SWAP1 POP DUP2 PUSH1 0x0 MSTORE PUSH1 0x20 PUSH1 0x0 KECCAK256 SWAP1 POP SWAP2 SWAP1 POP JUMP JUMPDEST PUSH1 0x0 PUSH1 0x20 PUSH1 0x1F DUP4 ADD DIV SWAP1 POP SWAP2 SWAP1 POP JUMP JUMPDEST PUSH1 0x0 DUP3 DUP3 SHL SWAP1 POP SWAP3 SWAP2 POP POP JUMP JUMPDEST PUSH1 0x0 PUSH1 0x8 DUP4 MUL PUSH2 0x1A10 PUSH32 0xFFFFFFFFFFFFFFFFFFFFFFFFFFFFFFFFFFFFFFFFFFFFFFFFFFFFFFFFFFFFFFFF DUP3 PUSH2 0x19D3 JUMP JUMPDEST PUSH2 0x1A1A DUP7 DUP4 PUSH2 0x19D3 JUMP JUMPDEST SWAP6 POP DUP1 NOT DUP5 AND SWAP4 POP DUP1 DUP7 AND DUP5 OR SWAP3 POP POP POP SWAP4 SWAP3 POP POP POP JUMP JUMPDEST PUSH1 0x0 DUP2 SWAP1 POP SWAP2 SWAP1 POP JUMP JUMPDEST PUSH1 0x0 PUSH2 0x1A57 PUSH2 0x1A52 PUSH2 0x1A4D DUP5 PUSH2 0x143D JUMP JUMPDEST PUSH2 0x1A32 JUMP JUMPDEST PUSH2 0x143D JUMP JUMPDEST SWAP1 POP SWAP2 SWAP1 POP JUMP JUMPDEST PUSH1 0x0 DUP2 SWAP1 POP SWAP2 SWAP1 POP JUMP JUMPDEST PUSH2 0x1A71 DUP4 PUSH2 0x1A3C JUMP JUMPDEST PUSH2 0x1A85 PUSH2 0x1A7D DUP3 PUSH2 0x1A5E JUMP JUMPDEST DUP5 DUP5 SLOAD PUSH2 0x19E0 JUMP JUMPDEST DUP3 SSTORE POP POP POP POP JUMP JUMPDEST PUSH1 0x0 SWAP1 JUMP JUMPDEST PUSH2 0x1A9A PUSH2 0x1A8D JUMP JUMPDEST PUSH2 0x1AA5 DUP2 DUP5 DUP5 PUSH2 0x1A68 JUMP JUMPDEST POP POP POP JUMP JUMPDEST JUMPDEST DUP2 DUP2 LT ISZERO PUSH2 0x1AC9 JUMPI PUSH2 0x1ABE PUSH1 0x0 DUP3 PUSH2 0x1A92 JUMP JUMPDEST PUSH1 0x1 DUP2 ADD SWAP1 POP PUSH2 0x1AAB JUMP JUMPDEST POP POP JUMP JUMPDEST PUSH1 0x1F DUP3 GT ISZERO PUSH2 0x1B0E JUMPI PUSH2 0x1ADF DUP2 PUSH2 0x19AE JUMP JUMPDEST PUSH2 0x1AE8 DUP5 PUSH2 0x19C3 JUMP JUMPDEST DUP2 ADD PUSH1 0x20 DUP6 LT ISZERO PUSH2 0x1AF7 JUMPI DUP2 SWAP1 POP JUMPDEST PUSH2 0x1B0B PUSH2 0x1B03 DUP6 PUSH2 0x19C3 JUMP JUMPDEST DUP4 ADD DUP3 PUSH2 0x1AAA JUMP JUMPDEST POP POP JUMPDEST POP POP POP JUMP JUMPDEST PUSH1 0x0 DUP3 DUP3 SHR SWAP1 POP SWAP3 SWAP2 POP POP JUMP JUMPDEST PUSH1 0x0 PUSH2 0x1B31 PUSH1 0x0 NOT DUP5 PUSH1 0x8 MUL PUSH2 0x1B13 JUMP JUMPDEST NOT DUP1 DUP4 AND SWAP2 POP POP SWAP3 SWAP2 POP POP JUMP JUMPDEST PUSH1 0x0 PUSH2 0x1B4A DUP4 DUP4 PUSH2 0x1B20 JUMP JUMPDEST SWAP2 POP DUP3 PUSH1 0x2 MUL DUP3 OR SWAP1 POP SWAP3 SWAP2 POP POP JUMP JUMPDEST PUSH2 0x1B63 DUP3 PUSH2 0x13BE JUMP JUMPDEST PUSH8 0xFFFFFFFFFFFFFFFF DUP2 GT ISZERO PUSH2 0x1B7C JUMPI PUSH2 0x1B7B PUSH2 0x124A JUMP JUMPDEST JUMPDEST PUSH2 0x1B86 DUP3 SLOAD PUSH2 0x18A5 JUMP JUMPDEST PUSH2 0x1B91 DUP3 DUP3 DUP6 PUSH2 0x1ACD JUMP JUMPDEST PUSH1 0x0 PUSH1 0x20 SWAP1 POP PUSH1 0x1F DUP4 GT PUSH1 0x1 DUP2 EQ PUSH2 0x1BC4 JUMPI PUSH1 0x0 DUP5 ISZERO PUSH2 0x1BB2 JUMPI DUP3 DUP8 ADD MLOAD SWAP1 POP JUMPDEST PUSH2 0x1BBC DUP6 DUP3 PUSH2 0x1B3E JUMP JUMPDEST DUP7 SSTORE POP PUSH2 0x1C24 JUMP JUMPDEST PUSH1 0x1F NOT DUP5 AND PUSH2 0x1BD2 DUP7 PUSH2 0x19AE JUMP JUMPDEST PUSH1 0x0 JUMPDEST DUP3 DUP2 LT ISZERO PUSH2 0x1BFA JUMPI DUP5 DUP10 ADD MLOAD DUP3 SSTORE PUSH1 0x1 DUP3 ADD SWAP2 POP PUSH1 0x20 DUP6 ADD SWAP5 POP PUSH1 0x20 DUP2 ADD SWAP1 POP PUSH2 0x1BD5 JUMP JUMPDEST DUP7 DUP4 LT ISZERO PUSH2 0x1C17 JUMPI DUP5 DUP10 ADD MLOAD PUSH2 0x1C13 PUSH1 0x1F DUP10 AND DUP3 PUSH2 0x1B20 JUMP JUMPDEST DUP4 SSTORE POP JUMPDEST PUSH1 0x1 PUSH1 0x2 DUP9 MUL ADD DUP9 SSTORE POP POP POP JUMPDEST POP POP POP POP POP POP JUMP JUMPDEST PUSH32 0x4F6E6C7920636172206F776E65722063616E206D6F6469667900000000000000 PUSH1 0x0 DUP3 ADD MSTORE POP JUMP JUMPDEST PUSH1 0x0 PUSH2 0x1C62 PUSH1 0x19 DUP4 PUSH2 0x13C9 JUMP JUMPDEST SWAP2 POP PUSH2 0x1C6D DUP3 PUSH2 0x1C2C JUMP JUMPDEST PUSH1 0x20 DUP3 ADD SWAP1 POP SWAP2 SWAP1 POP JUMP JUMPDEST PUSH1 0x0 PUSH1 0x20 DUP3 ADD SWAP1 POP DUP2 DUP2 SUB PUSH1 0x0 DUP4 ADD MSTORE PUSH2 0x1C91 DUP2 PUSH2 0x1C55 JUMP JUMPDEST SWAP1 POP SWAP2 SWAP1 POP JUMP JUMPDEST PUSH32 0x4E487B7100000000000000000000000000000000000000000000000000000000 PUSH1 0x0 MSTORE PUSH1 0x32 PUSH1 0x4 MSTORE PUSH1 0x24 PUSH1 0x0 REVERT JUMPDEST PUSH1 0x0 DUP2 SWAP1 POP SWAP3 SWAP2 POP POP JUMP JUMPDEST PUSH1 0x0 DUP2 SWAP1 POP DUP2 PUSH1 0x0 MSTORE PUSH1 0x20 PUSH1 0x0 KECCAK256 SWAP1 POP SWAP2 SWAP1 POP JUMP JUMPDEST PUSH1 0x0 DUP2 SLOAD PUSH2 0x1CF4 DUP2 PUSH2 0x18A5 JUMP JUMPDEST PUSH2 0x1CFE DUP2 DUP7 PUSH2 0x1CC7 JUMP JUMPDEST SWAP5 POP PUSH1 0x1 DUP3 AND PUSH1 0x0 DUP2 EQ PUSH2 0x1D19 JUMPI PUSH1 0x1 DUP2 EQ PUSH2 0x1D2E JUMPI PUSH2 0x1D61 JUMP JUMPDEST PUSH1 0xFF NOT DUP4 AND DUP7 MSTORE DUP2 ISZERO ISZERO DUP3 MUL DUP7 ADD SWAP4 POP PUSH2 0x1D61 JUMP JUMPDEST PUSH2 0x1D37 DUP6 PUSH2 0x1CD2 JUMP JUMPDEST PUSH1 0x0 JUMPDEST DUP4 DUP2 LT ISZERO PUSH2 0x1D59 JUMPI DUP2 SLOAD DUP2 DUP10 ADD MSTORE PUSH1 0x1 DUP3 ADD SWAP2 POP PUSH1 0x20 DUP2 ADD SWAP1 POP PUSH2 0x1D3A JUMP JUMPDEST DUP4 DUP9 ADD SWAP6 POP POP POP JUMPDEST POP POP POP SWAP3 SWAP2 POP POP JUMP JUMPDEST PUSH1 0x0 PUSH2 0x1D76 DUP3 DUP5 PUSH2 0x1CE7 JUMP JUMPDEST SWAP2 POP DUP2 SWAP1 POP SWAP3 SWAP2 POP POP JUMP JUMPDEST PUSH32 0x4E487B7100000000000000000000000000000000000000000000000000000000 PUSH1 0x0 MSTORE PUSH1 0x11 PUSH1 0x4 MSTORE PUSH1 0x24 PUSH1 0x0 REVERT JUMPDEST PUSH1 0x0 PUSH2 0x1DBB DUP3 PUSH2 0x143D JUMP JUMPDEST SWAP2 POP PUSH2 0x1DC6 DUP4 PUSH2 0x143D JUMP JUMPDEST SWAP3 POP DUP3 DUP3 SUB SWAP1 POP DUP2 DUP2 GT ISZERO PUSH2 0x1DDE JUMPI PUSH2 0x1DDD PUSH2 0x1D81 JUMP JUMPDEST JUMPDEST SWAP3 SWAP2 POP POP JUMP JUMPDEST PUSH1 0x0 DUP2 SLOAD SWAP1 POP PUSH2 0x1DF3 DUP2 PUSH2 0x18A5 JUMP JUMPDEST SWAP1 POP SWAP2 SWAP1 POP JUMP JUMPDEST PUSH1 0x0 DUP2 SWAP1 POP DUP2 PUSH1 0x0 MSTORE PUSH1 0x20 PUSH1 0x0 KECCAK256 SWAP1 POP SWAP2 SWAP1 POP JUMP JUMPDEST DUP2 DUP2 SUB PUSH2 0x1E1D JUMPI POP POP PUSH2 0x1EF5 JUMP JUMPDEST PUSH2 0x1E26 DUP3 PUSH2 0x1DE4 JUMP JUMPDEST PUSH8 0xFFFFFFFFFFFFFFFF DUP2 GT ISZERO PUSH2 0x1E3F JUMPI PUSH2 0x1E3E PUSH2 0x124A JUMP JUMPDEST JUMPDEST PUSH2 0x1E49 DUP3 SLOAD PUSH2 0x18A5 JUMP JUMPDEST PUSH2 0x1E54 DUP3 DUP3 DUP6 PUSH2 0x1ACD JUMP JUMPDEST PUSH1 0x0 PUSH1 0x1F DUP4 GT PUSH1 0x1 DUP2 EQ PUSH2 0x1E83 JUMPI PUSH1 0x0 DUP5 ISZERO PUSH2 0x1E71 JUMPI DUP3 DUP8 ADD SLOAD SWAP1 POP JUMPDEST PUSH2 0x1E7B DUP6 DUP3 PUSH2 0x1B3E JUMP JUMPDEST DUP7 SSTORE POP PUSH2 0x1EEE JUMP JUMPDEST PUSH1 0x1F NOT DUP5 AND PUSH2 0x1E91 DUP8 PUSH2 0x1DFA JUMP JUMPDEST SWAP7 POP PUSH2 0x1E9C DUP7 PUSH2 0x19AE JUMP JUMPDEST PUSH1 0x0 JUMPDEST DUP3 DUP2 LT ISZERO PUSH2 0x1EC4 JUMPI DUP5 DUP10 ADD SLOAD DUP3 SSTORE PUSH1 0x1 DUP3 ADD SWAP2 POP PUSH1 0x1 DUP6 ADD SWAP5 POP PUSH1 0x20 DUP2 ADD SWAP1 POP PUSH2 0x1E9F JUMP JUMPDEST DUP7 DUP4 LT ISZERO PUSH2 0x1EE1 JUMPI DUP5 DUP10 ADD SLOAD PUSH2 0x1EDD PUSH1 0x1F DUP10 AND DUP3 PUSH2 0x1B20 JUMP JUMPDEST DUP4 SSTORE POP JUMPDEST PUSH1 0x1 PUSH1 0x2 DUP9 MUL ADD DUP9 SSTORE POP POP POP JUMPDEST POP POP POP POP POP POP JUMPDEST JUMP JUMPDEST PUSH32 0x4E487B7100000000000000000000000000000000000000000000000000000000 PUSH1 0x0 MSTORE PUSH1 0x31 PUSH1 0x4 MSTORE PUSH1 0x24 PUSH1 0x0 REVERT JUMPDEST PUSH1 0x0 PUSH2 0x1F31 DUP3 PUSH2 0x143D JUMP JUMPDEST SWAP2 POP PUSH32 0xFFFFFFFFFFFFFFFFFFFFFFFFFFFFFFFFFFFFFFFFFFFFFFFFFFFFFFFFFFFFFFFF DUP3 SUB PUSH2 0x1F63 JUMPI PUSH2 0x1F62 PUSH2 0x1D81 JUMP JUMPDEST JUMPDEST PUSH1 0x1 DUP3 ADD SWAP1 POP SWAP2 SWAP1 POP JUMP INVALID LOG2 PUSH5 0x6970667358 0x22 SLT KECCAK256 LOG3 0x2E MSTORE8 DUP14 DUP13 0xED 0xDE 0xE 0x23 0xD PUSH29 0xFF80444ABB2B9BE1921969DF1CD4A85A94AA9F5C3A64736F6C63430008 EQ STOP CALLER "},"methodIdentifiers":{"addCar(string,string,string,uint256)":"d2d50bd8","carPlates(uint256)":"dd4f5b97","cars(string)":"41a2d180","deleteCar(string)":"fd76ce04","getCar(string)":"479487e3","getCarPlates()":"9ffd058a","setCarAvailable(string)":"36749547","setCarRented(string,address)":"c1208b9d","updateCar(string,string,string,uint256)":"e2a9e6c4"}}}}}