{
  "_format": "hh-sol-artifact-1",
  "contractName": "CarRegistry",
  "sourceName": "contracts/CarRegistry.sol",
  "abi": [
    {
      "inputs": [],
      "stateMutability": "nonpayable",
      "type": "constructor"
    },
    {
      "inputs": [
        {
          "internalType": "string",
          "name": "model",
          "type": "string"
        },
        {
          "internalType": "string",
          "name": "location",
          "type": "string"
        },
        {
          "internalType": "uint256",
          "name": "pricePerDay",
          "type": "uint256"
        }
      ],
      "name": "addCar",
      "outputs": [],
      "stateMutability": "nonpayable",
      "type": "function"
    },
    {
      "inputs": [
        {
          "internalType": "uint256",
          "name": "carId",
          "type": "uint256"
        }
      ],
      "name": "getCar",
      "outputs": [
        {
          "internalType": "uint256",
          "name": "",
          "type": "uint256"
        },
        {
          "internalType": "string",
          "name": "",
          "type": "string"
        },
        {
          "internalType": "string",
          "name": "",
          "type": "string"
        },
        {
          "internalType": "uint256",
          "name": "",
          "type": "uint256"
        },
        {
          "internalType": "uint8",
          "name": "",
          "type": "uint8"
        },
        {
          "internalType": "address",
          "name": "",
          "type": "address"
        }
      ],
      "stateMutability": "view",
      "type": "function"
    },
    {
      "inputs": [],
      "name": "nextCarId",
      "outputs": [
        {
          "internalType": "uint256",
          "name": "",
          "type": "uint256"
        }
      ],
      "stateMutability": "view",
      "type": "function"
    },
    {
      "inputs": [],
      "name": "owner",
      "outputs": [
        {
          "internalType": "address",
          "name": "",
          "type": "address"
        }
      ],
      "stateMutability": "view",
      "type": "function"
    },
    {
      "inputs": [
        {
          "internalType": "uint256",
          "name": "carId",
          "type": "uint256"
        }
      ],
      "name": "setCarAvailable",
      "outputs": [],
      "stateMutability": "nonpayable",
      "type": "function"
    },
    {
      "inputs": [
        {
          "internalType": "uint256",
          "name": "carId",
          "type": "uint256"
        }
      ],
      "name": "setCarMaintenance",
      "outputs": [],
      "stateMutability": "nonpayable",
      "type": "function"
    },
    {
      "inputs": [
        {
          "internalType": "uint256",
          "name": "carId",
          "type": "uint256"
        },
        {
          "internalType": "address",
          "name": "renter",
          "type": "address"
        }
      ],
      "name": "setCarRented",
      "outputs": [],
      "stateMutability": "nonpayable",
      "type": "function"
    }
  ],
  "bytecode": "0x608060405234801561001057600080fd5b50336000806101000a81548173ffffffffffffffffffffffffffffffffffffffff021916908373ffffffffffffffffffffffffffffffffffffffff160217905550611111806100606000396000f3fe608060405234801561001057600080fd5b506004361061007c5760003560e01c806334f6616c1161005b57806334f6616c146100d55780635e8be190146100f15780638c8bfa06146101265780638da5cb5b146101445761007c565b8062a574b71461008157806301a572bf1461009d57806305574ee9146100b9575b600080fd5b61009b600480360381019061009691906108b0565b610162565b005b6100b760048036038101906100b291906108b0565b610238565b005b6100d360048036038101906100ce9190610942565b61033c565b005b6100ef60048036038101906100ea9190610a35565b610599565b005b61010b600480360381019061010691906108b0565b61069d565b60405161011d96959493929190610b3f565b60405180910390f35b61012e610846565b60405161013b9190610bae565b60405180910390f35b61014c61084c565b6040516101599190610bc9565b60405180910390f35b60008054906101000a900473ffffffffffffffffffffffffffffffffffffffff1673ffffffffffffffffffffffffffffffffffffffff163373ffffffffffffffffffffffffffffffffffffffff16146101f0576040517f08c379a00000000000000000000000000000000000000000000000000000000081526004016101e790610c30565b60405180910390fd5b600060016000838152602001908152602001600020905060028160040160006101000a81548160ff0219169083600281111561022f5761022e610c50565b5b02179055505050565b60006001600083815260200190815260200160002090506001600281111561026357610262610c50565b5b8160040160009054906101000a900460ff16600281111561028757610286610c50565b5b146102c7576040517f08c379a00000000000000000000000000000000000000000000000000000000081526004016102be90610ccb565b60405180910390fd5b60008160040160006101000a81548160ff021916908360028111156102ef576102ee610c50565b5b021790555060008160040160016101000a81548173ffffffffffffffffffffffffffffffffffffffff021916908373ffffffffffffffffffffffffffffffffffffffff1602179055505050565b60008054906101000a900473ffffffffffffffffffffffffffffffffffffffff1673ffffffffffffffffffffffffffffffffffffffff163373ffffffffffffffffffffffffffffffffffffffff16146103ca576040517f08c379a00000000000000000000000000000000000000000000000000000000081526004016103c190610c30565b60405180910390fd5b6040518060c00160405280600254815260200186868080601f016020809104026020016040519081016040528093929190818152602001838380828437600081840152601f19601f82011690508083019250505050505050815260200184848080601f016020809104026020016040519081016040528093929190818152602001838380828437600081840152601f19601f8201169050808301925050505050505081526020018281526020016000600281111561048b5761048a610c50565b5b8152602001600073ffffffffffffffffffffffffffffffffffffffff168152506001600060025481526020019081526020016000206000820151816000015560208201518160010190816104df9190610f26565b5060408201518160020190816104f59190610f26565b506060820151816003015560808201518160040160006101000a81548160ff0219169083600281111561052b5761052a610c50565b5b021790555060a08201518160040160016101000a81548173ffffffffffffffffffffffffffffffffffffffff021916908373ffffffffffffffffffffffffffffffffffffffff1602179055509050506002600081548092919061058d90611027565b91905055505050505050565b6000600160008481526020019081526020016000209050600060028111156105c4576105c3610c50565b5b8160040160009054906101000a900460ff1660028111156105e8576105e7610c50565b5b14610628576040517f08c379a000000000000000000000000000000000000000000000000000000000815260040161061f906110bb565b60405180910390fd5b60018160040160006101000a81548160ff021916908360028111156106505761064f610c50565b5b0217905550818160040160016101000a81548173ffffffffffffffffffffffffffffffffffffffff021916908373ffffffffffffffffffffffffffffffffffffffff160217905550505050565b60006060806000806000806001600089815260200190815260200160002090508060000154816001018260020183600301548460040160009054906101000a900460ff1660028111156106f3576106f2610c50565b5b8560040160019054906101000a900473ffffffffffffffffffffffffffffffffffffffff1684805461072490610d49565b80601f016020809104026020016040519081016040528092919081815260200182805461075090610d49565b801561079d5780601f106107725761010080835404028352916020019161079d565b820191906000526020600020905b81548152906001019060200180831161078057829003601f168201915b505050505094508380546107b090610d49565b80601f01602080910402602001604051908101604052809291908181526020018280546107dc90610d49565b80156108295780601f106107fe57610100808354040283529160200191610829565b820191906000526020600020905b81548152906001019060200180831161080c57829003601f168201915b505050505093509650965096509650965096505091939550919395565b60025481565b60008054906101000a900473ffffffffffffffffffffffffffffffffffffffff1681565b600080fd5b600080fd5b6000819050919050565b61088d8161087a565b811461089857600080fd5b50565b6000813590506108aa81610884565b92915050565b6000602082840312156108c6576108c5610870565b5b60006108d48482850161089b565b91505092915050565b600080fd5b600080fd5b600080fd5b60008083601f840112610902576109016108dd565b5b8235905067ffffffffffffffff81111561091f5761091e6108e2565b5b60208301915083600182028301111561093b5761093a6108e7565b5b9250929050565b60008060008060006060868803121561095e5761095d610870565b5b600086013567ffffffffffffffff81111561097c5761097b610875565b5b610988888289016108ec565b9550955050602086013567ffffffffffffffff8111156109ab576109aa610875565b5b6109b7888289016108ec565b935093505060406109ca8882890161089b565b9150509295509295909350565b600073ffffffffffffffffffffffffffffffffffffffff82169050919050565b6000610a02826109d7565b9050919050565b610a12816109f7565b8114610a1d57600080fd5b50565b600081359050610a2f81610a09565b92915050565b60008060408385031215610a4c57610a4b610870565b5b6000610a5a8582860161089b565b9250506020610a6b85828601610a20565b9150509250929050565b610a7e8161087a565b82525050565b600081519050919050565b600082825260208201905092915050565b60005b83811015610abe578082015181840152602081019050610aa3565b60008484015250505050565b6000601f19601f8301169050919050565b6000610ae682610a84565b610af08185610a8f565b9350610b00818560208601610aa0565b610b0981610aca565b840191505092915050565b600060ff82169050919050565b610b2a81610b14565b82525050565b610b39816109f7565b82525050565b600060c082019050610b546000830189610a75565b8181036020830152610b668188610adb565b90508181036040830152610b7a8187610adb565b9050610b896060830186610a75565b610b966080830185610b21565b610ba360a0830184610b30565b979650505050505050565b6000602082019050610bc36000830184610a75565b92915050565b6000602082019050610bde6000830184610b30565b92915050565b7f4f6e6c79206f776e657200000000000000000000000000000000000000000000600082015250565b6000610c1a600a83610a8f565b9150610c2582610be4565b602082019050919050565b60006020820190508181036000830152610c4981610c0d565b9050919050565b7f4e487b7100000000000000000000000000000000000000000000000000000000600052602160045260246000fd5b7f436172206e6f742072656e746564000000000000000000000000000000000000600082015250565b6000610cb5600e83610a8f565b9150610cc082610c7f565b602082019050919050565b60006020820190508181036000830152610ce481610ca8565b9050919050565b7f4e487b7100000000000000000000000000000000000000000000000000000000600052604160045260246000fd5b7f4e487b7100000000000000000000000000000000000000000000000000000000600052602260045260246000fd5b60006002820490506001821680610d6157607f821691505b602082108103610d7457610d73610d1a565b5b50919050565b60008190508160005260206000209050919050565b60006020601f8301049050919050565b600082821b905092915050565b600060088302610ddc7fffffffffffffffffffffffffffffffffffffffffffffffffffffffffffffffff82610d9f565b610de68683610d9f565b95508019841693508086168417925050509392505050565b6000819050919050565b6000610e23610e1e610e198461087a565b610dfe565b61087a565b9050919050565b6000819050919050565b610e3d83610e08565b610e51610e4982610e2a565b848454610dac565b825550505050565b600090565b610e66610e59565b610e71818484610e34565b505050565b5b81811015610e9557610e8a600082610e5e565b600181019050610e77565b5050565b601f821115610eda57610eab81610d7a565b610eb484610d8f565b81016020851015610ec3578190505b610ed7610ecf85610d8f565b830182610e76565b50505b505050565b600082821c905092915050565b6000610efd60001984600802610edf565b1980831691505092915050565b6000610f168383610eec565b9150826002028217905092915050565b610f2f82610a84565b67ffffffffffffffff811115610f4857610f47610ceb565b5b610f528254610d49565b610f5d828285610e99565b600060209050601f831160018114610f905760008415610f7e578287015190505b610f888582610f0a565b865550610ff0565b601f198416610f9e86610d7a565b60005b82811015610fc657848901518255600182019150602085019450602081019050610fa1565b86831015610fe35784890151610fdf601f891682610eec565b8355505b6001600288020188555050505b505050505050565b7f4e487b7100000000000000000000000000000000000000000000000000000000600052601160045260246000fd5b60006110328261087a565b91507fffffffffffffffffffffffffffffffffffffffffffffffffffffffffffffffff820361106457611063610ff8565b5b600182019050919050565b7f436172206e6f7420617661696c61626c65000000000000000000000000000000600082015250565b60006110a5601183610a8f565b91506110b08261106f565b602082019050919050565b600060208201905081810360008301526110d481611098565b905091905056fea2646970667358221220d8cf3e825b448e563e375de5ef3d40816621eaaf13a384f2c1b40a36162bf06364736f6c63430008140033",
  "linkReferences": {},
  "deployedLinkReferences": {}
}