{
  "_format": "hh-sol-artifact-1",
  "contractName": "CarRental",
  "sourceName": "contracts/CarRental.sol",
  "abi": [
    {
      "inputs": [
        {
          "internalType": "address",
          "name": "_carRegistry",
          "type": "address"
        },
        {
          "internalType": "address",
          "name": "_kycManager",
          "type": "address"
        },
        {
          "internalType": "address",
          "name": "_vault",
          "type": "address"
        }
      ],
      "stateMutability": "nonpayable",
      "type": "constructor"
    },
    {
      "anonymous": false,
      "inputs": [
        {
          "indexed": false,
          "internalType": "string",
          "name": "plateNumber",
          "type": "string"
        },
        {
          "indexed": false,
          "internalType": "address",
          "name": "renter",
          "type": "address"
        }
      ],
      "name": "CarRented",
      "type": "event"
    },
    {
      "anonymous": false,
      "inputs": [
        {
          "indexed": false,
          "internalType": "string",
          "name": "plateNumber",
          "type": "string"
        },
        {
          "indexed": false,
          "internalType": "address",
          "name": "renter",
          "type": "address"
        }
      ],
      "name": "CarReturned",
      "type": "event"
    },
    {
      "inputs": [],
      "name": "carRegistry",
      "outputs": [
        {
          "internalType": "contract ICarRegistry",
          "name": "",
          "type": "address"
        }
      ],
      "stateMutability": "view",
      "type": "function"
    },
    {
      "inputs": [
        {
          "internalType": "string",
          "name": "plateNumber",
          "type": "string"
        }
      ],
      "name": "completeRental",
      "outputs": [],
      "stateMutability": "nonpayable",
      "type": "function"
    },
    {
      "inputs": [
        {
          "internalType": "bytes32",
          "name": "",
          "type": "bytes32"
        }
      ],
      "name": "deposits",
      "outputs": [
        {
          "internalType": "uint256",
          "name": "",
          "type": "uint256"
        }
      ],
      "stateMutability": "view",
      "type": "function"
    },
    {
      "inputs": [
        {
          "internalType": "string",
          "name": "plateNumber",
          "type": "string"
        }
      ],
      "name": "getDeposit",
      "outputs": [
        {
          "internalType": "uint256",
          "name": "",
          "type": "uint256"
        }
      ],
      "stateMutability": "view",
      "type": "function"
    },
    {
      "inputs": [],
      "name": "kycManager",
      "outputs": [
        {
          "internalType": "contract IKYCManager",
          "name": "",
          "type": "address"
        }
      ],
      "stateMutability": "view",
      "type": "function"
    },
    {
      "inputs": [
        {
          "internalType": "string",
          "name": "plateNumber",
          "type": "string"
        }
      ],
      "name": "rentCar",
      "outputs": [],
      "stateMutability": "payable",
      "type": "function"
    },
    {
      "inputs": [],
      "name": "vault",
      "outputs": [
        {
          "internalType": "contract IRentalVault",
          "name": "",
          "type": "address"
        }
      ],
      "stateMutability": "view",
      "type": "function"
    }
  ],
  "bytecode": "0x60e06040523480156200001157600080fd5b50604051620015f4380380620015f4833981810160405281019062000037919062000146565b8273ffffffffffffffffffffffffffffffffffffffff1660808173ffffffffffffffffffffffffffffffffffffffff16815250508173ffffffffffffffffffffffffffffffffffffffff1660a08173ffffffffffffffffffffffffffffffffffffffff16815250508073ffffffffffffffffffffffffffffffffffffffff1660c08173ffffffffffffffffffffffffffffffffffffffff1681525050505050620001a2565b600080fd5b600073ffffffffffffffffffffffffffffffffffffffff82169050919050565b60006200010e82620000e1565b9050919050565b620001208162000101565b81146200012c57600080fd5b50565b600081519050620001408162000115565b92915050565b600080600060608486031215620001625762000161620000dc565b5b600062000172868287016200012f565b935050602062000185868287016200012f565b925050604062000198868287016200012f565b9150509250925092565b60805160a05160c0516113f162000203600039600081816104920152818161089901526109c6015260008181610560015261095b0152600081816101cf01528181610223015281816103d80152818161066a015261080c01526113f16000f3fe6080604052600436106100705760003560e01c806372fd3d3e1161004e57806372fd3d3e146101065780637afea44f14610122578063d20747a81461014d578063fbfa77cf1461018a57610070565b80633d4dff7b1461007557806358685ddb146100b257806368a4cb88146100dd575b600080fd5b34801561008157600080fd5b5061009c60048036038101906100979190610a32565b6101b5565b6040516100a99190610a78565b60405180910390f35b3480156100be57600080fd5b506100c76101cd565b6040516100d49190610b12565b60405180910390f35b3480156100e957600080fd5b5061010460048036038101906100ff9190610c73565b6101f1565b005b610120600480360381019061011b9190610c73565b61055e565b005b34801561012e57600080fd5b50610137610959565b6040516101449190610cdd565b60405180910390f35b34801561015957600080fd5b50610174600480360381019061016f9190610c73565b61097d565b6040516101819190610a78565b60405180910390f35b34801561019657600080fd5b5061019f6109c4565b6040516101ac9190610d19565b60405180910390f35b60006020528060005260406000206000915090505481565b7f000000000000000000000000000000000000000000000000000000000000000081565b6000816040516020016102049190610da5565b60405160208183030381529060405280519060200120905060008060007f000000000000000000000000000000000000000000000000000000000000000073ffffffffffffffffffffffffffffffffffffffff1663479487e3866040518263ffffffff1660e01b815260040161027a9190610e06565b600060405180830381865afa158015610297573d6000803e3d6000fd5b505050506040513d6000823e3d601f19601f820116820180604052508101906102c09190610f3b565b955095505050509250600083510361030d576040517f08c379a000000000000000000000000000000000000000000000000000000000815260040161030490611068565b60405180910390fd5b6001600281111561032157610320611088565b5b60ff168260ff1614610368576040517f08c379a000000000000000000000000000000000000000000000000000000000815260040161035f90611103565b60405180910390fd5b3373ffffffffffffffffffffffffffffffffffffffff168173ffffffffffffffffffffffffffffffffffffffff16146103d6576040517f08c379a00000000000000000000000000000000000000000000000000000000081526004016103cd9061116f565b60405180910390fd5b7f000000000000000000000000000000000000000000000000000000000000000073ffffffffffffffffffffffffffffffffffffffff166336749547866040518263ffffffff1660e01b815260040161042f9190610e06565b600060405180830381600087803b15801561044957600080fd5b505af115801561045d573d6000803e3d6000fd5b5050505060008060008681526020019081526020016000205490506000806000878152602001908152602001600020819055507f000000000000000000000000000000000000000000000000000000000000000073ffffffffffffffffffffffffffffffffffffffff1663410085df83836040518363ffffffff1660e01b81526004016104eb92919061119e565b600060405180830381600087803b15801561050557600080fd5b505af1158015610519573d6000803e3d6000fd5b505050507f464998be95d2dcfe9eb1b41fb03df16114842e7e953e097073c18289ba3051c6868360405161054e9291906111c7565b60405180910390a1505050505050565b7f000000000000000000000000000000000000000000000000000000000000000073ffffffffffffffffffffffffffffffffffffffff16638846594b336040518263ffffffff1660e01b81526004016105b791906111f7565b602060405180830381865afa1580156105d4573d6000803e3d6000fd5b505050506040513d601f19601f820116820180604052508101906105f8919061124a565b610637576040517f08c379a000000000000000000000000000000000000000000000000000000000815260040161062e906112c3565b60405180910390fd5b60008160405160200161064a9190610da5565b6040516020818303038152906040528051906020012090506000806000807f000000000000000000000000000000000000000000000000000000000000000073ffffffffffffffffffffffffffffffffffffffff1663479487e3876040518263ffffffff1660e01b81526004016106c19190610e06565b600060405180830381865afa1580156106de573d6000803e3d6000fd5b505050506040513d6000823e3d601f19601f820116820180604052508101906107079190610f3b565b955095509550505093506000845103610755576040517f08c379a000000000000000000000000000000000000000000000000000000000815260040161074c90611068565b60405180910390fd5b6000600281111561076957610768611088565b5b60ff168260ff16146107b0576040517f08c379a00000000000000000000000000000000000000000000000000000000081526004016107a79061132f565b60405180910390fd5b823410156107f3576040517f08c379a00000000000000000000000000000000000000000000000000000000081526004016107ea9061139b565b60405180910390fd5b34600080878152602001908152602001600020819055507f000000000000000000000000000000000000000000000000000000000000000073ffffffffffffffffffffffffffffffffffffffff1663c1208b9d87336040518363ffffffff1660e01b81526004016108659291906111c7565b600060405180830381600087803b15801561087f57600080fd5b505af1158015610893573d6000803e3d6000fd5b505050507f000000000000000000000000000000000000000000000000000000000000000073ffffffffffffffffffffffffffffffffffffffff1663d0e30db0346040518263ffffffff1660e01b81526004016000604051808303818588803b1580156108ff57600080fd5b505af1158015610913573d6000803e3d6000fd5b50505050507fe0903df489d90288745389e699f476635bf4b26eaabf03f19d342cc921c54f6c86336040516109499291906111c7565b60405180910390a1505050505050565b7f000000000000000000000000000000000000000000000000000000000000000081565b600080826040516020016109919190610da5565b60405160208183030381529060405280519060200120905060008082815260200190815260200160002054915050919050565b7f000000000000000000000000000000000000000000000000000000000000000081565b6000604051905090565b600080fd5b600080fd5b6000819050919050565b610a0f816109fc565b8114610a1a57600080fd5b50565b600081359050610a2c81610a06565b92915050565b600060208284031215610a4857610a476109f2565b5b6000610a5684828501610a1d565b91505092915050565b6000819050919050565b610a7281610a5f565b82525050565b6000602082019050610a8d6000830184610a69565b92915050565b600073ffffffffffffffffffffffffffffffffffffffff82169050919050565b6000819050919050565b6000610ad8610ad3610ace84610a93565b610ab3565b610a93565b9050919050565b6000610aea82610abd565b9050919050565b6000610afc82610adf565b9050919050565b610b0c81610af1565b82525050565b6000602082019050610b276000830184610b03565b92915050565b600080fd5b600080fd5b6000601f19601f8301169050919050565b7f4e487b7100000000000000000000000000000000000000000000000000000000600052604160045260246000fd5b610b8082610b37565b810181811067ffffffffffffffff82111715610b9f57610b9e610b48565b5b80604052505050565b6000610bb26109e8565b9050610bbe8282610b77565b919050565b600067ffffffffffffffff821115610bde57610bdd610b48565b5b610be782610b37565b9050602081019050919050565b82818337600083830152505050565b6000610c16610c1184610bc3565b610ba8565b905082815260208101848484011115610c3257610c31610b32565b5b610c3d848285610bf4565b509392505050565b600082601f830112610c5a57610c59610b2d565b5b8135610c6a848260208601610c03565b91505092915050565b600060208284031215610c8957610c886109f2565b5b600082013567ffffffffffffffff811115610ca757610ca66109f7565b5b610cb384828501610c45565b91505092915050565b6000610cc782610adf565b9050919050565b610cd781610cbc565b82525050565b6000602082019050610cf26000830184610cce565b92915050565b6000610d0382610adf565b9050919050565b610d1381610cf8565b82525050565b6000602082019050610d2e6000830184610d0a565b92915050565b600081519050919050565b600081905092915050565b60005b83811015610d68578082015181840152602081019050610d4d565b60008484015250505050565b6000610d7f82610d34565b610d898185610d3f565b9350610d99818560208601610d4a565b80840191505092915050565b6000610db18284610d74565b915081905092915050565b600082825260208201905092915050565b6000610dd882610d34565b610de28185610dbc565b9350610df2818560208601610d4a565b610dfb81610b37565b840191505092915050565b60006020820190508181036000830152610e208184610dcd565b905092915050565b6000610e3b610e3684610bc3565b610ba8565b905082815260208101848484011115610e5757610e56610b32565b5b610e62848285610d4a565b509392505050565b600082601f830112610e7f57610e7e610b2d565b5b8151610e8f848260208601610e28565b91505092915050565b610ea181610a5f565b8114610eac57600080fd5b50565b600081519050610ebe81610e98565b92915050565b600060ff82169050919050565b610eda81610ec4565b8114610ee557600080fd5b50565b600081519050610ef781610ed1565b92915050565b6000610f0882610a93565b9050919050565b610f1881610efd565b8114610f2357600080fd5b50565b600081519050610f3581610f0f565b92915050565b60008060008060008060c08789031215610f5857610f576109f2565b5b600087015167ffffffffffffffff811115610f7657610f756109f7565b5b610f8289828a01610e6a565b965050602087015167ffffffffffffffff811115610fa357610fa26109f7565b5b610faf89828a01610e6a565b955050604087015167ffffffffffffffff811115610fd057610fcf6109f7565b5b610fdc89828a01610e6a565b9450506060610fed89828a01610eaf565b9350506080610ffe89828a01610ee8565b92505060a061100f89828a01610f26565b9150509295509295509295565b7f436172206e6f7420666f756e6400000000000000000000000000000000000000600082015250565b6000611052600d83610dbc565b915061105d8261101c565b602082019050919050565b6000602082019050818103600083015261108181611045565b9050919050565b7f4e487b7100000000000000000000000000000000000000000000000000000000600052602160045260246000fd5b7f436172206973206e6f742063757272656e746c792072656e7465640000000000600082015250565b60006110ed601b83610dbc565b91506110f8826110b7565b602082019050919050565b6000602082019050818103600083015261111c816110e0565b9050919050565b7f596f7520617265206e6f74207468652072656e74657200000000000000000000600082015250565b6000611159601683610dbc565b915061116482611123565b602082019050919050565b600060208201905081810360008301526111888161114c565b9050919050565b61119881610efd565b82525050565b60006040820190506111b3600083018561118f565b6111c06020830184610a69565b9392505050565b600060408201905081810360008301526111e18185610dcd565b90506111f0602083018461118f565b9392505050565b600060208201905061120c600083018461118f565b92915050565b60008115159050919050565b61122781611212565b811461123257600080fd5b50565b6000815190506112448161121e565b92915050565b6000602082840312156112605761125f6109f2565b5b600061126e84828501611235565b91505092915050565b7f4b5943206e6f7420617070726f76656400000000000000000000000000000000600082015250565b60006112ad601083610dbc565b91506112b882611277565b602082019050919050565b600060208201905081810360008301526112dc816112a0565b9050919050565b7f436172206973206e6f7420617661696c61626c65000000000000000000000000600082015250565b6000611319601483610dbc565b9150611324826112e3565b602082019050919050565b600060208201905081810360008301526113488161130c565b9050919050565b7f496e73756666696369656e74207061796d656e74000000000000000000000000600082015250565b6000611385601483610dbc565b91506113908261134f565b602082019050919050565b600060208201905081810360008301526113b481611378565b905091905056fea2646970667358221220034ac70355422f10b5f3066e4ef8784f8c0fd23db271a290581b3a7d18b7f3da64736f6c63430008140033",
  "linkReferences": {},
  "deployedLinkReferences": {}
}