{
  "_format": "hh-sol-artifact-1",
  "contractName": "CarRental",
  "sourceName": "contracts/CarRental.sol",
  "abi": [
    {
      "inputs": [
        {
          "internalType": "address",
          "name": "_carRegistry",
          "type": "address"
        },
        {
          "internalType": "address",
          "name": "_kycManager",
          "type": "address"
        },
        {
          "internalType": "address",
          "name": "_vault",
          "type": "address"
        }
      ],
      "stateMutability": "nonpayable",
      "type": "constructor"
    },
    {
      "anonymous": false,
      "inputs": [
        {
          "indexed": false,
          "internalType": "string",
          "name": "plateNumber",
          "type": "string"
        },
        {
          "indexed": false,
          "internalType": "address",
          "name": "renter",
          "type": "address"
        },
        {
          "indexed": false,
          "internalType": "uint256",
          "name": "rentalFee",
          "type": "uint256"
        },
        {
          "indexed": false,
          "internalType": "uint256",
          "name": "deposit",
          "type": "uint256"
        }
      ],
      "name": "CarRented",
      "type": "event"
    },
    {
      "anonymous": false,
      "inputs": [
        {
          "indexed": false,
          "internalType": "string",
          "name": "plateNumber",
          "type": "string"
        },
        {
          "indexed": false,
          "internalType": "address",
          "name": "renter",
          "type": "address"
        },
        {
          "indexed": false,
          "internalType": "uint256",
          "name": "refundedDeposit",
          "type": "uint256"
        }
      ],
      "name": "CarReturned",
      "type": "event"
    },
    {
      "inputs": [],
      "name": "DEPOSIT_MULTIPLIER",
      "outputs": [
        {
          "internalType": "uint256",
          "name": "",
          "type": "uint256"
        }
      ],
      "stateMutability": "view",
      "type": "function"
    },
    {
      "inputs": [],
      "name": "carRegistry",
      "outputs": [
        {
          "internalType": "contract ICarRegistry",
          "name": "",
          "type": "address"
        }
      ],
      "stateMutability": "view",
      "type": "function"
    },
    {
      "inputs": [
        {
          "internalType": "string",
          "name": "plateNumber",
          "type": "string"
        }
      ],
      "name": "completeRental",
      "outputs": [],
      "stateMutability": "nonpayable",
      "type": "function"
    },
    {
      "inputs": [
        {
          "internalType": "bytes32",
          "name": "",
          "type": "bytes32"
        }
      ],
      "name": "deposits",
      "outputs": [
        {
          "internalType": "uint256",
          "name": "",
          "type": "uint256"
        }
      ],
      "stateMutability": "view",
      "type": "function"
    },
    {
      "inputs": [
        {
          "internalType": "string",
          "name": "plateNumber",
          "type": "string"
        }
      ],
      "name": "getDeposit",
      "outputs": [
        {
          "internalType": "uint256",
          "name": "",
          "type": "uint256"
        }
      ],
      "stateMutability": "view",
      "type": "function"
    },
    {
      "inputs": [],
      "name": "getDepositMultiplier",
      "outputs": [
        {
          "internalType": "uint256",
          "name": "",
          "type": "uint256"
        }
      ],
      "stateMutability": "pure",
      "type": "function"
    },
    {
      "inputs": [
        {
          "internalType": "string",
          "name": "plateNumber",
          "type": "string"
        }
      ],
      "name": "getDetailedRentalInfo",
      "outputs": [
        {
          "internalType": "address",
          "name": "renter",
          "type": "address"
        },
        {
          "internalType": "uint256",
          "name": "totalPaid",
          "type": "uint256"
        },
        {
          "internalType": "uint256",
          "name": "rentalFee",
          "type": "uint256"
        },
        {
          "internalType": "uint256",
          "name": "depositAmount",
          "type": "uint256"
        },
        {
          "internalType": "uint256",
          "name": "timestamp",
          "type": "uint256"
        },
        {
          "internalType": "bool",
          "name": "returned",
          "type": "bool"
        }
      ],
      "stateMutability": "view",
      "type": "function"
    },
    {
      "inputs": [
        {
          "internalType": "address",
          "name": "owner",
          "type": "address"
        }
      ],
      "name": "getOwnerRevenue",
      "outputs": [
        {
          "internalType": "uint256",
          "name": "",
          "type": "uint256"
        }
      ],
      "stateMutability": "view",
      "type": "function"
    },
    {
      "inputs": [
        {
          "internalType": "string",
          "name": "plateNumber",
          "type": "string"
        }
      ],
      "name": "getRentalInfo",
      "outputs": [
        {
          "internalType": "address",
          "name": "renter",
          "type": "address"
        },
        {
          "internalType": "uint256",
          "name": "amountPaid",
          "type": "uint256"
        },
        {
          "internalType": "uint256",
          "name": "timestamp",
          "type": "uint256"
        },
        {
          "internalType": "bool",
          "name": "returned",
          "type": "bool"
        }
      ],
      "stateMutability": "view",
      "type": "function"
    },
    {
      "inputs": [],
      "name": "kycManager",
      "outputs": [
        {
          "internalType": "contract IKYCManager",
          "name": "",
          "type": "address"
        }
      ],
      "stateMutability": "view",
      "type": "function"
    },
    {
      "inputs": [
        {
          "internalType": "address",
          "name": "",
          "type": "address"
        }
      ],
      "name": "ownerRevenue",
      "outputs": [
        {
          "internalType": "uint256",
          "name": "",
          "type": "uint256"
        }
      ],
      "stateMutability": "view",
      "type": "function"
    },
    {
      "inputs": [
        {
          "internalType": "string",
          "name": "plateNumber",
          "type": "string"
        }
      ],
      "name": "rentCar",
      "outputs": [],
      "stateMutability": "payable",
      "type": "function"
    },
    {
      "inputs": [
        {
          "internalType": "string",
          "name": "",
          "type": "string"
        }
      ],
      "name": "rentalRecords",
      "outputs": [
        {
          "internalType": "address",
          "name": "renter",
          "type": "address"
        },
        {
          "internalType": "uint256",
          "name": "amountPaid",
          "type": "uint256"
        },
        {
          "internalType": "uint256",
          "name": "rentalFee",
          "type": "uint256"
        },
        {
          "internalType": "uint256",
          "name": "depositAmount",
          "type": "uint256"
        },
        {
          "internalType": "uint256",
          "name": "timestamp",
          "type": "uint256"
        },
        {
          "internalType": "bool",
          "name": "returned",
          "type": "bool"
        }
      ],
      "stateMutability": "view",
      "type": "function"
    },
    {
      "inputs": [],
      "name": "vault",
      "outputs": [
        {
          "internalType": "contract IRentalVault",
          "name": "",
          "type": "address"
        }
      ],
      "stateMutability": "view",
      "type": "function"
    }
  ],
  "bytecode": "0x60e06040523480156200001157600080fd5b506040516200203738038062002037833981810160405281019062000037919062000146565b8273ffffffffffffffffffffffffffffffffffffffff1660808173ffffffffffffffffffffffffffffffffffffffff16815250508173ffffffffffffffffffffffffffffffffffffffff1660a08173ffffffffffffffffffffffffffffffffffffffff16815250508073ffffffffffffffffffffffffffffffffffffffff1660c08173ffffffffffffffffffffffffffffffffffffffff1681525050505050620001a2565b600080fd5b600073ffffffffffffffffffffffffffffffffffffffff82169050919050565b60006200010e82620000e1565b9050919050565b620001208162000101565b81146200012c57600080fd5b50565b600081519050620001408162000115565b92915050565b600080600060608486031215620001625762000161620000dc565b5b600062000172868287016200012f565b935050602062000185868287016200012f565b925050604062000198868287016200012f565b9150509250925092565b60805160a05160c051611e34620002036000396000818161070e01528181610bda015261111c0152600081816108190152610e3f01526000818161043f015281816104940152818161064b015281816109250152610d680152611e346000f3fe6080604052600436106100dd5760003560e01c806372fd3d3e1161007f578063c2f8fa9111610059578063c2f8fa91146102cc578063d20747a81461030e578063f04d237c1461034b578063fbfa77cf1461038b576100dd565b806372fd3d3e146102435780637afea44f1461025f5780637fd843131461028a576100dd565b80633a2d8784116100bb5780633a2d8784146101875780633d4dff7b146101b257806358685ddb146101ef57806368a4cb881461021a576100dd565b80630e0b54d5146100e257806313fb3f331461011f5780632822d2bf1461014a575b600080fd5b3480156100ee57600080fd5b50610109600480360381019061010491906111b0565b6103b6565b60405161011691906111f6565b60405180910390f35b34801561012b57600080fd5b506101346103ff565b60405161014191906111f6565b60405180910390f35b34801561015657600080fd5b50610171600480360381019061016c91906111b0565b610404565b60405161017e91906111f6565b60405180910390f35b34801561019357600080fd5b5061019c61041c565b6040516101a991906111f6565b60405180910390f35b3480156101be57600080fd5b506101d960048036038101906101d49190611247565b610425565b6040516101e691906111f6565b60405180910390f35b3480156101fb57600080fd5b5061020461043d565b60405161021191906112d3565b60405180910390f35b34801561022657600080fd5b50610241600480360381019061023c9190611434565b610461565b005b61025d60048036038101906102589190611434565b610817565b005b34801561026b57600080fd5b50610274610e3d565b604051610281919061149e565b60405180910390f35b34801561029657600080fd5b506102b160048036038101906102ac9190611434565b610e61565b6040516102c3969594939291906114e3565b60405180910390f35b3480156102d857600080fd5b506102f360048036038101906102ee9190611434565b610ee0565b604051610305969594939291906114e3565b60405180910390f35b34801561031a57600080fd5b5061033560048036038101906103309190611434565b610fe3565b60405161034291906111f6565b60405180910390f35b34801561035757600080fd5b50610372600480360381019061036d9190611434565b61102a565b6040516103829493929190611544565b60405180910390f35b34801561039757600080fd5b506103a061111a565b6040516103ad91906115aa565b60405180910390f35b6000600260008373ffffffffffffffffffffffffffffffffffffffff1673ffffffffffffffffffffffffffffffffffffffff168152602001908152602001600020549050919050565b600281565b60026020528060005260406000206000915090505481565b60006002905090565b60006020528060005260406000206000915090505481565b7f000000000000000000000000000000000000000000000000000000000000000081565b6000816040516020016104749190611636565b6040516020818303038152906040528051906020012090506000806000807f000000000000000000000000000000000000000000000000000000000000000073ffffffffffffffffffffffffffffffffffffffff1663479487e3876040518263ffffffff1660e01b81526004016104eb9190611697565b600060405180830381865afa158015610508573d6000803e3d6000fd5b505050506040513d6000823e3d601f19601f8201168201806040525081019061053191906117a3565b96509650965050505093506000845103610580576040517f08c379a0000000000000000000000000000000000000000000000000000000008152600401610577906118e5565b60405180910390fd5b6001600281111561059457610593611905565b5b60ff168360ff16146105db576040517f08c379a00000000000000000000000000000000000000000000000000000000081526004016105d290611980565b60405180910390fd5b3373ffffffffffffffffffffffffffffffffffffffff168273ffffffffffffffffffffffffffffffffffffffff1614610649576040517f08c379a0000000000000000000000000000000000000000000000000000000008152600401610640906119ec565b60405180910390fd5b7f000000000000000000000000000000000000000000000000000000000000000073ffffffffffffffffffffffffffffffffffffffff166336749547876040518263ffffffff1660e01b81526004016106a29190611697565b600060405180830381600087803b1580156106bc57600080fd5b505af11580156106d0573d6000803e3d6000fd5b505050506000806000878152602001908152602001600020549050600080600088815260200190815260200160002081905550600081111561079a577f000000000000000000000000000000000000000000000000000000000000000073ffffffffffffffffffffffffffffffffffffffff1663410085df84836040518363ffffffff1660e01b8152600401610767929190611a0c565b600060405180830381600087803b15801561078157600080fd5b505af1158015610795573d6000803e3d6000fd5b505050505b600180886040516107ab9190611636565b908152602001604051809103902060050160006101000a81548160ff0219169083151502179055507f169fcd63a584d0ec69c03699b9741084030f49721b1f78b0f397d3013684f0a587848360405161080693929190611a35565b60405180910390a150505050505050565b7f000000000000000000000000000000000000000000000000000000000000000073ffffffffffffffffffffffffffffffffffffffff16638846594b336040518263ffffffff1660e01b81526004016108709190611a73565b602060405180830381865afa15801561088d573d6000803e3d6000fd5b505050506040513d601f19601f820116820180604052508101906108b19190611aba565b6108f0576040517f08c379a00000000000000000000000000000000000000000000000000000000081526004016108e790611b33565b60405180910390fd5b6000816040516020016109039190611636565b60405160208183030381529060405280519060200120905060008060008060007f000000000000000000000000000000000000000000000000000000000000000073ffffffffffffffffffffffffffffffffffffffff1663479487e3886040518263ffffffff1660e01b815260040161097c9190611697565b600060405180830381865afa158015610999573d6000803e3d6000fd5b505050506040513d6000823e3d601f19601f820116820180604052508101906109c291906117a3565b9650965096509650505094506000855103610a12576040517f08c379a0000000000000000000000000000000000000000000000000000000008152600401610a09906118e5565b60405180910390fd5b60006002811115610a2657610a25611905565b5b60ff168360ff1614610a6d576040517f08c379a0000000000000000000000000000000000000000000000000000000008152600401610a6490611b9f565b60405180910390fd5b60008490506000600282610a819190611bee565b905060008183610a919190611c30565b905080341015610ad6576040517f08c379a0000000000000000000000000000000000000000000000000000000008152600401610acd90611cb0565b60405180910390fd5b86600260008673ffffffffffffffffffffffffffffffffffffffff1673ffffffffffffffffffffffffffffffffffffffff1681526020019081526020016000206000828254610b259190611c30565b9250508190555060008473ffffffffffffffffffffffffffffffffffffffff1684604051610b5290611d01565b60006040518083038185875af1925050503d8060008114610b8f576040519150601f19603f3d011682016040523d82523d6000602084013e610b94565b606091505b5050905080610bd8576040517f08c379a0000000000000000000000000000000000000000000000000000000008152600401610bcf90611d62565b60405180910390fd5b7f000000000000000000000000000000000000000000000000000000000000000073ffffffffffffffffffffffffffffffffffffffff1663d0e30db0846040518263ffffffff1660e01b81526004016000604051808303818588803b158015610c4057600080fd5b505af1158015610c54573d6000803e3d6000fd5b5050505050826000808c8152602001908152602001600020819055506040518060c001604052803373ffffffffffffffffffffffffffffffffffffffff1681526020013481526020018581526020018481526020014281526020016000151581525060018c604051610cc69190611636565b908152602001604051809103902060008201518160000160006101000a81548173ffffffffffffffffffffffffffffffffffffffff021916908373ffffffffffffffffffffffffffffffffffffffff1602179055506020820151816001015560408201518160020155606082015181600301556080820151816004015560a08201518160050160006101000a81548160ff0219169083151502179055509050507f000000000000000000000000000000000000000000000000000000000000000073ffffffffffffffffffffffffffffffffffffffff1663c1208b9d8c336040518363ffffffff1660e01b8152600401610dc1929190611d82565b600060405180830381600087803b158015610ddb57600080fd5b505af1158015610def573d6000803e3d6000fd5b505050507ff1a0c3f8ab969255e049ab09c2a9f65ecb64553f2d201e37c4e091b6a109ee3e8b338686604051610e289493929190611db2565b60405180910390a15050505050505050505050565b7f000000000000000000000000000000000000000000000000000000000000000081565b6001818051602081018201805184825260208301602085012081835280955050505050506000915090508060000160009054906101000a900473ffffffffffffffffffffffffffffffffffffffff16908060010154908060020154908060030154908060040154908060050160009054906101000a900460ff16905086565b6000806000806000806000600188604051610efb9190611636565b90815260200160405180910390206040518060c00160405290816000820160009054906101000a900473ffffffffffffffffffffffffffffffffffffffff1673ffffffffffffffffffffffffffffffffffffffff1673ffffffffffffffffffffffffffffffffffffffff168152602001600182015481526020016002820154815260200160038201548152602001600482015481526020016005820160009054906101000a900460ff1615151515815250509050806000015181602001518260400151836060015184608001518560a001519650965096509650965096505091939550919395565b60008082604051602001610ff79190611636565b60405160208183030381529060405280519060200120905060008082815260200190815260200160002054915050919050565b60008060008060006001866040516110429190611636565b90815260200160405180910390206040518060c00160405290816000820160009054906101000a900473ffffffffffffffffffffffffffffffffffffffff1673ffffffffffffffffffffffffffffffffffffffff1673ffffffffffffffffffffffffffffffffffffffff168152602001600182015481526020016002820154815260200160038201548152602001600482015481526020016005820160009054906101000a900460ff16151515158152505090508060000151816020015182608001518360a001519450945094509450509193509193565b7f000000000000000000000000000000000000000000000000000000000000000081565b6000604051905090565b600080fd5b600080fd5b600073ffffffffffffffffffffffffffffffffffffffff82169050919050565b600061117d82611152565b9050919050565b61118d81611172565b811461119857600080fd5b50565b6000813590506111aa81611184565b92915050565b6000602082840312156111c6576111c5611148565b5b60006111d48482850161119b565b91505092915050565b6000819050919050565b6111f0816111dd565b82525050565b600060208201905061120b60008301846111e7565b92915050565b6000819050919050565b61122481611211565b811461122f57600080fd5b50565b6000813590506112418161121b565b92915050565b60006020828403121561125d5761125c611148565b5b600061126b84828501611232565b91505092915050565b6000819050919050565b600061129961129461128f84611152565b611274565b611152565b9050919050565b60006112ab8261127e565b9050919050565b60006112bd826112a0565b9050919050565b6112cd816112b2565b82525050565b60006020820190506112e860008301846112c4565b92915050565b600080fd5b600080fd5b6000601f19601f8301169050919050565b7f4e487b7100000000000000000000000000000000000000000000000000000000600052604160045260246000fd5b611341826112f8565b810181811067ffffffffffffffff821117156113605761135f611309565b5b80604052505050565b600061137361113e565b905061137f8282611338565b919050565b600067ffffffffffffffff82111561139f5761139e611309565b5b6113a8826112f8565b9050602081019050919050565b82818337600083830152505050565b60006113d76113d284611384565b611369565b9050828152602081018484840111156113f3576113f26112f3565b5b6113fe8482856113b5565b509392505050565b600082601f83011261141b5761141a6112ee565b5b813561142b8482602086016113c4565b91505092915050565b60006020828403121561144a57611449611148565b5b600082013567ffffffffffffffff8111156114685761146761114d565b5b61147484828501611406565b91505092915050565b6000611488826112a0565b9050919050565b6114988161147d565b82525050565b60006020820190506114b3600083018461148f565b92915050565b6114c281611172565b82525050565b60008115159050919050565b6114dd816114c8565b82525050565b600060c0820190506114f860008301896114b9565b61150560208301886111e7565b61151260408301876111e7565b61151f60608301866111e7565b61152c60808301856111e7565b61153960a08301846114d4565b979650505050505050565b600060808201905061155960008301876114b9565b61156660208301866111e7565b61157360408301856111e7565b61158060608301846114d4565b95945050505050565b6000611594826112a0565b9050919050565b6115a481611589565b82525050565b60006020820190506115bf600083018461159b565b92915050565b600081519050919050565b600081905092915050565b60005b838110156115f95780820151818401526020810190506115de565b60008484015250505050565b6000611610826115c5565b61161a81856115d0565b935061162a8185602086016115db565b80840191505092915050565b60006116428284611605565b915081905092915050565b600082825260208201905092915050565b6000611669826115c5565b611673818561164d565b93506116838185602086016115db565b61168c816112f8565b840191505092915050565b600060208201905081810360008301526116b1818461165e565b905092915050565b60006116cc6116c784611384565b611369565b9050828152602081018484840111156116e8576116e76112f3565b5b6116f38482856115db565b509392505050565b600082601f8301126117105761170f6112ee565b5b81516117208482602086016116b9565b91505092915050565b611732816111dd565b811461173d57600080fd5b50565b60008151905061174f81611729565b92915050565b600060ff82169050919050565b61176b81611755565b811461177657600080fd5b50565b60008151905061178881611762565b92915050565b60008151905061179d81611184565b92915050565b600080600080600080600060e0888a0312156117c2576117c1611148565b5b600088015167ffffffffffffffff8111156117e0576117df61114d565b5b6117ec8a828b016116fb565b975050602088015167ffffffffffffffff81111561180d5761180c61114d565b5b6118198a828b016116fb565b965050604088015167ffffffffffffffff81111561183a5761183961114d565b5b6118468a828b016116fb565b95505060606118578a828b01611740565b94505060806118688a828b01611779565b93505060a06118798a828b0161178e565b92505060c061188a8a828b0161178e565b91505092959891949750929550565b7f436172206e6f7420666f756e6400000000000000000000000000000000000000600082015250565b60006118cf600d8361164d565b91506118da82611899565b602082019050919050565b600060208201905081810360008301526118fe816118c2565b9050919050565b7f4e487b7100000000000000000000000000000000000000000000000000000000600052602160045260246000fd5b7f436172206973206e6f742063757272656e746c792072656e7465640000000000600082015250565b600061196a601b8361164d565b915061197582611934565b602082019050919050565b600060208201905081810360008301526119998161195d565b9050919050565b7f596f7520617265206e6f74207468652072656e74657200000000000000000000600082015250565b60006119d660168361164d565b91506119e1826119a0565b602082019050919050565b60006020820190508181036000830152611a05816119c9565b9050919050565b6000604082019050611a2160008301856114b9565b611a2e60208301846111e7565b9392505050565b60006060820190508181036000830152611a4f818661165e565b9050611a5e60208301856114b9565b611a6b60408301846111e7565b949350505050565b6000602082019050611a8860008301846114b9565b92915050565b611a97816114c8565b8114611aa257600080fd5b50565b600081519050611ab481611a8e565b92915050565b600060208284031215611ad057611acf611148565b5b6000611ade84828501611aa5565b91505092915050565b7f4b5943206e6f7420617070726f76656400000000000000000000000000000000600082015250565b6000611b1d60108361164d565b9150611b2882611ae7565b602082019050919050565b60006020820190508181036000830152611b4c81611b10565b9050919050565b7f436172206973206e6f7420617661696c61626c65000000000000000000000000600082015250565b6000611b8960148361164d565b9150611b9482611b53565b602082019050919050565b60006020820190508181036000830152611bb881611b7c565b9050919050565b7f4e487b7100000000000000000000000000000000000000000000000000000000600052601160045260246000fd5b6000611bf9826111dd565b9150611c04836111dd565b9250828202611c12816111dd565b91508282048414831517611c2957611c28611bbf565b5b5092915050565b6000611c3b826111dd565b9150611c46836111dd565b9250828201905080821115611c5e57611c5d611bbf565b5b92915050565b7f496e73756666696369656e74207061796d656e74000000000000000000000000600082015250565b6000611c9a60148361164d565b9150611ca582611c64565b602082019050919050565b60006020820190508181036000830152611cc981611c8d565b9050919050565b600081905092915050565b50565b6000611ceb600083611cd0565b9150611cf682611cdb565b600082019050919050565b6000611d0c82611cde565b9150819050919050565b7f5472616e7366657220746f206f776e6572206661696c65640000000000000000600082015250565b6000611d4c60188361164d565b9150611d5782611d16565b602082019050919050565b60006020820190508181036000830152611d7b81611d3f565b9050919050565b60006040820190508181036000830152611d9c818561165e565b9050611dab60208301846114b9565b9392505050565b60006080820190508181036000830152611dcc818761165e565b9050611ddb60208301866114b9565b611de860408301856111e7565b611df560608301846111e7565b9594505050505056fea2646970667358221220e37228b55bc3550ea4d9475031c19966644c71338c7fa746b866d1b26b168bd064736f6c63430008140033",
  "linkReferences": {},
  "deployedLinkReferences": {}
}