{
  "_format": "hh-sol-artifact-1",
  "contractName": "CarRegistry",
  "sourceName": "contracts/CarRegistry.sol",
  "abi": [
    {
      "inputs": [],
      "stateMutability": "nonpayable",
      "type": "constructor"
    },
    {
      "inputs": [
        {
          "internalType": "string",
          "name": "plateNumber",
          "type": "string"
        },
        {
          "internalType": "string",
          "name": "model",
          "type": "string"
        },
        {
          "internalType": "string",
          "name": "location",
          "type": "string"
        },
        {
          "internalType": "uint256",
          "name": "pricePerDay",
          "type": "uint256"
        }
      ],
      "name": "addCar",
      "outputs": [],
      "stateMutability": "nonpayable",
      "type": "function"
    },
    {
      "inputs": [],
      "name": "admin",
      "outputs": [
        {
          "internalType": "address",
          "name": "",
          "type": "address"
        }
      ],
      "stateMutability": "view",
      "type": "function"
    },
    {
      "inputs": [
        {
          "internalType": "uint256",
          "name": "",
          "type": "uint256"
        }
      ],
      "name": "carPlates",
      "outputs": [
        {
          "internalType": "string",
          "name": "",
          "type": "string"
        }
      ],
      "stateMutability": "view",
      "type": "function"
    },
    {
      "inputs": [
        {
          "internalType": "string",
          "name": "",
          "type": "string"
        }
      ],
      "name": "cars",
      "outputs": [
        {
          "internalType": "string",
          "name": "plateNumber",
          "type": "string"
        },
        {
          "internalType": "string",
          "name": "model",
          "type": "string"
        },
        {
          "internalType": "string",
          "name": "location",
          "type": "string"
        },
        {
          "internalType": "uint256",
          "name": "pricePerDay",
          "type": "uint256"
        },
        {
          "internalType": "uint8",
          "name": "status",
          "type": "uint8"
        },
        {
          "internalType": "address",
          "name": "renter",
          "type": "address"
        }
      ],
      "stateMutability": "view",
      "type": "function"
    },
    {
      "inputs": [
        {
          "internalType": "string",
          "name": "plateNumber",
          "type": "string"
        }
      ],
      "name": "deleteCar",
      "outputs": [],
      "stateMutability": "nonpayable",
      "type": "function"
    },
    {
      "inputs": [
        {
          "internalType": "string",
          "name": "plateNumber",
          "type": "string"
        }
      ],
      "name": "getCar",
      "outputs": [
        {
          "internalType": "string",
          "name": "",
          "type": "string"
        },
        {
          "internalType": "string",
          "name": "",
          "type": "string"
        },
        {
          "internalType": "string",
          "name": "",
          "type": "string"
        },
        {
          "internalType": "uint256",
          "name": "",
          "type": "uint256"
        },
        {
          "internalType": "uint8",
          "name": "",
          "type": "uint8"
        },
        {
          "internalType": "address",
          "name": "",
          "type": "address"
        }
      ],
      "stateMutability": "view",
      "type": "function"
    },
    {
      "inputs": [],
      "name": "getCarPlates",
      "outputs": [
        {
          "internalType": "string[]",
          "name": "",
          "type": "string[]"
        }
      ],
      "stateMutability": "view",
      "type": "function"
    },
    {
      "inputs": [
        {
          "internalType": "string",
          "name": "plateNumber",
          "type": "string"
        }
      ],
      "name": "setCarAvailable",
      "outputs": [],
      "stateMutability": "nonpayable",
      "type": "function"
    },
    {
      "inputs": [
        {
          "internalType": "string",
          "name": "plateNumber",
          "type": "string"
        },
        {
          "internalType": "address",
          "name": "renter",
          "type": "address"
        }
      ],
      "name": "setCarRented",
      "outputs": [],
      "stateMutability": "nonpayable",
      "type": "function"
    },
    {
      "inputs": [
        {
          "internalType": "string",
          "name": "plateNumber",
          "type": "string"
        },
        {
          "internalType": "string",
          "name": "model",
          "type": "string"
        },
        {
          "internalType": "string",
          "name": "location",
          "type": "string"
        },
        {
          "internalType": "uint256",
          "name": "pricePerDay",
          "type": "uint256"
        }
      ],
      "name": "updateCar",
      "outputs": [],
      "stateMutability": "nonpayable",
      "type": "function"
    }
  ],
  "bytecode": "0x608060405234801561001057600080fd5b50336000806101000a81548173ffffffffffffffffffffffffffffffffffffffff021916908373ffffffffffffffffffffffffffffffffffffffff160217905550611e82806100606000396000f3fe608060405234801561001057600080fd5b506004361061009e5760003560e01c8063d2d50bd811610066578063d2d50bd814610163578063dd4f5b971461017f578063e2a9e6c4146101af578063f851a440146101cb578063fd76ce04146101e95761009e565b806336749547146100a357806341a2d180146100bf578063479487e3146100f45780639ffd058a14610129578063c1208b9d14610147575b600080fd5b6100bd60048036038101906100b89190611220565b610205565b005b6100d960048036038101906100d49190611220565b610316565b6040516100eb9695949392919061135e565b60405180910390f35b61010e60048036038101906101099190611220565b61052d565b6040516101209695949392919061135e565b60405180910390f35b61013161075a565b60405161013e91906114e0565b60405180910390f35b610161600480360381019061015c919061152e565b610833565b005b61017d600480360381019061017891906115b6565b610943565b005b61019960048036038101906101949190611671565b610b99565b6040516101a6919061169e565b60405180910390f35b6101c960048036038101906101c491906115b6565b610c45565b005b6101d3610dbb565b6040516101e091906116c0565b60405180910390f35b61020360048036038101906101fe9190611220565b610ddf565b005b8060006001826040516102189190611717565b908152602001604051809103902060000180546102349061175d565b905003610276576040517f08c379a000000000000000000000000000000000000000000000000000000000815260040161026d906117da565b60405180910390fd5b60006001836040516102889190611717565b908152602001604051809103902060040160006101000a81548160ff021916908360ff16021790555060006001836040516102c39190611717565b908152602001604051809103902060040160016101000a81548173ffffffffffffffffffffffffffffffffffffffff021916908373ffffffffffffffffffffffffffffffffffffffff1602179055505050565b60018180516020810182018051848252602083016020850120818352809550505050505060009150905080600001805461034f9061175d565b80601f016020809104026020016040519081016040528092919081815260200182805461037b9061175d565b80156103c85780601f1061039d576101008083540402835291602001916103c8565b820191906000526020600020905b8154815290600101906020018083116103ab57829003601f168201915b5050505050908060010180546103dd9061175d565b80601f01602080910402602001604051908101604052809291908181526020018280546104099061175d565b80156104565780601f1061042b57610100808354040283529160200191610456565b820191906000526020600020905b81548152906001019060200180831161043957829003601f168201915b50505050509080600201805461046b9061175d565b80601f01602080910402602001604051908101604052809291908181526020018280546104979061175d565b80156104e45780601f106104b9576101008083540402835291602001916104e4565b820191906000526020600020905b8154815290600101906020018083116104c757829003601f168201915b5050505050908060030154908060040160009054906101000a900460ff16908060040160019054906101000a900473ffffffffffffffffffffffffffffffffffffffff16905086565b60608060606000806000806001886040516105489190611717565b9081526020016040518091039020905080600001816001018260020183600301548460040160009054906101000a900460ff168560040160019054906101000a900473ffffffffffffffffffffffffffffffffffffffff168580546105ac9061175d565b80601f01602080910402602001604051908101604052809291908181526020018280546105d89061175d565b80156106255780601f106105fa57610100808354040283529160200191610625565b820191906000526020600020905b81548152906001019060200180831161060857829003601f168201915b505050505095508480546106389061175d565b80601f01602080910402602001604051908101604052809291908181526020018280546106649061175d565b80156106b15780601f10610686576101008083540402835291602001916106b1565b820191906000526020600020905b81548152906001019060200180831161069457829003601f168201915b505050505094508380546106c49061175d565b80601f01602080910402602001604051908101604052809291908181526020018280546106f09061175d565b801561073d5780601f106107125761010080835404028352916020019161073d565b820191906000526020600020905b81548152906001019060200180831161072057829003601f168201915b505050505093509650965096509650965096505091939550919395565b60606002805480602002602001604051908101604052809291908181526020016000905b8282101561082a57838290600052602060002001805461079d9061175d565b80601f01602080910402602001604051908101604052809291908181526020018280546107c99061175d565b80156108165780601f106107eb57610100808354040283529160200191610816565b820191906000526020600020905b8154815290600101906020018083116107f957829003601f168201915b50505050508152602001906001019061077e565b50505050905090565b8160006001826040516108469190611717565b908152602001604051809103902060000180546108629061175d565b9050036108a4576040517f08c379a000000000000000000000000000000000000000000000000000000000815260040161089b906117da565b60405180910390fd5b600180846040516108b59190611717565b908152602001604051809103902060040160006101000a81548160ff021916908360ff160217905550816001846040516108ef9190611717565b908152602001604051809103902060040160016101000a81548173ffffffffffffffffffffffffffffffffffffffff021916908373ffffffffffffffffffffffffffffffffffffffff160217905550505050565b60008054906101000a900473ffffffffffffffffffffffffffffffffffffffff1673ffffffffffffffffffffffffffffffffffffffff163373ffffffffffffffffffffffffffffffffffffffff16146109d1576040517f08c379a00000000000000000000000000000000000000000000000000000000081526004016109c89061186c565b60405180910390fd5b60006001856040516109e39190611717565b908152602001604051809103902060000180546109ff9061175d565b905014610a41576040517f08c379a0000000000000000000000000000000000000000000000000000000008152600401610a38906118d8565b60405180910390fd5b6040518060c00160405280858152602001848152602001838152602001828152602001600060ff168152602001600073ffffffffffffffffffffffffffffffffffffffff16815250600185604051610a999190611717565b90815260200160405180910390206000820151816000019081610abc9190611aa4565b506020820151816001019081610ad29190611aa4565b506040820151816002019081610ae89190611aa4565b506060820151816003015560808201518160040160006101000a81548160ff021916908360ff16021790555060a08201518160040160016101000a81548173ffffffffffffffffffffffffffffffffffffffff021916908373ffffffffffffffffffffffffffffffffffffffff160217905550905050600284908060018154018082558091505060019003906000526020600020016000909190919091509081610b929190611aa4565b5050505050565b60028181548110610ba957600080fd5b906000526020600020016000915090508054610bc49061175d565b80601f0160208091040260200160405190810160405280929190818152602001828054610bf09061175d565b8015610c3d5780601f10610c1257610100808354040283529160200191610c3d565b820191906000526020600020905b815481529060010190602001808311610c2057829003601f168201915b505050505081565b60008054906101000a900473ffffffffffffffffffffffffffffffffffffffff1673ffffffffffffffffffffffffffffffffffffffff163373ffffffffffffffffffffffffffffffffffffffff1614610cd3576040517f08c379a0000000000000000000000000000000000000000000000000000000008152600401610cca9061186c565b60405180910390fd5b836000600182604051610ce69190611717565b90815260200160405180910390206000018054610d029061175d565b905003610d44576040517f08c379a0000000000000000000000000000000000000000000000000000000008152600401610d3b906117da565b60405180910390fd5b6000600186604051610d569190611717565b90815260200160405180910390209050600085511115610d835784816001019081610d819190611aa4565b505b600084511115610da05783816002019081610d9e9190611aa4565b505b6000831115610db3578281600301819055505b505050505050565b60008054906101000a900473ffffffffffffffffffffffffffffffffffffffff1681565b60008054906101000a900473ffffffffffffffffffffffffffffffffffffffff1673ffffffffffffffffffffffffffffffffffffffff163373ffffffffffffffffffffffffffffffffffffffff1614610e6d576040517f08c379a0000000000000000000000000000000000000000000000000000000008152600401610e649061186c565b60405180910390fd5b806000600182604051610e809190611717565b90815260200160405180910390206000018054610e9c9061175d565b905003610ede576040517f08c379a0000000000000000000000000000000000000000000000000000000008152600401610ed5906117da565b60405180910390fd5b600182604051610eee9190611717565b908152602001604051809103902060008082016000610f0d9190611069565b600182016000610f1d9190611069565b600282016000610f2d9190611069565b60038201600090556004820160006101000a81549060ff02191690556004820160016101000a81549073ffffffffffffffffffffffffffffffffffffffff0219169055505060005b60028054905081101561106457828051906020012060028281548110610f9e57610f9d611b76565b5b90600052602060002001604051610fb59190611c48565b6040518091039020036110515760026001600280549050610fd69190611c8e565b81548110610fe757610fe6611b76565b5b906000526020600020016002828154811061100557611004611b76565b5b90600052602060002001908161101b9190611ced565b50600280548061102e5761102d611dd5565b5b60019003818190600052602060002001600061104a9190611069565b9055611064565b808061105c90611e04565b915050610f75565b505050565b5080546110759061175d565b6000825580601f1061108757506110a6565b601f0160209004906000526020600020908101906110a591906110a9565b5b50565b5b808211156110c25760008160009055506001016110aa565b5090565b6000604051905090565b600080fd5b600080fd5b600080fd5b600080fd5b6000601f19601f8301169050919050565b7f4e487b7100000000000000000000000000000000000000000000000000000000600052604160045260246000fd5b61112d826110e4565b810181811067ffffffffffffffff8211171561114c5761114b6110f5565b5b80604052505050565b600061115f6110c6565b905061116b8282611124565b919050565b600067ffffffffffffffff82111561118b5761118a6110f5565b5b611194826110e4565b9050602081019050919050565b82818337600083830152505050565b60006111c36111be84611170565b611155565b9050828152602081018484840111156111df576111de6110df565b5b6111ea8482856111a1565b509392505050565b600082601f830112611207576112066110da565b5b81356112178482602086016111b0565b91505092915050565b600060208284031215611236576112356110d0565b5b600082013567ffffffffffffffff811115611254576112536110d5565b5b611260848285016111f2565b91505092915050565b600081519050919050565b600082825260208201905092915050565b60005b838110156112a3578082015181840152602081019050611288565b60008484015250505050565b60006112ba82611269565b6112c48185611274565b93506112d4818560208601611285565b6112dd816110e4565b840191505092915050565b6000819050919050565b6112fb816112e8565b82525050565b600060ff82169050919050565b61131781611301565b82525050565b600073ffffffffffffffffffffffffffffffffffffffff82169050919050565b60006113488261131d565b9050919050565b6113588161133d565b82525050565b600060c082019050818103600083015261137881896112af565b9050818103602083015261138c81886112af565b905081810360408301526113a081876112af565b90506113af60608301866112f2565b6113bc608083018561130e565b6113c960a083018461134f565b979650505050505050565b600081519050919050565b600082825260208201905092915050565b6000819050602082019050919050565b600082825260208201905092915050565b600061141c82611269565b6114268185611400565b9350611436818560208601611285565b61143f816110e4565b840191505092915050565b60006114568383611411565b905092915050565b6000602082019050919050565b6000611476826113d4565b61148081856113df565b935083602082028501611492856113f0565b8060005b858110156114ce57848403895281516114af858261144a565b94506114ba8361145e565b925060208a01995050600181019050611496565b50829750879550505050505092915050565b600060208201905081810360008301526114fa818461146b565b905092915050565b61150b8161133d565b811461151657600080fd5b50565b60008135905061152881611502565b92915050565b60008060408385031215611545576115446110d0565b5b600083013567ffffffffffffffff811115611563576115626110d5565b5b61156f858286016111f2565b925050602061158085828601611519565b9150509250929050565b611593816112e8565b811461159e57600080fd5b50565b6000813590506115b08161158a565b92915050565b600080600080608085870312156115d0576115cf6110d0565b5b600085013567ffffffffffffffff8111156115ee576115ed6110d5565b5b6115fa878288016111f2565b945050602085013567ffffffffffffffff81111561161b5761161a6110d5565b5b611627878288016111f2565b935050604085013567ffffffffffffffff811115611648576116476110d5565b5b611654878288016111f2565b9250506060611665878288016115a1565b91505092959194509250565b600060208284031215611687576116866110d0565b5b6000611695848285016115a1565b91505092915050565b600060208201905081810360008301526116b881846112af565b905092915050565b60006020820190506116d5600083018461134f565b92915050565b600081905092915050565b60006116f182611269565b6116fb81856116db565b935061170b818560208601611285565b80840191505092915050565b600061172382846116e6565b915081905092915050565b7f4e487b7100000000000000000000000000000000000000000000000000000000600052602260045260246000fd5b6000600282049050600182168061177557607f821691505b6020821081036117885761178761172e565b5b50919050565b7f43617220646f6573206e6f742065786973740000000000000000000000000000600082015250565b60006117c4601283611274565b91506117cf8261178e565b602082019050919050565b600060208201905081810360008301526117f3816117b7565b9050919050565b7f4f6e6c792061646d696e2063616e20706572666f726d2074686973206163746960008201527f6f6e000000000000000000000000000000000000000000000000000000000000602082015250565b6000611856602283611274565b9150611861826117fa565b604082019050919050565b6000602082019050818103600083015261188581611849565b9050919050565b7f43617220616c7265616479206578697374730000000000000000000000000000600082015250565b60006118c2601283611274565b91506118cd8261188c565b602082019050919050565b600060208201905081810360008301526118f1816118b5565b9050919050565b60008190508160005260206000209050919050565b60006020601f8301049050919050565b600082821b905092915050565b60006008830261195a7fffffffffffffffffffffffffffffffffffffffffffffffffffffffffffffffff8261191d565b611964868361191d565b95508019841693508086168417925050509392505050565b6000819050919050565b60006119a161199c611997846112e8565b61197c565b6112e8565b9050919050565b6000819050919050565b6119bb83611986565b6119cf6119c7826119a8565b84845461192a565b825550505050565b600090565b6119e46119d7565b6119ef8184846119b2565b505050565b5b81811015611a1357611a086000826119dc565b6001810190506119f5565b5050565b601f821115611a5857611a29816118f8565b611a328461190d565b81016020851015611a41578190505b611a55611a4d8561190d565b8301826119f4565b50505b505050565b600082821c905092915050565b6000611a7b60001984600802611a5d565b1980831691505092915050565b6000611a948383611a6a565b9150826002028217905092915050565b611aad82611269565b67ffffffffffffffff811115611ac657611ac56110f5565b5b611ad0825461175d565b611adb828285611a17565b600060209050601f831160018114611b0e5760008415611afc578287015190505b611b068582611a88565b865550611b6e565b601f198416611b1c866118f8565b60005b82811015611b4457848901518255600182019150602085019450602081019050611b1f565b86831015611b615784890151611b5d601f891682611a6a565b8355505b6001600288020188555050505b505050505050565b7f4e487b7100000000000000000000000000000000000000000000000000000000600052603260045260246000fd5b600081905092915050565b60008190508160005260206000209050919050565b60008154611bd28161175d565b611bdc8186611ba5565b94506001821660008114611bf75760018114611c0c57611c3f565b60ff1983168652811515820286019350611c3f565b611c1585611bb0565b60005b83811015611c3757815481890152600182019150602081019050611c18565b838801955050505b50505092915050565b6000611c548284611bc5565b915081905092915050565b7f4e487b7100000000000000000000000000000000000000000000000000000000600052601160045260246000fd5b6000611c99826112e8565b9150611ca4836112e8565b9250828203905081811115611cbc57611cbb611c5f565b5b92915050565b600081549050611cd18161175d565b9050919050565b60008190508160005260206000209050919050565b818103611cfb575050611dd3565b611d0482611cc2565b67ffffffffffffffff811115611d1d57611d1c6110f5565b5b611d27825461175d565b611d32828285611a17565b6000601f831160018114611d615760008415611d4f578287015490505b611d598582611a88565b865550611dcc565b601f198416611d6f87611cd8565b9650611d7a866118f8565b60005b82811015611da257848901548255600182019150600185019450602081019050611d7d565b86831015611dbf5784890154611dbb601f891682611a6a565b8355505b6001600288020188555050505b5050505050505b565b7f4e487b7100000000000000000000000000000000000000000000000000000000600052603160045260246000fd5b6000611e0f826112e8565b91507fffffffffffffffffffffffffffffffffffffffffffffffffffffffffffffffff8203611e4157611e40611c5f565b5b60018201905091905056fea26469706673582212209a4255473d0438f1fa26cf420299298410435ebeed659bb6aedb0b0e2b52567664736f6c63430008140033",
  "linkReferences": {},
  "deployedLinkReferences": {}
}