{
  "_format": "hh-sol-artifact-1",
  "contractName": "CarRental",
  "sourceName": "contracts/CarRental.sol",
  "abi": [
    {
      "inputs": [
        {
          "internalType": "address",
          "name": "_carRegistry",
          "type": "address"
        },
        {
          "internalType": "address",
          "name": "_kycManager",
          "type": "address"
        },
        {
          "internalType": "address",
          "name": "_vault",
          "type": "address"
        }
      ],
      "stateMutability": "nonpayable",
      "type": "constructor"
    },
    {
      "anonymous": false,
      "inputs": [
        {
          "indexed": false,
          "internalType": "string",
          "name": "plateNumber",
          "type": "string"
        },
        {
          "indexed": false,
          "internalType": "address",
          "name": "renter",
          "type": "address"
        }
      ],
      "name": "CarRented",
      "type": "event"
    },
    {
      "anonymous": false,
      "inputs": [
        {
          "indexed": false,
          "internalType": "string",
          "name": "plateNumber",
          "type": "string"
        },
        {
          "indexed": false,
          "internalType": "address",
          "name": "renter",
          "type": "address"
        }
      ],
      "name": "CarReturned",
      "type": "event"
    },
    {
      "inputs": [],
      "name": "carRegistry",
      "outputs": [
        {
          "internalType": "contract ICarRegistry",
          "name": "",
          "type": "address"
        }
      ],
      "stateMutability": "view",
      "type": "function"
    },
    {
      "inputs": [
        {
          "internalType": "string",
          "name": "plateNumber",
          "type": "string"
        }
      ],
      "name": "completeRental",
      "outputs": [],
      "stateMutability": "nonpayable",
      "type": "function"
    },
    {
      "inputs": [
        {
          "internalType": "bytes32",
          "name": "",
          "type": "bytes32"
        }
      ],
      "name": "deposits",
      "outputs": [
        {
          "internalType": "uint256",
          "name": "",
          "type": "uint256"
        }
      ],
      "stateMutability": "view",
      "type": "function"
    },
    {
      "inputs": [
        {
          "internalType": "string",
          "name": "plateNumber",
          "type": "string"
        }
      ],
      "name": "getDeposit",
      "outputs": [
        {
          "internalType": "uint256",
          "name": "",
          "type": "uint256"
        }
      ],
      "stateMutability": "view",
      "type": "function"
    },
    {
      "inputs": [
        {
          "internalType": "string",
          "name": "plateNumber",
          "type": "string"
        }
      ],
      "name": "getRentalInfo",
      "outputs": [
        {
          "internalType": "address",
          "name": "renter",
          "type": "address"
        },
        {
          "internalType": "uint256",
          "name": "amountPaid",
          "type": "uint256"
        },
        {
          "internalType": "uint256",
          "name": "timestamp",
          "type": "uint256"
        },
        {
          "internalType": "bool",
          "name": "returned",
          "type": "bool"
        }
      ],
      "stateMutability": "view",
      "type": "function"
    },
    {
      "inputs": [],
      "name": "kycManager",
      "outputs": [
        {
          "internalType": "contract IKYCManager",
          "name": "",
          "type": "address"
        }
      ],
      "stateMutability": "view",
      "type": "function"
    },
    {
      "inputs": [
        {
          "internalType": "string",
          "name": "plateNumber",
          "type": "string"
        }
      ],
      "name": "rentCar",
      "outputs": [],
      "stateMutability": "payable",
      "type": "function"
    },
    {
      "inputs": [
        {
          "internalType": "bytes32",
          "name": "",
          "type": "bytes32"
        }
      ],
      "name": "rentals",
      "outputs": [
        {
          "internalType": "string",
          "name": "plateNumber",
          "type": "string"
        },
        {
          "internalType": "address",
          "name": "renter",
          "type": "address"
        },
        {
          "internalType": "uint256",
          "name": "amountPaid",
          "type": "uint256"
        },
        {
          "internalType": "uint256",
          "name": "timestamp",
          "type": "uint256"
        },
        {
          "internalType": "bool",
          "name": "returned",
          "type": "bool"
        }
      ],
      "stateMutability": "view",
      "type": "function"
    },
    {
      "inputs": [],
      "name": "vault",
      "outputs": [
        {
          "internalType": "contract IRentalVault",
          "name": "",
          "type": "address"
        }
      ],
      "stateMutability": "view",
      "type": "function"
    }
  ],
  "bytecode": "0x60e06040523480156200001157600080fd5b5060405162001d9e38038062001d9e833981810160405281019062000037919062000146565b8273ffffffffffffffffffffffffffffffffffffffff1660808173ffffffffffffffffffffffffffffffffffffffff16815250508173ffffffffffffffffffffffffffffffffffffffff1660a08173ffffffffffffffffffffffffffffffffffffffff16815250508073ffffffffffffffffffffffffffffffffffffffff1660c08173ffffffffffffffffffffffffffffffffffffffff1681525050505050620001a2565b600080fd5b600073ffffffffffffffffffffffffffffffffffffffff82169050919050565b60006200010e82620000e1565b9050919050565b620001208162000101565b81146200012c57600080fd5b50565b600081519050620001408162000115565b92915050565b600080600060608486031215620001625762000161620000dc565b5b600062000172868287016200012f565b935050602062000185868287016200012f565b925050604062000198868287016200012f565b9150509250925092565b60805160a05160c051611b9b620002036000396000818161052b015281816109610152610dee0152600081816106270152610b09015260008181610266015281816102ba0152818161046f0152818161073101526108d40152611b9b6000f3fe6080604052600436106100865760003560e01c80637afea44f116100595780637afea44f146101385780637df8768e14610163578063d20747a8146101a4578063f04d237c146101e1578063fbfa77cf1461022157610086565b80633d4dff7b1461008b57806358685ddb146100c857806368a4cb88146100f357806372fd3d3e1461011c575b600080fd5b34801561009757600080fd5b506100b260048036038101906100ad9190610e5a565b61024c565b6040516100bf9190610ea0565b60405180910390f35b3480156100d457600080fd5b506100dd610264565b6040516100ea9190610f3a565b60405180910390f35b3480156100ff57600080fd5b5061011a6004803603810190610115919061109b565b610288565b005b6101366004803603810190610131919061109b565b610625565b005b34801561014457600080fd5b5061014d610b07565b60405161015a9190611105565b60405180910390f35b34801561016f57600080fd5b5061018a60048036038101906101859190610e5a565b610b2b565b60405161019b9594939291906111db565b60405180910390f35b3480156101b057600080fd5b506101cb60048036038101906101c6919061109b565b610c16565b6040516101d89190610ea0565b60405180910390f35b3480156101ed57600080fd5b506102086004803603810190610203919061109b565b610c5e565b6040516102189493929190611235565b60405180910390f35b34801561022d57600080fd5b50610236610dec565b604051610243919061129b565b60405180910390f35b60016020528060005260406000206000915090505481565b7f000000000000000000000000000000000000000000000000000000000000000081565b60008160405160200161029b91906112f2565b60405160208183030381529060405280519060200120905060008060007f000000000000000000000000000000000000000000000000000000000000000073ffffffffffffffffffffffffffffffffffffffff1663479487e3866040518263ffffffff1660e01b81526004016103119190611309565b600060405180830381865afa15801561032e573d6000803e3d6000fd5b505050506040513d6000823e3d601f19601f82011682018060405250810190610357919061142c565b95509550505050925060008351036103a4576040517f08c379a000000000000000000000000000000000000000000000000000000000815260040161039b90611559565b60405180910390fd5b600160028111156103b8576103b7611579565b5b60ff168260ff16146103ff576040517f08c379a00000000000000000000000000000000000000000000000000000000081526004016103f6906115f4565b60405180910390fd5b3373ffffffffffffffffffffffffffffffffffffffff168173ffffffffffffffffffffffffffffffffffffffff161461046d576040517f08c379a000000000000000000000000000000000000000000000000000000000815260040161046490611660565b60405180910390fd5b7f000000000000000000000000000000000000000000000000000000000000000073ffffffffffffffffffffffffffffffffffffffff166336749547866040518263ffffffff1660e01b81526004016104c69190611309565b600060405180830381600087803b1580156104e057600080fd5b505af11580156104f4573d6000803e3d6000fd5b50505050600060016000868152602001908152602001600020549050600060016000878152602001908152602001600020819055507f000000000000000000000000000000000000000000000000000000000000000073ffffffffffffffffffffffffffffffffffffffff1663410085df83836040518363ffffffff1660e01b8152600401610584929190611680565b600060405180830381600087803b15801561059e57600080fd5b505af11580156105b2573d6000803e3d6000fd5b50505050600160008087815260200190815260200160002060040160006101000a81548160ff0219169083151502179055507f464998be95d2dcfe9eb1b41fb03df16114842e7e953e097073c18289ba3051c686836040516106159291906116a9565b60405180910390a1505050505050565b7f000000000000000000000000000000000000000000000000000000000000000073ffffffffffffffffffffffffffffffffffffffff16638846594b336040518263ffffffff1660e01b815260040161067e91906116d9565b602060405180830381865afa15801561069b573d6000803e3d6000fd5b505050506040513d601f19601f820116820180604052508101906106bf9190611720565b6106fe576040517f08c379a00000000000000000000000000000000000000000000000000000000081526004016106f590611799565b60405180910390fd5b60008160405160200161071191906112f2565b6040516020818303038152906040528051906020012090506000806000807f000000000000000000000000000000000000000000000000000000000000000073ffffffffffffffffffffffffffffffffffffffff1663479487e3876040518263ffffffff1660e01b81526004016107889190611309565b600060405180830381865afa1580156107a5573d6000803e3d6000fd5b505050506040513d6000823e3d601f19601f820116820180604052508101906107ce919061142c565b95509550955050509350600084510361081c576040517f08c379a000000000000000000000000000000000000000000000000000000000815260040161081390611559565b60405180910390fd5b600060028111156108305761082f611579565b5b60ff168260ff1614610877576040517f08c379a000000000000000000000000000000000000000000000000000000000815260040161086e90611805565b60405180910390fd5b823410156108ba576040517f08c379a00000000000000000000000000000000000000000000000000000000081526004016108b190611871565b60405180910390fd5b3460016000878152602001908152602001600020819055507f000000000000000000000000000000000000000000000000000000000000000073ffffffffffffffffffffffffffffffffffffffff1663c1208b9d87336040518363ffffffff1660e01b815260040161092d9291906116a9565b600060405180830381600087803b15801561094757600080fd5b505af115801561095b573d6000803e3d6000fd5b505050507f000000000000000000000000000000000000000000000000000000000000000073ffffffffffffffffffffffffffffffffffffffff1663d0e30db0346040518263ffffffff1660e01b81526004016000604051808303818588803b1580156109c757600080fd5b505af11580156109db573d6000803e3d6000fd5b50505050506040518060a001604052808781526020013373ffffffffffffffffffffffffffffffffffffffff168152602001348152602001428152602001600015158152506000808781526020019081526020016000206000820151816000019081610a479190611a93565b5060208201518160010160006101000a81548173ffffffffffffffffffffffffffffffffffffffff021916908373ffffffffffffffffffffffffffffffffffffffff160217905550604082015181600201556060820151816003015560808201518160040160006101000a81548160ff0219169083151502179055509050507fe0903df489d90288745389e699f476635bf4b26eaabf03f19d342cc921c54f6c8633604051610af79291906116a9565b60405180910390a1505050505050565b7f000000000000000000000000000000000000000000000000000000000000000081565b6000602052806000526040600020600091509050806000018054610b4e906118c0565b80601f0160208091040260200160405190810160405280929190818152602001828054610b7a906118c0565b8015610bc75780601f10610b9c57610100808354040283529160200191610bc7565b820191906000526020600020905b815481529060010190602001808311610baa57829003601f168201915b5050505050908060010160009054906101000a900473ffffffffffffffffffffffffffffffffffffffff16908060020154908060030154908060040160009054906101000a900460ff16905085565b60008082604051602001610c2a91906112f2565b6040516020818303038152906040528051906020012090506001600082815260200190815260200160002054915050919050565b600080600080600085604051602001610c7791906112f2565b60405160208183030381529060405280519060200120905060008060008381526020019081526020016000206040518060a0016040529081600082018054610cbe906118c0565b80601f0160208091040260200160405190810160405280929190818152602001828054610cea906118c0565b8015610d375780601f10610d0c57610100808354040283529160200191610d37565b820191906000526020600020905b815481529060010190602001808311610d1a57829003601f168201915b505050505081526020016001820160009054906101000a900473ffffffffffffffffffffffffffffffffffffffff1673ffffffffffffffffffffffffffffffffffffffff1673ffffffffffffffffffffffffffffffffffffffff16815260200160028201548152602001600382015481526020016004820160009054906101000a900460ff16151515158152505090508060200151816040015182606001518360800151955095509550955050509193509193565b7f000000000000000000000000000000000000000000000000000000000000000081565b6000604051905090565b600080fd5b600080fd5b6000819050919050565b610e3781610e24565b8114610e4257600080fd5b50565b600081359050610e5481610e2e565b92915050565b600060208284031215610e7057610e6f610e1a565b5b6000610e7e84828501610e45565b91505092915050565b6000819050919050565b610e9a81610e87565b82525050565b6000602082019050610eb56000830184610e91565b92915050565b600073ffffffffffffffffffffffffffffffffffffffff82169050919050565b6000819050919050565b6000610f00610efb610ef684610ebb565b610edb565b610ebb565b9050919050565b6000610f1282610ee5565b9050919050565b6000610f2482610f07565b9050919050565b610f3481610f19565b82525050565b6000602082019050610f4f6000830184610f2b565b92915050565b600080fd5b600080fd5b6000601f19601f8301169050919050565b7f4e487b7100000000000000000000000000000000000000000000000000000000600052604160045260246000fd5b610fa882610f5f565b810181811067ffffffffffffffff82111715610fc757610fc6610f70565b5b80604052505050565b6000610fda610e10565b9050610fe68282610f9f565b919050565b600067ffffffffffffffff82111561100657611005610f70565b5b61100f82610f5f565b9050602081019050919050565b82818337600083830152505050565b600061103e61103984610feb565b610fd0565b90508281526020810184848401111561105a57611059610f5a565b5b61106584828561101c565b509392505050565b600082601f83011261108257611081610f55565b5b813561109284826020860161102b565b91505092915050565b6000602082840312156110b1576110b0610e1a565b5b600082013567ffffffffffffffff8111156110cf576110ce610e1f565b5b6110db8482850161106d565b91505092915050565b60006110ef82610f07565b9050919050565b6110ff816110e4565b82525050565b600060208201905061111a60008301846110f6565b92915050565b600081519050919050565b600082825260208201905092915050565b60005b8381101561115a57808201518184015260208101905061113f565b60008484015250505050565b600061117182611120565b61117b818561112b565b935061118b81856020860161113c565b61119481610f5f565b840191505092915050565b60006111aa82610ebb565b9050919050565b6111ba8161119f565b82525050565b60008115159050919050565b6111d5816111c0565b82525050565b600060a08201905081810360008301526111f58188611166565b905061120460208301876111b1565b6112116040830186610e91565b61121e6060830185610e91565b61122b60808301846111cc565b9695505050505050565b600060808201905061124a60008301876111b1565b6112576020830186610e91565b6112646040830185610e91565b61127160608301846111cc565b95945050505050565b600061128582610f07565b9050919050565b6112958161127a565b82525050565b60006020820190506112b0600083018461128c565b92915050565b600081905092915050565b60006112cc82611120565b6112d681856112b6565b93506112e681856020860161113c565b80840191505092915050565b60006112fe82846112c1565b915081905092915050565b600060208201905081810360008301526113238184611166565b905092915050565b600061133e61133984610feb565b610fd0565b90508281526020810184848401111561135a57611359610f5a565b5b61136584828561113c565b509392505050565b600082601f83011261138257611381610f55565b5b815161139284826020860161132b565b91505092915050565b6113a481610e87565b81146113af57600080fd5b50565b6000815190506113c18161139b565b92915050565b600060ff82169050919050565b6113dd816113c7565b81146113e857600080fd5b50565b6000815190506113fa816113d4565b92915050565b6114098161119f565b811461141457600080fd5b50565b60008151905061142681611400565b92915050565b60008060008060008060c0878903121561144957611448610e1a565b5b600087015167ffffffffffffffff81111561146757611466610e1f565b5b61147389828a0161136d565b965050602087015167ffffffffffffffff81111561149457611493610e1f565b5b6114a089828a0161136d565b955050604087015167ffffffffffffffff8111156114c1576114c0610e1f565b5b6114cd89828a0161136d565b94505060606114de89828a016113b2565b93505060806114ef89828a016113eb565b92505060a061150089828a01611417565b9150509295509295509295565b7f436172206e6f7420666f756e6400000000000000000000000000000000000000600082015250565b6000611543600d8361112b565b915061154e8261150d565b602082019050919050565b6000602082019050818103600083015261157281611536565b9050919050565b7f4e487b7100000000000000000000000000000000000000000000000000000000600052602160045260246000fd5b7f436172206973206e6f742063757272656e746c792072656e7465640000000000600082015250565b60006115de601b8361112b565b91506115e9826115a8565b602082019050919050565b6000602082019050818103600083015261160d816115d1565b9050919050565b7f596f7520617265206e6f74207468652072656e74657200000000000000000000600082015250565b600061164a60168361112b565b915061165582611614565b602082019050919050565b600060208201905081810360008301526116798161163d565b9050919050565b600060408201905061169560008301856111b1565b6116a26020830184610e91565b9392505050565b600060408201905081810360008301526116c38185611166565b90506116d260208301846111b1565b9392505050565b60006020820190506116ee60008301846111b1565b92915050565b6116fd816111c0565b811461170857600080fd5b50565b60008151905061171a816116f4565b92915050565b60006020828403121561173657611735610e1a565b5b60006117448482850161170b565b91505092915050565b7f4b5943206e6f7420617070726f76656400000000000000000000000000000000600082015250565b600061178360108361112b565b915061178e8261174d565b602082019050919050565b600060208201905081810360008301526117b281611776565b9050919050565b7f436172206973206e6f7420617661696c61626c65000000000000000000000000600082015250565b60006117ef60148361112b565b91506117fa826117b9565b602082019050919050565b6000602082019050818103600083015261181e816117e2565b9050919050565b7f496e73756666696369656e74207061796d656e74000000000000000000000000600082015250565b600061185b60148361112b565b915061186682611825565b602082019050919050565b6000602082019050818103600083015261188a8161184e565b9050919050565b7f4e487b7100000000000000000000000000000000000000000000000000000000600052602260045260246000fd5b600060028204905060018216806118d857607f821691505b6020821081036118eb576118ea611891565b5b50919050565b60008190508160005260206000209050919050565b60006020601f8301049050919050565b600082821b905092915050565b6000600883026119537fffffffffffffffffffffffffffffffffffffffffffffffffffffffffffffffff82611916565b61195d8683611916565b95508019841693508086168417925050509392505050565b600061199061198b61198684610e87565b610edb565b610e87565b9050919050565b6000819050919050565b6119aa83611975565b6119be6119b682611997565b848454611923565b825550505050565b600090565b6119d36119c6565b6119de8184846119a1565b505050565b5b81811015611a02576119f76000826119cb565b6001810190506119e4565b5050565b601f821115611a4757611a18816118f1565b611a2184611906565b81016020851015611a30578190505b611a44611a3c85611906565b8301826119e3565b50505b505050565b600082821c905092915050565b6000611a6a60001984600802611a4c565b1980831691505092915050565b6000611a838383611a59565b9150826002028217905092915050565b611a9c82611120565b67ffffffffffffffff811115611ab557611ab4610f70565b5b611abf82546118c0565b611aca828285611a06565b600060209050601f831160018114611afd5760008415611aeb578287015190505b611af58582611a77565b865550611b5d565b601f198416611b0b866118f1565b60005b82811015611b3357848901518255600182019150602085019450602081019050611b0e565b86831015611b505784890151611b4c601f891682611a59565b8355505b6001600288020188555050505b50505050505056fea2646970667358221220fde551a67b29ba32849aabf3617922d88de4cec61cde979e3f601acff5d46bc564736f6c63430008140033",
  "linkReferences": {},
  "deployedLinkReferences": {}
}