{
  "_format": "hh-sol-artifact-1",
  "contractName": "CarRental",
  "sourceName": "contracts/CarRental.sol",
  "abi": [
    {
      "inputs": [
        {
          "internalType": "address",
          "name": "_carRegistry",
          "type": "address"
        },
        {
          "internalType": "address",
          "name": "_kycManager",
          "type": "address"
        },
        {
          "internalType": "address",
          "name": "_vault",
          "type": "address"
        }
      ],
      "stateMutability": "nonpayable",
      "type": "constructor"
    },
    {
      "anonymous": false,
      "inputs": [
        {
          "indexed": false,
          "internalType": "string",
          "name": "plateNumber",
          "type": "string"
        },
        {
          "indexed": false,
          "internalType": "address",
          "name": "renter",
          "type": "address"
        },
        {
          "indexed": false,
          "internalType": "uint256",
          "name": "rentalFee",
          "type": "uint256"
        },
        {
          "indexed": false,
          "internalType": "uint256",
          "name": "deposit",
          "type": "uint256"
        }
      ],
      "name": "CarRented",
      "type": "event"
    },
    {
      "anonymous": false,
      "inputs": [
        {
          "indexed": false,
          "internalType": "string",
          "name": "plateNumber",
          "type": "string"
        },
        {
          "indexed": false,
          "internalType": "address",
          "name": "renter",
          "type": "address"
        },
        {
          "indexed": false,
          "internalType": "uint256",
          "name": "refundedDeposit",
          "type": "uint256"
        }
      ],
      "name": "CarReturned",
      "type": "event"
    },
    {
      "inputs": [],
      "name": "DEPOSIT_MULTIPLIER",
      "outputs": [
        {
          "internalType": "uint256",
          "name": "",
          "type": "uint256"
        }
      ],
      "stateMutability": "view",
      "type": "function"
    },
    {
      "inputs": [],
      "name": "carRegistry",
      "outputs": [
        {
          "internalType": "contract ICarRegistry",
          "name": "",
          "type": "address"
        }
      ],
      "stateMutability": "view",
      "type": "function"
    },
    {
      "inputs": [
        {
          "internalType": "string",
          "name": "plateNumber",
          "type": "string"
        }
      ],
      "name": "completeRental",
      "outputs": [],
      "stateMutability": "nonpayable",
      "type": "function"
    },
    {
      "inputs": [
        {
          "internalType": "bytes32",
          "name": "",
          "type": "bytes32"
        }
      ],
      "name": "deposits",
      "outputs": [
        {
          "internalType": "uint256",
          "name": "",
          "type": "uint256"
        }
      ],
      "stateMutability": "view",
      "type": "function"
    },
    {
      "inputs": [
        {
          "internalType": "string",
          "name": "plateNumber",
          "type": "string"
        }
      ],
      "name": "getDeposit",
      "outputs": [
        {
          "internalType": "uint256",
          "name": "",
          "type": "uint256"
        }
      ],
      "stateMutability": "view",
      "type": "function"
    },
    {
      "inputs": [],
      "name": "getDepositMultiplier",
      "outputs": [
        {
          "internalType": "uint256",
          "name": "",
          "type": "uint256"
        }
      ],
      "stateMutability": "pure",
      "type": "function"
    },
    {
      "inputs": [
        {
          "internalType": "string",
          "name": "plateNumber",
          "type": "string"
        }
      ],
      "name": "getDetailedRentalInfo",
      "outputs": [
        {
          "internalType": "address",
          "name": "renter",
          "type": "address"
        },
        {
          "internalType": "uint256",
          "name": "totalPaid",
          "type": "uint256"
        },
        {
          "internalType": "uint256",
          "name": "rentalFee",
          "type": "uint256"
        },
        {
          "internalType": "uint256",
          "name": "depositAmount",
          "type": "uint256"
        },
        {
          "internalType": "uint256",
          "name": "timestamp",
          "type": "uint256"
        },
        {
          "internalType": "bool",
          "name": "returned",
          "type": "bool"
        }
      ],
      "stateMutability": "view",
      "type": "function"
    },
    {
      "inputs": [
        {
          "internalType": "address",
          "name": "owner",
          "type": "address"
        }
      ],
      "name": "getOwnerRevenue",
      "outputs": [
        {
          "internalType": "uint256",
          "name": "",
          "type": "uint256"
        }
      ],
      "stateMutability": "view",
      "type": "function"
    },
    {
      "inputs": [
        {
          "internalType": "string",
          "name": "plateNumber",
          "type": "string"
        }
      ],
      "name": "getRentalInfo",
      "outputs": [
        {
          "internalType": "address",
          "name": "renter",
          "type": "address"
        },
        {
          "internalType": "uint256",
          "name": "amountPaid",
          "type": "uint256"
        },
        {
          "internalType": "uint256",
          "name": "timestamp",
          "type": "uint256"
        },
        {
          "internalType": "bool",
          "name": "returned",
          "type": "bool"
        }
      ],
      "stateMutability": "view",
      "type": "function"
    },
    {
      "inputs": [],
      "name": "kycManager",
      "outputs": [
        {
          "internalType": "contract IKYCManager",
          "name": "",
          "type": "address"
        }
      ],
      "stateMutability": "view",
      "type": "function"
    },
    {
      "inputs": [
        {
          "internalType": "address",
          "name": "",
          "type": "address"
        }
      ],
      "name": "ownerRevenue",
      "outputs": [
        {
          "internalType": "uint256",
          "name": "",
          "type": "uint256"
        }
      ],
      "stateMutability": "view",
      "type": "function"
    },
    {
      "inputs": [
        {
          "internalType": "string",
          "name": "plateNumber",
          "type": "string"
        }
      ],
      "name": "rentCar",
      "outputs": [],
      "stateMutability": "payable",
      "type": "function"
    },
    {
      "inputs": [
        {
          "internalType": "string",
          "name": "",
          "type": "string"
        }
      ],
      "name": "rentalRecords",
      "outputs": [
        {
          "internalType": "address",
          "name": "renter",
          "type": "address"
        },
        {
          "internalType": "uint256",
          "name": "amountPaid",
          "type": "uint256"
        },
        {
          "internalType": "uint256",
          "name": "rentalFee",
          "type": "uint256"
        },
        {
          "internalType": "uint256",
          "name": "depositAmount",
          "type": "uint256"
        },
        {
          "internalType": "uint256",
          "name": "timestamp",
          "type": "uint256"
        },
        {
          "internalType": "bool",
          "name": "returned",
          "type": "bool"
        }
      ],
      "stateMutability": "view",
      "type": "function"
    },
    {
      "inputs": [],
      "name": "vault",
      "outputs": [
        {
          "internalType": "contract IRentalVault",
          "name": "",
          "type": "address"
        }
      ],
      "stateMutability": "view",
      "type": "function"
    }
  ],
  "bytecode": "0x60e06040523480156200001157600080fd5b5060405162001fe138038062001fe1833981810160405281019062000037919062000146565b8273ffffffffffffffffffffffffffffffffffffffff1660808173ffffffffffffffffffffffffffffffffffffffff16815250508173ffffffffffffffffffffffffffffffffffffffff1660a08173ffffffffffffffffffffffffffffffffffffffff16815250508073ffffffffffffffffffffffffffffffffffffffff1660c08173ffffffffffffffffffffffffffffffffffffffff1681525050505050620001a2565b600080fd5b600073ffffffffffffffffffffffffffffffffffffffff82169050919050565b60006200010e82620000e1565b9050919050565b620001208162000101565b81146200012c57600080fd5b50565b600081519050620001408162000115565b92915050565b600080600060608486031215620001625762000161620000dc565b5b600062000172868287016200012f565b935050602062000185868287016200012f565b925050604062000198868287016200012f565b9150509250925092565b60805160a05160c051611dde620002036000396000818161070e01528181610b8401526110c60152600081816108190152610de901526000818161043f015281816104940152818161064b015281816109250152610d120152611dde6000f3fe6080604052600436106100dd5760003560e01c806372fd3d3e1161007f578063c2f8fa9111610059578063c2f8fa91146102cc578063d20747a81461030e578063f04d237c1461034b578063fbfa77cf1461038b576100dd565b806372fd3d3e146102435780637afea44f1461025f5780637fd843131461028a576100dd565b80633a2d8784116100bb5780633a2d8784146101875780633d4dff7b146101b257806358685ddb146101ef57806368a4cb881461021a576100dd565b80630e0b54d5146100e257806313fb3f331461011f5780632822d2bf1461014a575b600080fd5b3480156100ee57600080fd5b506101096004803603810190610104919061115a565b6103b6565b60405161011691906111a0565b60405180910390f35b34801561012b57600080fd5b506101346103ff565b60405161014191906111a0565b60405180910390f35b34801561015657600080fd5b50610171600480360381019061016c919061115a565b610404565b60405161017e91906111a0565b60405180910390f35b34801561019357600080fd5b5061019c61041c565b6040516101a991906111a0565b60405180910390f35b3480156101be57600080fd5b506101d960048036038101906101d491906111f1565b610425565b6040516101e691906111a0565b60405180910390f35b3480156101fb57600080fd5b5061020461043d565b604051610211919061127d565b60405180910390f35b34801561022657600080fd5b50610241600480360381019061023c91906113de565b610461565b005b61025d600480360381019061025891906113de565b610817565b005b34801561026b57600080fd5b50610274610de7565b6040516102819190611448565b60405180910390f35b34801561029657600080fd5b506102b160048036038101906102ac91906113de565b610e0b565b6040516102c39695949392919061148d565b60405180910390f35b3480156102d857600080fd5b506102f360048036038101906102ee91906113de565b610e8a565b6040516103059695949392919061148d565b60405180910390f35b34801561031a57600080fd5b50610335600480360381019061033091906113de565b610f8d565b60405161034291906111a0565b60405180910390f35b34801561035757600080fd5b50610372600480360381019061036d91906113de565b610fd4565b60405161038294939291906114ee565b60405180910390f35b34801561039757600080fd5b506103a06110c4565b6040516103ad9190611554565b60405180910390f35b6000600260008373ffffffffffffffffffffffffffffffffffffffff1673ffffffffffffffffffffffffffffffffffffffff168152602001908152602001600020549050919050565b600281565b60026020528060005260406000206000915090505481565b60006002905090565b60006020528060005260406000206000915090505481565b7f000000000000000000000000000000000000000000000000000000000000000081565b60008160405160200161047491906115e0565b6040516020818303038152906040528051906020012090506000806000807f000000000000000000000000000000000000000000000000000000000000000073ffffffffffffffffffffffffffffffffffffffff1663479487e3876040518263ffffffff1660e01b81526004016104eb9190611641565b600060405180830381865afa158015610508573d6000803e3d6000fd5b505050506040513d6000823e3d601f19601f82011682018060405250810190610531919061174d565b96509650965050505093506000845103610580576040517f08c379a00000000000000000000000000000000000000000000000000000000081526004016105779061188f565b60405180910390fd5b60016002811115610594576105936118af565b5b60ff168360ff16146105db576040517f08c379a00000000000000000000000000000000000000000000000000000000081526004016105d29061192a565b60405180910390fd5b3373ffffffffffffffffffffffffffffffffffffffff168273ffffffffffffffffffffffffffffffffffffffff1614610649576040517f08c379a000000000000000000000000000000000000000000000000000000000815260040161064090611996565b60405180910390fd5b7f000000000000000000000000000000000000000000000000000000000000000073ffffffffffffffffffffffffffffffffffffffff166336749547876040518263ffffffff1660e01b81526004016106a29190611641565b600060405180830381600087803b1580156106bc57600080fd5b505af11580156106d0573d6000803e3d6000fd5b505050506000806000878152602001908152602001600020549050600080600088815260200190815260200160002081905550600081111561079a577f000000000000000000000000000000000000000000000000000000000000000073ffffffffffffffffffffffffffffffffffffffff1663410085df84836040518363ffffffff1660e01b81526004016107679291906119b6565b600060405180830381600087803b15801561078157600080fd5b505af1158015610795573d6000803e3d6000fd5b505050505b600180886040516107ab91906115e0565b908152602001604051809103902060050160006101000a81548160ff0219169083151502179055507f169fcd63a584d0ec69c03699b9741084030f49721b1f78b0f397d3013684f0a5878483604051610806939291906119df565b60405180910390a150505050505050565b7f000000000000000000000000000000000000000000000000000000000000000073ffffffffffffffffffffffffffffffffffffffff16638846594b336040518263ffffffff1660e01b81526004016108709190611a1d565b602060405180830381865afa15801561088d573d6000803e3d6000fd5b505050506040513d601f19601f820116820180604052508101906108b19190611a64565b6108f0576040517f08c379a00000000000000000000000000000000000000000000000000000000081526004016108e790611add565b60405180910390fd5b60008160405160200161090391906115e0565b60405160208183030381529060405280519060200120905060008060008060007f000000000000000000000000000000000000000000000000000000000000000073ffffffffffffffffffffffffffffffffffffffff1663479487e3886040518263ffffffff1660e01b815260040161097c9190611641565b600060405180830381865afa158015610999573d6000803e3d6000fd5b505050506040513d6000823e3d601f19601f820116820180604052508101906109c2919061174d565b9650965096509650505094506000855103610a12576040517f08c379a0000000000000000000000000000000000000000000000000000000008152600401610a099061188f565b60405180910390fd5b60006002811115610a2657610a256118af565b5b60ff168360ff1614610a6d576040517f08c379a0000000000000000000000000000000000000000000000000000000008152600401610a6490611b49565b60405180910390fd5b60008490506000600282610a819190611b98565b905060008183610a919190611bda565b905080341015610ad6576040517f08c379a0000000000000000000000000000000000000000000000000000000008152600401610acd90611c5a565b60405180910390fd5b60008473ffffffffffffffffffffffffffffffffffffffff1684604051610afc90611cab565b60006040518083038185875af1925050503d8060008114610b39576040519150601f19603f3d011682016040523d82523d6000602084013e610b3e565b606091505b5050905080610b82576040517f08c379a0000000000000000000000000000000000000000000000000000000008152600401610b7990611d0c565b60405180910390fd5b7f000000000000000000000000000000000000000000000000000000000000000073ffffffffffffffffffffffffffffffffffffffff1663d0e30db0846040518263ffffffff1660e01b81526004016000604051808303818588803b158015610bea57600080fd5b505af1158015610bfe573d6000803e3d6000fd5b5050505050826000808c8152602001908152602001600020819055506040518060c001604052803373ffffffffffffffffffffffffffffffffffffffff1681526020013481526020018581526020018481526020014281526020016000151581525060018c604051610c7091906115e0565b908152602001604051809103902060008201518160000160006101000a81548173ffffffffffffffffffffffffffffffffffffffff021916908373ffffffffffffffffffffffffffffffffffffffff1602179055506020820151816001015560408201518160020155606082015181600301556080820151816004015560a08201518160050160006101000a81548160ff0219169083151502179055509050507f000000000000000000000000000000000000000000000000000000000000000073ffffffffffffffffffffffffffffffffffffffff1663c1208b9d8c336040518363ffffffff1660e01b8152600401610d6b929190611d2c565b600060405180830381600087803b158015610d8557600080fd5b505af1158015610d99573d6000803e3d6000fd5b505050507ff1a0c3f8ab969255e049ab09c2a9f65ecb64553f2d201e37c4e091b6a109ee3e8b338686604051610dd29493929190611d5c565b60405180910390a15050505050505050505050565b7f000000000000000000000000000000000000000000000000000000000000000081565b6001818051602081018201805184825260208301602085012081835280955050505050506000915090508060000160009054906101000a900473ffffffffffffffffffffffffffffffffffffffff16908060010154908060020154908060030154908060040154908060050160009054906101000a900460ff16905086565b6000806000806000806000600188604051610ea591906115e0565b90815260200160405180910390206040518060c00160405290816000820160009054906101000a900473ffffffffffffffffffffffffffffffffffffffff1673ffffffffffffffffffffffffffffffffffffffff1673ffffffffffffffffffffffffffffffffffffffff168152602001600182015481526020016002820154815260200160038201548152602001600482015481526020016005820160009054906101000a900460ff1615151515815250509050806000015181602001518260400151836060015184608001518560a001519650965096509650965096505091939550919395565b60008082604051602001610fa191906115e0565b60405160208183030381529060405280519060200120905060008082815260200190815260200160002054915050919050565b6000806000806000600186604051610fec91906115e0565b90815260200160405180910390206040518060c00160405290816000820160009054906101000a900473ffffffffffffffffffffffffffffffffffffffff1673ffffffffffffffffffffffffffffffffffffffff1673ffffffffffffffffffffffffffffffffffffffff168152602001600182015481526020016002820154815260200160038201548152602001600482015481526020016005820160009054906101000a900460ff16151515158152505090508060000151816020015182608001518360a001519450945094509450509193509193565b7f000000000000000000000000000000000000000000000000000000000000000081565b6000604051905090565b600080fd5b600080fd5b600073ffffffffffffffffffffffffffffffffffffffff82169050919050565b6000611127826110fc565b9050919050565b6111378161111c565b811461114257600080fd5b50565b6000813590506111548161112e565b92915050565b6000602082840312156111705761116f6110f2565b5b600061117e84828501611145565b91505092915050565b6000819050919050565b61119a81611187565b82525050565b60006020820190506111b56000830184611191565b92915050565b6000819050919050565b6111ce816111bb565b81146111d957600080fd5b50565b6000813590506111eb816111c5565b92915050565b600060208284031215611207576112066110f2565b5b6000611215848285016111dc565b91505092915050565b6000819050919050565b600061124361123e611239846110fc565b61121e565b6110fc565b9050919050565b600061125582611228565b9050919050565b60006112678261124a565b9050919050565b6112778161125c565b82525050565b6000602082019050611292600083018461126e565b92915050565b600080fd5b600080fd5b6000601f19601f8301169050919050565b7f4e487b7100000000000000000000000000000000000000000000000000000000600052604160045260246000fd5b6112eb826112a2565b810181811067ffffffffffffffff8211171561130a576113096112b3565b5b80604052505050565b600061131d6110e8565b905061132982826112e2565b919050565b600067ffffffffffffffff821115611349576113486112b3565b5b611352826112a2565b9050602081019050919050565b82818337600083830152505050565b600061138161137c8461132e565b611313565b90508281526020810184848401111561139d5761139c61129d565b5b6113a884828561135f565b509392505050565b600082601f8301126113c5576113c4611298565b5b81356113d584826020860161136e565b91505092915050565b6000602082840312156113f4576113f36110f2565b5b600082013567ffffffffffffffff811115611412576114116110f7565b5b61141e848285016113b0565b91505092915050565b60006114328261124a565b9050919050565b61144281611427565b82525050565b600060208201905061145d6000830184611439565b92915050565b61146c8161111c565b82525050565b60008115159050919050565b61148781611472565b82525050565b600060c0820190506114a26000830189611463565b6114af6020830188611191565b6114bc6040830187611191565b6114c96060830186611191565b6114d66080830185611191565b6114e360a083018461147e565b979650505050505050565b60006080820190506115036000830187611463565b6115106020830186611191565b61151d6040830185611191565b61152a606083018461147e565b95945050505050565b600061153e8261124a565b9050919050565b61154e81611533565b82525050565b60006020820190506115696000830184611545565b92915050565b600081519050919050565b600081905092915050565b60005b838110156115a3578082015181840152602081019050611588565b60008484015250505050565b60006115ba8261156f565b6115c4818561157a565b93506115d4818560208601611585565b80840191505092915050565b60006115ec82846115af565b915081905092915050565b600082825260208201905092915050565b60006116138261156f565b61161d81856115f7565b935061162d818560208601611585565b611636816112a2565b840191505092915050565b6000602082019050818103600083015261165b8184611608565b905092915050565b60006116766116718461132e565b611313565b9050828152602081018484840111156116925761169161129d565b5b61169d848285611585565b509392505050565b600082601f8301126116ba576116b9611298565b5b81516116ca848260208601611663565b91505092915050565b6116dc81611187565b81146116e757600080fd5b50565b6000815190506116f9816116d3565b92915050565b600060ff82169050919050565b611715816116ff565b811461172057600080fd5b50565b6000815190506117328161170c565b92915050565b6000815190506117478161112e565b92915050565b600080600080600080600060e0888a03121561176c5761176b6110f2565b5b600088015167ffffffffffffffff81111561178a576117896110f7565b5b6117968a828b016116a5565b975050602088015167ffffffffffffffff8111156117b7576117b66110f7565b5b6117c38a828b016116a5565b965050604088015167ffffffffffffffff8111156117e4576117e36110f7565b5b6117f08a828b016116a5565b95505060606118018a828b016116ea565b94505060806118128a828b01611723565b93505060a06118238a828b01611738565b92505060c06118348a828b01611738565b91505092959891949750929550565b7f436172206e6f7420666f756e6400000000000000000000000000000000000000600082015250565b6000611879600d836115f7565b915061188482611843565b602082019050919050565b600060208201905081810360008301526118a88161186c565b9050919050565b7f4e487b7100000000000000000000000000000000000000000000000000000000600052602160045260246000fd5b7f436172206973206e6f742063757272656e746c792072656e7465640000000000600082015250565b6000611914601b836115f7565b915061191f826118de565b602082019050919050565b6000602082019050818103600083015261194381611907565b9050919050565b7f596f7520617265206e6f74207468652072656e74657200000000000000000000600082015250565b60006119806016836115f7565b915061198b8261194a565b602082019050919050565b600060208201905081810360008301526119af81611973565b9050919050565b60006040820190506119cb6000830185611463565b6119d86020830184611191565b9392505050565b600060608201905081810360008301526119f98186611608565b9050611a086020830185611463565b611a156040830184611191565b949350505050565b6000602082019050611a326000830184611463565b92915050565b611a4181611472565b8114611a4c57600080fd5b50565b600081519050611a5e81611a38565b92915050565b600060208284031215611a7a57611a796110f2565b5b6000611a8884828501611a4f565b91505092915050565b7f4b5943206e6f7420617070726f76656400000000000000000000000000000000600082015250565b6000611ac76010836115f7565b9150611ad282611a91565b602082019050919050565b60006020820190508181036000830152611af681611aba565b9050919050565b7f436172206973206e6f7420617661696c61626c65000000000000000000000000600082015250565b6000611b336014836115f7565b9150611b3e82611afd565b602082019050919050565b60006020820190508181036000830152611b6281611b26565b9050919050565b7f4e487b7100000000000000000000000000000000000000000000000000000000600052601160045260246000fd5b6000611ba382611187565b9150611bae83611187565b9250828202611bbc81611187565b91508282048414831517611bd357611bd2611b69565b5b5092915050565b6000611be582611187565b9150611bf083611187565b9250828201905080821115611c0857611c07611b69565b5b92915050565b7f496e73756666696369656e74207061796d656e74000000000000000000000000600082015250565b6000611c446014836115f7565b9150611c4f82611c0e565b602082019050919050565b60006020820190508181036000830152611c7381611c37565b9050919050565b600081905092915050565b50565b6000611c95600083611c7a565b9150611ca082611c85565b600082019050919050565b6000611cb682611c88565b9150819050919050565b7f5472616e7366657220746f206f776e6572206661696c65640000000000000000600082015250565b6000611cf66018836115f7565b9150611d0182611cc0565b602082019050919050565b60006020820190508181036000830152611d2581611ce9565b9050919050565b60006040820190508181036000830152611d468185611608565b9050611d556020830184611463565b9392505050565b60006080820190508181036000830152611d768187611608565b9050611d856020830186611463565b611d926040830185611191565b611d9f6060830184611191565b9594505050505056fea26469706673582212207af453cd92fef86ebb9b383bbb171665dba1e168298d1b6cc09568bb9366dc4d64736f6c63430008140033",
  "linkReferences": {},
  "deployedLinkReferences": {}
}