{
  "_format": "hh-sol-artifact-1",
  "contractName": "CarRegistry",
  "sourceName": "contracts/CarRegistry.sol",
  "abi": [
    {
      "inputs": [
        {
          "internalType": "string",
          "name": "plateNumber",
          "type": "string"
        },
        {
          "internalType": "string",
          "name": "model",
          "type": "string"
        },
        {
          "internalType": "string",
          "name": "location",
          "type": "string"
        },
        {
          "internalType": "uint256",
          "name": "pricePerDay",
          "type": "uint256"
        }
      ],
      "name": "addCar",
      "outputs": [],
      "stateMutability": "nonpayable",
      "type": "function"
    },
    {
      "inputs": [
        {
          "internalType": "uint256",
          "name": "",
          "type": "uint256"
        }
      ],
      "name": "carPlates",
      "outputs": [
        {
          "internalType": "string",
          "name": "",
          "type": "string"
        }
      ],
      "stateMutability": "view",
      "type": "function"
    },
    {
      "inputs": [
        {
          "internalType": "string",
          "name": "",
          "type": "string"
        }
      ],
      "name": "cars",
      "outputs": [
        {
          "internalType": "string",
          "name": "plateNumber",
          "type": "string"
        },
        {
          "internalType": "string",
          "name": "model",
          "type": "string"
        },
        {
          "internalType": "string",
          "name": "location",
          "type": "string"
        },
        {
          "internalType": "uint256",
          "name": "pricePerDay",
          "type": "uint256"
        },
        {
          "internalType": "uint8",
          "name": "status",
          "type": "uint8"
        },
        {
          "internalType": "address",
          "name": "renter",
          "type": "address"
        },
        {
          "internalType": "address",
          "name": "owner",
          "type": "address"
        }
      ],
      "stateMutability": "view",
      "type": "function"
    },
    {
      "inputs": [
        {
          "internalType": "string",
          "name": "plateNumber",
          "type": "string"
        }
      ],
      "name": "deleteCar",
      "outputs": [],
      "stateMutability": "nonpayable",
      "type": "function"
    },
    {
      "inputs": [
        {
          "internalType": "string",
          "name": "plateNumber",
          "type": "string"
        }
      ],
      "name": "getCar",
      "outputs": [
        {
          "internalType": "string",
          "name": "",
          "type": "string"
        },
        {
          "internalType": "string",
          "name": "",
          "type": "string"
        },
        {
          "internalType": "string",
          "name": "",
          "type": "string"
        },
        {
          "internalType": "uint256",
          "name": "",
          "type": "uint256"
        },
        {
          "internalType": "uint8",
          "name": "",
          "type": "uint8"
        },
        {
          "internalType": "address",
          "name": "",
          "type": "address"
        },
        {
          "internalType": "address",
          "name": "",
          "type": "address"
        }
      ],
      "stateMutability": "view",
      "type": "function"
    },
    {
      "inputs": [],
      "name": "getCarPlates",
      "outputs": [
        {
          "internalType": "string[]",
          "name": "",
          "type": "string[]"
        }
      ],
      "stateMutability": "view",
      "type": "function"
    },
    {
      "inputs": [
        {
          "internalType": "string",
          "name": "plateNumber",
          "type": "string"
        }
      ],
      "name": "setCarAvailable",
      "outputs": [],
      "stateMutability": "nonpayable",
      "type": "function"
    },
    {
      "inputs": [
        {
          "internalType": "string",
          "name": "plateNumber",
          "type": "string"
        },
        {
          "internalType": "address",
          "name": "renter",
          "type": "address"
        }
      ],
      "name": "setCarRented",
      "outputs": [],
      "stateMutability": "nonpayable",
      "type": "function"
    },
    {
      "inputs": [
        {
          "internalType": "string",
          "name": "plateNumber",
          "type": "string"
        },
        {
          "internalType": "string",
          "name": "model",
          "type": "string"
        },
        {
          "internalType": "string",
          "name": "location",
          "type": "string"
        },
        {
          "internalType": "uint256",
          "name": "pricePerDay",
          "type": "uint256"
        }
      ],
      "name": "updateCar",
      "outputs": [],
      "stateMutability": "nonpayable",
      "type": "function"
    }
  ],
  "bytecode": "0x608060405234801561001057600080fd5b50611fa4806100206000396000f3fe608060405234801561001057600080fd5b50600436106100935760003560e01c8063c1208b9d11610066578063c1208b9d1461013e578063d2d50bd81461015a578063dd4f5b9714610176578063e2a9e6c4146101a6578063fd76ce04146101c257610093565b8063367495471461009857806341a2d180146100b4578063479487e3146100ea5780639ffd058a14610120575b600080fd5b6100b260048036038101906100ad9190611375565b6101de565b005b6100ce60048036038101906100c99190611375565b6102ec565b6040516100e197969594939291906114b3565b60405180910390f35b61010460048036038101906100ff9190611375565b610529565b60405161011797969594939291906114b3565b60405180910390f35b610128610897565b6040516101359190611643565b60405180910390f35b61015860048036038101906101539190611691565b610970565b005b610174600480360381019061016f9190611719565b610a80565b005b610190600480360381019061018b91906117d4565b610caa565b60405161019d9190611801565b60405180910390f35b6101c060048036038101906101bb9190611719565b610d56565b005b6101dc60048036038101906101d79190611375565b610eed565b005b80600080826040516101f0919061185f565b9081526020016040518091039020600001805461020c906118a5565b90500361024e576040517f08c379a000000000000000000000000000000000000000000000000000000000815260040161024590611922565b60405180910390fd5b6000808360405161025f919061185f565b908152602001604051809103902060040160006101000a81548160ff021916908360ff16021790555060008083604051610299919061185f565b908152602001604051809103902060040160016101000a81548173ffffffffffffffffffffffffffffffffffffffff021916908373ffffffffffffffffffffffffffffffffffffffff1602179055505050565b600081805160208101820180518482526020830160208501208183528095505050505050600091509050806000018054610325906118a5565b80601f0160208091040260200160405190810160405280929190818152602001828054610351906118a5565b801561039e5780601f106103735761010080835404028352916020019161039e565b820191906000526020600020905b81548152906001019060200180831161038157829003601f168201915b5050505050908060010180546103b3906118a5565b80601f01602080910402602001604051908101604052809291908181526020018280546103df906118a5565b801561042c5780601f106104015761010080835404028352916020019161042c565b820191906000526020600020905b81548152906001019060200180831161040f57829003601f168201915b505050505090806002018054610441906118a5565b80601f016020809104026020016040519081016040528092919081815260200182805461046d906118a5565b80156104ba5780601f1061048f576101008083540402835291602001916104ba565b820191906000526020600020905b81548152906001019060200180831161049d57829003601f168201915b5050505050908060030154908060040160009054906101000a900460ff16908060040160019054906101000a900473ffffffffffffffffffffffffffffffffffffffff16908060050160009054906101000a900473ffffffffffffffffffffffffffffffffffffffff16905087565b60608060606000806000808760008082604051610546919061185f565b90815260200160405180910390206000018054610562906118a5565b9050036105a4576040517f08c379a000000000000000000000000000000000000000000000000000000000815260040161059b90611922565b60405180910390fd5b6000808a6040516105b5919061185f565b90815260200160405180910390206040518060e00160405290816000820180546105de906118a5565b80601f016020809104026020016040519081016040528092919081815260200182805461060a906118a5565b80156106575780601f1061062c57610100808354040283529160200191610657565b820191906000526020600020905b81548152906001019060200180831161063a57829003601f168201915b50505050508152602001600182018054610670906118a5565b80601f016020809104026020016040519081016040528092919081815260200182805461069c906118a5565b80156106e95780601f106106be576101008083540402835291602001916106e9565b820191906000526020600020905b8154815290600101906020018083116106cc57829003601f168201915b50505050508152602001600282018054610702906118a5565b80601f016020809104026020016040519081016040528092919081815260200182805461072e906118a5565b801561077b5780601f106107505761010080835404028352916020019161077b565b820191906000526020600020905b81548152906001019060200180831161075e57829003601f168201915b50505050508152602001600382015481526020016004820160009054906101000a900460ff1660ff1660ff1681526020016004820160019054906101000a900473ffffffffffffffffffffffffffffffffffffffff1673ffffffffffffffffffffffffffffffffffffffff1673ffffffffffffffffffffffffffffffffffffffff1681526020016005820160009054906101000a900473ffffffffffffffffffffffffffffffffffffffff1673ffffffffffffffffffffffffffffffffffffffff1673ffffffffffffffffffffffffffffffffffffffff16815250509050806000015181602001518260400151836060015184608001518560a001518660c0015198509850985098509850985098505050919395979092949650565b60606001805480602002602001604051908101604052809291908181526020016000905b828210156109675783829060005260206000200180546108da906118a5565b80601f0160208091040260200160405190810160405280929190818152602001828054610906906118a5565b80156109535780601f1061092857610100808354040283529160200191610953565b820191906000526020600020905b81548152906001019060200180831161093657829003601f168201915b5050505050815260200190600101906108bb565b50505050905090565b8160008082604051610982919061185f565b9081526020016040518091039020600001805461099e906118a5565b9050036109e0576040517f08c379a00000000000000000000000000000000000000000000000000000000081526004016109d790611922565b60405180910390fd5b60016000846040516109f2919061185f565b908152602001604051809103902060040160006101000a81548160ff021916908360ff16021790555081600084604051610a2c919061185f565b908152602001604051809103902060040160016101000a81548173ffffffffffffffffffffffffffffffffffffffff021916908373ffffffffffffffffffffffffffffffffffffffff160217905550505050565b60008085604051610a91919061185f565b90815260200160405180910390206000018054610aad906118a5565b905014610aef576040517f08c379a0000000000000000000000000000000000000000000000000000000008152600401610ae69061198e565b60405180910390fd5b6040518060e00160405280858152602001848152602001838152602001828152602001600060ff168152602001600073ffffffffffffffffffffffffffffffffffffffff1681526020013373ffffffffffffffffffffffffffffffffffffffff16815250600085604051610b63919061185f565b90815260200160405180910390206000820151816000019081610b869190611b5a565b506020820151816001019081610b9c9190611b5a565b506040820151816002019081610bb29190611b5a565b506060820151816003015560808201518160040160006101000a81548160ff021916908360ff16021790555060a08201518160040160016101000a81548173ffffffffffffffffffffffffffffffffffffffff021916908373ffffffffffffffffffffffffffffffffffffffff16021790555060c08201518160050160006101000a81548173ffffffffffffffffffffffffffffffffffffffff021916908373ffffffffffffffffffffffffffffffffffffffff160217905550905050600184908060018154018082558091505060019003906000526020600020016000909190919091509081610ca39190611b5a565b5050505050565b60018181548110610cba57600080fd5b906000526020600020016000915090508054610cd5906118a5565b80601f0160208091040260200160405190810160405280929190818152602001828054610d01906118a5565b8015610d4e5780601f10610d2357610100808354040283529160200191610d4e565b820191906000526020600020905b815481529060010190602001808311610d3157829003601f168201915b505050505081565b8360008082604051610d68919061185f565b90815260200160405180910390206000018054610d84906118a5565b905003610dc6576040517f08c379a0000000000000000000000000000000000000000000000000000000008152600401610dbd90611922565b60405180910390fd5b843373ffffffffffffffffffffffffffffffffffffffff16600082604051610dee919061185f565b908152602001604051809103902060050160009054906101000a900473ffffffffffffffffffffffffffffffffffffffff1673ffffffffffffffffffffffffffffffffffffffff1614610e76576040517f08c379a0000000000000000000000000000000000000000000000000000000008152600401610e6d90611c78565b60405180910390fd5b60008087604051610e87919061185f565b90815260200160405180910390209050600086511115610eb45785816001019081610eb29190611b5a565b505b600085511115610ed15784816002019081610ecf9190611b5a565b505b6000841115610ee4578381600301819055505b50505050505050565b8060008082604051610eff919061185f565b90815260200160405180910390206000018054610f1b906118a5565b905003610f5d576040517f08c379a0000000000000000000000000000000000000000000000000000000008152600401610f5490611922565b60405180910390fd5b813373ffffffffffffffffffffffffffffffffffffffff16600082604051610f85919061185f565b908152602001604051809103902060050160009054906101000a900473ffffffffffffffffffffffffffffffffffffffff1673ffffffffffffffffffffffffffffffffffffffff161461100d576040517f08c379a000000000000000000000000000000000000000000000000000000000815260040161100490611c78565b60405180910390fd5b60008360405161101d919061185f565b90815260200160405180910390206000808201600061103c91906111be565b60018201600061104c91906111be565b60028201600061105c91906111be565b60038201600090556004820160006101000a81549060ff02191690556004820160016101000a81549073ffffffffffffffffffffffffffffffffffffffff02191690556005820160006101000a81549073ffffffffffffffffffffffffffffffffffffffff0219169055505060005b6001805490508110156111b8578380519060200120600182815481106110f4576110f3611c98565b5b9060005260206000200160405161110b9190611d6a565b6040518091039020036111a557600180808054905061112a9190611db0565b8154811061113b5761113a611c98565b5b906000526020600020016001828154811061115957611158611c98565b5b90600052602060002001908161116f9190611e0f565b50600180548061118257611181611ef7565b5b60019003818190600052602060002001600061119e91906111be565b90556111b8565b80806111b090611f26565b9150506110cb565b50505050565b5080546111ca906118a5565b6000825580601f106111dc57506111fb565b601f0160209004906000526020600020908101906111fa91906111fe565b5b50565b5b808211156112175760008160009055506001016111ff565b5090565b6000604051905090565b600080fd5b600080fd5b600080fd5b600080fd5b6000601f19601f8301169050919050565b7f4e487b7100000000000000000000000000000000000000000000000000000000600052604160045260246000fd5b61128282611239565b810181811067ffffffffffffffff821117156112a1576112a061124a565b5b80604052505050565b60006112b461121b565b90506112c08282611279565b919050565b600067ffffffffffffffff8211156112e0576112df61124a565b5b6112e982611239565b9050602081019050919050565b82818337600083830152505050565b6000611318611313846112c5565b6112aa565b90508281526020810184848401111561133457611333611234565b5b61133f8482856112f6565b509392505050565b600082601f83011261135c5761135b61122f565b5b813561136c848260208601611305565b91505092915050565b60006020828403121561138b5761138a611225565b5b600082013567ffffffffffffffff8111156113a9576113a861122a565b5b6113b584828501611347565b91505092915050565b600081519050919050565b600082825260208201905092915050565b60005b838110156113f85780820151818401526020810190506113dd565b60008484015250505050565b600061140f826113be565b61141981856113c9565b93506114298185602086016113da565b61143281611239565b840191505092915050565b6000819050919050565b6114508161143d565b82525050565b600060ff82169050919050565b61146c81611456565b82525050565b600073ffffffffffffffffffffffffffffffffffffffff82169050919050565b600061149d82611472565b9050919050565b6114ad81611492565b82525050565b600060e08201905081810360008301526114cd818a611404565b905081810360208301526114e18189611404565b905081810360408301526114f58188611404565b90506115046060830187611447565b6115116080830186611463565b61151e60a08301856114a4565b61152b60c08301846114a4565b98975050505050505050565b600081519050919050565b600082825260208201905092915050565b6000819050602082019050919050565b600082825260208201905092915050565b600061157f826113be565b6115898185611563565b93506115998185602086016113da565b6115a281611239565b840191505092915050565b60006115b98383611574565b905092915050565b6000602082019050919050565b60006115d982611537565b6115e38185611542565b9350836020820285016115f585611553565b8060005b85811015611631578484038952815161161285826115ad565b945061161d836115c1565b925060208a019950506001810190506115f9565b50829750879550505050505092915050565b6000602082019050818103600083015261165d81846115ce565b905092915050565b61166e81611492565b811461167957600080fd5b50565b60008135905061168b81611665565b92915050565b600080604083850312156116a8576116a7611225565b5b600083013567ffffffffffffffff8111156116c6576116c561122a565b5b6116d285828601611347565b92505060206116e38582860161167c565b9150509250929050565b6116f68161143d565b811461170157600080fd5b50565b600081359050611713816116ed565b92915050565b6000806000806080858703121561173357611732611225565b5b600085013567ffffffffffffffff8111156117515761175061122a565b5b61175d87828801611347565b945050602085013567ffffffffffffffff81111561177e5761177d61122a565b5b61178a87828801611347565b935050604085013567ffffffffffffffff8111156117ab576117aa61122a565b5b6117b787828801611347565b92505060606117c887828801611704565b91505092959194509250565b6000602082840312156117ea576117e9611225565b5b60006117f884828501611704565b91505092915050565b6000602082019050818103600083015261181b8184611404565b905092915050565b600081905092915050565b6000611839826113be565b6118438185611823565b93506118538185602086016113da565b80840191505092915050565b600061186b828461182e565b915081905092915050565b7f4e487b7100000000000000000000000000000000000000000000000000000000600052602260045260246000fd5b600060028204905060018216806118bd57607f821691505b6020821081036118d0576118cf611876565b5b50919050565b7f43617220646f6573206e6f742065786973740000000000000000000000000000600082015250565b600061190c6012836113c9565b9150611917826118d6565b602082019050919050565b6000602082019050818103600083015261193b816118ff565b9050919050565b7f43617220616c7265616479206578697374730000000000000000000000000000600082015250565b60006119786012836113c9565b915061198382611942565b602082019050919050565b600060208201905081810360008301526119a78161196b565b9050919050565b60008190508160005260206000209050919050565b60006020601f8301049050919050565b600082821b905092915050565b600060088302611a107fffffffffffffffffffffffffffffffffffffffffffffffffffffffffffffffff826119d3565b611a1a86836119d3565b95508019841693508086168417925050509392505050565b6000819050919050565b6000611a57611a52611a4d8461143d565b611a32565b61143d565b9050919050565b6000819050919050565b611a7183611a3c565b611a85611a7d82611a5e565b8484546119e0565b825550505050565b600090565b611a9a611a8d565b611aa5818484611a68565b505050565b5b81811015611ac957611abe600082611a92565b600181019050611aab565b5050565b601f821115611b0e57611adf816119ae565b611ae8846119c3565b81016020851015611af7578190505b611b0b611b03856119c3565b830182611aaa565b50505b505050565b600082821c905092915050565b6000611b3160001984600802611b13565b1980831691505092915050565b6000611b4a8383611b20565b9150826002028217905092915050565b611b63826113be565b67ffffffffffffffff811115611b7c57611b7b61124a565b5b611b8682546118a5565b611b91828285611acd565b600060209050601f831160018114611bc45760008415611bb2578287015190505b611bbc8582611b3e565b865550611c24565b601f198416611bd2866119ae565b60005b82811015611bfa57848901518255600182019150602085019450602081019050611bd5565b86831015611c175784890151611c13601f891682611b20565b8355505b6001600288020188555050505b505050505050565b7f4f6e6c7920636172206f776e65722063616e206d6f6469667900000000000000600082015250565b6000611c626019836113c9565b9150611c6d82611c2c565b602082019050919050565b60006020820190508181036000830152611c9181611c55565b9050919050565b7f4e487b7100000000000000000000000000000000000000000000000000000000600052603260045260246000fd5b600081905092915050565b60008190508160005260206000209050919050565b60008154611cf4816118a5565b611cfe8186611cc7565b94506001821660008114611d195760018114611d2e57611d61565b60ff1983168652811515820286019350611d61565b611d3785611cd2565b60005b83811015611d5957815481890152600182019150602081019050611d3a565b838801955050505b50505092915050565b6000611d768284611ce7565b915081905092915050565b7f4e487b7100000000000000000000000000000000000000000000000000000000600052601160045260246000fd5b6000611dbb8261143d565b9150611dc68361143d565b9250828203905081811115611dde57611ddd611d81565b5b92915050565b600081549050611df3816118a5565b9050919050565b60008190508160005260206000209050919050565b818103611e1d575050611ef5565b611e2682611de4565b67ffffffffffffffff811115611e3f57611e3e61124a565b5b611e4982546118a5565b611e54828285611acd565b6000601f831160018114611e835760008415611e71578287015490505b611e7b8582611b3e565b865550611eee565b601f198416611e9187611dfa565b9650611e9c866119ae565b60005b82811015611ec457848901548255600182019150600185019450602081019050611e9f565b86831015611ee15784890154611edd601f891682611b20565b8355505b6001600288020188555050505b5050505050505b565b7f4e487b7100000000000000000000000000000000000000000000000000000000600052603160045260246000fd5b6000611f318261143d565b91507fffffffffffffffffffffffffffffffffffffffffffffffffffffffffffffffff8203611f6357611f62611d81565b5b60018201905091905056fea2646970667358221220a32e538d8cedde0e230d7cff80444abb2b9be1921969df1cd4a85a94aa9f5c3a64736f6c63430008140033",
  "linkReferences": {},
  "deployedLinkReferences": {}
}