{
  "_format": "hh-sol-artifact-1",
  "contractName": "CarRental",
  "sourceName": "contracts/CarRental.sol",
  "abi": [
    {
      "inputs": [
        {
          "internalType": "address",
          "name": "_carRegistry",
          "type": "address"
        },
        {
          "internalType": "address",
          "name": "_kycManager",
          "type": "address"
        },
        {
          "internalType": "address",
          "name": "_vault",
          "type": "address"
        }
      ],
      "stateMutability": "nonpayable",
      "type": "constructor"
    },
    {
      "inputs": [],
      "name": "carRegistry",
      "outputs": [
        {
          "internalType": "contract ICarRegistry",
          "name": "",
          "type": "address"
        }
      ],
      "stateMutability": "view",
      "type": "function"
    },
    {
      "inputs": [
        {
          "internalType": "uint256",
          "name": "carId",
          "type": "uint256"
        }
      ],
      "name": "completeRental",
      "outputs": [],
      "stateMutability": "nonpayable",
      "type": "function"
    },
    {
      "inputs": [
        {
          "internalType": "uint256",
          "name": "",
          "type": "uint256"
        }
      ],
      "name": "deposits",
      "outputs": [
        {
          "internalType": "uint256",
          "name": "",
          "type": "uint256"
        }
      ],
      "stateMutability": "view",
      "type": "function"
    },
    {
      "inputs": [
        {
          "internalType": "uint256",
          "name": "carId",
          "type": "uint256"
        }
      ],
      "name": "getDeposit",
      "outputs": [
        {
          "internalType": "uint256",
          "name": "",
          "type": "uint256"
        }
      ],
      "stateMutability": "view",
      "type": "function"
    },
    {
      "inputs": [],
      "name": "kycManager",
      "outputs": [
        {
          "internalType": "contract IKYCManager",
          "name": "",
          "type": "address"
        }
      ],
      "stateMutability": "view",
      "type": "function"
    },
    {
      "inputs": [
        {
          "internalType": "uint256",
          "name": "carId",
          "type": "uint256"
        }
      ],
      "name": "rentCar",
      "outputs": [],
      "stateMutability": "payable",
      "type": "function"
    },
    {
      "inputs": [],
      "name": "vault",
      "outputs": [
        {
          "internalType": "contract IRentalVault",
          "name": "",
          "type": "address"
        }
      ],
      "stateMutability": "view",
      "type": "function"
    }
  ],
  "bytecode": "0x60e06040523480156200001157600080fd5b506040516200116138038062001161833981810160405281019062000037919062000146565b8273ffffffffffffffffffffffffffffffffffffffff1660808173ffffffffffffffffffffffffffffffffffffffff16815250508173ffffffffffffffffffffffffffffffffffffffff1660a08173ffffffffffffffffffffffffffffffffffffffff16815250508073ffffffffffffffffffffffffffffffffffffffff1660c08173ffffffffffffffffffffffffffffffffffffffff1681525050505050620001a2565b600080fd5b600073ffffffffffffffffffffffffffffffffffffffff82169050919050565b60006200010e82620000e1565b9050919050565b620001208162000101565b81146200012c57600080fd5b50565b600081519050620001408162000115565b92915050565b600080600060608486031215620001625762000161620000dc565b5b600062000172868287016200012f565b935050602062000185868287016200012f565b925050604062000198868287016200012f565b9150509250925092565b60805160a05160c051610f5e62000203600039600081816103be0152818161074a01526107d00152600081816101db01526104850152600081816101b701528181610202015281816103040152818161056101526106bd0152610f5e6000f3fe6080604052600436106100705760003560e01c80639f9fb9681161004e5780639f9fb968146100f4578063b02c43d014610131578063e1e8aab71461016e578063fbfa77cf1461018a57610070565b806358685ddb146100755780637afea44f146100a0578063896f018f146100cb575b600080fd5b34801561008157600080fd5b5061008a6101b5565b6040516100979190610871565b60405180910390f35b3480156100ac57600080fd5b506100b56101d9565b6040516100c291906108ad565b60405180910390f35b3480156100d757600080fd5b506100f260048036038101906100ed9190610912565b6101fd565b005b34801561010057600080fd5b5061011b60048036038101906101169190610912565b61044f565b604051610128919061094e565b60405180910390f35b34801561013d57600080fd5b5061015860048036038101906101539190610912565b61046b565b604051610165919061094e565b60405180910390f35b61018860048036038101906101839190610912565b610483565b005b34801561019657600080fd5b5061019f6107ce565b6040516101ac919061098a565b60405180910390f35b7f000000000000000000000000000000000000000000000000000000000000000081565b7f000000000000000000000000000000000000000000000000000000000000000081565b6000807f000000000000000000000000000000000000000000000000000000000000000073ffffffffffffffffffffffffffffffffffffffff16635e8be190846040518263ffffffff1660e01b8152600401610259919061094e565b600060405180830381865afa158015610276573d6000803e3d6000fd5b505050506040513d6000823e3d601f19601f8201168201806040525081019061029f9190610b92565b9550955050505050600160028111156102bb576102ba610c57565b5b60ff168260ff1614610302576040517f08c379a00000000000000000000000000000000000000000000000000000000081526004016102f990610ce3565b60405180910390fd5b7f000000000000000000000000000000000000000000000000000000000000000073ffffffffffffffffffffffffffffffffffffffff166301a572bf846040518263ffffffff1660e01b815260040161035b919061094e565b600060405180830381600087803b15801561037557600080fd5b505af1158015610389573d6000803e3d6000fd5b5050505060008060008581526020019081526020016000205490506000806000868152602001908152602001600020819055507f000000000000000000000000000000000000000000000000000000000000000073ffffffffffffffffffffffffffffffffffffffff1663410085df83836040518363ffffffff1660e01b8152600401610417929190610d12565b600060405180830381600087803b15801561043157600080fd5b505af1158015610445573d6000803e3d6000fd5b5050505050505050565b6000806000838152602001908152602001600020549050919050565b60006020528060005260406000206000915090505481565b7f000000000000000000000000000000000000000000000000000000000000000073ffffffffffffffffffffffffffffffffffffffff16638846594b336040518263ffffffff1660e01b81526004016104dc9190610d3b565b602060405180830381865afa1580156104f9573d6000803e3d6000fd5b505050506040513d601f19601f8201168201806040525081019061051d9190610d8e565b61055c576040517f08c379a000000000000000000000000000000000000000000000000000000000815260040161055390610e07565b60405180910390fd5b6000807f000000000000000000000000000000000000000000000000000000000000000073ffffffffffffffffffffffffffffffffffffffff16635e8be190846040518263ffffffff1660e01b81526004016105b8919061094e565b600060405180830381865afa1580156105d5573d6000803e3d6000fd5b505050506040513d6000823e3d601f19601f820116820180604052508101906105fe9190610b92565b50945094505050506000600281111561061a57610619610c57565b5b60ff168160ff1614610661576040517f08c379a000000000000000000000000000000000000000000000000000000000815260040161065890610e73565b60405180910390fd5b813410156106a4576040517f08c379a000000000000000000000000000000000000000000000000000000000815260040161069b90610edf565b60405180910390fd5b34600080858152602001908152602001600020819055507f000000000000000000000000000000000000000000000000000000000000000073ffffffffffffffffffffffffffffffffffffffff166334f6616c84336040518363ffffffff1660e01b8152600401610716929190610eff565b600060405180830381600087803b15801561073057600080fd5b505af1158015610744573d6000803e3d6000fd5b505050507f000000000000000000000000000000000000000000000000000000000000000073ffffffffffffffffffffffffffffffffffffffff1663d0e30db0346040518263ffffffff1660e01b81526004016000604051808303818588803b1580156107b057600080fd5b505af11580156107c4573d6000803e3d6000fd5b5050505050505050565b7f000000000000000000000000000000000000000000000000000000000000000081565b600073ffffffffffffffffffffffffffffffffffffffff82169050919050565b6000819050919050565b600061083761083261082d846107f2565b610812565b6107f2565b9050919050565b60006108498261081c565b9050919050565b600061085b8261083e565b9050919050565b61086b81610850565b82525050565b60006020820190506108866000830184610862565b92915050565b60006108978261083e565b9050919050565b6108a78161088c565b82525050565b60006020820190506108c2600083018461089e565b92915050565b6000604051905090565b600080fd5b600080fd5b6000819050919050565b6108ef816108dc565b81146108fa57600080fd5b50565b60008135905061090c816108e6565b92915050565b600060208284031215610928576109276108d2565b5b6000610936848285016108fd565b91505092915050565b610948816108dc565b82525050565b6000602082019050610963600083018461093f565b92915050565b60006109748261083e565b9050919050565b61098481610969565b82525050565b600060208201905061099f600083018461097b565b92915050565b6000815190506109b4816108e6565b92915050565b600080fd5b600080fd5b6000601f19601f8301169050919050565b7f4e487b7100000000000000000000000000000000000000000000000000000000600052604160045260246000fd5b610a0d826109c4565b810181811067ffffffffffffffff82111715610a2c57610a2b6109d5565b5b80604052505050565b6000610a3f6108c8565b9050610a4b8282610a04565b919050565b600067ffffffffffffffff821115610a6b57610a6a6109d5565b5b610a74826109c4565b9050602081019050919050565b60005b83811015610a9f578082015181840152602081019050610a84565b60008484015250505050565b6000610abe610ab984610a50565b610a35565b905082815260208101848484011115610ada57610ad96109bf565b5b610ae5848285610a81565b509392505050565b600082601f830112610b0257610b016109ba565b5b8151610b12848260208601610aab565b91505092915050565b600060ff82169050919050565b610b3181610b1b565b8114610b3c57600080fd5b50565b600081519050610b4e81610b28565b92915050565b6000610b5f826107f2565b9050919050565b610b6f81610b54565b8114610b7a57600080fd5b50565b600081519050610b8c81610b66565b92915050565b60008060008060008060c08789031215610baf57610bae6108d2565b5b6000610bbd89828a016109a5565b965050602087015167ffffffffffffffff811115610bde57610bdd6108d7565b5b610bea89828a01610aed565b955050604087015167ffffffffffffffff811115610c0b57610c0a6108d7565b5b610c1789828a01610aed565b9450506060610c2889828a016109a5565b9350506080610c3989828a01610b3f565b92505060a0610c4a89828a01610b7d565b9150509295509295509295565b7f4e487b7100000000000000000000000000000000000000000000000000000000600052602160045260246000fd5b600082825260208201905092915050565b7f436172206973206e6f742063757272656e746c792072656e7465640000000000600082015250565b6000610ccd601b83610c86565b9150610cd882610c97565b602082019050919050565b60006020820190508181036000830152610cfc81610cc0565b9050919050565b610d0c81610b54565b82525050565b6000604082019050610d276000830185610d03565b610d34602083018461093f565b9392505050565b6000602082019050610d506000830184610d03565b92915050565b60008115159050919050565b610d6b81610d56565b8114610d7657600080fd5b50565b600081519050610d8881610d62565b92915050565b600060208284031215610da457610da36108d2565b5b6000610db284828501610d79565b91505092915050565b7f4b5943206e6f7420617070726f76656400000000000000000000000000000000600082015250565b6000610df1601083610c86565b9150610dfc82610dbb565b602082019050919050565b60006020820190508181036000830152610e2081610de4565b9050919050565b7f436172206973206e6f7420617661696c61626c65000000000000000000000000600082015250565b6000610e5d601483610c86565b9150610e6882610e27565b602082019050919050565b60006020820190508181036000830152610e8c81610e50565b9050919050565b7f496e73756666696369656e74207061796d656e74000000000000000000000000600082015250565b6000610ec9601483610c86565b9150610ed482610e93565b602082019050919050565b60006020820190508181036000830152610ef881610ebc565b9050919050565b6000604082019050610f14600083018561093f565b610f216020830184610d03565b939250505056fea264697066735822122029f63b03f5d3196156f0f104d39d39b482583f847dd49cff699582addaf811b864736f6c63430008140033",
  "linkReferences": {},
  "deployedLinkReferences": {}
}