{
  "_format": "hh-sol-artifact-1",
  "contractName": "CarRental",
  "sourceName": "contracts/CarRental.sol",
  "abi": [
    {
      "inputs": [
        {
          "internalType": "address",
          "name": "_carRegistry",
          "type": "address"
        },
        {
          "internalType": "address",
          "name": "_kycManager",
          "type": "address"
        },
        {
          "internalType": "address",
          "name": "_vault",
          "type": "address"
        }
      ],
      "stateMutability": "nonpayable",
      "type": "constructor"
    },
    {
      "anonymous": false,
      "inputs": [
        {
          "indexed": false,
          "internalType": "string",
          "name": "plateNumber",
          "type": "string"
        },
        {
          "indexed": false,
          "internalType": "address",
          "name": "renter",
          "type": "address"
        },
        {
          "indexed": false,
          "internalType": "uint256",
          "name": "rentalFee",
          "type": "uint256"
        },
        {
          "indexed": false,
          "internalType": "uint256",
          "name": "deposit",
          "type": "uint256"
        }
      ],
      "name": "CarRented",
      "type": "event"
    },
    {
      "anonymous": false,
      "inputs": [
        {
          "indexed": false,
          "internalType": "string",
          "name": "plateNumber",
          "type": "string"
        },
        {
          "indexed": false,
          "internalType": "address",
          "name": "renter",
          "type": "address"
        },
        {
          "indexed": false,
          "internalType": "uint256",
          "name": "refundedDeposit",
          "type": "uint256"
        }
      ],
      "name": "CarReturned",
      "type": "event"
    },
    {
      "inputs": [],
      "name": "DEPOSIT_MULTIPLIER",
      "outputs": [
        {
          "internalType": "uint256",
          "name": "",
          "type": "uint256"
        }
      ],
      "stateMutability": "view",
      "type": "function"
    },
    {
      "inputs": [],
      "name": "carRegistry",
      "outputs": [
        {
          "internalType": "contract ICarRegistry",
          "name": "",
          "type": "address"
        }
      ],
      "stateMutability": "view",
      "type": "function"
    },
    {
      "inputs": [
        {
          "internalType": "string",
          "name": "plateNumber",
          "type": "string"
        }
      ],
      "name": "completeRental",
      "outputs": [],
      "stateMutability": "nonpayable",
      "type": "function"
    },
    {
      "inputs": [
        {
          "internalType": "bytes32",
          "name": "",
          "type": "bytes32"
        }
      ],
      "name": "deposits",
      "outputs": [
        {
          "internalType": "uint256",
          "name": "",
          "type": "uint256"
        }
      ],
      "stateMutability": "view",
      "type": "function"
    },
    {
      "inputs": [
        {
          "internalType": "string",
          "name": "plateNumber",
          "type": "string"
        }
      ],
      "name": "getDeposit",
      "outputs": [
        {
          "internalType": "uint256",
          "name": "",
          "type": "uint256"
        }
      ],
      "stateMutability": "view",
      "type": "function"
    },
    {
      "inputs": [],
      "name": "getDepositMultiplier",
      "outputs": [
        {
          "internalType": "uint256",
          "name": "",
          "type": "uint256"
        }
      ],
      "stateMutability": "pure",
      "type": "function"
    },
    {
      "inputs": [
        {
          "internalType": "string",
          "name": "plateNumber",
          "type": "string"
        }
      ],
      "name": "getDetailedRentalInfo",
      "outputs": [
        {
          "internalType": "address",
          "name": "renter",
          "type": "address"
        },
        {
          "internalType": "uint256",
          "name": "totalPaid",
          "type": "uint256"
        },
        {
          "internalType": "uint256",
          "name": "rentalFee",
          "type": "uint256"
        },
        {
          "internalType": "uint256",
          "name": "depositAmount",
          "type": "uint256"
        },
        {
          "internalType": "uint256",
          "name": "timestamp",
          "type": "uint256"
        },
        {
          "internalType": "bool",
          "name": "returned",
          "type": "bool"
        }
      ],
      "stateMutability": "view",
      "type": "function"
    },
    {
      "inputs": [
        {
          "internalType": "string",
          "name": "plateNumber",
          "type": "string"
        }
      ],
      "name": "getRentalInfo",
      "outputs": [
        {
          "internalType": "address",
          "name": "renter",
          "type": "address"
        },
        {
          "internalType": "uint256",
          "name": "amountPaid",
          "type": "uint256"
        },
        {
          "internalType": "uint256",
          "name": "timestamp",
          "type": "uint256"
        },
        {
          "internalType": "bool",
          "name": "returned",
          "type": "bool"
        }
      ],
      "stateMutability": "view",
      "type": "function"
    },
    {
      "inputs": [],
      "name": "kycManager",
      "outputs": [
        {
          "internalType": "contract IKYCManager",
          "name": "",
          "type": "address"
        }
      ],
      "stateMutability": "view",
      "type": "function"
    },
    {
      "inputs": [
        {
          "internalType": "string",
          "name": "plateNumber",
          "type": "string"
        }
      ],
      "name": "rentCar",
      "outputs": [],
      "stateMutability": "payable",
      "type": "function"
    },
    {
      "inputs": [
        {
          "internalType": "string",
          "name": "",
          "type": "string"
        }
      ],
      "name": "rentalRecords",
      "outputs": [
        {
          "internalType": "address",
          "name": "renter",
          "type": "address"
        },
        {
          "internalType": "uint256",
          "name": "amountPaid",
          "type": "uint256"
        },
        {
          "internalType": "uint256",
          "name": "rentalFee",
          "type": "uint256"
        },
        {
          "internalType": "uint256",
          "name": "depositAmount",
          "type": "uint256"
        },
        {
          "internalType": "uint256",
          "name": "timestamp",
          "type": "uint256"
        },
        {
          "internalType": "bool",
          "name": "returned",
          "type": "bool"
        }
      ],
      "stateMutability": "view",
      "type": "function"
    },
    {
      "inputs": [],
      "name": "vault",
      "outputs": [
        {
          "internalType": "contract IRentalVault",
          "name": "",
          "type": "address"
        }
      ],
      "stateMutability": "view",
      "type": "function"
    }
  ],
  "bytecode": "0x60e06040523480156200001157600080fd5b5060405162001e8e38038062001e8e833981810160405281019062000037919062000146565b8273ffffffffffffffffffffffffffffffffffffffff1660808173ffffffffffffffffffffffffffffffffffffffff16815250508173ffffffffffffffffffffffffffffffffffffffff1660a08173ffffffffffffffffffffffffffffffffffffffff16815250508073ffffffffffffffffffffffffffffffffffffffff1660c08173ffffffffffffffffffffffffffffffffffffffff1681525050505050620001a2565b600080fd5b600073ffffffffffffffffffffffffffffffffffffffff82169050919050565b60006200010e82620000e1565b9050919050565b620001208162000101565b81146200012c57600080fd5b50565b600081519050620001408162000115565b92915050565b600080600060608486031215620001625762000161620000dc565b5b600062000172868287016200012f565b935050602062000185868287016200012f565b925050604062000198868287016200012f565b9150509250925092565b60805160a05160c051611c8b62000203600039600081816105fd01528181610a730152610fb50152600081816107080152610cd801526000818161032e015281816103830152818161053a015281816108140152610c010152611c8b6000f3fe6080604052600436106100a75760003560e01c80637afea44f116100645780637afea44f146101af5780637fd84313146101da578063c2f8fa911461021c578063d20747a81461025e578063f04d237c1461029b578063fbfa77cf146102db576100a7565b806313fb3f33146100ac5780633a2d8784146100d75780633d4dff7b1461010257806358685ddb1461013f57806368a4cb881461016a57806372fd3d3e14610193575b600080fd5b3480156100b857600080fd5b506100c1610306565b6040516100ce9190610ff0565b60405180910390f35b3480156100e357600080fd5b506100ec61030b565b6040516100f99190610ff0565b60405180910390f35b34801561010e57600080fd5b5061012960048036038101906101249190611055565b610314565b6040516101369190610ff0565b60405180910390f35b34801561014b57600080fd5b5061015461032c565b6040516101619190611101565b60405180910390f35b34801561017657600080fd5b50610191600480360381019061018c9190611262565b610350565b005b6101ad60048036038101906101a89190611262565b610706565b005b3480156101bb57600080fd5b506101c4610cd6565b6040516101d191906112cc565b60405180910390f35b3480156101e657600080fd5b5061020160048036038101906101fc9190611262565b610cfa565b60405161021396959493929190611323565b60405180910390f35b34801561022857600080fd5b50610243600480360381019061023e9190611262565b610d79565b60405161025596959493929190611323565b60405180910390f35b34801561026a57600080fd5b5061028560048036038101906102809190611262565b610e7c565b6040516102929190610ff0565b60405180910390f35b3480156102a757600080fd5b506102c260048036038101906102bd9190611262565b610ec3565b6040516102d29493929190611384565b60405180910390f35b3480156102e757600080fd5b506102f0610fb3565b6040516102fd91906113ea565b60405180910390f35b600281565b60006002905090565b60006020528060005260406000206000915090505481565b7f000000000000000000000000000000000000000000000000000000000000000081565b6000816040516020016103639190611476565b6040516020818303038152906040528051906020012090506000806000807f000000000000000000000000000000000000000000000000000000000000000073ffffffffffffffffffffffffffffffffffffffff1663479487e3876040518263ffffffff1660e01b81526004016103da91906114d7565b600060405180830381865afa1580156103f7573d6000803e3d6000fd5b505050506040513d6000823e3d601f19601f8201168201806040525081019061042091906115fa565b9650965096505050509350600084510361046f576040517f08c379a00000000000000000000000000000000000000000000000000000000081526004016104669061173c565b60405180910390fd5b600160028111156104835761048261175c565b5b60ff168360ff16146104ca576040517f08c379a00000000000000000000000000000000000000000000000000000000081526004016104c1906117d7565b60405180910390fd5b3373ffffffffffffffffffffffffffffffffffffffff168273ffffffffffffffffffffffffffffffffffffffff1614610538576040517f08c379a000000000000000000000000000000000000000000000000000000000815260040161052f90611843565b60405180910390fd5b7f000000000000000000000000000000000000000000000000000000000000000073ffffffffffffffffffffffffffffffffffffffff166336749547876040518263ffffffff1660e01b815260040161059191906114d7565b600060405180830381600087803b1580156105ab57600080fd5b505af11580156105bf573d6000803e3d6000fd5b5050505060008060008781526020019081526020016000205490506000806000888152602001908152602001600020819055506000811115610689577f000000000000000000000000000000000000000000000000000000000000000073ffffffffffffffffffffffffffffffffffffffff1663410085df84836040518363ffffffff1660e01b8152600401610656929190611863565b600060405180830381600087803b15801561067057600080fd5b505af1158015610684573d6000803e3d6000fd5b505050505b6001808860405161069a9190611476565b908152602001604051809103902060050160006101000a81548160ff0219169083151502179055507f169fcd63a584d0ec69c03699b9741084030f49721b1f78b0f397d3013684f0a58784836040516106f59392919061188c565b60405180910390a150505050505050565b7f000000000000000000000000000000000000000000000000000000000000000073ffffffffffffffffffffffffffffffffffffffff16638846594b336040518263ffffffff1660e01b815260040161075f91906118ca565b602060405180830381865afa15801561077c573d6000803e3d6000fd5b505050506040513d601f19601f820116820180604052508101906107a09190611911565b6107df576040517f08c379a00000000000000000000000000000000000000000000000000000000081526004016107d69061198a565b60405180910390fd5b6000816040516020016107f29190611476565b60405160208183030381529060405280519060200120905060008060008060007f000000000000000000000000000000000000000000000000000000000000000073ffffffffffffffffffffffffffffffffffffffff1663479487e3886040518263ffffffff1660e01b815260040161086b91906114d7565b600060405180830381865afa158015610888573d6000803e3d6000fd5b505050506040513d6000823e3d601f19601f820116820180604052508101906108b191906115fa565b9650965096509650505094506000855103610901576040517f08c379a00000000000000000000000000000000000000000000000000000000081526004016108f89061173c565b60405180910390fd5b600060028111156109155761091461175c565b5b60ff168360ff161461095c576040517f08c379a0000000000000000000000000000000000000000000000000000000008152600401610953906119f6565b60405180910390fd5b600084905060006002826109709190611a45565b9050600081836109809190611a87565b9050803410156109c5576040517f08c379a00000000000000000000000000000000000000000000000000000000081526004016109bc90611b07565b60405180910390fd5b60008473ffffffffffffffffffffffffffffffffffffffff16846040516109eb90611b58565b60006040518083038185875af1925050503d8060008114610a28576040519150601f19603f3d011682016040523d82523d6000602084013e610a2d565b606091505b5050905080610a71576040517f08c379a0000000000000000000000000000000000000000000000000000000008152600401610a6890611bb9565b60405180910390fd5b7f000000000000000000000000000000000000000000000000000000000000000073ffffffffffffffffffffffffffffffffffffffff1663d0e30db0846040518263ffffffff1660e01b81526004016000604051808303818588803b158015610ad957600080fd5b505af1158015610aed573d6000803e3d6000fd5b5050505050826000808c8152602001908152602001600020819055506040518060c001604052803373ffffffffffffffffffffffffffffffffffffffff1681526020013481526020018581526020018481526020014281526020016000151581525060018c604051610b5f9190611476565b908152602001604051809103902060008201518160000160006101000a81548173ffffffffffffffffffffffffffffffffffffffff021916908373ffffffffffffffffffffffffffffffffffffffff1602179055506020820151816001015560408201518160020155606082015181600301556080820151816004015560a08201518160050160006101000a81548160ff0219169083151502179055509050507f000000000000000000000000000000000000000000000000000000000000000073ffffffffffffffffffffffffffffffffffffffff1663c1208b9d8c336040518363ffffffff1660e01b8152600401610c5a929190611bd9565b600060405180830381600087803b158015610c7457600080fd5b505af1158015610c88573d6000803e3d6000fd5b505050507ff1a0c3f8ab969255e049ab09c2a9f65ecb64553f2d201e37c4e091b6a109ee3e8b338686604051610cc19493929190611c09565b60405180910390a15050505050505050505050565b7f000000000000000000000000000000000000000000000000000000000000000081565b6001818051602081018201805184825260208301602085012081835280955050505050506000915090508060000160009054906101000a900473ffffffffffffffffffffffffffffffffffffffff16908060010154908060020154908060030154908060040154908060050160009054906101000a900460ff16905086565b6000806000806000806000600188604051610d949190611476565b90815260200160405180910390206040518060c00160405290816000820160009054906101000a900473ffffffffffffffffffffffffffffffffffffffff1673ffffffffffffffffffffffffffffffffffffffff1673ffffffffffffffffffffffffffffffffffffffff168152602001600182015481526020016002820154815260200160038201548152602001600482015481526020016005820160009054906101000a900460ff1615151515815250509050806000015181602001518260400151836060015184608001518560a001519650965096509650965096505091939550919395565b60008082604051602001610e909190611476565b60405160208183030381529060405280519060200120905060008082815260200190815260200160002054915050919050565b6000806000806000600186604051610edb9190611476565b90815260200160405180910390206040518060c00160405290816000820160009054906101000a900473ffffffffffffffffffffffffffffffffffffffff1673ffffffffffffffffffffffffffffffffffffffff1673ffffffffffffffffffffffffffffffffffffffff168152602001600182015481526020016002820154815260200160038201548152602001600482015481526020016005820160009054906101000a900460ff16151515158152505090508060000151816020015182608001518360a001519450945094509450509193509193565b7f000000000000000000000000000000000000000000000000000000000000000081565b6000819050919050565b610fea81610fd7565b82525050565b60006020820190506110056000830184610fe1565b92915050565b6000604051905090565b600080fd5b600080fd5b6000819050919050565b6110328161101f565b811461103d57600080fd5b50565b60008135905061104f81611029565b92915050565b60006020828403121561106b5761106a611015565b5b600061107984828501611040565b91505092915050565b600073ffffffffffffffffffffffffffffffffffffffff82169050919050565b6000819050919050565b60006110c76110c26110bd84611082565b6110a2565b611082565b9050919050565b60006110d9826110ac565b9050919050565b60006110eb826110ce565b9050919050565b6110fb816110e0565b82525050565b600060208201905061111660008301846110f2565b92915050565b600080fd5b600080fd5b6000601f19601f8301169050919050565b7f4e487b7100000000000000000000000000000000000000000000000000000000600052604160045260246000fd5b61116f82611126565b810181811067ffffffffffffffff8211171561118e5761118d611137565b5b80604052505050565b60006111a161100b565b90506111ad8282611166565b919050565b600067ffffffffffffffff8211156111cd576111cc611137565b5b6111d682611126565b9050602081019050919050565b82818337600083830152505050565b6000611205611200846111b2565b611197565b90508281526020810184848401111561122157611220611121565b5b61122c8482856111e3565b509392505050565b600082601f8301126112495761124861111c565b5b81356112598482602086016111f2565b91505092915050565b60006020828403121561127857611277611015565b5b600082013567ffffffffffffffff8111156112965761129561101a565b5b6112a284828501611234565b91505092915050565b60006112b6826110ce565b9050919050565b6112c6816112ab565b82525050565b60006020820190506112e160008301846112bd565b92915050565b60006112f282611082565b9050919050565b611302816112e7565b82525050565b60008115159050919050565b61131d81611308565b82525050565b600060c08201905061133860008301896112f9565b6113456020830188610fe1565b6113526040830187610fe1565b61135f6060830186610fe1565b61136c6080830185610fe1565b61137960a0830184611314565b979650505050505050565b600060808201905061139960008301876112f9565b6113a66020830186610fe1565b6113b36040830185610fe1565b6113c06060830184611314565b95945050505050565b60006113d4826110ce565b9050919050565b6113e4816113c9565b82525050565b60006020820190506113ff60008301846113db565b92915050565b600081519050919050565b600081905092915050565b60005b8381101561143957808201518184015260208101905061141e565b60008484015250505050565b600061145082611405565b61145a8185611410565b935061146a81856020860161141b565b80840191505092915050565b60006114828284611445565b915081905092915050565b600082825260208201905092915050565b60006114a982611405565b6114b3818561148d565b93506114c381856020860161141b565b6114cc81611126565b840191505092915050565b600060208201905081810360008301526114f1818461149e565b905092915050565b600061150c611507846111b2565b611197565b90508281526020810184848401111561152857611527611121565b5b61153384828561141b565b509392505050565b600082601f8301126115505761154f61111c565b5b81516115608482602086016114f9565b91505092915050565b61157281610fd7565b811461157d57600080fd5b50565b60008151905061158f81611569565b92915050565b600060ff82169050919050565b6115ab81611595565b81146115b657600080fd5b50565b6000815190506115c8816115a2565b92915050565b6115d7816112e7565b81146115e257600080fd5b50565b6000815190506115f4816115ce565b92915050565b600080600080600080600060e0888a03121561161957611618611015565b5b600088015167ffffffffffffffff8111156116375761163661101a565b5b6116438a828b0161153b565b975050602088015167ffffffffffffffff8111156116645761166361101a565b5b6116708a828b0161153b565b965050604088015167ffffffffffffffff8111156116915761169061101a565b5b61169d8a828b0161153b565b95505060606116ae8a828b01611580565b94505060806116bf8a828b016115b9565b93505060a06116d08a828b016115e5565b92505060c06116e18a828b016115e5565b91505092959891949750929550565b7f436172206e6f7420666f756e6400000000000000000000000000000000000000600082015250565b6000611726600d8361148d565b9150611731826116f0565b602082019050919050565b6000602082019050818103600083015261175581611719565b9050919050565b7f4e487b7100000000000000000000000000000000000000000000000000000000600052602160045260246000fd5b7f436172206973206e6f742063757272656e746c792072656e7465640000000000600082015250565b60006117c1601b8361148d565b91506117cc8261178b565b602082019050919050565b600060208201905081810360008301526117f0816117b4565b9050919050565b7f596f7520617265206e6f74207468652072656e74657200000000000000000000600082015250565b600061182d60168361148d565b9150611838826117f7565b602082019050919050565b6000602082019050818103600083015261185c81611820565b9050919050565b600060408201905061187860008301856112f9565b6118856020830184610fe1565b9392505050565b600060608201905081810360008301526118a6818661149e565b90506118b560208301856112f9565b6118c26040830184610fe1565b949350505050565b60006020820190506118df60008301846112f9565b92915050565b6118ee81611308565b81146118f957600080fd5b50565b60008151905061190b816118e5565b92915050565b60006020828403121561192757611926611015565b5b6000611935848285016118fc565b91505092915050565b7f4b5943206e6f7420617070726f76656400000000000000000000000000000000600082015250565b600061197460108361148d565b915061197f8261193e565b602082019050919050565b600060208201905081810360008301526119a381611967565b9050919050565b7f436172206973206e6f7420617661696c61626c65000000000000000000000000600082015250565b60006119e060148361148d565b91506119eb826119aa565b602082019050919050565b60006020820190508181036000830152611a0f816119d3565b9050919050565b7f4e487b7100000000000000000000000000000000000000000000000000000000600052601160045260246000fd5b6000611a5082610fd7565b9150611a5b83610fd7565b9250828202611a6981610fd7565b91508282048414831517611a8057611a7f611a16565b5b5092915050565b6000611a9282610fd7565b9150611a9d83610fd7565b9250828201905080821115611ab557611ab4611a16565b5b92915050565b7f496e73756666696369656e74207061796d656e74000000000000000000000000600082015250565b6000611af160148361148d565b9150611afc82611abb565b602082019050919050565b60006020820190508181036000830152611b2081611ae4565b9050919050565b600081905092915050565b50565b6000611b42600083611b27565b9150611b4d82611b32565b600082019050919050565b6000611b6382611b35565b9150819050919050565b7f5472616e7366657220746f206f776e6572206661696c65640000000000000000600082015250565b6000611ba360188361148d565b9150611bae82611b6d565b602082019050919050565b60006020820190508181036000830152611bd281611b96565b9050919050565b60006040820190508181036000830152611bf3818561149e565b9050611c0260208301846112f9565b9392505050565b60006080820190508181036000830152611c23818761149e565b9050611c3260208301866112f9565b611c3f6040830185610fe1565b611c4c6060830184610fe1565b9594505050505056fea2646970667358221220833cc1ae9e260491fa23b2495b453705645ebe8f3ceafe4c2d4ac7e9838ec93164736f6c63430008140033",
  "linkReferences": {},
  "deployedLinkReferences": {}
}