{
  "_format": "hh-sol-artifact-1",
  "contractName": "CarRental",
  "sourceName": "contracts/CarRental.sol",
  "abi": [
    {
      "inputs": [
        {
          "internalType": "address",
          "name": "_carRegistry",
          "type": "address"
        },
        {
          "internalType": "address",
          "name": "_kycManager",
          "type": "address"
        },
        {
          "internalType": "address",
          "name": "_vault",
          "type": "address"
        }
      ],
      "stateMutability": "nonpayable",
      "type": "constructor"
    },
    {
      "anonymous": false,
      "inputs": [
        {
          "indexed": false,
          "internalType": "string",
          "name": "plateNumber",
          "type": "string"
        },
        {
          "indexed": false,
          "internalType": "address",
          "name": "renter",
          "type": "address"
        },
        {
          "indexed": false,
          "internalType": "uint256",
          "name": "rentalFee",
          "type": "uint256"
        },
        {
          "indexed": false,
          "internalType": "uint256",
          "name": "deposit",
          "type": "uint256"
        }
      ],
      "name": "CarRented",
      "type": "event"
    },
    {
      "anonymous": false,
      "inputs": [
        {
          "indexed": false,
          "internalType": "string",
          "name": "plateNumber",
          "type": "string"
        },
        {
          "indexed": false,
          "internalType": "address",
          "name": "renter",
          "type": "address"
        },
        {
          "indexed": false,
          "internalType": "uint256",
          "name": "refundedDeposit",
          "type": "uint256"
        }
      ],
      "name": "CarReturned",
      "type": "event"
    },
    {
      "inputs": [],
      "name": "DEPOSIT_MULTIPLIER",
      "outputs": [
        {
          "internalType": "uint256",
          "name": "",
          "type": "uint256"
        }
      ],
      "stateMutability": "view",
      "type": "function"
    },
    {
      "inputs": [],
      "name": "carRegistry",
      "outputs": [
        {
          "internalType": "contract ICarRegistry",
          "name": "",
          "type": "address"
        }
      ],
      "stateMutability": "view",
      "type": "function"
    },
    {
      "inputs": [
        {
          "internalType": "string",
          "name": "plateNumber",
          "type": "string"
        }
      ],
      "name": "completeRental",
      "outputs": [],
      "stateMutability": "nonpayable",
      "type": "function"
    },
    {
      "inputs": [
        {
          "internalType": "bytes32",
          "name": "",
          "type": "bytes32"
        }
      ],
      "name": "deposits",
      "outputs": [
        {
          "internalType": "uint256",
          "name": "",
          "type": "uint256"
        }
      ],
      "stateMutability": "view",
      "type": "function"
    },
    {
      "inputs": [
        {
          "internalType": "string",
          "name": "plateNumber",
          "type": "string"
        }
      ],
      "name": "getDeposit",
      "outputs": [
        {
          "internalType": "uint256",
          "name": "",
          "type": "uint256"
        }
      ],
      "stateMutability": "view",
      "type": "function"
    },
    {
      "inputs": [],
      "name": "getDepositMultiplier",
      "outputs": [
        {
          "internalType": "uint256",
          "name": "",
          "type": "uint256"
        }
      ],
      "stateMutability": "pure",
      "type": "function"
    },
    {
      "inputs": [
        {
          "internalType": "string",
          "name": "plateNumber",
          "type": "string"
        }
      ],
      "name": "getDetailedRentalInfo",
      "outputs": [
        {
          "internalType": "address",
          "name": "renter",
          "type": "address"
        },
        {
          "internalType": "uint256",
          "name": "totalPaid",
          "type": "uint256"
        },
        {
          "internalType": "uint256",
          "name": "rentalFee",
          "type": "uint256"
        },
        {
          "internalType": "uint256",
          "name": "depositAmount",
          "type": "uint256"
        },
        {
          "internalType": "uint256",
          "name": "timestamp",
          "type": "uint256"
        },
        {
          "internalType": "bool",
          "name": "returned",
          "type": "bool"
        }
      ],
      "stateMutability": "view",
      "type": "function"
    },
    {
      "inputs": [
        {
          "internalType": "string",
          "name": "plateNumber",
          "type": "string"
        }
      ],
      "name": "getRentalInfo",
      "outputs": [
        {
          "internalType": "address",
          "name": "renter",
          "type": "address"
        },
        {
          "internalType": "uint256",
          "name": "amountPaid",
          "type": "uint256"
        },
        {
          "internalType": "uint256",
          "name": "timestamp",
          "type": "uint256"
        },
        {
          "internalType": "bool",
          "name": "returned",
          "type": "bool"
        }
      ],
      "stateMutability": "view",
      "type": "function"
    },
    {
      "inputs": [],
      "name": "kycManager",
      "outputs": [
        {
          "internalType": "contract IKYCManager",
          "name": "",
          "type": "address"
        }
      ],
      "stateMutability": "view",
      "type": "function"
    },
    {
      "inputs": [
        {
          "internalType": "string",
          "name": "plateNumber",
          "type": "string"
        }
      ],
      "name": "rentCar",
      "outputs": [],
      "stateMutability": "payable",
      "type": "function"
    },
    {
      "inputs": [
        {
          "internalType": "string",
          "name": "",
          "type": "string"
        }
      ],
      "name": "rentalRecords",
      "outputs": [
        {
          "internalType": "address",
          "name": "renter",
          "type": "address"
        },
        {
          "internalType": "uint256",
          "name": "amountPaid",
          "type": "uint256"
        },
        {
          "internalType": "uint256",
          "name": "rentalFee",
          "type": "uint256"
        },
        {
          "internalType": "uint256",
          "name": "depositAmount",
          "type": "uint256"
        },
        {
          "internalType": "uint256",
          "name": "timestamp",
          "type": "uint256"
        },
        {
          "internalType": "bool",
          "name": "returned",
          "type": "bool"
        }
      ],
      "stateMutability": "view",
      "type": "function"
    },
    {
      "inputs": [],
      "name": "vault",
      "outputs": [
        {
          "internalType": "contract IRentalVault",
          "name": "",
          "type": "address"
        }
      ],
      "stateMutability": "view",
      "type": "function"
    }
  ],
  "bytecode": "0x60e06040523480156200001157600080fd5b506040516200195a3803806200195a833981810160405281019062000037919062000146565b8273ffffffffffffffffffffffffffffffffffffffff1660808173ffffffffffffffffffffffffffffffffffffffff16815250508173ffffffffffffffffffffffffffffffffffffffff1660a08173ffffffffffffffffffffffffffffffffffffffff16815250508073ffffffffffffffffffffffffffffffffffffffff1660c08173ffffffffffffffffffffffffffffffffffffffff1681525050505050620001a2565b600080fd5b600073ffffffffffffffffffffffffffffffffffffffff82169050919050565b60006200010e82620000e1565b9050919050565b620001208162000101565b81146200012c57600080fd5b50565b600081519050620001408162000115565b92915050565b600080600060608486031215620001625762000161620000dc565b5b600062000172868287016200012f565b935050602062000185868287016200012f565b925050604062000198868287016200012f565b9150509250925092565b60805160a05160c051611757620002036000396000818161052b01528181610a460152610cc30152600081816106330152610b09015260008181610265015281816102ba015281816104710152818161073f01526109b901526117576000f3fe6080604052600436106100865760003560e01c80637afea44f116100595780637afea44f146101385780637fd8431314610163578063d20747a8146101a3578063f04d237c146101e0578063fbfa77cf1461022057610086565b80633d4dff7b1461008b57806358685ddb146100c857806368a4cb88146100f357806372fd3d3e1461011c575b600080fd5b34801561009757600080fd5b506100b260048036038101906100ad9190610d2f565b61024b565b6040516100bf9190610d75565b60405180910390f35b3480156100d457600080fd5b506100dd610263565b6040516100ea9190610e0f565b60405180910390f35b3480156100ff57600080fd5b5061011a60048036038101906101159190610f70565b610287565b005b61013660048036038101906101319190610f70565b610631565b005b34801561014457600080fd5b5061014d610b07565b60405161015a9190610fda565b60405180910390f35b34801561016f57600080fd5b5061018a60048036038101906101859190610f70565b610b2b565b60405161019a9493929190611031565b60405180910390f35b3480156101af57600080fd5b506101ca60048036038101906101c59190610f70565b610b9e565b6040516101d79190610d75565b60405180910390f35b3480156101ec57600080fd5b5061020760048036038101906102029190610f70565b610be5565b6040516102179493929190611031565b60405180910390f35b34801561022c57600080fd5b50610235610cc1565b6040516102429190611097565b60405180910390f35b60006020528060005260406000206000915090505481565b7f000000000000000000000000000000000000000000000000000000000000000081565b60008160405160200161029a9190611123565b6040516020818303038152906040528051906020012090506000806000807f000000000000000000000000000000000000000000000000000000000000000073ffffffffffffffffffffffffffffffffffffffff1663479487e3876040518263ffffffff1660e01b81526004016103119190611184565b600060405180830381865afa15801561032e573d6000803e3d6000fd5b505050506040513d6000823e3d601f19601f8201168201806040525081019061035791906112a7565b965096509650505050935060008451036103a6576040517f08c379a000000000000000000000000000000000000000000000000000000000815260040161039d906113e9565b60405180910390fd5b600160028111156103ba576103b9611409565b5b60ff168360ff1614610401576040517f08c379a00000000000000000000000000000000000000000000000000000000081526004016103f890611484565b60405180910390fd5b3373ffffffffffffffffffffffffffffffffffffffff168273ffffffffffffffffffffffffffffffffffffffff161461046f576040517f08c379a0000000000000000000000000000000000000000000000000000000008152600401610466906114f0565b60405180910390fd5b7f000000000000000000000000000000000000000000000000000000000000000073ffffffffffffffffffffffffffffffffffffffff166336749547876040518263ffffffff1660e01b81526004016104c89190611184565b600060405180830381600087803b1580156104e257600080fd5b505af11580156104f6573d6000803e3d6000fd5b5050505060008060008781526020019081526020016000205490506000806000888152602001908152602001600020819055507f000000000000000000000000000000000000000000000000000000000000000073ffffffffffffffffffffffffffffffffffffffff1663410085df84836040518363ffffffff1660e01b8152600401610584929190611510565b600060405180830381600087803b15801561059e57600080fd5b505af11580156105b2573d6000803e3d6000fd5b50505050600180886040516105c79190611123565b908152602001604051809103902060030160006101000a81548160ff0219169083151502179055507f464998be95d2dcfe9eb1b41fb03df16114842e7e953e097073c18289ba3051c68784604051610620929190611539565b60405180910390a150505050505050565b7f000000000000000000000000000000000000000000000000000000000000000073ffffffffffffffffffffffffffffffffffffffff16638846594b336040518263ffffffff1660e01b815260040161068a9190611569565b602060405180830381865afa1580156106a7573d6000803e3d6000fd5b505050506040513d601f19601f820116820180604052508101906106cb91906115b0565b61070a576040517f08c379a000000000000000000000000000000000000000000000000000000000815260040161070190611629565b60405180910390fd5b60008160405160200161071d9190611123565b60405160208183030381529060405280519060200120905060008060008060007f000000000000000000000000000000000000000000000000000000000000000073ffffffffffffffffffffffffffffffffffffffff1663479487e3886040518263ffffffff1660e01b81526004016107969190611184565b600060405180830381865afa1580156107b3573d6000803e3d6000fd5b505050506040513d6000823e3d601f19601f820116820180604052508101906107dc91906112a7565b965096509650965050509450600085510361082c576040517f08c379a0000000000000000000000000000000000000000000000000000000008152600401610823906113e9565b60405180910390fd5b600060028111156108405761083f611409565b5b60ff168360ff1614610887576040517f08c379a000000000000000000000000000000000000000000000000000000000815260040161087e90611695565b60405180910390fd5b833410156108ca576040517f08c379a00000000000000000000000000000000000000000000000000000000081526004016108c190611701565b60405180910390fd5b346000808881526020019081526020016000208190555060405180608001604052803373ffffffffffffffffffffffffffffffffffffffff1681526020013481526020014281526020016000151581525060018860405161092b9190611123565b908152602001604051809103902060008201518160000160006101000a81548173ffffffffffffffffffffffffffffffffffffffff021916908373ffffffffffffffffffffffffffffffffffffffff160217905550602082015181600101556040820151816002015560608201518160030160006101000a81548160ff0219169083151502179055509050507f000000000000000000000000000000000000000000000000000000000000000073ffffffffffffffffffffffffffffffffffffffff1663c1208b9d88336040518363ffffffff1660e01b8152600401610a12929190611539565b600060405180830381600087803b158015610a2c57600080fd5b505af1158015610a40573d6000803e3d6000fd5b505050507f000000000000000000000000000000000000000000000000000000000000000073ffffffffffffffffffffffffffffffffffffffff1663d0e30db0346040518263ffffffff1660e01b81526004016000604051808303818588803b158015610aac57600080fd5b505af1158015610ac0573d6000803e3d6000fd5b50505050507fe0903df489d90288745389e699f476635bf4b26eaabf03f19d342cc921c54f6c8733604051610af6929190611539565b60405180910390a150505050505050565b7f000000000000000000000000000000000000000000000000000000000000000081565b6001818051602081018201805184825260208301602085012081835280955050505050506000915090508060000160009054906101000a900473ffffffffffffffffffffffffffffffffffffffff16908060010154908060020154908060030160009054906101000a900460ff16905084565b60008082604051602001610bb29190611123565b60405160208183030381529060405280519060200120905060008082815260200190815260200160002054915050919050565b6000806000806000600186604051610bfd9190611123565b90815260200160405180910390206040518060800160405290816000820160009054906101000a900473ffffffffffffffffffffffffffffffffffffffff1673ffffffffffffffffffffffffffffffffffffffff1673ffffffffffffffffffffffffffffffffffffffff16815260200160018201548152602001600282015481526020016003820160009054906101000a900460ff161515151581525050905080600001518160200151826040015183606001519450945094509450509193509193565b7f000000000000000000000000000000000000000000000000000000000000000081565b6000604051905090565b600080fd5b600080fd5b6000819050919050565b610d0c81610cf9565b8114610d1757600080fd5b50565b600081359050610d2981610d03565b92915050565b600060208284031215610d4557610d44610cef565b5b6000610d5384828501610d1a565b91505092915050565b6000819050919050565b610d6f81610d5c565b82525050565b6000602082019050610d8a6000830184610d66565b92915050565b600073ffffffffffffffffffffffffffffffffffffffff82169050919050565b6000819050919050565b6000610dd5610dd0610dcb84610d90565b610db0565b610d90565b9050919050565b6000610de782610dba565b9050919050565b6000610df982610ddc565b9050919050565b610e0981610dee565b82525050565b6000602082019050610e246000830184610e00565b92915050565b600080fd5b600080fd5b6000601f19601f8301169050919050565b7f4e487b7100000000000000000000000000000000000000000000000000000000600052604160045260246000fd5b610e7d82610e34565b810181811067ffffffffffffffff82111715610e9c57610e9b610e45565b5b80604052505050565b6000610eaf610ce5565b9050610ebb8282610e74565b919050565b600067ffffffffffffffff821115610edb57610eda610e45565b5b610ee482610e34565b9050602081019050919050565b82818337600083830152505050565b6000610f13610f0e84610ec0565b610ea5565b905082815260208101848484011115610f2f57610f2e610e2f565b5b610f3a848285610ef1565b509392505050565b600082601f830112610f5757610f56610e2a565b5b8135610f67848260208601610f00565b91505092915050565b600060208284031215610f8657610f85610cef565b5b600082013567ffffffffffffffff811115610fa457610fa3610cf4565b5b610fb084828501610f42565b91505092915050565b6000610fc482610ddc565b9050919050565b610fd481610fb9565b82525050565b6000602082019050610fef6000830184610fcb565b92915050565b600061100082610d90565b9050919050565b61101081610ff5565b82525050565b60008115159050919050565b61102b81611016565b82525050565b60006080820190506110466000830187611007565b6110536020830186610d66565b6110606040830185610d66565b61106d6060830184611022565b95945050505050565b600061108182610ddc565b9050919050565b61109181611076565b82525050565b60006020820190506110ac6000830184611088565b92915050565b600081519050919050565b600081905092915050565b60005b838110156110e65780820151818401526020810190506110cb565b60008484015250505050565b60006110fd826110b2565b61110781856110bd565b93506111178185602086016110c8565b80840191505092915050565b600061112f82846110f2565b915081905092915050565b600082825260208201905092915050565b6000611156826110b2565b611160818561113a565b93506111708185602086016110c8565b61117981610e34565b840191505092915050565b6000602082019050818103600083015261119e818461114b565b905092915050565b60006111b96111b484610ec0565b610ea5565b9050828152602081018484840111156111d5576111d4610e2f565b5b6111e08482856110c8565b509392505050565b600082601f8301126111fd576111fc610e2a565b5b815161120d8482602086016111a6565b91505092915050565b61121f81610d5c565b811461122a57600080fd5b50565b60008151905061123c81611216565b92915050565b600060ff82169050919050565b61125881611242565b811461126357600080fd5b50565b6000815190506112758161124f565b92915050565b61128481610ff5565b811461128f57600080fd5b50565b6000815190506112a18161127b565b92915050565b600080600080600080600060e0888a0312156112c6576112c5610cef565b5b600088015167ffffffffffffffff8111156112e4576112e3610cf4565b5b6112f08a828b016111e8565b975050602088015167ffffffffffffffff81111561131157611310610cf4565b5b61131d8a828b016111e8565b965050604088015167ffffffffffffffff81111561133e5761133d610cf4565b5b61134a8a828b016111e8565b955050606061135b8a828b0161122d565b945050608061136c8a828b01611266565b93505060a061137d8a828b01611292565b92505060c061138e8a828b01611292565b91505092959891949750929550565b7f436172206e6f7420666f756e6400000000000000000000000000000000000000600082015250565b60006113d3600d8361113a565b91506113de8261139d565b602082019050919050565b60006020820190508181036000830152611402816113c6565b9050919050565b7f4e487b7100000000000000000000000000000000000000000000000000000000600052602160045260246000fd5b7f436172206973206e6f742063757272656e746c792072656e7465640000000000600082015250565b600061146e601b8361113a565b915061147982611438565b602082019050919050565b6000602082019050818103600083015261149d81611461565b9050919050565b7f596f7520617265206e6f74207468652072656e74657200000000000000000000600082015250565b60006114da60168361113a565b91506114e5826114a4565b602082019050919050565b60006020820190508181036000830152611509816114cd565b9050919050565b60006040820190506115256000830185611007565b6115326020830184610d66565b9392505050565b60006040820190508181036000830152611553818561114b565b90506115626020830184611007565b9392505050565b600060208201905061157e6000830184611007565b92915050565b61158d81611016565b811461159857600080fd5b50565b6000815190506115aa81611584565b92915050565b6000602082840312156115c6576115c5610cef565b5b60006115d48482850161159b565b91505092915050565b7f4b5943206e6f7420617070726f76656400000000000000000000000000000000600082015250565b600061161360108361113a565b915061161e826115dd565b602082019050919050565b6000602082019050818103600083015261164281611606565b9050919050565b7f436172206973206e6f7420617661696c61626c65000000000000000000000000600082015250565b600061167f60148361113a565b915061168a82611649565b602082019050919050565b600060208201905081810360008301526116ae81611672565b9050919050565b7f496e73756666696369656e74207061796d656e74000000000000000000000000600082015250565b60006116eb60148361113a565b91506116f6826116b5565b602082019050919050565b6000602082019050818103600083015261171a816116de565b905091905056fea2646970667358221220f898c309f86d640d5ae78eaa997d60c9a1de79bbacb2f6d77444986c5d49669064736f6c63430008140033",
  "linkReferences": {},
  "deployedLinkReferences": {}
}