{
  "_format": "hh-sol-artifact-1",
  "contractName": "CarRental",
  "sourceName": "contracts/CarRental.sol",
  "abi": [
    {
      "inputs": [
        {
          "internalType": "address",
          "name": "_carRegistry",
          "type": "address"
        },
        {
          "internalType": "address",
          "name": "_kycManager",
          "type": "address"
        },
        {
          "internalType": "address",
          "name": "_vault",
          "type": "address"
        }
      ],
      "stateMutability": "nonpayable",
      "type": "constructor"
    },
    {
      "anonymous": false,
      "inputs": [
        {
          "indexed": false,
          "internalType": "string",
          "name": "plateNumber",
          "type": "string"
        },
        {
          "indexed": false,
          "internalType": "address",
          "name": "renter",
          "type": "address"
        }
      ],
      "name": "CarRented",
      "type": "event"
    },
    {
      "anonymous": false,
      "inputs": [
        {
          "indexed": false,
          "internalType": "string",
          "name": "plateNumber",
          "type": "string"
        },
        {
          "indexed": false,
          "internalType": "address",
          "name": "renter",
          "type": "address"
        }
      ],
      "name": "CarReturned",
      "type": "event"
    },
    {
      "inputs": [],
      "name": "carRegistry",
      "outputs": [
        {
          "internalType": "contract ICarRegistry",
          "name": "",
          "type": "address"
        }
      ],
      "stateMutability": "view",
      "type": "function"
    },
    {
      "inputs": [
        {
          "internalType": "string",
          "name": "plateNumber",
          "type": "string"
        }
      ],
      "name": "completeRental",
      "outputs": [],
      "stateMutability": "nonpayable",
      "type": "function"
    },
    {
      "inputs": [
        {
          "internalType": "bytes32",
          "name": "",
          "type": "bytes32"
        }
      ],
      "name": "deposits",
      "outputs": [
        {
          "internalType": "uint256",
          "name": "",
          "type": "uint256"
        }
      ],
      "stateMutability": "view",
      "type": "function"
    },
    {
      "inputs": [
        {
          "internalType": "string",
          "name": "plateNumber",
          "type": "string"
        }
      ],
      "name": "getDeposit",
      "outputs": [
        {
          "internalType": "uint256",
          "name": "",
          "type": "uint256"
        }
      ],
      "stateMutability": "view",
      "type": "function"
    },
    {
      "inputs": [
        {
          "internalType": "address",
          "name": "owner",
          "type": "address"
        }
      ],
      "name": "getOwnerRevenue",
      "outputs": [
        {
          "internalType": "uint256",
          "name": "",
          "type": "uint256"
        }
      ],
      "stateMutability": "view",
      "type": "function"
    },
    {
      "inputs": [
        {
          "internalType": "string",
          "name": "plateNumber",
          "type": "string"
        }
      ],
      "name": "getRentalInfo",
      "outputs": [
        {
          "internalType": "address",
          "name": "renter",
          "type": "address"
        },
        {
          "internalType": "uint256",
          "name": "amountPaid",
          "type": "uint256"
        },
        {
          "internalType": "uint256",
          "name": "timestamp",
          "type": "uint256"
        },
        {
          "internalType": "bool",
          "name": "returned",
          "type": "bool"
        }
      ],
      "stateMutability": "view",
      "type": "function"
    },
    {
      "inputs": [],
      "name": "kycManager",
      "outputs": [
        {
          "internalType": "contract IKYCManager",
          "name": "",
          "type": "address"
        }
      ],
      "stateMutability": "view",
      "type": "function"
    },
    {
      "inputs": [
        {
          "internalType": "address",
          "name": "",
          "type": "address"
        }
      ],
      "name": "ownerRevenue",
      "outputs": [
        {
          "internalType": "uint256",
          "name": "",
          "type": "uint256"
        }
      ],
      "stateMutability": "view",
      "type": "function"
    },
    {
      "inputs": [
        {
          "internalType": "string",
          "name": "plateNumber",
          "type": "string"
        }
      ],
      "name": "rentCar",
      "outputs": [],
      "stateMutability": "payable",
      "type": "function"
    },
    {
      "inputs": [
        {
          "internalType": "string",
          "name": "",
          "type": "string"
        }
      ],
      "name": "rentalRecords",
      "outputs": [
        {
          "internalType": "address",
          "name": "renter",
          "type": "address"
        },
        {
          "internalType": "uint256",
          "name": "amountPaid",
          "type": "uint256"
        },
        {
          "internalType": "uint256",
          "name": "timestamp",
          "type": "uint256"
        },
        {
          "internalType": "bool",
          "name": "returned",
          "type": "bool"
        }
      ],
      "stateMutability": "view",
      "type": "function"
    },
    {
      "inputs": [],
      "name": "vault",
      "outputs": [
        {
          "internalType": "contract IRentalVault",
          "name": "",
          "type": "address"
        }
      ],
      "stateMutability": "view",
      "type": "function"
    }
  ],
  "bytecode": "0x60e06040523480156200001157600080fd5b5060405162001cbe38038062001cbe833981810160405281019062000037919062000146565b8273ffffffffffffffffffffffffffffffffffffffff1660808173ffffffffffffffffffffffffffffffffffffffff16815250508173ffffffffffffffffffffffffffffffffffffffff1660a08173ffffffffffffffffffffffffffffffffffffffff16815250508073ffffffffffffffffffffffffffffffffffffffff1660c08173ffffffffffffffffffffffffffffffffffffffff1681525050505050620001a2565b600080fd5b600073ffffffffffffffffffffffffffffffffffffffff82169050919050565b60006200010e82620000e1565b9050919050565b620001208162000101565b81146200012c57600080fd5b50565b600081519050620001408162000115565b92915050565b600080600060608486031215620001625762000161620000dc565b5b600062000172868287016200012f565b935050602062000185868287016200012f565b925050604062000198868287016200012f565b9150509250925092565b60805160a05160c051611abb620002036000396000818161061c01528181610ad60152610ed00152600081816107240152610d16015260008181610356015281816103ab015281816105620152818161082e0152610c440152611abb6000f3fe60806040526004361061009c5760003560e01c806372fd3d3e1161006457806372fd3d3e146101ac5780637afea44f146101c85780637fd84313146101f3578063d20747a814610233578063f04d237c14610270578063fbfa77cf146102b05761009c565b80630e0b54d5146100a15780632822d2bf146100de5780633d4dff7b1461011b57806358685ddb1461015857806368a4cb8814610183575b600080fd5b3480156100ad57600080fd5b506100c860048036038101906100c39190610f64565b6102db565b6040516100d59190610faa565b60405180910390f35b3480156100ea57600080fd5b5061010560048036038101906101009190610f64565b610324565b6040516101129190610faa565b60405180910390f35b34801561012757600080fd5b50610142600480360381019061013d9190610ffb565b61033c565b60405161014f9190610faa565b60405180910390f35b34801561016457600080fd5b5061016d610354565b60405161017a9190611087565b60405180910390f35b34801561018f57600080fd5b506101aa60048036038101906101a591906111e8565b610378565b005b6101c660048036038101906101c191906111e8565b610722565b005b3480156101d457600080fd5b506101dd610d14565b6040516101ea9190611252565b60405180910390f35b3480156101ff57600080fd5b5061021a600480360381019061021591906111e8565b610d38565b60405161022a9493929190611297565b60405180910390f35b34801561023f57600080fd5b5061025a600480360381019061025591906111e8565b610dab565b6040516102679190610faa565b60405180910390f35b34801561027c57600080fd5b50610297600480360381019061029291906111e8565b610df2565b6040516102a79493929190611297565b60405180910390f35b3480156102bc57600080fd5b506102c5610ece565b6040516102d291906112fd565b60405180910390f35b6000600260008373ffffffffffffffffffffffffffffffffffffffff1673ffffffffffffffffffffffffffffffffffffffff168152602001908152602001600020549050919050565b60026020528060005260406000206000915090505481565b60006020528060005260406000206000915090505481565b7f000000000000000000000000000000000000000000000000000000000000000081565b60008160405160200161038b9190611389565b6040516020818303038152906040528051906020012090506000806000807f000000000000000000000000000000000000000000000000000000000000000073ffffffffffffffffffffffffffffffffffffffff1663479487e3876040518263ffffffff1660e01b815260040161040291906113ea565b600060405180830381865afa15801561041f573d6000803e3d6000fd5b505050506040513d6000823e3d601f19601f8201168201806040525081019061044891906114f6565b96509650965050505093506000845103610497576040517f08c379a000000000000000000000000000000000000000000000000000000000815260040161048e90611638565b60405180910390fd5b600160028111156104ab576104aa611658565b5b60ff168360ff16146104f2576040517f08c379a00000000000000000000000000000000000000000000000000000000081526004016104e9906116d3565b60405180910390fd5b3373ffffffffffffffffffffffffffffffffffffffff168273ffffffffffffffffffffffffffffffffffffffff1614610560576040517f08c379a00000000000000000000000000000000000000000000000000000000081526004016105579061173f565b60405180910390fd5b7f000000000000000000000000000000000000000000000000000000000000000073ffffffffffffffffffffffffffffffffffffffff166336749547876040518263ffffffff1660e01b81526004016105b991906113ea565b600060405180830381600087803b1580156105d357600080fd5b505af11580156105e7573d6000803e3d6000fd5b5050505060008060008781526020019081526020016000205490506000806000888152602001908152602001600020819055507f000000000000000000000000000000000000000000000000000000000000000073ffffffffffffffffffffffffffffffffffffffff1663410085df84836040518363ffffffff1660e01b815260040161067592919061175f565b600060405180830381600087803b15801561068f57600080fd5b505af11580156106a3573d6000803e3d6000fd5b50505050600180886040516106b89190611389565b908152602001604051809103902060030160006101000a81548160ff0219169083151502179055507f464998be95d2dcfe9eb1b41fb03df16114842e7e953e097073c18289ba3051c68784604051610711929190611788565b60405180910390a150505050505050565b7f000000000000000000000000000000000000000000000000000000000000000073ffffffffffffffffffffffffffffffffffffffff16638846594b336040518263ffffffff1660e01b815260040161077b91906117b8565b602060405180830381865afa158015610798573d6000803e3d6000fd5b505050506040513d601f19601f820116820180604052508101906107bc91906117ff565b6107fb576040517f08c379a00000000000000000000000000000000000000000000000000000000081526004016107f290611878565b60405180910390fd5b60008160405160200161080e9190611389565b6040516020818303038152906040528051906020012090506000806000807f000000000000000000000000000000000000000000000000000000000000000073ffffffffffffffffffffffffffffffffffffffff1663479487e3876040518263ffffffff1660e01b815260040161088591906113ea565b600060405180830381865afa1580156108a2573d6000803e3d6000fd5b505050506040513d6000823e3d601f19601f820116820180604052508101906108cb91906114f6565b9650509550955050509350600084510361091a576040517f08c379a000000000000000000000000000000000000000000000000000000000815260040161091190611638565b60405180910390fd5b6000600281111561092e5761092d611658565b5b60ff168260ff1614610975576040517f08c379a000000000000000000000000000000000000000000000000000000000815260040161096c906118e4565b60405180910390fd5b600083905060008490506000818361098d9190611933565b9050803410156109d2576040517f08c379a00000000000000000000000000000000000000000000000000000000081526004016109c9906119b3565b60405180910390fd5b60008473ffffffffffffffffffffffffffffffffffffffff16846040516109f890611a04565b60006040518083038185875af1925050503d8060008114610a35576040519150601f19603f3d011682016040523d82523d6000602084013e610a3a565b606091505b5050905080610a7e576040517f08c379a0000000000000000000000000000000000000000000000000000000008152600401610a7590611a65565b60405180910390fd5b86600260008773ffffffffffffffffffffffffffffffffffffffff1673ffffffffffffffffffffffffffffffffffffffff1681526020019081526020016000206000828254610acd9190611933565b925050819055507f000000000000000000000000000000000000000000000000000000000000000073ffffffffffffffffffffffffffffffffffffffff1663d0e30db0846040518263ffffffff1660e01b81526004016000604051808303818588803b158015610b3c57600080fd5b505af1158015610b50573d6000803e3d6000fd5b5050505050826000808b81526020019081526020016000208190555060405180608001604052803373ffffffffffffffffffffffffffffffffffffffff1681526020013481526020014281526020016000151581525060018b604051610bb69190611389565b908152602001604051809103902060008201518160000160006101000a81548173ffffffffffffffffffffffffffffffffffffffff021916908373ffffffffffffffffffffffffffffffffffffffff160217905550602082015181600101556040820151816002015560608201518160030160006101000a81548160ff0219169083151502179055509050507f000000000000000000000000000000000000000000000000000000000000000073ffffffffffffffffffffffffffffffffffffffff1663c1208b9d8b336040518363ffffffff1660e01b8152600401610c9d929190611788565b600060405180830381600087803b158015610cb757600080fd5b505af1158015610ccb573d6000803e3d6000fd5b505050507fe0903df489d90288745389e699f476635bf4b26eaabf03f19d342cc921c54f6c8a33604051610d00929190611788565b60405180910390a150505050505050505050565b7f000000000000000000000000000000000000000000000000000000000000000081565b6001818051602081018201805184825260208301602085012081835280955050505050506000915090508060000160009054906101000a900473ffffffffffffffffffffffffffffffffffffffff16908060010154908060020154908060030160009054906101000a900460ff16905084565b60008082604051602001610dbf9190611389565b60405160208183030381529060405280519060200120905060008082815260200190815260200160002054915050919050565b6000806000806000600186604051610e0a9190611389565b90815260200160405180910390206040518060800160405290816000820160009054906101000a900473ffffffffffffffffffffffffffffffffffffffff1673ffffffffffffffffffffffffffffffffffffffff1673ffffffffffffffffffffffffffffffffffffffff16815260200160018201548152602001600282015481526020016003820160009054906101000a900460ff161515151581525050905080600001518160200151826040015183606001519450945094509450509193509193565b7f000000000000000000000000000000000000000000000000000000000000000081565b6000604051905090565b600080fd5b600080fd5b600073ffffffffffffffffffffffffffffffffffffffff82169050919050565b6000610f3182610f06565b9050919050565b610f4181610f26565b8114610f4c57600080fd5b50565b600081359050610f5e81610f38565b92915050565b600060208284031215610f7a57610f79610efc565b5b6000610f8884828501610f4f565b91505092915050565b6000819050919050565b610fa481610f91565b82525050565b6000602082019050610fbf6000830184610f9b565b92915050565b6000819050919050565b610fd881610fc5565b8114610fe357600080fd5b50565b600081359050610ff581610fcf565b92915050565b60006020828403121561101157611010610efc565b5b600061101f84828501610fe6565b91505092915050565b6000819050919050565b600061104d61104861104384610f06565b611028565b610f06565b9050919050565b600061105f82611032565b9050919050565b600061107182611054565b9050919050565b61108181611066565b82525050565b600060208201905061109c6000830184611078565b92915050565b600080fd5b600080fd5b6000601f19601f8301169050919050565b7f4e487b7100000000000000000000000000000000000000000000000000000000600052604160045260246000fd5b6110f5826110ac565b810181811067ffffffffffffffff82111715611114576111136110bd565b5b80604052505050565b6000611127610ef2565b905061113382826110ec565b919050565b600067ffffffffffffffff821115611153576111526110bd565b5b61115c826110ac565b9050602081019050919050565b82818337600083830152505050565b600061118b61118684611138565b61111d565b9050828152602081018484840111156111a7576111a66110a7565b5b6111b2848285611169565b509392505050565b600082601f8301126111cf576111ce6110a2565b5b81356111df848260208601611178565b91505092915050565b6000602082840312156111fe576111fd610efc565b5b600082013567ffffffffffffffff81111561121c5761121b610f01565b5b611228848285016111ba565b91505092915050565b600061123c82611054565b9050919050565b61124c81611231565b82525050565b60006020820190506112676000830184611243565b92915050565b61127681610f26565b82525050565b60008115159050919050565b6112918161127c565b82525050565b60006080820190506112ac600083018761126d565b6112b96020830186610f9b565b6112c66040830185610f9b565b6112d36060830184611288565b95945050505050565b60006112e782611054565b9050919050565b6112f7816112dc565b82525050565b600060208201905061131260008301846112ee565b92915050565b600081519050919050565b600081905092915050565b60005b8381101561134c578082015181840152602081019050611331565b60008484015250505050565b600061136382611318565b61136d8185611323565b935061137d81856020860161132e565b80840191505092915050565b60006113958284611358565b915081905092915050565b600082825260208201905092915050565b60006113bc82611318565b6113c681856113a0565b93506113d681856020860161132e565b6113df816110ac565b840191505092915050565b6000602082019050818103600083015261140481846113b1565b905092915050565b600061141f61141a84611138565b61111d565b90508281526020810184848401111561143b5761143a6110a7565b5b61144684828561132e565b509392505050565b600082601f830112611463576114626110a2565b5b815161147384826020860161140c565b91505092915050565b61148581610f91565b811461149057600080fd5b50565b6000815190506114a28161147c565b92915050565b600060ff82169050919050565b6114be816114a8565b81146114c957600080fd5b50565b6000815190506114db816114b5565b92915050565b6000815190506114f081610f38565b92915050565b600080600080600080600060e0888a03121561151557611514610efc565b5b600088015167ffffffffffffffff81111561153357611532610f01565b5b61153f8a828b0161144e565b975050602088015167ffffffffffffffff8111156115605761155f610f01565b5b61156c8a828b0161144e565b965050604088015167ffffffffffffffff81111561158d5761158c610f01565b5b6115998a828b0161144e565b95505060606115aa8a828b01611493565b94505060806115bb8a828b016114cc565b93505060a06115cc8a828b016114e1565b92505060c06115dd8a828b016114e1565b91505092959891949750929550565b7f436172206e6f7420666f756e6400000000000000000000000000000000000000600082015250565b6000611622600d836113a0565b915061162d826115ec565b602082019050919050565b6000602082019050818103600083015261165181611615565b9050919050565b7f4e487b7100000000000000000000000000000000000000000000000000000000600052602160045260246000fd5b7f436172206973206e6f742063757272656e746c792072656e7465640000000000600082015250565b60006116bd601b836113a0565b91506116c882611687565b602082019050919050565b600060208201905081810360008301526116ec816116b0565b9050919050565b7f596f7520617265206e6f74207468652072656e74657200000000000000000000600082015250565b60006117296016836113a0565b9150611734826116f3565b602082019050919050565b600060208201905081810360008301526117588161171c565b9050919050565b6000604082019050611774600083018561126d565b6117816020830184610f9b565b9392505050565b600060408201905081810360008301526117a281856113b1565b90506117b1602083018461126d565b9392505050565b60006020820190506117cd600083018461126d565b92915050565b6117dc8161127c565b81146117e757600080fd5b50565b6000815190506117f9816117d3565b92915050565b60006020828403121561181557611814610efc565b5b6000611823848285016117ea565b91505092915050565b7f4b5943206e6f7420617070726f76656400000000000000000000000000000000600082015250565b60006118626010836113a0565b915061186d8261182c565b602082019050919050565b6000602082019050818103600083015261189181611855565b9050919050565b7f436172206973206e6f7420617661696c61626c65000000000000000000000000600082015250565b60006118ce6014836113a0565b91506118d982611898565b602082019050919050565b600060208201905081810360008301526118fd816118c1565b9050919050565b7f4e487b7100000000000000000000000000000000000000000000000000000000600052601160045260246000fd5b600061193e82610f91565b915061194983610f91565b925082820190508082111561196157611960611904565b5b92915050565b7f496e73756666696369656e74207061796d656e74000000000000000000000000600082015250565b600061199d6014836113a0565b91506119a882611967565b602082019050919050565b600060208201905081810360008301526119cc81611990565b9050919050565b600081905092915050565b50565b60006119ee6000836119d3565b91506119f9826119de565b600082019050919050565b6000611a0f826119e1565b9150819050919050565b7f5061796d656e7420746f206f776e6572206661696c6564000000000000000000600082015250565b6000611a4f6017836113a0565b9150611a5a82611a19565b602082019050919050565b60006020820190508181036000830152611a7e81611a42565b905091905056fea26469706673582212204473c9a829431fa45a6f4ed813f9e518691c01f163fe5a49b1f9a0ed7d87deaa64736f6c63430008140033",
  "linkReferences": {},
  "deployedLinkReferences": {}
}